{
	".learneth/Solidity ERC20 Token Course/6. Extensions/er20extensions.sol": {
		"EduCoin": {
			"abi": [
				{
					"inputs": [],
					"stateMutability": "nonpayable",
					"type": "constructor"
				},
				{
					"anonymous": false,
					"inputs": [
						{
							"indexed": true,
							"internalType": "address",
							"name": "owner",
							"type": "address"
						},
						{
							"indexed": true,
							"internalType": "address",
							"name": "spender",
							"type": "address"
						},
						{
							"indexed": false,
							"internalType": "uint256",
							"name": "value",
							"type": "uint256"
						}
					],
					"name": "Approval",
					"type": "event"
				},
				{
					"anonymous": false,
					"inputs": [
						{
							"indexed": true,
							"internalType": "address",
							"name": "previousOwner",
							"type": "address"
						},
						{
							"indexed": true,
							"internalType": "address",
							"name": "newOwner",
							"type": "address"
						}
					],
					"name": "OwnershipTransferred",
					"type": "event"
				},
				{
					"anonymous": false,
					"inputs": [
						{
							"indexed": false,
							"internalType": "address",
							"name": "account",
							"type": "address"
						}
					],
					"name": "Paused",
					"type": "event"
				},
				{
					"anonymous": false,
					"inputs": [
						{
							"indexed": true,
							"internalType": "address",
							"name": "from",
							"type": "address"
						},
						{
							"indexed": true,
							"internalType": "address",
							"name": "to",
							"type": "address"
						},
						{
							"indexed": false,
							"internalType": "uint256",
							"name": "value",
							"type": "uint256"
						}
					],
					"name": "Transfer",
					"type": "event"
				},
				{
					"anonymous": false,
					"inputs": [
						{
							"indexed": false,
							"internalType": "address",
							"name": "account",
							"type": "address"
						}
					],
					"name": "Unpaused",
					"type": "event"
				},
				{
					"inputs": [
						{
							"internalType": "address",
							"name": "owner",
							"type": "address"
						},
						{
							"internalType": "address",
							"name": "spender",
							"type": "address"
						}
					],
					"name": "allowance",
					"outputs": [
						{
							"internalType": "uint256",
							"name": "",
							"type": "uint256"
						}
					],
					"stateMutability": "view",
					"type": "function"
				},
				{
					"inputs": [
						{
							"internalType": "address",
							"name": "spender",
							"type": "address"
						},
						{
							"internalType": "uint256",
							"name": "amount",
							"type": "uint256"
						}
					],
					"name": "approve",
					"outputs": [
						{
							"internalType": "bool",
							"name": "",
							"type": "bool"
						}
					],
					"stateMutability": "nonpayable",
					"type": "function"
				},
				{
					"inputs": [
						{
							"internalType": "address",
							"name": "account",
							"type": "address"
						}
					],
					"name": "balanceOf",
					"outputs": [
						{
							"internalType": "uint256",
							"name": "",
							"type": "uint256"
						}
					],
					"stateMutability": "view",
					"type": "function"
				},
				{
					"inputs": [
						{
							"internalType": "uint256",
							"name": "amount",
							"type": "uint256"
						}
					],
					"name": "burn",
					"outputs": [],
					"stateMutability": "nonpayable",
					"type": "function"
				},
				{
					"inputs": [
						{
							"internalType": "address",
							"name": "account",
							"type": "address"
						},
						{
							"internalType": "uint256",
							"name": "amount",
							"type": "uint256"
						}
					],
					"name": "burnFrom",
					"outputs": [],
					"stateMutability": "nonpayable",
					"type": "function"
				},
				{
					"inputs": [],
					"name": "decimals",
					"outputs": [
						{
							"internalType": "uint8",
							"name": "",
							"type": "uint8"
						}
					],
					"stateMutability": "view",
					"type": "function"
				},
				{
					"inputs": [
						{
							"internalType": "address",
							"name": "spender",
							"type": "address"
						},
						{
							"internalType": "uint256",
							"name": "subtractedValue",
							"type": "uint256"
						}
					],
					"name": "decreaseAllowance",
					"outputs": [
						{
							"internalType": "bool",
							"name": "",
							"type": "bool"
						}
					],
					"stateMutability": "nonpayable",
					"type": "function"
				},
				{
					"inputs": [
						{
							"internalType": "address",
							"name": "spender",
							"type": "address"
						},
						{
							"internalType": "uint256",
							"name": "addedValue",
							"type": "uint256"
						}
					],
					"name": "increaseAllowance",
					"outputs": [
						{
							"internalType": "bool",
							"name": "",
							"type": "bool"
						}
					],
					"stateMutability": "nonpayable",
					"type": "function"
				},
				{
					"inputs": [
						{
							"internalType": "address",
							"name": "to",
							"type": "address"
						},
						{
							"internalType": "uint256",
							"name": "amount",
							"type": "uint256"
						}
					],
					"name": "mint",
					"outputs": [],
					"stateMutability": "nonpayable",
					"type": "function"
				},
				{
					"inputs": [],
					"name": "name",
					"outputs": [
						{
							"internalType": "string",
							"name": "",
							"type": "string"
						}
					],
					"stateMutability": "view",
					"type": "function"
				},
				{
					"inputs": [],
					"name": "owner",
					"outputs": [
						{
							"internalType": "address",
							"name": "",
							"type": "address"
						}
					],
					"stateMutability": "view",
					"type": "function"
				},
				{
					"inputs": [],
					"name": "pause",
					"outputs": [],
					"stateMutability": "nonpayable",
					"type": "function"
				},
				{
					"inputs": [],
					"name": "paused",
					"outputs": [
						{
							"internalType": "bool",
							"name": "",
							"type": "bool"
						}
					],
					"stateMutability": "view",
					"type": "function"
				},
				{
					"inputs": [],
					"name": "renounceOwnership",
					"outputs": [],
					"stateMutability": "nonpayable",
					"type": "function"
				},
				{
					"inputs": [],
					"name": "symbol",
					"outputs": [
						{
							"internalType": "string",
							"name": "",
							"type": "string"
						}
					],
					"stateMutability": "view",
					"type": "function"
				},
				{
					"inputs": [],
					"name": "totalSupply",
					"outputs": [
						{
							"internalType": "uint256",
							"name": "",
							"type": "uint256"
						}
					],
					"stateMutability": "view",
					"type": "function"
				},
				{
					"inputs": [
						{
							"internalType": "address",
							"name": "recipient",
							"type": "address"
						},
						{
							"internalType": "uint256",
							"name": "amount",
							"type": "uint256"
						}
					],
					"name": "transfer",
					"outputs": [
						{
							"internalType": "bool",
							"name": "",
							"type": "bool"
						}
					],
					"stateMutability": "nonpayable",
					"type": "function"
				},
				{
					"inputs": [
						{
							"internalType": "address",
							"name": "sender",
							"type": "address"
						},
						{
							"internalType": "address",
							"name": "recipient",
							"type": "address"
						},
						{
							"internalType": "uint256",
							"name": "amount",
							"type": "uint256"
						}
					],
					"name": "transferFrom",
					"outputs": [
						{
							"internalType": "bool",
							"name": "",
							"type": "bool"
						}
					],
					"stateMutability": "nonpayable",
					"type": "function"
				},
				{
					"inputs": [
						{
							"internalType": "address",
							"name": "newOwner",
							"type": "address"
						}
					],
					"name": "transferOwnership",
					"outputs": [],
					"stateMutability": "nonpayable",
					"type": "function"
				},
				{
					"inputs": [],
					"name": "unpause",
					"outputs": [],
					"stateMutability": "nonpayable",
					"type": "function"
				}
			],
			"devdoc": {
				"events": {
					"Approval(address,address,uint256)": {
						"details": "Emitted when the allowance of a `spender` for an `owner` is set by a call to {approve}. `value` is the new allowance."
					},
					"Paused(address)": {
						"details": "Emitted when the pause is triggered by `account`."
					},
					"Transfer(address,address,uint256)": {
						"details": "Emitted when `value` tokens are moved from one account (`from`) to another (`to`). Note that `value` may be zero."
					},
					"Unpaused(address)": {
						"details": "Emitted when the pause is lifted by `account`."
					}
				},
				"kind": "dev",
				"methods": {
					"allowance(address,address)": {
						"details": "See {IERC20-allowance}."
					},
					"approve(address,uint256)": {
						"details": "See {IERC20-approve}. Requirements: - `spender` cannot be the zero address."
					},
					"balanceOf(address)": {
						"details": "See {IERC20-balanceOf}."
					},
					"burn(uint256)": {
						"details": "Destroys `amount` tokens from the caller. See {ERC20-_burn}."
					},
					"burnFrom(address,uint256)": {
						"details": "Destroys `amount` tokens from `account`, deducting from the caller's allowance. See {ERC20-_burn} and {ERC20-allowance}. Requirements: - the caller must have allowance for ``accounts``'s tokens of at least `amount`."
					},
					"decimals()": {
						"details": "Returns the number of decimals used to get its user representation. For example, if `decimals` equals `2`, a balance of `505` tokens should be displayed to a user as `5.05` (`505 / 10 ** 2`). Tokens usually opt for a value of 18, imitating the relationship between Ether and Wei. This is the value {ERC20} uses, unless this function is overridden; NOTE: This information is only used for _display_ purposes: it in no way affects any of the arithmetic of the contract, including {IERC20-balanceOf} and {IERC20-transfer}."
					},
					"decreaseAllowance(address,uint256)": {
						"details": "Atomically decreases the allowance granted to `spender` by the caller. This is an alternative to {approve} that can be used as a mitigation for problems described in {IERC20-approve}. Emits an {Approval} event indicating the updated allowance. Requirements: - `spender` cannot be the zero address. - `spender` must have allowance for the caller of at least `subtractedValue`."
					},
					"increaseAllowance(address,uint256)": {
						"details": "Atomically increases the allowance granted to `spender` by the caller. This is an alternative to {approve} that can be used as a mitigation for problems described in {IERC20-approve}. Emits an {Approval} event indicating the updated allowance. Requirements: - `spender` cannot be the zero address."
					},
					"name()": {
						"details": "Returns the name of the token."
					},
					"owner()": {
						"details": "Returns the address of the current owner."
					},
					"paused()": {
						"details": "Returns true if the contract is paused, and false otherwise."
					},
					"renounceOwnership()": {
						"details": "Leaves the contract without owner. It will not be possible to call `onlyOwner` functions anymore. Can only be called by the current owner. NOTE: Renouncing ownership will leave the contract without an owner, thereby removing any functionality that is only available to the owner."
					},
					"symbol()": {
						"details": "Returns the symbol of the token, usually a shorter version of the name."
					},
					"totalSupply()": {
						"details": "See {IERC20-totalSupply}."
					},
					"transfer(address,uint256)": {
						"details": "See {IERC20-transfer}. Requirements: - `recipient` cannot be the zero address. - the caller must have a balance of at least `amount`."
					},
					"transferFrom(address,address,uint256)": {
						"details": "See {IERC20-transferFrom}. Emits an {Approval} event indicating the updated allowance. This is not required by the EIP. See the note at the beginning of {ERC20}. Requirements: - `sender` and `recipient` cannot be the zero address. - `sender` must have a balance of at least `amount`. - the caller must have allowance for ``sender``'s tokens of at least `amount`."
					},
					"transferOwnership(address)": {
						"details": "Transfers ownership of the contract to a new account (`newOwner`). Can only be called by the current owner."
					}
				},
				"version": 1
			},
			"evm": {
				"assembly": "    /* \".learneth/Solidity ERC20 Token Course/6. Extensions/er20extensions.sol\":322:919  contract EduCoin is ERC20, ERC20Burnable, Pausable, Ownable {... */\n  mstore(0x40, 0x80)\n    /* \".learneth/Solidity ERC20 Token Course/6. Extensions/er20extensions.sol\":388:485  constructor() ERC20(\"EduCoin\", \"EDC\") {... */\n  callvalue\n  dup1\n  iszero\n  tag_1\n  jumpi\n  0x00\n  dup1\n  revert\ntag_1:\n  pop\n    /* \"@openzeppelin/contracts@4.4.0/token/ERC20/ERC20.sol\":1963:2076  constructor(string memory name_, string memory symbol_) {... */\n  mload(0x40)\n  dup1\n  0x40\n  add\n  0x40\n  mstore\n  dup1\n  0x07\n  dup2\n  mstore\n  0x20\n  add\n  0x456475436f696e00000000000000000000000000000000000000000000000000\n  dup2\n  mstore\n  pop\n  mload(0x40)\n  dup1\n  0x40\n  add\n  0x40\n  mstore\n  dup1\n  0x03\n  dup2\n  mstore\n  0x20\n  add\n  0x4544430000000000000000000000000000000000000000000000000000000000\n  dup2\n  mstore\n  pop\n    /* \"@openzeppelin/contracts@4.4.0/token/ERC20/ERC20.sol\":2037:2042  name_ */\n  dup2\n    /* \"@openzeppelin/contracts@4.4.0/token/ERC20/ERC20.sol\":2029:2034  _name */\n  0x03\n    /* \"@openzeppelin/contracts@4.4.0/token/ERC20/ERC20.sol\":2029:2042  _name = name_ */\n  swap1\n  dup2\n  tag_7\n  swap2\n  swap1\n  tag_8\n  jump\t// in\ntag_7:\n  pop\n    /* \"@openzeppelin/contracts@4.4.0/token/ERC20/ERC20.sol\":2062:2069  symbol_ */\n  dup1\n    /* \"@openzeppelin/contracts@4.4.0/token/ERC20/ERC20.sol\":2052:2059  _symbol */\n  0x04\n    /* \"@openzeppelin/contracts@4.4.0/token/ERC20/ERC20.sol\":2052:2069  _symbol = symbol_ */\n  swap1\n  dup2\n  tag_9\n  swap2\n  swap1\n  tag_8\n  jump\t// in\ntag_9:\n  pop\n    /* \"@openzeppelin/contracts@4.4.0/token/ERC20/ERC20.sol\":1963:2076  constructor(string memory name_, string memory symbol_) {... */\n  pop\n  pop\n    /* \"@openzeppelin/contracts@4.4.0/security/Pausable.sol\":991:996  false */\n  0x00\n    /* \"@openzeppelin/contracts@4.4.0/security/Pausable.sol\":981:988  _paused */\n  0x05\n  0x00\n    /* \"@openzeppelin/contracts@4.4.0/security/Pausable.sol\":981:996  _paused = false */\n  0x0100\n  exp\n  dup2\n  sload\n  dup2\n  0xff\n  mul\n  not\n  and\n  swap1\n  dup4\n  iszero\n  iszero\n  mul\n  or\n  swap1\n  sstore\n  pop\n    /* \"@openzeppelin/contracts@4.4.0/access/Ownable.sol\":921:953  _transferOwnership(_msgSender()) */\n  tag_12\n    /* \"@openzeppelin/contracts@4.4.0/access/Ownable.sol\":940:952  _msgSender() */\n  tag_13\n    /* \"@openzeppelin/contracts@4.4.0/access/Ownable.sol\":940:950  _msgSender */\n  shl(0x20, tag_14)\n    /* \"@openzeppelin/contracts@4.4.0/access/Ownable.sol\":940:952  _msgSender() */\n  0x20\n  shr\n  jump\t// in\ntag_13:\n    /* \"@openzeppelin/contracts@4.4.0/access/Ownable.sol\":921:939  _transferOwnership */\n  shl(0x20, tag_15)\n    /* \"@openzeppelin/contracts@4.4.0/access/Ownable.sol\":921:953  _transferOwnership(_msgSender()) */\n  0x20\n  shr\n  jump\t// in\ntag_12:\n    /* \".learneth/Solidity ERC20 Token Course/6. Extensions/er20extensions.sol\":436:478  _mint(msg.sender, 1000 * 10 ** decimals()) */\n  tag_17\n    /* \".learneth/Solidity ERC20 Token Course/6. Extensions/er20extensions.sol\":442:452  msg.sender */\n  caller\n    /* \".learneth/Solidity ERC20 Token Course/6. Extensions/er20extensions.sol\":467:477  decimals() */\n  tag_18\n    /* \".learneth/Solidity ERC20 Token Course/6. Extensions/er20extensions.sol\":467:475  decimals */\n  shl(0x20, tag_19)\n    /* \".learneth/Solidity ERC20 Token Course/6. Extensions/er20extensions.sol\":467:477  decimals() */\n  0x20\n  shr\n  jump\t// in\ntag_18:\n    /* \".learneth/Solidity ERC20 Token Course/6. Extensions/er20extensions.sol\":461:463  10 */\n  0x0a\n    /* \".learneth/Solidity ERC20 Token Course/6. Extensions/er20extensions.sol\":461:477  10 ** decimals() */\n  tag_20\n  swap2\n  swap1\n  tag_21\n  jump\t// in\ntag_20:\n    /* \".learneth/Solidity ERC20 Token Course/6. Extensions/er20extensions.sol\":454:458  1000 */\n  0x03e8\n    /* \".learneth/Solidity ERC20 Token Course/6. Extensions/er20extensions.sol\":454:477  1000 * 10 ** decimals() */\n  tag_22\n  swap2\n  swap1\n  tag_23\n  jump\t// in\ntag_22:\n    /* \".learneth/Solidity ERC20 Token Course/6. Extensions/er20extensions.sol\":436:441  _mint */\n  shl(0x20, tag_24)\n    /* \".learneth/Solidity ERC20 Token Course/6. Extensions/er20extensions.sol\":436:478  _mint(msg.sender, 1000 * 10 ** decimals()) */\n  0x20\n  shr\n  jump\t// in\ntag_17:\n    /* \".learneth/Solidity ERC20 Token Course/6. Extensions/er20extensions.sol\":322:919  contract EduCoin is ERC20, ERC20Burnable, Pausable, Ownable {... */\n  jump(tag_25)\n    /* \"@openzeppelin/contracts@4.4.0/utils/Context.sol\":640:736  function _msgSender() internal view virtual returns (address) {... */\ntag_14:\n    /* \"@openzeppelin/contracts@4.4.0/utils/Context.sol\":693:700  address */\n  0x00\n    /* \"@openzeppelin/contracts@4.4.0/utils/Context.sol\":719:729  msg.sender */\n  caller\n    /* \"@openzeppelin/contracts@4.4.0/utils/Context.sol\":712:729  return msg.sender */\n  swap1\n  pop\n    /* \"@openzeppelin/contracts@4.4.0/utils/Context.sol\":640:736  function _msgSender() internal view virtual returns (address) {... */\n  swap1\n  jump\t// out\n    /* \"@openzeppelin/contracts@4.4.0/access/Ownable.sol\":2270:2457  function _transferOwnership(address newOwner) internal virtual {... */\ntag_15:\n    /* \"@openzeppelin/contracts@4.4.0/access/Ownable.sol\":2343:2359  address oldOwner */\n  0x00\n    /* \"@openzeppelin/contracts@4.4.0/access/Ownable.sol\":2362:2368  _owner */\n  0x05\n  0x01\n  swap1\n  sload\n  swap1\n  0x0100\n  exp\n  swap1\n  div\n  0xffffffffffffffffffffffffffffffffffffffff\n  and\n    /* \"@openzeppelin/contracts@4.4.0/access/Ownable.sol\":2343:2368  address oldOwner = _owner */\n  swap1\n  pop\n    /* \"@openzeppelin/contracts@4.4.0/access/Ownable.sol\":2387:2395  newOwner */\n  dup2\n    /* \"@openzeppelin/contracts@4.4.0/access/Ownable.sol\":2378:2384  _owner */\n  0x05\n  0x01\n    /* \"@openzeppelin/contracts@4.4.0/access/Ownable.sol\":2378:2395  _owner = newOwner */\n  0x0100\n  exp\n  dup2\n  sload\n  dup2\n  0xffffffffffffffffffffffffffffffffffffffff\n  mul\n  not\n  and\n  swap1\n  dup4\n  0xffffffffffffffffffffffffffffffffffffffff\n  and\n  mul\n  or\n  swap1\n  sstore\n  pop\n    /* \"@openzeppelin/contracts@4.4.0/access/Ownable.sol\":2441:2449  newOwner */\n  dup2\n    /* \"@openzeppelin/contracts@4.4.0/access/Ownable.sol\":2410:2450  OwnershipTransferred(oldOwner, newOwner) */\n  0xffffffffffffffffffffffffffffffffffffffff\n  and\n    /* \"@openzeppelin/contracts@4.4.0/access/Ownable.sol\":2431:2439  oldOwner */\n  dup2\n    /* \"@openzeppelin/contracts@4.4.0/access/Ownable.sol\":2410:2450  OwnershipTransferred(oldOwner, newOwner) */\n  0xffffffffffffffffffffffffffffffffffffffff\n  and\n  0x8be0079c531659141344cd1fd0a4f28419497f9722a3daafe3b4186f6b6457e0\n  mload(0x40)\n  mload(0x40)\n  dup1\n  swap2\n  sub\n  swap1\n  log3\n    /* \"@openzeppelin/contracts@4.4.0/access/Ownable.sol\":2333:2457  {... */\n  pop\n    /* \"@openzeppelin/contracts@4.4.0/access/Ownable.sol\":2270:2457  function _transferOwnership(address newOwner) internal virtual {... */\n  pop\n  jump\t// out\n    /* \"@openzeppelin/contracts@4.4.0/token/ERC20/ERC20.sol\":3078:3169  function decimals() public view virtual override returns (uint8) {... */\ntag_19:\n    /* \"@openzeppelin/contracts@4.4.0/token/ERC20/ERC20.sol\":3136:3141  uint8 */\n  0x00\n    /* \"@openzeppelin/contracts@4.4.0/token/ERC20/ERC20.sol\":3160:3162  18 */\n  0x12\n    /* \"@openzeppelin/contracts@4.4.0/token/ERC20/ERC20.sol\":3153:3162  return 18 */\n  swap1\n  pop\n    /* \"@openzeppelin/contracts@4.4.0/token/ERC20/ERC20.sol\":3078:3169  function decimals() public view virtual override returns (uint8) {... */\n  swap1\n  jump\t// out\n    /* \"@openzeppelin/contracts@4.4.0/token/ERC20/ERC20.sol\":8311:8700  function _mint(address account, uint256 amount) internal virtual {... */\ntag_24:\n    /* \"@openzeppelin/contracts@4.4.0/token/ERC20/ERC20.sol\":8413:8414  0 */\n  0x00\n    /* \"@openzeppelin/contracts@4.4.0/token/ERC20/ERC20.sol\":8394:8415  account != address(0) */\n  0xffffffffffffffffffffffffffffffffffffffff\n  and\n    /* \"@openzeppelin/contracts@4.4.0/token/ERC20/ERC20.sol\":8394:8401  account */\n  dup3\n    /* \"@openzeppelin/contracts@4.4.0/token/ERC20/ERC20.sol\":8394:8415  account != address(0) */\n  0xffffffffffffffffffffffffffffffffffffffff\n  and\n  sub\n    /* \"@openzeppelin/contracts@4.4.0/token/ERC20/ERC20.sol\":8386:8451  require(account != address(0), \"ERC20: mint to the zero address\") */\n  tag_30\n  jumpi\n  mload(0x40)\n  0x08c379a000000000000000000000000000000000000000000000000000000000\n  dup2\n  mstore\n  0x04\n  add\n  tag_31\n  swap1\n  tag_32\n  jump\t// in\ntag_31:\n  mload(0x40)\n  dup1\n  swap2\n  sub\n  swap1\n  revert\ntag_30:\n    /* \"@openzeppelin/contracts@4.4.0/token/ERC20/ERC20.sol\":8462:8511  _beforeTokenTransfer(address(0), account, amount) */\n  tag_33\n    /* \"@openzeppelin/contracts@4.4.0/token/ERC20/ERC20.sol\":8491:8492  0 */\n  0x00\n    /* \"@openzeppelin/contracts@4.4.0/token/ERC20/ERC20.sol\":8495:8502  account */\n  dup4\n    /* \"@openzeppelin/contracts@4.4.0/token/ERC20/ERC20.sol\":8504:8510  amount */\n  dup4\n    /* \"@openzeppelin/contracts@4.4.0/token/ERC20/ERC20.sol\":8462:8482  _beforeTokenTransfer */\n  shl(0x20, tag_34)\n    /* \"@openzeppelin/contracts@4.4.0/token/ERC20/ERC20.sol\":8462:8511  _beforeTokenTransfer(address(0), account, amount) */\n  0x20\n  shr\n  jump\t// in\ntag_33:\n    /* \"@openzeppelin/contracts@4.4.0/token/ERC20/ERC20.sol\":8538:8544  amount */\n  dup1\n    /* \"@openzeppelin/contracts@4.4.0/token/ERC20/ERC20.sol\":8522:8534  _totalSupply */\n  0x02\n  0x00\n    /* \"@openzeppelin/contracts@4.4.0/token/ERC20/ERC20.sol\":8522:8544  _totalSupply += amount */\n  dup3\n  dup3\n  sload\n  tag_35\n  swap2\n  swap1\n  tag_36\n  jump\t// in\ntag_35:\n  swap3\n  pop\n  pop\n  dup2\n  swap1\n  sstore\n  pop\n    /* \"@openzeppelin/contracts@4.4.0/token/ERC20/ERC20.sol\":8576:8582  amount */\n  dup1\n    /* \"@openzeppelin/contracts@4.4.0/token/ERC20/ERC20.sol\":8554:8563  _balances */\n  0x00\n    /* \"@openzeppelin/contracts@4.4.0/token/ERC20/ERC20.sol\":8554:8572  _balances[account] */\n  dup1\n    /* \"@openzeppelin/contracts@4.4.0/token/ERC20/ERC20.sol\":8564:8571  account */\n  dup5\n    /* \"@openzeppelin/contracts@4.4.0/token/ERC20/ERC20.sol\":8554:8572  _balances[account] */\n  0xffffffffffffffffffffffffffffffffffffffff\n  and\n  0xffffffffffffffffffffffffffffffffffffffff\n  and\n  dup2\n  mstore\n  0x20\n  add\n  swap1\n  dup2\n  mstore\n  0x20\n  add\n  0x00\n  keccak256\n  0x00\n    /* \"@openzeppelin/contracts@4.4.0/token/ERC20/ERC20.sol\":8554:8582  _balances[account] += amount */\n  dup3\n  dup3\n  sload\n  tag_37\n  swap2\n  swap1\n  tag_36\n  jump\t// in\ntag_37:\n  swap3\n  pop\n  pop\n  dup2\n  swap1\n  sstore\n  pop\n    /* \"@openzeppelin/contracts@4.4.0/token/ERC20/ERC20.sol\":8618:8625  account */\n  dup2\n    /* \"@openzeppelin/contracts@4.4.0/token/ERC20/ERC20.sol\":8597:8634  Transfer(address(0), account, amount) */\n  0xffffffffffffffffffffffffffffffffffffffff\n  and\n    /* \"@openzeppelin/contracts@4.4.0/token/ERC20/ERC20.sol\":8614:8615  0 */\n  0x00\n    /* \"@openzeppelin/contracts@4.4.0/token/ERC20/ERC20.sol\":8597:8634  Transfer(address(0), account, amount) */\n  0xffffffffffffffffffffffffffffffffffffffff\n  and\n  0xddf252ad1be2c89b69c2b068fc378daa952ba7f163c4a11628f55a4df523b3ef\n    /* \"@openzeppelin/contracts@4.4.0/token/ERC20/ERC20.sol\":8627:8633  amount */\n  dup4\n    /* \"@openzeppelin/contracts@4.4.0/token/ERC20/ERC20.sol\":8597:8634  Transfer(address(0), account, amount) */\n  mload(0x40)\n  tag_38\n  swap2\n  swap1\n  tag_39\n  jump\t// in\ntag_38:\n  mload(0x40)\n  dup1\n  swap2\n  sub\n  swap1\n  log3\n    /* \"@openzeppelin/contracts@4.4.0/token/ERC20/ERC20.sol\":8645:8693  _afterTokenTransfer(address(0), account, amount) */\n  tag_40\n    /* \"@openzeppelin/contracts@4.4.0/token/ERC20/ERC20.sol\":8673:8674  0 */\n  0x00\n    /* \"@openzeppelin/contracts@4.4.0/token/ERC20/ERC20.sol\":8677:8684  account */\n  dup4\n    /* \"@openzeppelin/contracts@4.4.0/token/ERC20/ERC20.sol\":8686:8692  amount */\n  dup4\n    /* \"@openzeppelin/contracts@4.4.0/token/ERC20/ERC20.sol\":8645:8664  _afterTokenTransfer */\n  shl(0x20, tag_41)\n    /* \"@openzeppelin/contracts@4.4.0/token/ERC20/ERC20.sol\":8645:8693  _afterTokenTransfer(address(0), account, amount) */\n  0x20\n  shr\n  jump\t// in\ntag_40:\n    /* \"@openzeppelin/contracts@4.4.0/token/ERC20/ERC20.sol\":8311:8700  function _mint(address account, uint256 amount) internal virtual {... */\n  pop\n  pop\n  jump\t// out\n    /* \".learneth/Solidity ERC20 Token Course/6. Extensions/er20extensions.sol\":724:917  function _beforeTokenTransfer(address from, address to, uint256 amount)... */\ntag_34:\n    /* \"@openzeppelin/contracts@4.4.0/security/Pausable.sol\":1412:1420  paused() */\n  tag_43\n    /* \"@openzeppelin/contracts@4.4.0/security/Pausable.sol\":1412:1418  paused */\n  shl(0x20, tag_44)\n    /* \"@openzeppelin/contracts@4.4.0/security/Pausable.sol\":1412:1420  paused() */\n  0x20\n  shr\n  jump\t// in\ntag_43:\n    /* \"@openzeppelin/contracts@4.4.0/security/Pausable.sol\":1411:1420  !paused() */\n  iszero\n    /* \"@openzeppelin/contracts@4.4.0/security/Pausable.sol\":1403:1441  require(!paused(), \"Pausable: paused\") */\n  tag_45\n  jumpi\n  mload(0x40)\n  0x08c379a000000000000000000000000000000000000000000000000000000000\n  dup2\n  mstore\n  0x04\n  add\n  tag_46\n  swap1\n  tag_47\n  jump\t// in\ntag_46:\n  mload(0x40)\n  dup1\n  swap2\n  sub\n  swap1\n  revert\ntag_45:\n    /* \".learneth/Solidity ERC20 Token Course/6. Extensions/er20extensions.sol\":866:910  super._beforeTokenTransfer(from, to, amount) */\n  tag_49\n    /* \".learneth/Solidity ERC20 Token Course/6. Extensions/er20extensions.sol\":893:897  from */\n  dup4\n    /* \".learneth/Solidity ERC20 Token Course/6. Extensions/er20extensions.sol\":899:901  to */\n  dup4\n    /* \".learneth/Solidity ERC20 Token Course/6. Extensions/er20extensions.sol\":903:909  amount */\n  dup4\n    /* \".learneth/Solidity ERC20 Token Course/6. Extensions/er20extensions.sol\":866:892  super._beforeTokenTransfer */\n  or(tag_0_100, shl(0x20, tag_50))\n    /* \".learneth/Solidity ERC20 Token Course/6. Extensions/er20extensions.sol\":866:910  super._beforeTokenTransfer(from, to, amount) */\n  0x20\n  shr\n  jump\t// in\ntag_49:\n    /* \".learneth/Solidity ERC20 Token Course/6. Extensions/er20extensions.sol\":724:917  function _beforeTokenTransfer(address from, address to, uint256 amount)... */\n  pop\n  pop\n  pop\n  jump\t// out\n    /* \"@openzeppelin/contracts@4.4.0/token/ERC20/ERC20.sol\":11682:11802  function _afterTokenTransfer(... */\ntag_41:\n  pop\n  pop\n  pop\n  jump\t// out\n    /* \"@openzeppelin/contracts@4.4.0/security/Pausable.sol\":1098:1182  function paused() public view virtual returns (bool) {... */\ntag_44:\n    /* \"@openzeppelin/contracts@4.4.0/security/Pausable.sol\":1145:1149  bool */\n  0x00\n    /* \"@openzeppelin/contracts@4.4.0/security/Pausable.sol\":1168:1175  _paused */\n  0x05\n  0x00\n  swap1\n  sload\n  swap1\n  0x0100\n  exp\n  swap1\n  div\n  0xff\n  and\n    /* \"@openzeppelin/contracts@4.4.0/security/Pausable.sol\":1161:1175  return _paused */\n  swap1\n  pop\n    /* \"@openzeppelin/contracts@4.4.0/security/Pausable.sol\":1098:1182  function paused() public view virtual returns (bool) {... */\n  swap1\n  jump\t// out\n    /* \"@openzeppelin/contracts@4.4.0/token/ERC20/ERC20.sol\":10973:11094  function _beforeTokenTransfer(... */\ntag_50:\n  pop\n  pop\n  pop\n  jump\t// out\n    /* \"#utility.yul\":7:106   */\ntag_54:\n    /* \"#utility.yul\":59:65   */\n  0x00\n    /* \"#utility.yul\":93:98   */\n  dup2\n    /* \"#utility.yul\":87:99   */\n  mload\n    /* \"#utility.yul\":77:99   */\n  swap1\n  pop\n    /* \"#utility.yul\":7:106   */\n  swap2\n  swap1\n  pop\n  jump\t// out\n    /* \"#utility.yul\":112:292   */\ntag_55:\n    /* \"#utility.yul\":160:237   */\n  0x4e487b7100000000000000000000000000000000000000000000000000000000\n    /* \"#utility.yul\":157:158   */\n  0x00\n    /* \"#utility.yul\":150:238   */\n  mstore\n    /* \"#utility.yul\":257:261   */\n  0x41\n    /* \"#utility.yul\":254:255   */\n  0x04\n    /* \"#utility.yul\":247:262   */\n  mstore\n    /* \"#utility.yul\":281:285   */\n  0x24\n    /* \"#utility.yul\":278:279   */\n  0x00\n    /* \"#utility.yul\":271:286   */\n  revert\n    /* \"#utility.yul\":298:478   */\ntag_56:\n    /* \"#utility.yul\":346:423   */\n  0x4e487b7100000000000000000000000000000000000000000000000000000000\n    /* \"#utility.yul\":343:344   */\n  0x00\n    /* \"#utility.yul\":336:424   */\n  mstore\n    /* \"#utility.yul\":443:447   */\n  0x22\n    /* \"#utility.yul\":440:441   */\n  0x04\n    /* \"#utility.yul\":433:448   */\n  mstore\n    /* \"#utility.yul\":467:471   */\n  0x24\n    /* \"#utility.yul\":464:465   */\n  0x00\n    /* \"#utility.yul\":457:472   */\n  revert\n    /* \"#utility.yul\":484:804   */\ntag_57:\n    /* \"#utility.yul\":528:534   */\n  0x00\n    /* \"#utility.yul\":565:566   */\n  0x02\n    /* \"#utility.yul\":559:563   */\n  dup3\n    /* \"#utility.yul\":555:567   */\n  div\n    /* \"#utility.yul\":545:567   */\n  swap1\n  pop\n    /* \"#utility.yul\":612:613   */\n  0x01\n    /* \"#utility.yul\":606:610   */\n  dup3\n    /* \"#utility.yul\":602:614   */\n  and\n    /* \"#utility.yul\":633:651   */\n  dup1\n    /* \"#utility.yul\":623:704   */\n  tag_90\n  jumpi\n    /* \"#utility.yul\":689:693   */\n  0x7f\n    /* \"#utility.yul\":681:687   */\n  dup3\n    /* \"#utility.yul\":677:694   */\n  and\n    /* \"#utility.yul\":667:694   */\n  swap2\n  pop\n    /* \"#utility.yul\":623:704   */\ntag_90:\n    /* \"#utility.yul\":751:753   */\n  0x20\n    /* \"#utility.yul\":743:749   */\n  dup3\n    /* \"#utility.yul\":740:754   */\n  lt\n    /* \"#utility.yul\":720:738   */\n  dup2\n    /* \"#utility.yul\":717:755   */\n  sub\n    /* \"#utility.yul\":714:798   */\n  tag_91\n  jumpi\n    /* \"#utility.yul\":770:788   */\n  tag_92\n  tag_56\n  jump\t// in\ntag_92:\n    /* \"#utility.yul\":714:798   */\ntag_91:\n    /* \"#utility.yul\":535:804   */\n  pop\n    /* \"#utility.yul\":484:804   */\n  swap2\n  swap1\n  pop\n  jump\t// out\n    /* \"#utility.yul\":810:951   */\ntag_58:\n    /* \"#utility.yul\":859:863   */\n  0x00\n    /* \"#utility.yul\":882:885   */\n  dup2\n    /* \"#utility.yul\":874:885   */\n  swap1\n  pop\n    /* \"#utility.yul\":905:908   */\n  dup2\n    /* \"#utility.yul\":902:903   */\n  0x00\n    /* \"#utility.yul\":895:909   */\n  mstore\n    /* \"#utility.yul\":939:943   */\n  0x20\n    /* \"#utility.yul\":936:937   */\n  0x00\n    /* \"#utility.yul\":926:944   */\n  keccak256\n    /* \"#utility.yul\":918:944   */\n  swap1\n  pop\n    /* \"#utility.yul\":810:951   */\n  swap2\n  swap1\n  pop\n  jump\t// out\n    /* \"#utility.yul\":957:1050   */\ntag_59:\n    /* \"#utility.yul\":994:1000   */\n  0x00\n    /* \"#utility.yul\":1041:1043   */\n  0x20\n    /* \"#utility.yul\":1036:1038   */\n  0x1f\n    /* \"#utility.yul\":1029:1034   */\n  dup4\n    /* \"#utility.yul\":1025:1039   */\n  add\n    /* \"#utility.yul\":1021:1044   */\n  div\n    /* \"#utility.yul\":1011:1044   */\n  swap1\n  pop\n    /* \"#utility.yul\":957:1050   */\n  swap2\n  swap1\n  pop\n  jump\t// out\n    /* \"#utility.yul\":1056:1163   */\ntag_60:\n    /* \"#utility.yul\":1100:1108   */\n  0x00\n    /* \"#utility.yul\":1150:1155   */\n  dup3\n    /* \"#utility.yul\":1144:1148   */\n  dup3\n    /* \"#utility.yul\":1140:1156   */\n  shl\n    /* \"#utility.yul\":1119:1156   */\n  swap1\n  pop\n    /* \"#utility.yul\":1056:1163   */\n  swap3\n  swap2\n  pop\n  pop\n  jump\t// out\n    /* \"#utility.yul\":1169:1562   */\ntag_61:\n    /* \"#utility.yul\":1238:1244   */\n  0x00\n    /* \"#utility.yul\":1288:1289   */\n  0x08\n    /* \"#utility.yul\":1276:1286   */\n  dup4\n    /* \"#utility.yul\":1272:1290   */\n  mul\n    /* \"#utility.yul\":1311:1408   */\n  tag_97\n    /* \"#utility.yul\":1341:1407   */\n  0xffffffffffffffffffffffffffffffffffffffffffffffffffffffffffffffff\n    /* \"#utility.yul\":1330:1339   */\n  dup3\n    /* \"#utility.yul\":1311:1408   */\n  tag_60\n  jump\t// in\ntag_97:\n    /* \"#utility.yul\":1429:1468   */\n  tag_98\n    /* \"#utility.yul\":1459:1467   */\n  dup7\n    /* \"#utility.yul\":1448:1457   */\n  dup4\n    /* \"#utility.yul\":1429:1468   */\n  tag_60\n  jump\t// in\ntag_98:\n    /* \"#utility.yul\":1417:1468   */\n  swap6\n  pop\n    /* \"#utility.yul\":1501:1505   */\n  dup1\n    /* \"#utility.yul\":1497:1506   */\n  not\n    /* \"#utility.yul\":1490:1495   */\n  dup5\n    /* \"#utility.yul\":1486:1507   */\n  and\n    /* \"#utility.yul\":1477:1507   */\n  swap4\n  pop\n    /* \"#utility.yul\":1550:1554   */\n  dup1\n    /* \"#utility.yul\":1540:1548   */\n  dup7\n    /* \"#utility.yul\":1536:1555   */\n  and\n    /* \"#utility.yul\":1529:1534   */\n  dup5\n    /* \"#utility.yul\":1526:1556   */\n  or\n    /* \"#utility.yul\":1516:1556   */\n  swap3\n  pop\n    /* \"#utility.yul\":1245:1562   */\n  pop\n  pop\n    /* \"#utility.yul\":1169:1562   */\n  swap4\n  swap3\n  pop\n  pop\n  pop\n  jump\t// out\n    /* \"#utility.yul\":1568:1645   */\ntag_62:\n    /* \"#utility.yul\":1605:1612   */\n  0x00\n    /* \"#utility.yul\":1634:1639   */\n  dup2\n    /* \"#utility.yul\":1623:1639   */\n  swap1\n  pop\n    /* \"#utility.yul\":1568:1645   */\n  swap2\n  swap1\n  pop\n  jump\t// out\n    /* \"#utility.yul\":1651:1711   */\ntag_63:\n    /* \"#utility.yul\":1679:1682   */\n  0x00\n    /* \"#utility.yul\":1700:1705   */\n  dup2\n    /* \"#utility.yul\":1693:1705   */\n  swap1\n  pop\n    /* \"#utility.yul\":1651:1711   */\n  swap2\n  swap1\n  pop\n  jump\t// out\n    /* \"#utility.yul\":1717:1859   */\ntag_64:\n    /* \"#utility.yul\":1767:1776   */\n  0x00\n    /* \"#utility.yul\":1800:1853   */\n  tag_102\n    /* \"#utility.yul\":1818:1852   */\n  tag_103\n    /* \"#utility.yul\":1827:1851   */\n  tag_104\n    /* \"#utility.yul\":1845:1850   */\n  dup5\n    /* \"#utility.yul\":1827:1851   */\n  tag_62\n  jump\t// in\ntag_104:\n    /* \"#utility.yul\":1818:1852   */\n  tag_63\n  jump\t// in\ntag_103:\n    /* \"#utility.yul\":1800:1853   */\n  tag_62\n  jump\t// in\ntag_102:\n    /* \"#utility.yul\":1787:1853   */\n  swap1\n  pop\n    /* \"#utility.yul\":1717:1859   */\n  swap2\n  swap1\n  pop\n  jump\t// out\n    /* \"#utility.yul\":1865:1940   */\ntag_65:\n    /* \"#utility.yul\":1908:1911   */\n  0x00\n    /* \"#utility.yul\":1929:1934   */\n  dup2\n    /* \"#utility.yul\":1922:1934   */\n  swap1\n  pop\n    /* \"#utility.yul\":1865:1940   */\n  swap2\n  swap1\n  pop\n  jump\t// out\n    /* \"#utility.yul\":1946:2215   */\ntag_66:\n    /* \"#utility.yul\":2056:2095   */\n  tag_107\n    /* \"#utility.yul\":2087:2094   */\n  dup4\n    /* \"#utility.yul\":2056:2095   */\n  tag_64\n  jump\t// in\ntag_107:\n    /* \"#utility.yul\":2117:2208   */\n  tag_108\n    /* \"#utility.yul\":2166:2207   */\n  tag_109\n    /* \"#utility.yul\":2190:2206   */\n  dup3\n    /* \"#utility.yul\":2166:2207   */\n  tag_65\n  jump\t// in\ntag_109:\n    /* \"#utility.yul\":2158:2164   */\n  dup5\n    /* \"#utility.yul\":2151:2155   */\n  dup5\n    /* \"#utility.yul\":2145:2156   */\n  sload\n    /* \"#utility.yul\":2117:2208   */\n  tag_61\n  jump\t// in\ntag_108:\n    /* \"#utility.yul\":2111:2115   */\n  dup3\n    /* \"#utility.yul\":2104:2209   */\n  sstore\n    /* \"#utility.yul\":2022:2215   */\n  pop\n    /* \"#utility.yul\":1946:2215   */\n  pop\n  pop\n  pop\n  jump\t// out\n    /* \"#utility.yul\":2221:2294   */\ntag_67:\n    /* \"#utility.yul\":2266:2269   */\n  0x00\n    /* \"#utility.yul\":2221:2294   */\n  swap1\n  jump\t// out\n    /* \"#utility.yul\":2300:2489   */\ntag_68:\n    /* \"#utility.yul\":2377:2409   */\n  tag_112\n  tag_67\n  jump\t// in\ntag_112:\n    /* \"#utility.yul\":2418:2483   */\n  tag_113\n    /* \"#utility.yul\":2476:2482   */\n  dup2\n    /* \"#utility.yul\":2468:2474   */\n  dup5\n    /* \"#utility.yul\":2462:2466   */\n  dup5\n    /* \"#utility.yul\":2418:2483   */\n  tag_66\n  jump\t// in\ntag_113:\n    /* \"#utility.yul\":2353:2489   */\n  pop\n    /* \"#utility.yul\":2300:2489   */\n  pop\n  pop\n  jump\t// out\n    /* \"#utility.yul\":2495:2681   */\ntag_69:\n    /* \"#utility.yul\":2555:2675   */\ntag_115:\n    /* \"#utility.yul\":2572:2575   */\n  dup2\n    /* \"#utility.yul\":2565:2570   */\n  dup2\n    /* \"#utility.yul\":2562:2576   */\n  lt\n    /* \"#utility.yul\":2555:2675   */\n  iszero\n  tag_117\n  jumpi\n    /* \"#utility.yul\":2626:2665   */\n  tag_118\n    /* \"#utility.yul\":2663:2664   */\n  0x00\n    /* \"#utility.yul\":2656:2661   */\n  dup3\n    /* \"#utility.yul\":2626:2665   */\n  tag_68\n  jump\t// in\ntag_118:\n    /* \"#utility.yul\":2599:2600   */\n  0x01\n    /* \"#utility.yul\":2592:2597   */\n  dup2\n    /* \"#utility.yul\":2588:2601   */\n  add\n    /* \"#utility.yul\":2579:2601   */\n  swap1\n  pop\n    /* \"#utility.yul\":2555:2675   */\n  jump(tag_115)\ntag_117:\n    /* \"#utility.yul\":2495:2681   */\n  pop\n  pop\n  jump\t// out\n    /* \"#utility.yul\":2687:3230   */\ntag_70:\n    /* \"#utility.yul\":2788:2790   */\n  0x1f\n    /* \"#utility.yul\":2783:2786   */\n  dup3\n    /* \"#utility.yul\":2780:2791   */\n  gt\n    /* \"#utility.yul\":2777:3223   */\n  iszero\n  tag_120\n  jumpi\n    /* \"#utility.yul\":2822:2860   */\n  tag_121\n    /* \"#utility.yul\":2854:2859   */\n  dup2\n    /* \"#utility.yul\":2822:2860   */\n  tag_58\n  jump\t// in\ntag_121:\n    /* \"#utility.yul\":2906:2935   */\n  tag_122\n    /* \"#utility.yul\":2924:2934   */\n  dup5\n    /* \"#utility.yul\":2906:2935   */\n  tag_59\n  jump\t// in\ntag_122:\n    /* \"#utility.yul\":2896:2904   */\n  dup2\n    /* \"#utility.yul\":2892:2936   */\n  add\n    /* \"#utility.yul\":3089:3091   */\n  0x20\n    /* \"#utility.yul\":3077:3087   */\n  dup6\n    /* \"#utility.yul\":3074:3092   */\n  lt\n    /* \"#utility.yul\":3071:3120   */\n  iszero\n  tag_123\n  jumpi\n    /* \"#utility.yul\":3110:3118   */\n  dup2\n    /* \"#utility.yul\":3095:3118   */\n  swap1\n  pop\n    /* \"#utility.yul\":3071:3120   */\ntag_123:\n    /* \"#utility.yul\":3133:3213   */\n  tag_124\n    /* \"#utility.yul\":3189:3211   */\n  tag_125\n    /* \"#utility.yul\":3207:3210   */\n  dup6\n    /* \"#utility.yul\":3189:3211   */\n  tag_59\n  jump\t// in\ntag_125:\n    /* \"#utility.yul\":3179:3187   */\n  dup4\n    /* \"#utility.yul\":3175:3212   */\n  add\n    /* \"#utility.yul\":3162:3173   */\n  dup3\n    /* \"#utility.yul\":3133:3213   */\n  tag_69\n  jump\t// in\ntag_124:\n    /* \"#utility.yul\":2792:3223   */\n  pop\n  pop\n    /* \"#utility.yul\":2777:3223   */\ntag_120:\n    /* \"#utility.yul\":2687:3230   */\n  pop\n  pop\n  pop\n  jump\t// out\n    /* \"#utility.yul\":3236:3353   */\ntag_71:\n    /* \"#utility.yul\":3290:3298   */\n  0x00\n    /* \"#utility.yul\":3340:3345   */\n  dup3\n    /* \"#utility.yul\":3334:3338   */\n  dup3\n    /* \"#utility.yul\":3330:3346   */\n  shr\n    /* \"#utility.yul\":3309:3346   */\n  swap1\n  pop\n    /* \"#utility.yul\":3236:3353   */\n  swap3\n  swap2\n  pop\n  pop\n  jump\t// out\n    /* \"#utility.yul\":3359:3528   */\ntag_72:\n    /* \"#utility.yul\":3403:3409   */\n  0x00\n    /* \"#utility.yul\":3436:3487   */\n  tag_128\n    /* \"#utility.yul\":3484:3485   */\n  0x00\n    /* \"#utility.yul\":3480:3486   */\n  not\n    /* \"#utility.yul\":3472:3477   */\n  dup5\n    /* \"#utility.yul\":3469:3470   */\n  0x08\n    /* \"#utility.yul\":3465:3478   */\n  mul\n    /* \"#utility.yul\":3436:3487   */\n  tag_71\n  jump\t// in\ntag_128:\n    /* \"#utility.yul\":3432:3488   */\n  not\n    /* \"#utility.yul\":3517:3521   */\n  dup1\n    /* \"#utility.yul\":3511:3515   */\n  dup4\n    /* \"#utility.yul\":3507:3522   */\n  and\n    /* \"#utility.yul\":3497:3522   */\n  swap2\n  pop\n    /* \"#utility.yul\":3410:3528   */\n  pop\n    /* \"#utility.yul\":3359:3528   */\n  swap3\n  swap2\n  pop\n  pop\n  jump\t// out\n    /* \"#utility.yul\":3533:3828   */\ntag_73:\n    /* \"#utility.yul\":3609:3613   */\n  0x00\n    /* \"#utility.yul\":3755:3784   */\n  tag_130\n    /* \"#utility.yul\":3780:3783   */\n  dup4\n    /* \"#utility.yul\":3774:3778   */\n  dup4\n    /* \"#utility.yul\":3755:3784   */\n  tag_72\n  jump\t// in\ntag_130:\n    /* \"#utility.yul\":3747:3784   */\n  swap2\n  pop\n    /* \"#utility.yul\":3817:3820   */\n  dup3\n    /* \"#utility.yul\":3814:3815   */\n  0x02\n    /* \"#utility.yul\":3810:3821   */\n  mul\n    /* \"#utility.yul\":3804:3808   */\n  dup3\n    /* \"#utility.yul\":3801:3822   */\n  or\n    /* \"#utility.yul\":3793:3822   */\n  swap1\n  pop\n    /* \"#utility.yul\":3533:3828   */\n  swap3\n  swap2\n  pop\n  pop\n  jump\t// out\n    /* \"#utility.yul\":3833:5228   */\ntag_8:\n    /* \"#utility.yul\":3950:3987   */\n  tag_132\n    /* \"#utility.yul\":3983:3986   */\n  dup3\n    /* \"#utility.yul\":3950:3987   */\n  tag_54\n  jump\t// in\ntag_132:\n    /* \"#utility.yul\":4052:4070   */\n  0xffffffffffffffff\n    /* \"#utility.yul\":4044:4050   */\n  dup2\n    /* \"#utility.yul\":4041:4071   */\n  gt\n    /* \"#utility.yul\":4038:4094   */\n  iszero\n  tag_133\n  jumpi\n    /* \"#utility.yul\":4074:4092   */\n  tag_134\n  tag_55\n  jump\t// in\ntag_134:\n    /* \"#utility.yul\":4038:4094   */\ntag_133:\n    /* \"#utility.yul\":4118:4156   */\n  tag_135\n    /* \"#utility.yul\":4150:4154   */\n  dup3\n    /* \"#utility.yul\":4144:4155   */\n  sload\n    /* \"#utility.yul\":4118:4156   */\n  tag_57\n  jump\t// in\ntag_135:\n    /* \"#utility.yul\":4203:4270   */\n  tag_136\n    /* \"#utility.yul\":4263:4269   */\n  dup3\n    /* \"#utility.yul\":4255:4261   */\n  dup3\n    /* \"#utility.yul\":4249:4253   */\n  dup6\n    /* \"#utility.yul\":4203:4270   */\n  tag_70\n  jump\t// in\ntag_136:\n    /* \"#utility.yul\":4297:4298   */\n  0x00\n    /* \"#utility.yul\":4321:4325   */\n  0x20\n    /* \"#utility.yul\":4308:4325   */\n  swap1\n  pop\n    /* \"#utility.yul\":4353:4355   */\n  0x1f\n    /* \"#utility.yul\":4345:4351   */\n  dup4\n    /* \"#utility.yul\":4342:4356   */\n  gt\n    /* \"#utility.yul\":4370:4371   */\n  0x01\n    /* \"#utility.yul\":4365:4983   */\n  dup2\n  eq\n  tag_138\n  jumpi\n    /* \"#utility.yul\":5027:5028   */\n  0x00\n    /* \"#utility.yul\":5044:5050   */\n  dup5\n    /* \"#utility.yul\":5041:5118   */\n  iszero\n  tag_139\n  jumpi\n    /* \"#utility.yul\":5093:5102   */\n  dup3\n    /* \"#utility.yul\":5088:5091   */\n  dup8\n    /* \"#utility.yul\":5084:5103   */\n  add\n    /* \"#utility.yul\":5078:5104   */\n  mload\n    /* \"#utility.yul\":5069:5104   */\n  swap1\n  pop\n    /* \"#utility.yul\":5041:5118   */\ntag_139:\n    /* \"#utility.yul\":5144:5211   */\n  tag_140\n    /* \"#utility.yul\":5204:5210   */\n  dup6\n    /* \"#utility.yul\":5197:5202   */\n  dup3\n    /* \"#utility.yul\":5144:5211   */\n  tag_73\n  jump\t// in\ntag_140:\n    /* \"#utility.yul\":5138:5142   */\n  dup7\n    /* \"#utility.yul\":5131:5212   */\n  sstore\n    /* \"#utility.yul\":5000:5222   */\n  pop\n    /* \"#utility.yul\":4335:5222   */\n  jump(tag_137)\n    /* \"#utility.yul\":4365:4983   */\ntag_138:\n    /* \"#utility.yul\":4417:4421   */\n  0x1f\n    /* \"#utility.yul\":4413:4422   */\n  not\n    /* \"#utility.yul\":4405:4411   */\n  dup5\n    /* \"#utility.yul\":4401:4423   */\n  and\n    /* \"#utility.yul\":4451:4488   */\n  tag_141\n    /* \"#utility.yul\":4483:4487   */\n  dup7\n    /* \"#utility.yul\":4451:4488   */\n  tag_58\n  jump\t// in\ntag_141:\n    /* \"#utility.yul\":4510:4511   */\n  0x00\n    /* \"#utility.yul\":4524:4732   */\ntag_142:\n    /* \"#utility.yul\":4538:4545   */\n  dup3\n    /* \"#utility.yul\":4535:4536   */\n  dup2\n    /* \"#utility.yul\":4532:4546   */\n  lt\n    /* \"#utility.yul\":4524:4732   */\n  iszero\n  tag_144\n  jumpi\n    /* \"#utility.yul\":4617:4626   */\n  dup5\n    /* \"#utility.yul\":4612:4615   */\n  dup10\n    /* \"#utility.yul\":4608:4627   */\n  add\n    /* \"#utility.yul\":4602:4628   */\n  mload\n    /* \"#utility.yul\":4594:4600   */\n  dup3\n    /* \"#utility.yul\":4587:4629   */\n  sstore\n    /* \"#utility.yul\":4668:4669   */\n  0x01\n    /* \"#utility.yul\":4660:4666   */\n  dup3\n    /* \"#utility.yul\":4656:4670   */\n  add\n    /* \"#utility.yul\":4646:4670   */\n  swap2\n  pop\n    /* \"#utility.yul\":4715:4717   */\n  0x20\n    /* \"#utility.yul\":4704:4713   */\n  dup6\n    /* \"#utility.yul\":4700:4718   */\n  add\n    /* \"#utility.yul\":4687:4718   */\n  swap5\n  pop\n    /* \"#utility.yul\":4561:4565   */\n  0x20\n    /* \"#utility.yul\":4558:4559   */\n  dup2\n    /* \"#utility.yul\":4554:4566   */\n  add\n    /* \"#utility.yul\":4549:4566   */\n  swap1\n  pop\n    /* \"#utility.yul\":4524:4732   */\n  jump(tag_142)\ntag_144:\n    /* \"#utility.yul\":4760:4766   */\n  dup7\n    /* \"#utility.yul\":4751:4758   */\n  dup4\n    /* \"#utility.yul\":4748:4767   */\n  lt\n    /* \"#utility.yul\":4745:4924   */\n  iszero\n  tag_145\n  jumpi\n    /* \"#utility.yul\":4818:4827   */\n  dup5\n    /* \"#utility.yul\":4813:4816   */\n  dup10\n    /* \"#utility.yul\":4809:4828   */\n  add\n    /* \"#utility.yul\":4803:4829   */\n  mload\n    /* \"#utility.yul\":4861:4909   */\n  tag_146\n    /* \"#utility.yul\":4903:4907   */\n  0x1f\n    /* \"#utility.yul\":4895:4901   */\n  dup10\n    /* \"#utility.yul\":4891:4908   */\n  and\n    /* \"#utility.yul\":4880:4889   */\n  dup3\n    /* \"#utility.yul\":4861:4909   */\n  tag_72\n  jump\t// in\ntag_146:\n    /* \"#utility.yul\":4853:4859   */\n  dup4\n    /* \"#utility.yul\":4846:4910   */\n  sstore\n    /* \"#utility.yul\":4768:4924   */\n  pop\n    /* \"#utility.yul\":4745:4924   */\ntag_145:\n    /* \"#utility.yul\":4970:4971   */\n  0x01\n    /* \"#utility.yul\":4966:4967   */\n  0x02\n    /* \"#utility.yul\":4958:4964   */\n  dup9\n    /* \"#utility.yul\":4954:4968   */\n  mul\n    /* \"#utility.yul\":4950:4972   */\n  add\n    /* \"#utility.yul\":4944:4948   */\n  dup9\n    /* \"#utility.yul\":4937:4973   */\n  sstore\n    /* \"#utility.yul\":4372:4983   */\n  pop\n  pop\n  pop\n    /* \"#utility.yul\":4335:5222   */\ntag_137:\n  pop\n    /* \"#utility.yul\":3925:5228   */\n  pop\n  pop\n  pop\n    /* \"#utility.yul\":3833:5228   */\n  pop\n  pop\n  jump\t// out\n    /* \"#utility.yul\":5234:5414   */\ntag_74:\n    /* \"#utility.yul\":5282:5359   */\n  0x4e487b7100000000000000000000000000000000000000000000000000000000\n    /* \"#utility.yul\":5279:5280   */\n  0x00\n    /* \"#utility.yul\":5272:5360   */\n  mstore\n    /* \"#utility.yul\":5379:5383   */\n  0x11\n    /* \"#utility.yul\":5376:5377   */\n  0x04\n    /* \"#utility.yul\":5369:5384   */\n  mstore\n    /* \"#utility.yul\":5403:5407   */\n  0x24\n    /* \"#utility.yul\":5400:5401   */\n  0x00\n    /* \"#utility.yul\":5393:5408   */\n  revert\n    /* \"#utility.yul\":5420:5522   */\ntag_75:\n    /* \"#utility.yul\":5462:5470   */\n  0x00\n    /* \"#utility.yul\":5509:5514   */\n  dup2\n    /* \"#utility.yul\":5506:5507   */\n  0x01\n    /* \"#utility.yul\":5502:5515   */\n  shr\n    /* \"#utility.yul\":5481:5515   */\n  swap1\n  pop\n    /* \"#utility.yul\":5420:5522   */\n  swap2\n  swap1\n  pop\n  jump\t// out\n    /* \"#utility.yul\":5528:6376   */\ntag_76:\n    /* \"#utility.yul\":5589:5594   */\n  0x00\n    /* \"#utility.yul\":5596:5600   */\n  dup1\n    /* \"#utility.yul\":5620:5626   */\n  dup3\n    /* \"#utility.yul\":5611:5626   */\n  swap2\n  pop\n    /* \"#utility.yul\":5644:5649   */\n  dup4\n    /* \"#utility.yul\":5635:5649   */\n  swap1\n  pop\n    /* \"#utility.yul\":5658:6370   */\ntag_150:\n    /* \"#utility.yul\":5679:5680   */\n  0x01\n    /* \"#utility.yul\":5669:5677   */\n  dup6\n    /* \"#utility.yul\":5666:5681   */\n  gt\n    /* \"#utility.yul\":5658:6370   */\n  iszero\n  tag_152\n  jumpi\n    /* \"#utility.yul\":5774:5778   */\n  dup1\n    /* \"#utility.yul\":5769:5772   */\n  dup7\n    /* \"#utility.yul\":5765:5779   */\n  div\n    /* \"#utility.yul\":5759:5763   */\n  dup2\n    /* \"#utility.yul\":5756:5780   */\n  gt\n    /* \"#utility.yul\":5753:5803   */\n  iszero\n  tag_153\n  jumpi\n    /* \"#utility.yul\":5783:5801   */\n  tag_154\n  tag_74\n  jump\t// in\ntag_154:\n    /* \"#utility.yul\":5753:5803   */\ntag_153:\n    /* \"#utility.yul\":5833:5834   */\n  0x01\n    /* \"#utility.yul\":5823:5831   */\n  dup6\n    /* \"#utility.yul\":5819:5835   */\n  and\n    /* \"#utility.yul\":5816:6267   */\n  iszero\n  tag_155\n  jumpi\n    /* \"#utility.yul\":6248:6252   */\n  dup1\n    /* \"#utility.yul\":6241:6246   */\n  dup3\n    /* \"#utility.yul\":6237:6253   */\n  mul\n    /* \"#utility.yul\":6228:6253   */\n  swap2\n  pop\n    /* \"#utility.yul\":5816:6267   */\ntag_155:\n    /* \"#utility.yul\":6298:6302   */\n  dup1\n    /* \"#utility.yul\":6292:6296   */\n  dup2\n    /* \"#utility.yul\":6288:6303   */\n  mul\n    /* \"#utility.yul\":6280:6303   */\n  swap1\n  pop\n    /* \"#utility.yul\":6328:6360   */\n  tag_156\n    /* \"#utility.yul\":6351:6359   */\n  dup6\n    /* \"#utility.yul\":6328:6360   */\n  tag_75\n  jump\t// in\ntag_156:\n    /* \"#utility.yul\":6316:6360   */\n  swap5\n  pop\n    /* \"#utility.yul\":5658:6370   */\n  jump(tag_150)\ntag_152:\n    /* \"#utility.yul\":5528:6376   */\n  swap5\n  pop\n  swap5\n  swap3\n  pop\n  pop\n  pop\n  jump\t// out\n    /* \"#utility.yul\":6382:7455   */\ntag_77:\n    /* \"#utility.yul\":6436:6441   */\n  0x00\n    /* \"#utility.yul\":6627:6635   */\n  dup3\n    /* \"#utility.yul\":6617:6657   */\n  tag_158\n  jumpi\n    /* \"#utility.yul\":6648:6649   */\n  0x01\n    /* \"#utility.yul\":6639:6649   */\n  swap1\n  pop\n    /* \"#utility.yul\":6650:6655   */\n  jump(tag_157)\n    /* \"#utility.yul\":6617:6657   */\ntag_158:\n    /* \"#utility.yul\":6676:6680   */\n  dup2\n    /* \"#utility.yul\":6666:6702   */\n  tag_159\n  jumpi\n    /* \"#utility.yul\":6693:6694   */\n  0x00\n    /* \"#utility.yul\":6684:6694   */\n  swap1\n  pop\n    /* \"#utility.yul\":6695:6700   */\n  jump(tag_157)\n    /* \"#utility.yul\":6666:6702   */\ntag_159:\n    /* \"#utility.yul\":6762:6766   */\n  dup2\n    /* \"#utility.yul\":6810:6811   */\n  0x01\n    /* \"#utility.yul\":6805:6832   */\n  dup2\n  eq\n  tag_161\n  jumpi\n    /* \"#utility.yul\":6846:6847   */\n  0x02\n    /* \"#utility.yul\":6841:7032   */\n  dup2\n  eq\n  tag_162\n  jumpi\n    /* \"#utility.yul\":6755:7032   */\n  jump(tag_160)\n    /* \"#utility.yul\":6805:6832   */\ntag_161:\n    /* \"#utility.yul\":6823:6824   */\n  0x01\n    /* \"#utility.yul\":6814:6824   */\n  swap2\n  pop\n    /* \"#utility.yul\":6825:6830   */\n  pop\n  jump(tag_157)\n    /* \"#utility.yul\":6841:7032   */\ntag_162:\n    /* \"#utility.yul\":6886:6889   */\n  0xff\n    /* \"#utility.yul\":6876:6884   */\n  dup5\n    /* \"#utility.yul\":6873:6890   */\n  gt\n    /* \"#utility.yul\":6870:6913   */\n  iszero\n  tag_163\n  jumpi\n    /* \"#utility.yul\":6893:6911   */\n  tag_164\n  tag_74\n  jump\t// in\ntag_164:\n    /* \"#utility.yul\":6870:6913   */\ntag_163:\n    /* \"#utility.yul\":6942:6950   */\n  dup4\n    /* \"#utility.yul\":6939:6940   */\n  0x02\n    /* \"#utility.yul\":6935:6951   */\n  exp\n    /* \"#utility.yul\":6926:6951   */\n  swap2\n  pop\n    /* \"#utility.yul\":6977:6980   */\n  dup5\n    /* \"#utility.yul\":6970:6975   */\n  dup3\n    /* \"#utility.yul\":6967:6981   */\n  gt\n    /* \"#utility.yul\":6964:7004   */\n  iszero\n  tag_165\n  jumpi\n    /* \"#utility.yul\":6984:7002   */\n  tag_166\n  tag_74\n  jump\t// in\ntag_166:\n    /* \"#utility.yul\":6964:7004   */\ntag_165:\n    /* \"#utility.yul\":7017:7022   */\n  pop\n  jump(tag_157)\n    /* \"#utility.yul\":6755:7032   */\ntag_160:\n  pop\n    /* \"#utility.yul\":7141:7143   */\n  0x20\n    /* \"#utility.yul\":7131:7139   */\n  dup4\n    /* \"#utility.yul\":7128:7144   */\n  lt\n    /* \"#utility.yul\":7122:7125   */\n  0x0133\n    /* \"#utility.yul\":7116:7120   */\n  dup4\n    /* \"#utility.yul\":7113:7126   */\n  lt\n    /* \"#utility.yul\":7109:7145   */\n  and\n    /* \"#utility.yul\":7091:7093   */\n  0x4e\n    /* \"#utility.yul\":7081:7089   */\n  dup5\n    /* \"#utility.yul\":7078:7094   */\n  lt\n    /* \"#utility.yul\":7073:7075   */\n  0x0b\n    /* \"#utility.yul\":7067:7071   */\n  dup5\n    /* \"#utility.yul\":7064:7076   */\n  lt\n    /* \"#utility.yul\":7060:7095   */\n  and\n    /* \"#utility.yul\":7044:7155   */\n  or\n    /* \"#utility.yul\":7041:7287   */\n  iszero\n  tag_167\n  jumpi\n    /* \"#utility.yul\":7197:7205   */\n  dup3\n    /* \"#utility.yul\":7191:7195   */\n  dup3\n    /* \"#utility.yul\":7187:7206   */\n  exp\n    /* \"#utility.yul\":7178:7206   */\n  swap1\n  pop\n    /* \"#utility.yul\":7232:7235   */\n  dup4\n    /* \"#utility.yul\":7225:7230   */\n  dup2\n    /* \"#utility.yul\":7222:7236   */\n  gt\n    /* \"#utility.yul\":7219:7259   */\n  iszero\n  tag_168\n  jumpi\n    /* \"#utility.yul\":7239:7257   */\n  tag_169\n  tag_74\n  jump\t// in\ntag_169:\n    /* \"#utility.yul\":7219:7259   */\ntag_168:\n    /* \"#utility.yul\":7272:7277   */\n  jump(tag_157)\n    /* \"#utility.yul\":7041:7287   */\ntag_167:\n    /* \"#utility.yul\":7312:7354   */\n  tag_170\n    /* \"#utility.yul\":7350:7353   */\n  dup5\n    /* \"#utility.yul\":7340:7348   */\n  dup5\n    /* \"#utility.yul\":7334:7338   */\n  dup5\n    /* \"#utility.yul\":7331:7332   */\n  0x01\n    /* \"#utility.yul\":7312:7354   */\n  tag_76\n  jump\t// in\ntag_170:\n    /* \"#utility.yul\":7297:7354   */\n  swap3\n  pop\n  swap1\n  pop\n    /* \"#utility.yul\":7386:7390   */\n  dup2\n    /* \"#utility.yul\":7381:7384   */\n  dup5\n    /* \"#utility.yul\":7377:7391   */\n  div\n    /* \"#utility.yul\":7370:7375   */\n  dup2\n    /* \"#utility.yul\":7367:7392   */\n  gt\n    /* \"#utility.yul\":7364:7415   */\n  iszero\n  tag_171\n  jumpi\n    /* \"#utility.yul\":7395:7413   */\n  tag_172\n  tag_74\n  jump\t// in\ntag_172:\n    /* \"#utility.yul\":7364:7415   */\ntag_171:\n    /* \"#utility.yul\":7444:7448   */\n  dup2\n    /* \"#utility.yul\":7437:7442   */\n  dup2\n    /* \"#utility.yul\":7433:7449   */\n  mul\n    /* \"#utility.yul\":7424:7449   */\n  swap1\n  pop\n    /* \"#utility.yul\":6382:7455   */\ntag_157:\n  swap4\n  swap3\n  pop\n  pop\n  pop\n  jump\t// out\n    /* \"#utility.yul\":7461:7547   */\ntag_78:\n    /* \"#utility.yul\":7496:7503   */\n  0x00\n    /* \"#utility.yul\":7536:7540   */\n  0xff\n    /* \"#utility.yul\":7529:7534   */\n  dup3\n    /* \"#utility.yul\":7525:7541   */\n  and\n    /* \"#utility.yul\":7514:7541   */\n  swap1\n  pop\n    /* \"#utility.yul\":7461:7547   */\n  swap2\n  swap1\n  pop\n  jump\t// out\n    /* \"#utility.yul\":7553:7834   */\ntag_21:\n    /* \"#utility.yul\":7611:7616   */\n  0x00\n    /* \"#utility.yul\":7635:7658   */\n  tag_175\n    /* \"#utility.yul\":7653:7657   */\n  dup3\n    /* \"#utility.yul\":7635:7658   */\n  tag_62\n  jump\t// in\ntag_175:\n    /* \"#utility.yul\":7627:7658   */\n  swap2\n  pop\n    /* \"#utility.yul\":7679:7704   */\n  tag_176\n    /* \"#utility.yul\":7695:7703   */\n  dup4\n    /* \"#utility.yul\":7679:7704   */\n  tag_78\n  jump\t// in\ntag_176:\n    /* \"#utility.yul\":7667:7704   */\n  swap3\n  pop\n    /* \"#utility.yul\":7723:7827   */\n  tag_177\n    /* \"#utility.yul\":7760:7826   */\n  0xffffffffffffffffffffffffffffffffffffffffffffffffffffffffffffffff\n    /* \"#utility.yul\":7750:7758   */\n  dup5\n    /* \"#utility.yul\":7744:7748   */\n  dup5\n    /* \"#utility.yul\":7723:7827   */\n  tag_77\n  jump\t// in\ntag_177:\n    /* \"#utility.yul\":7714:7827   */\n  swap1\n  pop\n    /* \"#utility.yul\":7553:7834   */\n  swap3\n  swap2\n  pop\n  pop\n  jump\t// out\n    /* \"#utility.yul\":7840:8250   */\ntag_23:\n    /* \"#utility.yul\":7880:7887   */\n  0x00\n    /* \"#utility.yul\":7903:7923   */\n  tag_179\n    /* \"#utility.yul\":7921:7922   */\n  dup3\n    /* \"#utility.yul\":7903:7923   */\n  tag_62\n  jump\t// in\ntag_179:\n    /* \"#utility.yul\":7898:7923   */\n  swap2\n  pop\n    /* \"#utility.yul\":7937:7957   */\n  tag_180\n    /* \"#utility.yul\":7955:7956   */\n  dup4\n    /* \"#utility.yul\":7937:7957   */\n  tag_62\n  jump\t// in\ntag_180:\n    /* \"#utility.yul\":7932:7957   */\n  swap3\n  pop\n    /* \"#utility.yul\":7992:7993   */\n  dup3\n    /* \"#utility.yul\":7989:7990   */\n  dup3\n    /* \"#utility.yul\":7985:7994   */\n  mul\n    /* \"#utility.yul\":8014:8044   */\n  tag_181\n    /* \"#utility.yul\":8032:8043   */\n  dup2\n    /* \"#utility.yul\":8014:8044   */\n  tag_62\n  jump\t// in\ntag_181:\n    /* \"#utility.yul\":8003:8044   */\n  swap2\n  pop\n    /* \"#utility.yul\":8193:8194   */\n  dup3\n    /* \"#utility.yul\":8184:8191   */\n  dup3\n    /* \"#utility.yul\":8180:8195   */\n  div\n    /* \"#utility.yul\":8177:8178   */\n  dup5\n    /* \"#utility.yul\":8174:8196   */\n  eq\n    /* \"#utility.yul\":8154:8155   */\n  dup4\n    /* \"#utility.yul\":8147:8156   */\n  iszero\n    /* \"#utility.yul\":8127:8210   */\n  or\n    /* \"#utility.yul\":8104:8243   */\n  tag_182\n  jumpi\n    /* \"#utility.yul\":8223:8241   */\n  tag_183\n  tag_74\n  jump\t// in\ntag_183:\n    /* \"#utility.yul\":8104:8243   */\ntag_182:\n    /* \"#utility.yul\":7888:8250   */\n  pop\n    /* \"#utility.yul\":7840:8250   */\n  swap3\n  swap2\n  pop\n  pop\n  jump\t// out\n    /* \"#utility.yul\":8256:8425   */\ntag_79:\n    /* \"#utility.yul\":8340:8351   */\n  0x00\n    /* \"#utility.yul\":8374:8380   */\n  dup3\n    /* \"#utility.yul\":8369:8372   */\n  dup3\n    /* \"#utility.yul\":8362:8381   */\n  mstore\n    /* \"#utility.yul\":8414:8418   */\n  0x20\n    /* \"#utility.yul\":8409:8412   */\n  dup3\n    /* \"#utility.yul\":8405:8419   */\n  add\n    /* \"#utility.yul\":8390:8419   */\n  swap1\n  pop\n    /* \"#utility.yul\":8256:8425   */\n  swap3\n  swap2\n  pop\n  pop\n  jump\t// out\n    /* \"#utility.yul\":8431:8612   */\ntag_80:\n    /* \"#utility.yul\":8571:8604   */\n  0x45524332303a206d696e7420746f20746865207a65726f206164647265737300\n    /* \"#utility.yul\":8567:8568   */\n  0x00\n    /* \"#utility.yul\":8559:8565   */\n  dup3\n    /* \"#utility.yul\":8555:8569   */\n  add\n    /* \"#utility.yul\":8548:8605   */\n  mstore\n    /* \"#utility.yul\":8431:8612   */\n  pop\n  jump\t// out\n    /* \"#utility.yul\":8618:8984   */\ntag_81:\n    /* \"#utility.yul\":8760:8763   */\n  0x00\n    /* \"#utility.yul\":8781:8848   */\n  tag_187\n    /* \"#utility.yul\":8845:8847   */\n  0x1f\n    /* \"#utility.yul\":8840:8843   */\n  dup4\n    /* \"#utility.yul\":8781:8848   */\n  tag_79\n  jump\t// in\ntag_187:\n    /* \"#utility.yul\":8774:8848   */\n  swap2\n  pop\n    /* \"#utility.yul\":8857:8950   */\n  tag_188\n    /* \"#utility.yul\":8946:8949   */\n  dup3\n    /* \"#utility.yul\":8857:8950   */\n  tag_80\n  jump\t// in\ntag_188:\n    /* \"#utility.yul\":8975:8977   */\n  0x20\n    /* \"#utility.yul\":8970:8973   */\n  dup3\n    /* \"#utility.yul\":8966:8978   */\n  add\n    /* \"#utility.yul\":8959:8978   */\n  swap1\n  pop\n    /* \"#utility.yul\":8618:8984   */\n  swap2\n  swap1\n  pop\n  jump\t// out\n    /* \"#utility.yul\":8990:9409   */\ntag_32:\n    /* \"#utility.yul\":9156:9160   */\n  0x00\n    /* \"#utility.yul\":9194:9196   */\n  0x20\n    /* \"#utility.yul\":9183:9192   */\n  dup3\n    /* \"#utility.yul\":9179:9197   */\n  add\n    /* \"#utility.yul\":9171:9197   */\n  swap1\n  pop\n    /* \"#utility.yul\":9243:9252   */\n  dup2\n    /* \"#utility.yul\":9237:9241   */\n  dup2\n    /* \"#utility.yul\":9233:9253   */\n  sub\n    /* \"#utility.yul\":9229:9230   */\n  0x00\n    /* \"#utility.yul\":9218:9227   */\n  dup4\n    /* \"#utility.yul\":9214:9231   */\n  add\n    /* \"#utility.yul\":9207:9254   */\n  mstore\n    /* \"#utility.yul\":9271:9402   */\n  tag_190\n    /* \"#utility.yul\":9397:9401   */\n  dup2\n    /* \"#utility.yul\":9271:9402   */\n  tag_81\n  jump\t// in\ntag_190:\n    /* \"#utility.yul\":9263:9402   */\n  swap1\n  pop\n    /* \"#utility.yul\":8990:9409   */\n  swap2\n  swap1\n  pop\n  jump\t// out\n    /* \"#utility.yul\":9415:9606   */\ntag_36:\n    /* \"#utility.yul\":9455:9458   */\n  0x00\n    /* \"#utility.yul\":9474:9494   */\n  tag_192\n    /* \"#utility.yul\":9492:9493   */\n  dup3\n    /* \"#utility.yul\":9474:9494   */\n  tag_62\n  jump\t// in\ntag_192:\n    /* \"#utility.yul\":9469:9494   */\n  swap2\n  pop\n    /* \"#utility.yul\":9508:9528   */\n  tag_193\n    /* \"#utility.yul\":9526:9527   */\n  dup4\n    /* \"#utility.yul\":9508:9528   */\n  tag_62\n  jump\t// in\ntag_193:\n    /* \"#utility.yul\":9503:9528   */\n  swap3\n  pop\n    /* \"#utility.yul\":9551:9552   */\n  dup3\n    /* \"#utility.yul\":9548:9549   */\n  dup3\n    /* \"#utility.yul\":9544:9553   */\n  add\n    /* \"#utility.yul\":9537:9553   */\n  swap1\n  pop\n    /* \"#utility.yul\":9572:9575   */\n  dup1\n    /* \"#utility.yul\":9569:9570   */\n  dup3\n    /* \"#utility.yul\":9566:9576   */\n  gt\n    /* \"#utility.yul\":9563:9599   */\n  iszero\n  tag_194\n  jumpi\n    /* \"#utility.yul\":9579:9597   */\n  tag_195\n  tag_74\n  jump\t// in\ntag_195:\n    /* \"#utility.yul\":9563:9599   */\ntag_194:\n    /* \"#utility.yul\":9415:9606   */\n  swap3\n  swap2\n  pop\n  pop\n  jump\t// out\n    /* \"#utility.yul\":9612:9730   */\ntag_82:\n    /* \"#utility.yul\":9699:9723   */\n  tag_197\n    /* \"#utility.yul\":9717:9722   */\n  dup2\n    /* \"#utility.yul\":9699:9723   */\n  tag_62\n  jump\t// in\ntag_197:\n    /* \"#utility.yul\":9694:9697   */\n  dup3\n    /* \"#utility.yul\":9687:9724   */\n  mstore\n    /* \"#utility.yul\":9612:9730   */\n  pop\n  pop\n  jump\t// out\n    /* \"#utility.yul\":9736:9958   */\ntag_39:\n    /* \"#utility.yul\":9829:9833   */\n  0x00\n    /* \"#utility.yul\":9867:9869   */\n  0x20\n    /* \"#utility.yul\":9856:9865   */\n  dup3\n    /* \"#utility.yul\":9852:9870   */\n  add\n    /* \"#utility.yul\":9844:9870   */\n  swap1\n  pop\n    /* \"#utility.yul\":9880:9951   */\n  tag_199\n    /* \"#utility.yul\":9948:9949   */\n  0x00\n    /* \"#utility.yul\":9937:9946   */\n  dup4\n    /* \"#utility.yul\":9933:9950   */\n  add\n    /* \"#utility.yul\":9924:9930   */\n  dup5\n    /* \"#utility.yul\":9880:9951   */\n  tag_82\n  jump\t// in\ntag_199:\n    /* \"#utility.yul\":9736:9958   */\n  swap3\n  swap2\n  pop\n  pop\n  jump\t// out\n    /* \"#utility.yul\":9964:10130   */\ntag_83:\n    /* \"#utility.yul\":10104:10122   */\n  0x5061757361626c653a2070617573656400000000000000000000000000000000\n    /* \"#utility.yul\":10100:10101   */\n  0x00\n    /* \"#utility.yul\":10092:10098   */\n  dup3\n    /* \"#utility.yul\":10088:10102   */\n  add\n    /* \"#utility.yul\":10081:10123   */\n  mstore\n    /* \"#utility.yul\":9964:10130   */\n  pop\n  jump\t// out\n    /* \"#utility.yul\":10136:10502   */\ntag_84:\n    /* \"#utility.yul\":10278:10281   */\n  0x00\n    /* \"#utility.yul\":10299:10366   */\n  tag_202\n    /* \"#utility.yul\":10363:10365   */\n  0x10\n    /* \"#utility.yul\":10358:10361   */\n  dup4\n    /* \"#utility.yul\":10299:10366   */\n  tag_79\n  jump\t// in\ntag_202:\n    /* \"#utility.yul\":10292:10366   */\n  swap2\n  pop\n    /* \"#utility.yul\":10375:10468   */\n  tag_203\n    /* \"#utility.yul\":10464:10467   */\n  dup3\n    /* \"#utility.yul\":10375:10468   */\n  tag_83\n  jump\t// in\ntag_203:\n    /* \"#utility.yul\":10493:10495   */\n  0x20\n    /* \"#utility.yul\":10488:10491   */\n  dup3\n    /* \"#utility.yul\":10484:10496   */\n  add\n    /* \"#utility.yul\":10477:10496   */\n  swap1\n  pop\n    /* \"#utility.yul\":10136:10502   */\n  swap2\n  swap1\n  pop\n  jump\t// out\n    /* \"#utility.yul\":10508:10927   */\ntag_47:\n    /* \"#utility.yul\":10674:10678   */\n  0x00\n    /* \"#utility.yul\":10712:10714   */\n  0x20\n    /* \"#utility.yul\":10701:10710   */\n  dup3\n    /* \"#utility.yul\":10697:10715   */\n  add\n    /* \"#utility.yul\":10689:10715   */\n  swap1\n  pop\n    /* \"#utility.yul\":10761:10770   */\n  dup2\n    /* \"#utility.yul\":10755:10759   */\n  dup2\n    /* \"#utility.yul\":10751:10771   */\n  sub\n    /* \"#utility.yul\":10747:10748   */\n  0x00\n    /* \"#utility.yul\":10736:10745   */\n  dup4\n    /* \"#utility.yul\":10732:10749   */\n  add\n    /* \"#utility.yul\":10725:10772   */\n  mstore\n    /* \"#utility.yul\":10789:10920   */\n  tag_205\n    /* \"#utility.yul\":10915:10919   */\n  dup2\n    /* \"#utility.yul\":10789:10920   */\n  tag_84\n  jump\t// in\ntag_205:\n    /* \"#utility.yul\":10781:10920   */\n  swap1\n  pop\n    /* \"#utility.yul\":10508:10927   */\n  swap2\n  swap1\n  pop\n  jump\t// out\n    /* \".learneth/Solidity ERC20 Token Course/6. Extensions/er20extensions.sol\":322:919  contract EduCoin is ERC20, ERC20Burnable, Pausable, Ownable {... */\ntag_25:\n  dataSize(sub_0)\n  dup1\n  dataOffset(sub_0)\n  0x00\n  codecopy\n  0x00\n  return\nstop\n\nsub_0: assembly {\n        /* \".learneth/Solidity ERC20 Token Course/6. Extensions/er20extensions.sol\":322:919  contract EduCoin is ERC20, ERC20Burnable, Pausable, Ownable {... */\n      mstore(0x40, 0x80)\n      callvalue\n      dup1\n      iszero\n      tag_1\n      jumpi\n      0x00\n      dup1\n      revert\n    tag_1:\n      pop\n      jumpi(tag_2, lt(calldatasize, 0x04))\n      shr(0xe0, calldataload(0x00))\n      dup1\n      0x70a08231\n      gt\n      tag_23\n      jumpi\n      dup1\n      0x95d89b41\n      gt\n      tag_24\n      jumpi\n      dup1\n      0x95d89b41\n      eq\n      tag_18\n      jumpi\n      dup1\n      0xa457c2d7\n      eq\n      tag_19\n      jumpi\n      dup1\n      0xa9059cbb\n      eq\n      tag_20\n      jumpi\n      dup1\n      0xdd62ed3e\n      eq\n      tag_21\n      jumpi\n      dup1\n      0xf2fde38b\n      eq\n      tag_22\n      jumpi\n      jump(tag_2)\n    tag_24:\n      dup1\n      0x70a08231\n      eq\n      tag_13\n      jumpi\n      dup1\n      0x715018a6\n      eq\n      tag_14\n      jumpi\n      dup1\n      0x79cc6790\n      eq\n      tag_15\n      jumpi\n      dup1\n      0x8456cb59\n      eq\n      tag_16\n      jumpi\n      dup1\n      0x8da5cb5b\n      eq\n      tag_17\n      jumpi\n      jump(tag_2)\n    tag_23:\n      dup1\n      0x39509351\n      gt\n      tag_25\n      jumpi\n      dup1\n      0x39509351\n      eq\n      tag_8\n      jumpi\n      dup1\n      0x3f4ba83a\n      eq\n      tag_9\n      jumpi\n      dup1\n      0x40c10f19\n      eq\n      tag_10\n      jumpi\n      dup1\n      0x42966c68\n      eq\n      tag_11\n      jumpi\n      dup1\n      0x5c975abb\n      eq\n      tag_12\n      jumpi\n      jump(tag_2)\n    tag_25:\n      dup1\n      0x06fdde03\n      eq\n      tag_3\n      jumpi\n      dup1\n      0x095ea7b3\n      eq\n      tag_4\n      jumpi\n      dup1\n      0x18160ddd\n      eq\n      tag_5\n      jumpi\n      dup1\n      0x23b872dd\n      eq\n      tag_6\n      jumpi\n      dup1\n      0x313ce567\n      eq\n      tag_7\n      jumpi\n    tag_2:\n      0x00\n      dup1\n      revert\n        /* \"@openzeppelin/contracts@4.4.0/token/ERC20/ERC20.sol\":2141:2239  function name() public view virtual override returns (string memory) {... */\n    tag_3:\n      tag_26\n      tag_27\n      jump\t// in\n    tag_26:\n      mload(0x40)\n      tag_28\n      swap2\n      swap1\n      tag_29\n      jump\t// in\n    tag_28:\n      mload(0x40)\n      dup1\n      swap2\n      sub\n      swap1\n      return\n        /* \"@openzeppelin/contracts@4.4.0/token/ERC20/ERC20.sol\":4238:4404  function approve(address spender, uint256 amount) public virtual override returns (bool) {... */\n    tag_4:\n      tag_30\n      0x04\n      dup1\n      calldatasize\n      sub\n      dup2\n      add\n      swap1\n      tag_31\n      swap2\n      swap1\n      tag_32\n      jump\t// in\n    tag_31:\n      tag_33\n      jump\t// in\n    tag_30:\n      mload(0x40)\n      tag_34\n      swap2\n      swap1\n      tag_35\n      jump\t// in\n    tag_34:\n      mload(0x40)\n      dup1\n      swap2\n      sub\n      swap1\n      return\n        /* \"@openzeppelin/contracts@4.4.0/token/ERC20/ERC20.sol\":3229:3335  function totalSupply() public view virtual override returns (uint256) {... */\n    tag_5:\n      tag_36\n      tag_37\n      jump\t// in\n    tag_36:\n      mload(0x40)\n      tag_38\n      swap2\n      swap1\n      tag_39\n      jump\t// in\n    tag_38:\n      mload(0x40)\n      dup1\n      swap2\n      sub\n      swap1\n      return\n        /* \"@openzeppelin/contracts@4.4.0/token/ERC20/ERC20.sol\":4871:5349  function transferFrom(... */\n    tag_6:\n      tag_40\n      0x04\n      dup1\n      calldatasize\n      sub\n      dup2\n      add\n      swap1\n      tag_41\n      swap2\n      swap1\n      tag_42\n      jump\t// in\n    tag_41:\n      tag_43\n      jump\t// in\n    tag_40:\n      mload(0x40)\n      tag_44\n      swap2\n      swap1\n      tag_35\n      jump\t// in\n    tag_44:\n      mload(0x40)\n      dup1\n      swap2\n      sub\n      swap1\n      return\n        /* \"@openzeppelin/contracts@4.4.0/token/ERC20/ERC20.sol\":3078:3169  function decimals() public view virtual override returns (uint8) {... */\n    tag_7:\n      tag_45\n      tag_46\n      jump\t// in\n    tag_45:\n      mload(0x40)\n      tag_47\n      swap2\n      swap1\n      tag_48\n      jump\t// in\n    tag_47:\n      mload(0x40)\n      dup1\n      swap2\n      sub\n      swap1\n      return\n        /* \"@openzeppelin/contracts@4.4.0/token/ERC20/ERC20.sol\":5744:5956  function increaseAllowance(address spender, uint256 addedValue) public virtual returns (bool) {... */\n    tag_8:\n      tag_49\n      0x04\n      dup1\n      calldatasize\n      sub\n      dup2\n      add\n      swap1\n      tag_50\n      swap2\n      swap1\n      tag_32\n      jump\t// in\n    tag_50:\n      tag_51\n      jump\t// in\n    tag_49:\n      mload(0x40)\n      tag_52\n      swap2\n      swap1\n      tag_35\n      jump\t// in\n    tag_52:\n      mload(0x40)\n      dup1\n      swap2\n      sub\n      swap1\n      return\n        /* \".learneth/Solidity ERC20 Token Course/6. Extensions/er20extensions.sol\":556:619  function unpause() public onlyOwner {... */\n    tag_9:\n      tag_53\n      tag_54\n      jump\t// in\n    tag_53:\n      stop\n        /* \".learneth/Solidity ERC20 Token Course/6. Extensions/er20extensions.sol\":625:718  function mint(address to, uint256 amount) public onlyOwner {... */\n    tag_10:\n      tag_55\n      0x04\n      dup1\n      calldatasize\n      sub\n      dup2\n      add\n      swap1\n      tag_56\n      swap2\n      swap1\n      tag_32\n      jump\t// in\n    tag_56:\n      tag_57\n      jump\t// in\n    tag_55:\n      stop\n        /* \"@openzeppelin/contracts@4.4.0/token/ERC20/extensions/ERC20Burnable.sol\":563:652  function burn(uint256 amount) public virtual {... */\n    tag_11:\n      tag_58\n      0x04\n      dup1\n      calldatasize\n      sub\n      dup2\n      add\n      swap1\n      tag_59\n      swap2\n      swap1\n      tag_60\n      jump\t// in\n    tag_59:\n      tag_61\n      jump\t// in\n    tag_58:\n      stop\n        /* \"@openzeppelin/contracts@4.4.0/security/Pausable.sol\":1098:1182  function paused() public view virtual returns (bool) {... */\n    tag_12:\n      tag_62\n      tag_63\n      jump\t// in\n    tag_62:\n      mload(0x40)\n      tag_64\n      swap2\n      swap1\n      tag_35\n      jump\t// in\n    tag_64:\n      mload(0x40)\n      dup1\n      swap2\n      sub\n      swap1\n      return\n        /* \"@openzeppelin/contracts@4.4.0/token/ERC20/ERC20.sol\":3393:3518  function balanceOf(address account) public view virtual override returns (uint256) {... */\n    tag_13:\n      tag_65\n      0x04\n      dup1\n      calldatasize\n      sub\n      dup2\n      add\n      swap1\n      tag_66\n      swap2\n      swap1\n      tag_67\n      jump\t// in\n    tag_66:\n      tag_68\n      jump\t// in\n    tag_65:\n      mload(0x40)\n      tag_69\n      swap2\n      swap1\n      tag_39\n      jump\t// in\n    tag_69:\n      mload(0x40)\n      dup1\n      swap2\n      sub\n      swap1\n      return\n        /* \"@openzeppelin/contracts@4.4.0/access/Ownable.sol\":1668:1769  function renounceOwnership() public virtual onlyOwner {... */\n    tag_14:\n      tag_70\n      tag_71\n      jump\t// in\n    tag_70:\n      stop\n        /* \"@openzeppelin/contracts@4.4.0/token/ERC20/extensions/ERC20Burnable.sol\":958:1319  function burnFrom(address account, uint256 amount) public virtual {... */\n    tag_15:\n      tag_72\n      0x04\n      dup1\n      calldatasize\n      sub\n      dup2\n      add\n      swap1\n      tag_73\n      swap2\n      swap1\n      tag_32\n      jump\t// in\n    tag_73:\n      tag_74\n      jump\t// in\n    tag_72:\n      stop\n        /* \".learneth/Solidity ERC20 Token Course/6. Extensions/er20extensions.sol\":491:550  function pause() public onlyOwner {... */\n    tag_16:\n      tag_75\n      tag_76\n      jump\t// in\n    tag_75:\n      stop\n        /* \"@openzeppelin/contracts@4.4.0/access/Ownable.sol\":1036:1121  function owner() public view virtual returns (address) {... */\n    tag_17:\n      tag_77\n      tag_78\n      jump\t// in\n    tag_77:\n      mload(0x40)\n      tag_79\n      swap2\n      swap1\n      tag_80\n      jump\t// in\n    tag_79:\n      mload(0x40)\n      dup1\n      swap2\n      sub\n      swap1\n      return\n        /* \"@openzeppelin/contracts@4.4.0/token/ERC20/ERC20.sol\":2352:2454  function symbol() public view virtual override returns (string memory) {... */\n    tag_18:\n      tag_81\n      tag_82\n      jump\t// in\n    tag_81:\n      mload(0x40)\n      tag_83\n      swap2\n      swap1\n      tag_29\n      jump\t// in\n    tag_83:\n      mload(0x40)\n      dup1\n      swap2\n      sub\n      swap1\n      return\n        /* \"@openzeppelin/contracts@4.4.0/token/ERC20/ERC20.sol\":6443:6848  function decreaseAllowance(address spender, uint256 subtractedValue) public virtual returns (bool) {... */\n    tag_19:\n      tag_84\n      0x04\n      dup1\n      calldatasize\n      sub\n      dup2\n      add\n      swap1\n      tag_85\n      swap2\n      swap1\n      tag_32\n      jump\t// in\n    tag_85:\n      tag_86\n      jump\t// in\n    tag_84:\n      mload(0x40)\n      tag_87\n      swap2\n      swap1\n      tag_35\n      jump\t// in\n    tag_87:\n      mload(0x40)\n      dup1\n      swap2\n      sub\n      swap1\n      return\n        /* \"@openzeppelin/contracts@4.4.0/token/ERC20/ERC20.sol\":3721:3893  function transfer(address recipient, uint256 amount) public virtual override returns (bool) {... */\n    tag_20:\n      tag_88\n      0x04\n      dup1\n      calldatasize\n      sub\n      dup2\n      add\n      swap1\n      tag_89\n      swap2\n      swap1\n      tag_32\n      jump\t// in\n    tag_89:\n      tag_90\n      jump\t// in\n    tag_88:\n      mload(0x40)\n      tag_91\n      swap2\n      swap1\n      tag_35\n      jump\t// in\n    tag_91:\n      mload(0x40)\n      dup1\n      swap2\n      sub\n      swap1\n      return\n        /* \"@openzeppelin/contracts@4.4.0/token/ERC20/ERC20.sol\":3951:4100  function allowance(address owner, address spender) public view virtual override returns (uint256) {... */\n    tag_21:\n      tag_92\n      0x04\n      dup1\n      calldatasize\n      sub\n      dup2\n      add\n      swap1\n      tag_93\n      swap2\n      swap1\n      tag_94\n      jump\t// in\n    tag_93:\n      tag_95\n      jump\t// in\n    tag_92:\n      mload(0x40)\n      tag_96\n      swap2\n      swap1\n      tag_39\n      jump\t// in\n    tag_96:\n      mload(0x40)\n      dup1\n      swap2\n      sub\n      swap1\n      return\n        /* \"@openzeppelin/contracts@4.4.0/access/Ownable.sol\":1918:2116  function transferOwnership(address newOwner) public virtual onlyOwner {... */\n    tag_22:\n      tag_97\n      0x04\n      dup1\n      calldatasize\n      sub\n      dup2\n      add\n      swap1\n      tag_98\n      swap2\n      swap1\n      tag_67\n      jump\t// in\n    tag_98:\n      tag_99\n      jump\t// in\n    tag_97:\n      stop\n        /* \"@openzeppelin/contracts@4.4.0/token/ERC20/ERC20.sol\":2141:2239  function name() public view virtual override returns (string memory) {... */\n    tag_27:\n        /* \"@openzeppelin/contracts@4.4.0/token/ERC20/ERC20.sol\":2195:2208  string memory */\n      0x60\n        /* \"@openzeppelin/contracts@4.4.0/token/ERC20/ERC20.sol\":2227:2232  _name */\n      0x03\n        /* \"@openzeppelin/contracts@4.4.0/token/ERC20/ERC20.sol\":2220:2232  return _name */\n      dup1\n      sload\n      tag_102\n      swap1\n      tag_103\n      jump\t// in\n    tag_102:\n      dup1\n      0x1f\n      add\n      0x20\n      dup1\n      swap2\n      div\n      mul\n      0x20\n      add\n      mload(0x40)\n      swap1\n      dup2\n      add\n      0x40\n      mstore\n      dup1\n      swap3\n      swap2\n      swap1\n      dup2\n      dup2\n      mstore\n      0x20\n      add\n      dup3\n      dup1\n      sload\n      tag_104\n      swap1\n      tag_103\n      jump\t// in\n    tag_104:\n      dup1\n      iszero\n      tag_105\n      jumpi\n      dup1\n      0x1f\n      lt\n      tag_106\n      jumpi\n      0x0100\n      dup1\n      dup4\n      sload\n      div\n      mul\n      dup4\n      mstore\n      swap2\n      0x20\n      add\n      swap2\n      jump(tag_105)\n    tag_106:\n      dup3\n      add\n      swap2\n      swap1\n      0x00\n      mstore\n      keccak256(0x00, 0x20)\n      swap1\n    tag_107:\n      dup2\n      sload\n      dup2\n      mstore\n      swap1\n      0x01\n      add\n      swap1\n      0x20\n      add\n      dup1\n      dup4\n      gt\n      tag_107\n      jumpi\n      dup3\n      swap1\n      sub\n      0x1f\n      and\n      dup3\n      add\n      swap2\n    tag_105:\n      pop\n      pop\n      pop\n      pop\n      pop\n      swap1\n      pop\n        /* \"@openzeppelin/contracts@4.4.0/token/ERC20/ERC20.sol\":2141:2239  function name() public view virtual override returns (string memory) {... */\n      swap1\n      jump\t// out\n        /* \"@openzeppelin/contracts@4.4.0/token/ERC20/ERC20.sol\":4238:4404  function approve(address spender, uint256 amount) public virtual override returns (bool) {... */\n    tag_33:\n        /* \"@openzeppelin/contracts@4.4.0/token/ERC20/ERC20.sol\":4321:4325  bool */\n      0x00\n        /* \"@openzeppelin/contracts@4.4.0/token/ERC20/ERC20.sol\":4337:4376  _approve(_msgSender(), spender, amount) */\n      tag_109\n        /* \"@openzeppelin/contracts@4.4.0/token/ERC20/ERC20.sol\":4346:4358  _msgSender() */\n      tag_110\n        /* \"@openzeppelin/contracts@4.4.0/token/ERC20/ERC20.sol\":4346:4356  _msgSender */\n      tag_111\n        /* \"@openzeppelin/contracts@4.4.0/token/ERC20/ERC20.sol\":4346:4358  _msgSender() */\n      jump\t// in\n    tag_110:\n        /* \"@openzeppelin/contracts@4.4.0/token/ERC20/ERC20.sol\":4360:4367  spender */\n      dup5\n        /* \"@openzeppelin/contracts@4.4.0/token/ERC20/ERC20.sol\":4369:4375  amount */\n      dup5\n        /* \"@openzeppelin/contracts@4.4.0/token/ERC20/ERC20.sol\":4337:4345  _approve */\n      tag_112\n        /* \"@openzeppelin/contracts@4.4.0/token/ERC20/ERC20.sol\":4337:4376  _approve(_msgSender(), spender, amount) */\n      jump\t// in\n    tag_109:\n        /* \"@openzeppelin/contracts@4.4.0/token/ERC20/ERC20.sol\":4393:4397  true */\n      0x01\n        /* \"@openzeppelin/contracts@4.4.0/token/ERC20/ERC20.sol\":4386:4397  return true */\n      swap1\n      pop\n        /* \"@openzeppelin/contracts@4.4.0/token/ERC20/ERC20.sol\":4238:4404  function approve(address spender, uint256 amount) public virtual override returns (bool) {... */\n      swap3\n      swap2\n      pop\n      pop\n      jump\t// out\n        /* \"@openzeppelin/contracts@4.4.0/token/ERC20/ERC20.sol\":3229:3335  function totalSupply() public view virtual override returns (uint256) {... */\n    tag_37:\n        /* \"@openzeppelin/contracts@4.4.0/token/ERC20/ERC20.sol\":3290:3297  uint256 */\n      0x00\n        /* \"@openzeppelin/contracts@4.4.0/token/ERC20/ERC20.sol\":3316:3328  _totalSupply */\n      sload(0x02)\n        /* \"@openzeppelin/contracts@4.4.0/token/ERC20/ERC20.sol\":3309:3328  return _totalSupply */\n      swap1\n      pop\n        /* \"@openzeppelin/contracts@4.4.0/token/ERC20/ERC20.sol\":3229:3335  function totalSupply() public view virtual override returns (uint256) {... */\n      swap1\n      jump\t// out\n        /* \"@openzeppelin/contracts@4.4.0/token/ERC20/ERC20.sol\":4871:5349  function transferFrom(... */\n    tag_43:\n        /* \"@openzeppelin/contracts@4.4.0/token/ERC20/ERC20.sol\":5007:5011  bool */\n      0x00\n        /* \"@openzeppelin/contracts@4.4.0/token/ERC20/ERC20.sol\":5023:5059  _transfer(sender, recipient, amount) */\n      tag_115\n        /* \"@openzeppelin/contracts@4.4.0/token/ERC20/ERC20.sol\":5033:5039  sender */\n      dup5\n        /* \"@openzeppelin/contracts@4.4.0/token/ERC20/ERC20.sol\":5041:5050  recipient */\n      dup5\n        /* \"@openzeppelin/contracts@4.4.0/token/ERC20/ERC20.sol\":5052:5058  amount */\n      dup5\n        /* \"@openzeppelin/contracts@4.4.0/token/ERC20/ERC20.sol\":5023:5032  _transfer */\n      tag_116\n        /* \"@openzeppelin/contracts@4.4.0/token/ERC20/ERC20.sol\":5023:5059  _transfer(sender, recipient, amount) */\n      jump\t// in\n    tag_115:\n        /* \"@openzeppelin/contracts@4.4.0/token/ERC20/ERC20.sol\":5070:5094  uint256 currentAllowance */\n      0x00\n        /* \"@openzeppelin/contracts@4.4.0/token/ERC20/ERC20.sol\":5097:5108  _allowances */\n      0x01\n        /* \"@openzeppelin/contracts@4.4.0/token/ERC20/ERC20.sol\":5097:5116  _allowances[sender] */\n      0x00\n        /* \"@openzeppelin/contracts@4.4.0/token/ERC20/ERC20.sol\":5109:5115  sender */\n      dup7\n        /* \"@openzeppelin/contracts@4.4.0/token/ERC20/ERC20.sol\":5097:5116  _allowances[sender] */\n      0xffffffffffffffffffffffffffffffffffffffff\n      and\n      0xffffffffffffffffffffffffffffffffffffffff\n      and\n      dup2\n      mstore\n      0x20\n      add\n      swap1\n      dup2\n      mstore\n      0x20\n      add\n      0x00\n      keccak256\n        /* \"@openzeppelin/contracts@4.4.0/token/ERC20/ERC20.sol\":5097:5130  _allowances[sender][_msgSender()] */\n      0x00\n        /* \"@openzeppelin/contracts@4.4.0/token/ERC20/ERC20.sol\":5117:5129  _msgSender() */\n      tag_117\n        /* \"@openzeppelin/contracts@4.4.0/token/ERC20/ERC20.sol\":5117:5127  _msgSender */\n      tag_111\n        /* \"@openzeppelin/contracts@4.4.0/token/ERC20/ERC20.sol\":5117:5129  _msgSender() */\n      jump\t// in\n    tag_117:\n        /* \"@openzeppelin/contracts@4.4.0/token/ERC20/ERC20.sol\":5097:5130  _allowances[sender][_msgSender()] */\n      0xffffffffffffffffffffffffffffffffffffffff\n      and\n      0xffffffffffffffffffffffffffffffffffffffff\n      and\n      dup2\n      mstore\n      0x20\n      add\n      swap1\n      dup2\n      mstore\n      0x20\n      add\n      0x00\n      keccak256\n      sload\n        /* \"@openzeppelin/contracts@4.4.0/token/ERC20/ERC20.sol\":5070:5130  uint256 currentAllowance = _allowances[sender][_msgSender()] */\n      swap1\n      pop\n        /* \"@openzeppelin/contracts@4.4.0/token/ERC20/ERC20.sol\":5168:5174  amount */\n      dup3\n        /* \"@openzeppelin/contracts@4.4.0/token/ERC20/ERC20.sol\":5148:5164  currentAllowance */\n      dup2\n        /* \"@openzeppelin/contracts@4.4.0/token/ERC20/ERC20.sol\":5148:5174  currentAllowance >= amount */\n      lt\n      iszero\n        /* \"@openzeppelin/contracts@4.4.0/token/ERC20/ERC20.sol\":5140:5219  require(currentAllowance >= amount, \"ERC20: transfer amount exceeds allowance\") */\n      tag_118\n      jumpi\n      mload(0x40)\n      0x08c379a000000000000000000000000000000000000000000000000000000000\n      dup2\n      mstore\n      0x04\n      add\n      tag_119\n      swap1\n      tag_120\n      jump\t// in\n    tag_119:\n      mload(0x40)\n      dup1\n      swap2\n      sub\n      swap1\n      revert\n    tag_118:\n        /* \"@openzeppelin/contracts@4.4.0/token/ERC20/ERC20.sol\":5253:5310  _approve(sender, _msgSender(), currentAllowance - amount) */\n      tag_121\n        /* \"@openzeppelin/contracts@4.4.0/token/ERC20/ERC20.sol\":5262:5268  sender */\n      dup6\n        /* \"@openzeppelin/contracts@4.4.0/token/ERC20/ERC20.sol\":5270:5282  _msgSender() */\n      tag_122\n        /* \"@openzeppelin/contracts@4.4.0/token/ERC20/ERC20.sol\":5270:5280  _msgSender */\n      tag_111\n        /* \"@openzeppelin/contracts@4.4.0/token/ERC20/ERC20.sol\":5270:5282  _msgSender() */\n      jump\t// in\n    tag_122:\n        /* \"@openzeppelin/contracts@4.4.0/token/ERC20/ERC20.sol\":5303:5309  amount */\n      dup6\n        /* \"@openzeppelin/contracts@4.4.0/token/ERC20/ERC20.sol\":5284:5300  currentAllowance */\n      dup5\n        /* \"@openzeppelin/contracts@4.4.0/token/ERC20/ERC20.sol\":5284:5309  currentAllowance - amount */\n      sub\n        /* \"@openzeppelin/contracts@4.4.0/token/ERC20/ERC20.sol\":5253:5261  _approve */\n      tag_112\n        /* \"@openzeppelin/contracts@4.4.0/token/ERC20/ERC20.sol\":5253:5310  _approve(sender, _msgSender(), currentAllowance - amount) */\n      jump\t// in\n    tag_121:\n        /* \"@openzeppelin/contracts@4.4.0/token/ERC20/ERC20.sol\":5338:5342  true */\n      0x01\n        /* \"@openzeppelin/contracts@4.4.0/token/ERC20/ERC20.sol\":5331:5342  return true */\n      swap2\n      pop\n      pop\n        /* \"@openzeppelin/contracts@4.4.0/token/ERC20/ERC20.sol\":4871:5349  function transferFrom(... */\n      swap4\n      swap3\n      pop\n      pop\n      pop\n      jump\t// out\n        /* \"@openzeppelin/contracts@4.4.0/token/ERC20/ERC20.sol\":3078:3169  function decimals() public view virtual override returns (uint8) {... */\n    tag_46:\n        /* \"@openzeppelin/contracts@4.4.0/token/ERC20/ERC20.sol\":3136:3141  uint8 */\n      0x00\n        /* \"@openzeppelin/contracts@4.4.0/token/ERC20/ERC20.sol\":3160:3162  18 */\n      0x12\n        /* \"@openzeppelin/contracts@4.4.0/token/ERC20/ERC20.sol\":3153:3162  return 18 */\n      swap1\n      pop\n        /* \"@openzeppelin/contracts@4.4.0/token/ERC20/ERC20.sol\":3078:3169  function decimals() public view virtual override returns (uint8) {... */\n      swap1\n      jump\t// out\n        /* \"@openzeppelin/contracts@4.4.0/token/ERC20/ERC20.sol\":5744:5956  function increaseAllowance(address spender, uint256 addedValue) public virtual returns (bool) {... */\n    tag_51:\n        /* \"@openzeppelin/contracts@4.4.0/token/ERC20/ERC20.sol\":5832:5836  bool */\n      0x00\n        /* \"@openzeppelin/contracts@4.4.0/token/ERC20/ERC20.sol\":5848:5928  _approve(_msgSender(), spender, _allowances[_msgSender()][spender] + addedValue) */\n      tag_125\n        /* \"@openzeppelin/contracts@4.4.0/token/ERC20/ERC20.sol\":5857:5869  _msgSender() */\n      tag_126\n        /* \"@openzeppelin/contracts@4.4.0/token/ERC20/ERC20.sol\":5857:5867  _msgSender */\n      tag_111\n        /* \"@openzeppelin/contracts@4.4.0/token/ERC20/ERC20.sol\":5857:5869  _msgSender() */\n      jump\t// in\n    tag_126:\n        /* \"@openzeppelin/contracts@4.4.0/token/ERC20/ERC20.sol\":5871:5878  spender */\n      dup5\n        /* \"@openzeppelin/contracts@4.4.0/token/ERC20/ERC20.sol\":5917:5927  addedValue */\n      dup5\n        /* \"@openzeppelin/contracts@4.4.0/token/ERC20/ERC20.sol\":5880:5891  _allowances */\n      0x01\n        /* \"@openzeppelin/contracts@4.4.0/token/ERC20/ERC20.sol\":5880:5905  _allowances[_msgSender()] */\n      0x00\n        /* \"@openzeppelin/contracts@4.4.0/token/ERC20/ERC20.sol\":5892:5904  _msgSender() */\n      tag_127\n        /* \"@openzeppelin/contracts@4.4.0/token/ERC20/ERC20.sol\":5892:5902  _msgSender */\n      tag_111\n        /* \"@openzeppelin/contracts@4.4.0/token/ERC20/ERC20.sol\":5892:5904  _msgSender() */\n      jump\t// in\n    tag_127:\n        /* \"@openzeppelin/contracts@4.4.0/token/ERC20/ERC20.sol\":5880:5905  _allowances[_msgSender()] */\n      0xffffffffffffffffffffffffffffffffffffffff\n      and\n      0xffffffffffffffffffffffffffffffffffffffff\n      and\n      dup2\n      mstore\n      0x20\n      add\n      swap1\n      dup2\n      mstore\n      0x20\n      add\n      0x00\n      keccak256\n        /* \"@openzeppelin/contracts@4.4.0/token/ERC20/ERC20.sol\":5880:5914  _allowances[_msgSender()][spender] */\n      0x00\n        /* \"@openzeppelin/contracts@4.4.0/token/ERC20/ERC20.sol\":5906:5913  spender */\n      dup9\n        /* \"@openzeppelin/contracts@4.4.0/token/ERC20/ERC20.sol\":5880:5914  _allowances[_msgSender()][spender] */\n      0xffffffffffffffffffffffffffffffffffffffff\n      and\n      0xffffffffffffffffffffffffffffffffffffffff\n      and\n      dup2\n      mstore\n      0x20\n      add\n      swap1\n      dup2\n      mstore\n      0x20\n      add\n      0x00\n      keccak256\n      sload\n        /* \"@openzeppelin/contracts@4.4.0/token/ERC20/ERC20.sol\":5880:5927  _allowances[_msgSender()][spender] + addedValue */\n      tag_128\n      swap2\n      swap1\n      tag_129\n      jump\t// in\n    tag_128:\n        /* \"@openzeppelin/contracts@4.4.0/token/ERC20/ERC20.sol\":5848:5856  _approve */\n      tag_112\n        /* \"@openzeppelin/contracts@4.4.0/token/ERC20/ERC20.sol\":5848:5928  _approve(_msgSender(), spender, _allowances[_msgSender()][spender] + addedValue) */\n      jump\t// in\n    tag_125:\n        /* \"@openzeppelin/contracts@4.4.0/token/ERC20/ERC20.sol\":5945:5949  true */\n      0x01\n        /* \"@openzeppelin/contracts@4.4.0/token/ERC20/ERC20.sol\":5938:5949  return true */\n      swap1\n      pop\n        /* \"@openzeppelin/contracts@4.4.0/token/ERC20/ERC20.sol\":5744:5956  function increaseAllowance(address spender, uint256 addedValue) public virtual returns (bool) {... */\n      swap3\n      swap2\n      pop\n      pop\n      jump\t// out\n        /* \".learneth/Solidity ERC20 Token Course/6. Extensions/er20extensions.sol\":556:619  function unpause() public onlyOwner {... */\n    tag_54:\n        /* \"@openzeppelin/contracts@4.4.0/access/Ownable.sol\":1259:1271  _msgSender() */\n      tag_131\n        /* \"@openzeppelin/contracts@4.4.0/access/Ownable.sol\":1259:1269  _msgSender */\n      tag_111\n        /* \"@openzeppelin/contracts@4.4.0/access/Ownable.sol\":1259:1271  _msgSender() */\n      jump\t// in\n    tag_131:\n        /* \"@openzeppelin/contracts@4.4.0/access/Ownable.sol\":1248:1271  owner() == _msgSender() */\n      0xffffffffffffffffffffffffffffffffffffffff\n      and\n        /* \"@openzeppelin/contracts@4.4.0/access/Ownable.sol\":1248:1255  owner() */\n      tag_132\n        /* \"@openzeppelin/contracts@4.4.0/access/Ownable.sol\":1248:1253  owner */\n      tag_78\n        /* \"@openzeppelin/contracts@4.4.0/access/Ownable.sol\":1248:1255  owner() */\n      jump\t// in\n    tag_132:\n        /* \"@openzeppelin/contracts@4.4.0/access/Ownable.sol\":1248:1271  owner() == _msgSender() */\n      0xffffffffffffffffffffffffffffffffffffffff\n      and\n      eq\n        /* \"@openzeppelin/contracts@4.4.0/access/Ownable.sol\":1240:1308  require(owner() == _msgSender(), \"Ownable: caller is not the owner\") */\n      tag_133\n      jumpi\n      mload(0x40)\n      0x08c379a000000000000000000000000000000000000000000000000000000000\n      dup2\n      mstore\n      0x04\n      add\n      tag_134\n      swap1\n      tag_135\n      jump\t// in\n    tag_134:\n      mload(0x40)\n      dup1\n      swap2\n      sub\n      swap1\n      revert\n    tag_133:\n        /* \".learneth/Solidity ERC20 Token Course/6. Extensions/er20extensions.sol\":602:612  _unpause() */\n      tag_137\n        /* \".learneth/Solidity ERC20 Token Course/6. Extensions/er20extensions.sol\":602:610  _unpause */\n      tag_138\n        /* \".learneth/Solidity ERC20 Token Course/6. Extensions/er20extensions.sol\":602:612  _unpause() */\n      jump\t// in\n    tag_137:\n        /* \".learneth/Solidity ERC20 Token Course/6. Extensions/er20extensions.sol\":556:619  function unpause() public onlyOwner {... */\n      jump\t// out\n        /* \".learneth/Solidity ERC20 Token Course/6. Extensions/er20extensions.sol\":625:718  function mint(address to, uint256 amount) public onlyOwner {... */\n    tag_57:\n        /* \"@openzeppelin/contracts@4.4.0/access/Ownable.sol\":1259:1271  _msgSender() */\n      tag_140\n        /* \"@openzeppelin/contracts@4.4.0/access/Ownable.sol\":1259:1269  _msgSender */\n      tag_111\n        /* \"@openzeppelin/contracts@4.4.0/access/Ownable.sol\":1259:1271  _msgSender() */\n      jump\t// in\n    tag_140:\n        /* \"@openzeppelin/contracts@4.4.0/access/Ownable.sol\":1248:1271  owner() == _msgSender() */\n      0xffffffffffffffffffffffffffffffffffffffff\n      and\n        /* \"@openzeppelin/contracts@4.4.0/access/Ownable.sol\":1248:1255  owner() */\n      tag_141\n        /* \"@openzeppelin/contracts@4.4.0/access/Ownable.sol\":1248:1253  owner */\n      tag_78\n        /* \"@openzeppelin/contracts@4.4.0/access/Ownable.sol\":1248:1255  owner() */\n      jump\t// in\n    tag_141:\n        /* \"@openzeppelin/contracts@4.4.0/access/Ownable.sol\":1248:1271  owner() == _msgSender() */\n      0xffffffffffffffffffffffffffffffffffffffff\n      and\n      eq\n        /* \"@openzeppelin/contracts@4.4.0/access/Ownable.sol\":1240:1308  require(owner() == _msgSender(), \"Ownable: caller is not the owner\") */\n      tag_142\n      jumpi\n      mload(0x40)\n      0x08c379a000000000000000000000000000000000000000000000000000000000\n      dup2\n      mstore\n      0x04\n      add\n      tag_143\n      swap1\n      tag_135\n      jump\t// in\n    tag_143:\n      mload(0x40)\n      dup1\n      swap2\n      sub\n      swap1\n      revert\n    tag_142:\n        /* \".learneth/Solidity ERC20 Token Course/6. Extensions/er20extensions.sol\":694:711  _mint(to, amount) */\n      tag_145\n        /* \".learneth/Solidity ERC20 Token Course/6. Extensions/er20extensions.sol\":700:702  to */\n      dup3\n        /* \".learneth/Solidity ERC20 Token Course/6. Extensions/er20extensions.sol\":704:710  amount */\n      dup3\n        /* \".learneth/Solidity ERC20 Token Course/6. Extensions/er20extensions.sol\":694:699  _mint */\n      tag_146\n        /* \".learneth/Solidity ERC20 Token Course/6. Extensions/er20extensions.sol\":694:711  _mint(to, amount) */\n      jump\t// in\n    tag_145:\n        /* \".learneth/Solidity ERC20 Token Course/6. Extensions/er20extensions.sol\":625:718  function mint(address to, uint256 amount) public onlyOwner {... */\n      pop\n      pop\n      jump\t// out\n        /* \"@openzeppelin/contracts@4.4.0/token/ERC20/extensions/ERC20Burnable.sol\":563:652  function burn(uint256 amount) public virtual {... */\n    tag_61:\n        /* \"@openzeppelin/contracts@4.4.0/token/ERC20/extensions/ERC20Burnable.sol\":618:645  _burn(_msgSender(), amount) */\n      tag_148\n        /* \"@openzeppelin/contracts@4.4.0/token/ERC20/extensions/ERC20Burnable.sol\":624:636  _msgSender() */\n      tag_149\n        /* \"@openzeppelin/contracts@4.4.0/token/ERC20/extensions/ERC20Burnable.sol\":624:634  _msgSender */\n      tag_111\n        /* \"@openzeppelin/contracts@4.4.0/token/ERC20/extensions/ERC20Burnable.sol\":624:636  _msgSender() */\n      jump\t// in\n    tag_149:\n        /* \"@openzeppelin/contracts@4.4.0/token/ERC20/extensions/ERC20Burnable.sol\":638:644  amount */\n      dup3\n        /* \"@openzeppelin/contracts@4.4.0/token/ERC20/extensions/ERC20Burnable.sol\":618:623  _burn */\n      tag_150\n        /* \"@openzeppelin/contracts@4.4.0/token/ERC20/extensions/ERC20Burnable.sol\":618:645  _burn(_msgSender(), amount) */\n      jump\t// in\n    tag_148:\n        /* \"@openzeppelin/contracts@4.4.0/token/ERC20/extensions/ERC20Burnable.sol\":563:652  function burn(uint256 amount) public virtual {... */\n      pop\n      jump\t// out\n        /* \"@openzeppelin/contracts@4.4.0/security/Pausable.sol\":1098:1182  function paused() public view virtual returns (bool) {... */\n    tag_63:\n        /* \"@openzeppelin/contracts@4.4.0/security/Pausable.sol\":1145:1149  bool */\n      0x00\n        /* \"@openzeppelin/contracts@4.4.0/security/Pausable.sol\":1168:1175  _paused */\n      0x05\n      0x00\n      swap1\n      sload\n      swap1\n      0x0100\n      exp\n      swap1\n      div\n      0xff\n      and\n        /* \"@openzeppelin/contracts@4.4.0/security/Pausable.sol\":1161:1175  return _paused */\n      swap1\n      pop\n        /* \"@openzeppelin/contracts@4.4.0/security/Pausable.sol\":1098:1182  function paused() public view virtual returns (bool) {... */\n      swap1\n      jump\t// out\n        /* \"@openzeppelin/contracts@4.4.0/token/ERC20/ERC20.sol\":3393:3518  function balanceOf(address account) public view virtual override returns (uint256) {... */\n    tag_68:\n        /* \"@openzeppelin/contracts@4.4.0/token/ERC20/ERC20.sol\":3467:3474  uint256 */\n      0x00\n        /* \"@openzeppelin/contracts@4.4.0/token/ERC20/ERC20.sol\":3493:3502  _balances */\n      dup1\n        /* \"@openzeppelin/contracts@4.4.0/token/ERC20/ERC20.sol\":3493:3511  _balances[account] */\n      0x00\n        /* \"@openzeppelin/contracts@4.4.0/token/ERC20/ERC20.sol\":3503:3510  account */\n      dup4\n        /* \"@openzeppelin/contracts@4.4.0/token/ERC20/ERC20.sol\":3493:3511  _balances[account] */\n      0xffffffffffffffffffffffffffffffffffffffff\n      and\n      0xffffffffffffffffffffffffffffffffffffffff\n      and\n      dup2\n      mstore\n      0x20\n      add\n      swap1\n      dup2\n      mstore\n      0x20\n      add\n      0x00\n      keccak256\n      sload\n        /* \"@openzeppelin/contracts@4.4.0/token/ERC20/ERC20.sol\":3486:3511  return _balances[account] */\n      swap1\n      pop\n        /* \"@openzeppelin/contracts@4.4.0/token/ERC20/ERC20.sol\":3393:3518  function balanceOf(address account) public view virtual override returns (uint256) {... */\n      swap2\n      swap1\n      pop\n      jump\t// out\n        /* \"@openzeppelin/contracts@4.4.0/access/Ownable.sol\":1668:1769  function renounceOwnership() public virtual onlyOwner {... */\n    tag_71:\n        /* \"@openzeppelin/contracts@4.4.0/access/Ownable.sol\":1259:1271  _msgSender() */\n      tag_154\n        /* \"@openzeppelin/contracts@4.4.0/access/Ownable.sol\":1259:1269  _msgSender */\n      tag_111\n        /* \"@openzeppelin/contracts@4.4.0/access/Ownable.sol\":1259:1271  _msgSender() */\n      jump\t// in\n    tag_154:\n        /* \"@openzeppelin/contracts@4.4.0/access/Ownable.sol\":1248:1271  owner() == _msgSender() */\n      0xffffffffffffffffffffffffffffffffffffffff\n      and\n        /* \"@openzeppelin/contracts@4.4.0/access/Ownable.sol\":1248:1255  owner() */\n      tag_155\n        /* \"@openzeppelin/contracts@4.4.0/access/Ownable.sol\":1248:1253  owner */\n      tag_78\n        /* \"@openzeppelin/contracts@4.4.0/access/Ownable.sol\":1248:1255  owner() */\n      jump\t// in\n    tag_155:\n        /* \"@openzeppelin/contracts@4.4.0/access/Ownable.sol\":1248:1271  owner() == _msgSender() */\n      0xffffffffffffffffffffffffffffffffffffffff\n      and\n      eq\n        /* \"@openzeppelin/contracts@4.4.0/access/Ownable.sol\":1240:1308  require(owner() == _msgSender(), \"Ownable: caller is not the owner\") */\n      tag_156\n      jumpi\n      mload(0x40)\n      0x08c379a000000000000000000000000000000000000000000000000000000000\n      dup2\n      mstore\n      0x04\n      add\n      tag_157\n      swap1\n      tag_135\n      jump\t// in\n    tag_157:\n      mload(0x40)\n      dup1\n      swap2\n      sub\n      swap1\n      revert\n    tag_156:\n        /* \"@openzeppelin/contracts@4.4.0/access/Ownable.sol\":1732:1762  _transferOwnership(address(0)) */\n      tag_159\n        /* \"@openzeppelin/contracts@4.4.0/access/Ownable.sol\":1759:1760  0 */\n      0x00\n        /* \"@openzeppelin/contracts@4.4.0/access/Ownable.sol\":1732:1750  _transferOwnership */\n      tag_160\n        /* \"@openzeppelin/contracts@4.4.0/access/Ownable.sol\":1732:1762  _transferOwnership(address(0)) */\n      jump\t// in\n    tag_159:\n        /* \"@openzeppelin/contracts@4.4.0/access/Ownable.sol\":1668:1769  function renounceOwnership() public virtual onlyOwner {... */\n      jump\t// out\n        /* \"@openzeppelin/contracts@4.4.0/token/ERC20/extensions/ERC20Burnable.sol\":958:1319  function burnFrom(address account, uint256 amount) public virtual {... */\n    tag_74:\n        /* \"@openzeppelin/contracts@4.4.0/token/ERC20/extensions/ERC20Burnable.sol\":1034:1058  uint256 currentAllowance */\n      0x00\n        /* \"@openzeppelin/contracts@4.4.0/token/ERC20/extensions/ERC20Burnable.sol\":1061:1093  allowance(account, _msgSender()) */\n      tag_162\n        /* \"@openzeppelin/contracts@4.4.0/token/ERC20/extensions/ERC20Burnable.sol\":1071:1078  account */\n      dup4\n        /* \"@openzeppelin/contracts@4.4.0/token/ERC20/extensions/ERC20Burnable.sol\":1080:1092  _msgSender() */\n      tag_163\n        /* \"@openzeppelin/contracts@4.4.0/token/ERC20/extensions/ERC20Burnable.sol\":1080:1090  _msgSender */\n      tag_111\n        /* \"@openzeppelin/contracts@4.4.0/token/ERC20/extensions/ERC20Burnable.sol\":1080:1092  _msgSender() */\n      jump\t// in\n    tag_163:\n        /* \"@openzeppelin/contracts@4.4.0/token/ERC20/extensions/ERC20Burnable.sol\":1061:1070  allowance */\n      tag_95\n        /* \"@openzeppelin/contracts@4.4.0/token/ERC20/extensions/ERC20Burnable.sol\":1061:1093  allowance(account, _msgSender()) */\n      jump\t// in\n    tag_162:\n        /* \"@openzeppelin/contracts@4.4.0/token/ERC20/extensions/ERC20Burnable.sol\":1034:1093  uint256 currentAllowance = allowance(account, _msgSender()) */\n      swap1\n      pop\n        /* \"@openzeppelin/contracts@4.4.0/token/ERC20/extensions/ERC20Burnable.sol\":1131:1137  amount */\n      dup2\n        /* \"@openzeppelin/contracts@4.4.0/token/ERC20/extensions/ERC20Burnable.sol\":1111:1127  currentAllowance */\n      dup2\n        /* \"@openzeppelin/contracts@4.4.0/token/ERC20/extensions/ERC20Burnable.sol\":1111:1137  currentAllowance >= amount */\n      lt\n      iszero\n        /* \"@openzeppelin/contracts@4.4.0/token/ERC20/extensions/ERC20Burnable.sol\":1103:1178  require(currentAllowance >= amount, \"ERC20: burn amount exceeds allowance\") */\n      tag_164\n      jumpi\n      mload(0x40)\n      0x08c379a000000000000000000000000000000000000000000000000000000000\n      dup2\n      mstore\n      0x04\n      add\n      tag_165\n      swap1\n      tag_166\n      jump\t// in\n    tag_165:\n      mload(0x40)\n      dup1\n      swap2\n      sub\n      swap1\n      revert\n    tag_164:\n        /* \"@openzeppelin/contracts@4.4.0/token/ERC20/extensions/ERC20Burnable.sol\":1212:1270  _approve(account, _msgSender(), currentAllowance - amount) */\n      tag_167\n        /* \"@openzeppelin/contracts@4.4.0/token/ERC20/extensions/ERC20Burnable.sol\":1221:1228  account */\n      dup4\n        /* \"@openzeppelin/contracts@4.4.0/token/ERC20/extensions/ERC20Burnable.sol\":1230:1242  _msgSender() */\n      tag_168\n        /* \"@openzeppelin/contracts@4.4.0/token/ERC20/extensions/ERC20Burnable.sol\":1230:1240  _msgSender */\n      tag_111\n        /* \"@openzeppelin/contracts@4.4.0/token/ERC20/extensions/ERC20Burnable.sol\":1230:1242  _msgSender() */\n      jump\t// in\n    tag_168:\n        /* \"@openzeppelin/contracts@4.4.0/token/ERC20/extensions/ERC20Burnable.sol\":1263:1269  amount */\n      dup5\n        /* \"@openzeppelin/contracts@4.4.0/token/ERC20/extensions/ERC20Burnable.sol\":1244:1260  currentAllowance */\n      dup5\n        /* \"@openzeppelin/contracts@4.4.0/token/ERC20/extensions/ERC20Burnable.sol\":1244:1269  currentAllowance - amount */\n      sub\n        /* \"@openzeppelin/contracts@4.4.0/token/ERC20/extensions/ERC20Burnable.sol\":1212:1220  _approve */\n      tag_112\n        /* \"@openzeppelin/contracts@4.4.0/token/ERC20/extensions/ERC20Burnable.sol\":1212:1270  _approve(account, _msgSender(), currentAllowance - amount) */\n      jump\t// in\n    tag_167:\n        /* \"@openzeppelin/contracts@4.4.0/token/ERC20/extensions/ERC20Burnable.sol\":1290:1312  _burn(account, amount) */\n      tag_169\n        /* \"@openzeppelin/contracts@4.4.0/token/ERC20/extensions/ERC20Burnable.sol\":1296:1303  account */\n      dup4\n        /* \"@openzeppelin/contracts@4.4.0/token/ERC20/extensions/ERC20Burnable.sol\":1305:1311  amount */\n      dup4\n        /* \"@openzeppelin/contracts@4.4.0/token/ERC20/extensions/ERC20Burnable.sol\":1290:1295  _burn */\n      tag_150\n        /* \"@openzeppelin/contracts@4.4.0/token/ERC20/extensions/ERC20Burnable.sol\":1290:1312  _burn(account, amount) */\n      jump\t// in\n    tag_169:\n        /* \"@openzeppelin/contracts@4.4.0/token/ERC20/extensions/ERC20Burnable.sol\":1024:1319  {... */\n      pop\n        /* \"@openzeppelin/contracts@4.4.0/token/ERC20/extensions/ERC20Burnable.sol\":958:1319  function burnFrom(address account, uint256 amount) public virtual {... */\n      pop\n      pop\n      jump\t// out\n        /* \".learneth/Solidity ERC20 Token Course/6. Extensions/er20extensions.sol\":491:550  function pause() public onlyOwner {... */\n    tag_76:\n        /* \"@openzeppelin/contracts@4.4.0/access/Ownable.sol\":1259:1271  _msgSender() */\n      tag_171\n        /* \"@openzeppelin/contracts@4.4.0/access/Ownable.sol\":1259:1269  _msgSender */\n      tag_111\n        /* \"@openzeppelin/contracts@4.4.0/access/Ownable.sol\":1259:1271  _msgSender() */\n      jump\t// in\n    tag_171:\n        /* \"@openzeppelin/contracts@4.4.0/access/Ownable.sol\":1248:1271  owner() == _msgSender() */\n      0xffffffffffffffffffffffffffffffffffffffff\n      and\n        /* \"@openzeppelin/contracts@4.4.0/access/Ownable.sol\":1248:1255  owner() */\n      tag_172\n        /* \"@openzeppelin/contracts@4.4.0/access/Ownable.sol\":1248:1253  owner */\n      tag_78\n        /* \"@openzeppelin/contracts@4.4.0/access/Ownable.sol\":1248:1255  owner() */\n      jump\t// in\n    tag_172:\n        /* \"@openzeppelin/contracts@4.4.0/access/Ownable.sol\":1248:1271  owner() == _msgSender() */\n      0xffffffffffffffffffffffffffffffffffffffff\n      and\n      eq\n        /* \"@openzeppelin/contracts@4.4.0/access/Ownable.sol\":1240:1308  require(owner() == _msgSender(), \"Ownable: caller is not the owner\") */\n      tag_173\n      jumpi\n      mload(0x40)\n      0x08c379a000000000000000000000000000000000000000000000000000000000\n      dup2\n      mstore\n      0x04\n      add\n      tag_174\n      swap1\n      tag_135\n      jump\t// in\n    tag_174:\n      mload(0x40)\n      dup1\n      swap2\n      sub\n      swap1\n      revert\n    tag_173:\n        /* \".learneth/Solidity ERC20 Token Course/6. Extensions/er20extensions.sol\":535:543  _pause() */\n      tag_176\n        /* \".learneth/Solidity ERC20 Token Course/6. Extensions/er20extensions.sol\":535:541  _pause */\n      tag_177\n        /* \".learneth/Solidity ERC20 Token Course/6. Extensions/er20extensions.sol\":535:543  _pause() */\n      jump\t// in\n    tag_176:\n        /* \".learneth/Solidity ERC20 Token Course/6. Extensions/er20extensions.sol\":491:550  function pause() public onlyOwner {... */\n      jump\t// out\n        /* \"@openzeppelin/contracts@4.4.0/access/Ownable.sol\":1036:1121  function owner() public view virtual returns (address) {... */\n    tag_78:\n        /* \"@openzeppelin/contracts@4.4.0/access/Ownable.sol\":1082:1089  address */\n      0x00\n        /* \"@openzeppelin/contracts@4.4.0/access/Ownable.sol\":1108:1114  _owner */\n      0x05\n      0x01\n      swap1\n      sload\n      swap1\n      0x0100\n      exp\n      swap1\n      div\n      0xffffffffffffffffffffffffffffffffffffffff\n      and\n        /* \"@openzeppelin/contracts@4.4.0/access/Ownable.sol\":1101:1114  return _owner */\n      swap1\n      pop\n        /* \"@openzeppelin/contracts@4.4.0/access/Ownable.sol\":1036:1121  function owner() public view virtual returns (address) {... */\n      swap1\n      jump\t// out\n        /* \"@openzeppelin/contracts@4.4.0/token/ERC20/ERC20.sol\":2352:2454  function symbol() public view virtual override returns (string memory) {... */\n    tag_82:\n        /* \"@openzeppelin/contracts@4.4.0/token/ERC20/ERC20.sol\":2408:2421  string memory */\n      0x60\n        /* \"@openzeppelin/contracts@4.4.0/token/ERC20/ERC20.sol\":2440:2447  _symbol */\n      0x04\n        /* \"@openzeppelin/contracts@4.4.0/token/ERC20/ERC20.sol\":2433:2447  return _symbol */\n      dup1\n      sload\n      tag_180\n      swap1\n      tag_103\n      jump\t// in\n    tag_180:\n      dup1\n      0x1f\n      add\n      0x20\n      dup1\n      swap2\n      div\n      mul\n      0x20\n      add\n      mload(0x40)\n      swap1\n      dup2\n      add\n      0x40\n      mstore\n      dup1\n      swap3\n      swap2\n      swap1\n      dup2\n      dup2\n      mstore\n      0x20\n      add\n      dup3\n      dup1\n      sload\n      tag_181\n      swap1\n      tag_103\n      jump\t// in\n    tag_181:\n      dup1\n      iszero\n      tag_182\n      jumpi\n      dup1\n      0x1f\n      lt\n      tag_183\n      jumpi\n      0x0100\n      dup1\n      dup4\n      sload\n      div\n      mul\n      dup4\n      mstore\n      swap2\n      0x20\n      add\n      swap2\n      jump(tag_182)\n    tag_183:\n      dup3\n      add\n      swap2\n      swap1\n      0x00\n      mstore\n      keccak256(0x00, 0x20)\n      swap1\n    tag_184:\n      dup2\n      sload\n      dup2\n      mstore\n      swap1\n      0x01\n      add\n      swap1\n      0x20\n      add\n      dup1\n      dup4\n      gt\n      tag_184\n      jumpi\n      dup3\n      swap1\n      sub\n      0x1f\n      and\n      dup3\n      add\n      swap2\n    tag_182:\n      pop\n      pop\n      pop\n      pop\n      pop\n      swap1\n      pop\n        /* \"@openzeppelin/contracts@4.4.0/token/ERC20/ERC20.sol\":2352:2454  function symbol() public view virtual override returns (string memory) {... */\n      swap1\n      jump\t// out\n        /* \"@openzeppelin/contracts@4.4.0/token/ERC20/ERC20.sol\":6443:6848  function decreaseAllowance(address spender, uint256 subtractedValue) public virtual returns (bool) {... */\n    tag_86:\n        /* \"@openzeppelin/contracts@4.4.0/token/ERC20/ERC20.sol\":6536:6540  bool */\n      0x00\n        /* \"@openzeppelin/contracts@4.4.0/token/ERC20/ERC20.sol\":6552:6576  uint256 currentAllowance */\n      dup1\n        /* \"@openzeppelin/contracts@4.4.0/token/ERC20/ERC20.sol\":6579:6590  _allowances */\n      0x01\n        /* \"@openzeppelin/contracts@4.4.0/token/ERC20/ERC20.sol\":6579:6604  _allowances[_msgSender()] */\n      0x00\n        /* \"@openzeppelin/contracts@4.4.0/token/ERC20/ERC20.sol\":6591:6603  _msgSender() */\n      tag_186\n        /* \"@openzeppelin/contracts@4.4.0/token/ERC20/ERC20.sol\":6591:6601  _msgSender */\n      tag_111\n        /* \"@openzeppelin/contracts@4.4.0/token/ERC20/ERC20.sol\":6591:6603  _msgSender() */\n      jump\t// in\n    tag_186:\n        /* \"@openzeppelin/contracts@4.4.0/token/ERC20/ERC20.sol\":6579:6604  _allowances[_msgSender()] */\n      0xffffffffffffffffffffffffffffffffffffffff\n      and\n      0xffffffffffffffffffffffffffffffffffffffff\n      and\n      dup2\n      mstore\n      0x20\n      add\n      swap1\n      dup2\n      mstore\n      0x20\n      add\n      0x00\n      keccak256\n        /* \"@openzeppelin/contracts@4.4.0/token/ERC20/ERC20.sol\":6579:6613  _allowances[_msgSender()][spender] */\n      0x00\n        /* \"@openzeppelin/contracts@4.4.0/token/ERC20/ERC20.sol\":6605:6612  spender */\n      dup6\n        /* \"@openzeppelin/contracts@4.4.0/token/ERC20/ERC20.sol\":6579:6613  _allowances[_msgSender()][spender] */\n      0xffffffffffffffffffffffffffffffffffffffff\n      and\n      0xffffffffffffffffffffffffffffffffffffffff\n      and\n      dup2\n      mstore\n      0x20\n      add\n      swap1\n      dup2\n      mstore\n      0x20\n      add\n      0x00\n      keccak256\n      sload\n        /* \"@openzeppelin/contracts@4.4.0/token/ERC20/ERC20.sol\":6552:6613  uint256 currentAllowance = _allowances[_msgSender()][spender] */\n      swap1\n      pop\n        /* \"@openzeppelin/contracts@4.4.0/token/ERC20/ERC20.sol\":6651:6666  subtractedValue */\n      dup3\n        /* \"@openzeppelin/contracts@4.4.0/token/ERC20/ERC20.sol\":6631:6647  currentAllowance */\n      dup2\n        /* \"@openzeppelin/contracts@4.4.0/token/ERC20/ERC20.sol\":6631:6666  currentAllowance >= subtractedValue */\n      lt\n      iszero\n        /* \"@openzeppelin/contracts@4.4.0/token/ERC20/ERC20.sol\":6623:6708  require(currentAllowance >= subtractedValue, \"ERC20: decreased allowance below zero\") */\n      tag_187\n      jumpi\n      mload(0x40)\n      0x08c379a000000000000000000000000000000000000000000000000000000000\n      dup2\n      mstore\n      0x04\n      add\n      tag_188\n      swap1\n      tag_189\n      jump\t// in\n    tag_188:\n      mload(0x40)\n      dup1\n      swap2\n      sub\n      swap1\n      revert\n    tag_187:\n        /* \"@openzeppelin/contracts@4.4.0/token/ERC20/ERC20.sol\":6742:6809  _approve(_msgSender(), spender, currentAllowance - subtractedValue) */\n      tag_190\n        /* \"@openzeppelin/contracts@4.4.0/token/ERC20/ERC20.sol\":6751:6763  _msgSender() */\n      tag_191\n        /* \"@openzeppelin/contracts@4.4.0/token/ERC20/ERC20.sol\":6751:6761  _msgSender */\n      tag_111\n        /* \"@openzeppelin/contracts@4.4.0/token/ERC20/ERC20.sol\":6751:6763  _msgSender() */\n      jump\t// in\n    tag_191:\n        /* \"@openzeppelin/contracts@4.4.0/token/ERC20/ERC20.sol\":6765:6772  spender */\n      dup6\n        /* \"@openzeppelin/contracts@4.4.0/token/ERC20/ERC20.sol\":6793:6808  subtractedValue */\n      dup6\n        /* \"@openzeppelin/contracts@4.4.0/token/ERC20/ERC20.sol\":6774:6790  currentAllowance */\n      dup5\n        /* \"@openzeppelin/contracts@4.4.0/token/ERC20/ERC20.sol\":6774:6808  currentAllowance - subtractedValue */\n      sub\n        /* \"@openzeppelin/contracts@4.4.0/token/ERC20/ERC20.sol\":6742:6750  _approve */\n      tag_112\n        /* \"@openzeppelin/contracts@4.4.0/token/ERC20/ERC20.sol\":6742:6809  _approve(_msgSender(), spender, currentAllowance - subtractedValue) */\n      jump\t// in\n    tag_190:\n        /* \"@openzeppelin/contracts@4.4.0/token/ERC20/ERC20.sol\":6837:6841  true */\n      0x01\n        /* \"@openzeppelin/contracts@4.4.0/token/ERC20/ERC20.sol\":6830:6841  return true */\n      swap2\n      pop\n      pop\n        /* \"@openzeppelin/contracts@4.4.0/token/ERC20/ERC20.sol\":6443:6848  function decreaseAllowance(address spender, uint256 subtractedValue) public virtual returns (bool) {... */\n      swap3\n      swap2\n      pop\n      pop\n      jump\t// out\n        /* \"@openzeppelin/contracts@4.4.0/token/ERC20/ERC20.sol\":3721:3893  function transfer(address recipient, uint256 amount) public virtual override returns (bool) {... */\n    tag_90:\n        /* \"@openzeppelin/contracts@4.4.0/token/ERC20/ERC20.sol\":3807:3811  bool */\n      0x00\n        /* \"@openzeppelin/contracts@4.4.0/token/ERC20/ERC20.sol\":3823:3865  _transfer(_msgSender(), recipient, amount) */\n      tag_193\n        /* \"@openzeppelin/contracts@4.4.0/token/ERC20/ERC20.sol\":3833:3845  _msgSender() */\n      tag_194\n        /* \"@openzeppelin/contracts@4.4.0/token/ERC20/ERC20.sol\":3833:3843  _msgSender */\n      tag_111\n        /* \"@openzeppelin/contracts@4.4.0/token/ERC20/ERC20.sol\":3833:3845  _msgSender() */\n      jump\t// in\n    tag_194:\n        /* \"@openzeppelin/contracts@4.4.0/token/ERC20/ERC20.sol\":3847:3856  recipient */\n      dup5\n        /* \"@openzeppelin/contracts@4.4.0/token/ERC20/ERC20.sol\":3858:3864  amount */\n      dup5\n        /* \"@openzeppelin/contracts@4.4.0/token/ERC20/ERC20.sol\":3823:3832  _transfer */\n      tag_116\n        /* \"@openzeppelin/contracts@4.4.0/token/ERC20/ERC20.sol\":3823:3865  _transfer(_msgSender(), recipient, amount) */\n      jump\t// in\n    tag_193:\n        /* \"@openzeppelin/contracts@4.4.0/token/ERC20/ERC20.sol\":3882:3886  true */\n      0x01\n        /* \"@openzeppelin/contracts@4.4.0/token/ERC20/ERC20.sol\":3875:3886  return true */\n      swap1\n      pop\n        /* \"@openzeppelin/contracts@4.4.0/token/ERC20/ERC20.sol\":3721:3893  function transfer(address recipient, uint256 amount) public virtual override returns (bool) {... */\n      swap3\n      swap2\n      pop\n      pop\n      jump\t// out\n        /* \"@openzeppelin/contracts@4.4.0/token/ERC20/ERC20.sol\":3951:4100  function allowance(address owner, address spender) public view virtual override returns (uint256) {... */\n    tag_95:\n        /* \"@openzeppelin/contracts@4.4.0/token/ERC20/ERC20.sol\":4040:4047  uint256 */\n      0x00\n        /* \"@openzeppelin/contracts@4.4.0/token/ERC20/ERC20.sol\":4066:4077  _allowances */\n      0x01\n        /* \"@openzeppelin/contracts@4.4.0/token/ERC20/ERC20.sol\":4066:4084  _allowances[owner] */\n      0x00\n        /* \"@openzeppelin/contracts@4.4.0/token/ERC20/ERC20.sol\":4078:4083  owner */\n      dup5\n        /* \"@openzeppelin/contracts@4.4.0/token/ERC20/ERC20.sol\":4066:4084  _allowances[owner] */\n      0xffffffffffffffffffffffffffffffffffffffff\n      and\n      0xffffffffffffffffffffffffffffffffffffffff\n      and\n      dup2\n      mstore\n      0x20\n      add\n      swap1\n      dup2\n      mstore\n      0x20\n      add\n      0x00\n      keccak256\n        /* \"@openzeppelin/contracts@4.4.0/token/ERC20/ERC20.sol\":4066:4093  _allowances[owner][spender] */\n      0x00\n        /* \"@openzeppelin/contracts@4.4.0/token/ERC20/ERC20.sol\":4085:4092  spender */\n      dup4\n        /* \"@openzeppelin/contracts@4.4.0/token/ERC20/ERC20.sol\":4066:4093  _allowances[owner][spender] */\n      0xffffffffffffffffffffffffffffffffffffffff\n      and\n      0xffffffffffffffffffffffffffffffffffffffff\n      and\n      dup2\n      mstore\n      0x20\n      add\n      swap1\n      dup2\n      mstore\n      0x20\n      add\n      0x00\n      keccak256\n      sload\n        /* \"@openzeppelin/contracts@4.4.0/token/ERC20/ERC20.sol\":4059:4093  return _allowances[owner][spender] */\n      swap1\n      pop\n        /* \"@openzeppelin/contracts@4.4.0/token/ERC20/ERC20.sol\":3951:4100  function allowance(address owner, address spender) public view virtual override returns (uint256) {... */\n      swap3\n      swap2\n      pop\n      pop\n      jump\t// out\n        /* \"@openzeppelin/contracts@4.4.0/access/Ownable.sol\":1918:2116  function transferOwnership(address newOwner) public virtual onlyOwner {... */\n    tag_99:\n        /* \"@openzeppelin/contracts@4.4.0/access/Ownable.sol\":1259:1271  _msgSender() */\n      tag_197\n        /* \"@openzeppelin/contracts@4.4.0/access/Ownable.sol\":1259:1269  _msgSender */\n      tag_111\n        /* \"@openzeppelin/contracts@4.4.0/access/Ownable.sol\":1259:1271  _msgSender() */\n      jump\t// in\n    tag_197:\n        /* \"@openzeppelin/contracts@4.4.0/access/Ownable.sol\":1248:1271  owner() == _msgSender() */\n      0xffffffffffffffffffffffffffffffffffffffff\n      and\n        /* \"@openzeppelin/contracts@4.4.0/access/Ownable.sol\":1248:1255  owner() */\n      tag_198\n        /* \"@openzeppelin/contracts@4.4.0/access/Ownable.sol\":1248:1253  owner */\n      tag_78\n        /* \"@openzeppelin/contracts@4.4.0/access/Ownable.sol\":1248:1255  owner() */\n      jump\t// in\n    tag_198:\n        /* \"@openzeppelin/contracts@4.4.0/access/Ownable.sol\":1248:1271  owner() == _msgSender() */\n      0xffffffffffffffffffffffffffffffffffffffff\n      and\n      eq\n        /* \"@openzeppelin/contracts@4.4.0/access/Ownable.sol\":1240:1308  require(owner() == _msgSender(), \"Ownable: caller is not the owner\") */\n      tag_199\n      jumpi\n      mload(0x40)\n      0x08c379a000000000000000000000000000000000000000000000000000000000\n      dup2\n      mstore\n      0x04\n      add\n      tag_200\n      swap1\n      tag_135\n      jump\t// in\n    tag_200:\n      mload(0x40)\n      dup1\n      swap2\n      sub\n      swap1\n      revert\n    tag_199:\n        /* \"@openzeppelin/contracts@4.4.0/access/Ownable.sol\":2026:2027  0 */\n      0x00\n        /* \"@openzeppelin/contracts@4.4.0/access/Ownable.sol\":2006:2028  newOwner != address(0) */\n      0xffffffffffffffffffffffffffffffffffffffff\n      and\n        /* \"@openzeppelin/contracts@4.4.0/access/Ownable.sol\":2006:2014  newOwner */\n      dup2\n        /* \"@openzeppelin/contracts@4.4.0/access/Ownable.sol\":2006:2028  newOwner != address(0) */\n      0xffffffffffffffffffffffffffffffffffffffff\n      and\n      sub\n        /* \"@openzeppelin/contracts@4.4.0/access/Ownable.sol\":1998:2071  require(newOwner != address(0), \"Ownable: new owner is the zero address\") */\n      tag_202\n      jumpi\n      mload(0x40)\n      0x08c379a000000000000000000000000000000000000000000000000000000000\n      dup2\n      mstore\n      0x04\n      add\n      tag_203\n      swap1\n      tag_204\n      jump\t// in\n    tag_203:\n      mload(0x40)\n      dup1\n      swap2\n      sub\n      swap1\n      revert\n    tag_202:\n        /* \"@openzeppelin/contracts@4.4.0/access/Ownable.sol\":2081:2109  _transferOwnership(newOwner) */\n      tag_205\n        /* \"@openzeppelin/contracts@4.4.0/access/Ownable.sol\":2100:2108  newOwner */\n      dup2\n        /* \"@openzeppelin/contracts@4.4.0/access/Ownable.sol\":2081:2099  _transferOwnership */\n      tag_160\n        /* \"@openzeppelin/contracts@4.4.0/access/Ownable.sol\":2081:2109  _transferOwnership(newOwner) */\n      jump\t// in\n    tag_205:\n        /* \"@openzeppelin/contracts@4.4.0/access/Ownable.sol\":1918:2116  function transferOwnership(address newOwner) public virtual onlyOwner {... */\n      pop\n      jump\t// out\n        /* \"@openzeppelin/contracts@4.4.0/token/ERC20/ERC20.sol\":10973:11094  function _beforeTokenTransfer(... */\n    tag_100:\n      pop\n      pop\n      pop\n      jump\t// out\n        /* \"@openzeppelin/contracts@4.4.0/utils/Context.sol\":640:736  function _msgSender() internal view virtual returns (address) {... */\n    tag_111:\n        /* \"@openzeppelin/contracts@4.4.0/utils/Context.sol\":693:700  address */\n      0x00\n        /* \"@openzeppelin/contracts@4.4.0/utils/Context.sol\":719:729  msg.sender */\n      caller\n        /* \"@openzeppelin/contracts@4.4.0/utils/Context.sol\":712:729  return msg.sender */\n      swap1\n      pop\n        /* \"@openzeppelin/contracts@4.4.0/utils/Context.sol\":640:736  function _msgSender() internal view virtual returns (address) {... */\n      swap1\n      jump\t// out\n        /* \"@openzeppelin/contracts@4.4.0/token/ERC20/ERC20.sol\":10019:10389  function _approve(... */\n    tag_112:\n        /* \"@openzeppelin/contracts@4.4.0/token/ERC20/ERC20.sol\":10167:10168  0 */\n      0x00\n        /* \"@openzeppelin/contracts@4.4.0/token/ERC20/ERC20.sol\":10150:10169  owner != address(0) */\n      0xffffffffffffffffffffffffffffffffffffffff\n      and\n        /* \"@openzeppelin/contracts@4.4.0/token/ERC20/ERC20.sol\":10150:10155  owner */\n      dup4\n        /* \"@openzeppelin/contracts@4.4.0/token/ERC20/ERC20.sol\":10150:10169  owner != address(0) */\n      0xffffffffffffffffffffffffffffffffffffffff\n      and\n      sub\n        /* \"@openzeppelin/contracts@4.4.0/token/ERC20/ERC20.sol\":10142:10210  require(owner != address(0), \"ERC20: approve from the zero address\") */\n      tag_209\n      jumpi\n      mload(0x40)\n      0x08c379a000000000000000000000000000000000000000000000000000000000\n      dup2\n      mstore\n      0x04\n      add\n      tag_210\n      swap1\n      tag_211\n      jump\t// in\n    tag_210:\n      mload(0x40)\n      dup1\n      swap2\n      sub\n      swap1\n      revert\n    tag_209:\n        /* \"@openzeppelin/contracts@4.4.0/token/ERC20/ERC20.sol\":10247:10248  0 */\n      0x00\n        /* \"@openzeppelin/contracts@4.4.0/token/ERC20/ERC20.sol\":10228:10249  spender != address(0) */\n      0xffffffffffffffffffffffffffffffffffffffff\n      and\n        /* \"@openzeppelin/contracts@4.4.0/token/ERC20/ERC20.sol\":10228:10235  spender */\n      dup3\n        /* \"@openzeppelin/contracts@4.4.0/token/ERC20/ERC20.sol\":10228:10249  spender != address(0) */\n      0xffffffffffffffffffffffffffffffffffffffff\n      and\n      sub\n        /* \"@openzeppelin/contracts@4.4.0/token/ERC20/ERC20.sol\":10220:10288  require(spender != address(0), \"ERC20: approve to the zero address\") */\n      tag_212\n      jumpi\n      mload(0x40)\n      0x08c379a000000000000000000000000000000000000000000000000000000000\n      dup2\n      mstore\n      0x04\n      add\n      tag_213\n      swap1\n      tag_214\n      jump\t// in\n    tag_213:\n      mload(0x40)\n      dup1\n      swap2\n      sub\n      swap1\n      revert\n    tag_212:\n        /* \"@openzeppelin/contracts@4.4.0/token/ERC20/ERC20.sol\":10329:10335  amount */\n      dup1\n        /* \"@openzeppelin/contracts@4.4.0/token/ERC20/ERC20.sol\":10299:10310  _allowances */\n      0x01\n        /* \"@openzeppelin/contracts@4.4.0/token/ERC20/ERC20.sol\":10299:10317  _allowances[owner] */\n      0x00\n        /* \"@openzeppelin/contracts@4.4.0/token/ERC20/ERC20.sol\":10311:10316  owner */\n      dup6\n        /* \"@openzeppelin/contracts@4.4.0/token/ERC20/ERC20.sol\":10299:10317  _allowances[owner] */\n      0xffffffffffffffffffffffffffffffffffffffff\n      and\n      0xffffffffffffffffffffffffffffffffffffffff\n      and\n      dup2\n      mstore\n      0x20\n      add\n      swap1\n      dup2\n      mstore\n      0x20\n      add\n      0x00\n      keccak256\n        /* \"@openzeppelin/contracts@4.4.0/token/ERC20/ERC20.sol\":10299:10326  _allowances[owner][spender] */\n      0x00\n        /* \"@openzeppelin/contracts@4.4.0/token/ERC20/ERC20.sol\":10318:10325  spender */\n      dup5\n        /* \"@openzeppelin/contracts@4.4.0/token/ERC20/ERC20.sol\":10299:10326  _allowances[owner][spender] */\n      0xffffffffffffffffffffffffffffffffffffffff\n      and\n      0xffffffffffffffffffffffffffffffffffffffff\n      and\n      dup2\n      mstore\n      0x20\n      add\n      swap1\n      dup2\n      mstore\n      0x20\n      add\n      0x00\n      keccak256\n        /* \"@openzeppelin/contracts@4.4.0/token/ERC20/ERC20.sol\":10299:10335  _allowances[owner][spender] = amount */\n      dup2\n      swap1\n      sstore\n      pop\n        /* \"@openzeppelin/contracts@4.4.0/token/ERC20/ERC20.sol\":10366:10373  spender */\n      dup2\n        /* \"@openzeppelin/contracts@4.4.0/token/ERC20/ERC20.sol\":10350:10382  Approval(owner, spender, amount) */\n      0xffffffffffffffffffffffffffffffffffffffff\n      and\n        /* \"@openzeppelin/contracts@4.4.0/token/ERC20/ERC20.sol\":10359:10364  owner */\n      dup4\n        /* \"@openzeppelin/contracts@4.4.0/token/ERC20/ERC20.sol\":10350:10382  Approval(owner, spender, amount) */\n      0xffffffffffffffffffffffffffffffffffffffff\n      and\n      0x8c5be1e5ebec7d5bd14f71427d1e84f3dd0314c0f7b2291e5b200ac8c7c3b925\n        /* \"@openzeppelin/contracts@4.4.0/token/ERC20/ERC20.sol\":10375:10381  amount */\n      dup4\n        /* \"@openzeppelin/contracts@4.4.0/token/ERC20/ERC20.sol\":10350:10382  Approval(owner, spender, amount) */\n      mload(0x40)\n      tag_215\n      swap2\n      swap1\n      tag_39\n      jump\t// in\n    tag_215:\n      mload(0x40)\n      dup1\n      swap2\n      sub\n      swap1\n      log3\n        /* \"@openzeppelin/contracts@4.4.0/token/ERC20/ERC20.sol\":10019:10389  function _approve(... */\n      pop\n      pop\n      pop\n      jump\t// out\n        /* \"@openzeppelin/contracts@4.4.0/token/ERC20/ERC20.sol\":7322:8035  function _transfer(... */\n    tag_116:\n        /* \"@openzeppelin/contracts@4.4.0/token/ERC20/ERC20.sol\":7475:7476  0 */\n      0x00\n        /* \"@openzeppelin/contracts@4.4.0/token/ERC20/ERC20.sol\":7457:7477  sender != address(0) */\n      0xffffffffffffffffffffffffffffffffffffffff\n      and\n        /* \"@openzeppelin/contracts@4.4.0/token/ERC20/ERC20.sol\":7457:7463  sender */\n      dup4\n        /* \"@openzeppelin/contracts@4.4.0/token/ERC20/ERC20.sol\":7457:7477  sender != address(0) */\n      0xffffffffffffffffffffffffffffffffffffffff\n      and\n      sub\n        /* \"@openzeppelin/contracts@4.4.0/token/ERC20/ERC20.sol\":7449:7519  require(sender != address(0), \"ERC20: transfer from the zero address\") */\n      tag_217\n      jumpi\n      mload(0x40)\n      0x08c379a000000000000000000000000000000000000000000000000000000000\n      dup2\n      mstore\n      0x04\n      add\n      tag_218\n      swap1\n      tag_219\n      jump\t// in\n    tag_218:\n      mload(0x40)\n      dup1\n      swap2\n      sub\n      swap1\n      revert\n    tag_217:\n        /* \"@openzeppelin/contracts@4.4.0/token/ERC20/ERC20.sol\":7558:7559  0 */\n      0x00\n        /* \"@openzeppelin/contracts@4.4.0/token/ERC20/ERC20.sol\":7537:7560  recipient != address(0) */\n      0xffffffffffffffffffffffffffffffffffffffff\n      and\n        /* \"@openzeppelin/contracts@4.4.0/token/ERC20/ERC20.sol\":7537:7546  recipient */\n      dup3\n        /* \"@openzeppelin/contracts@4.4.0/token/ERC20/ERC20.sol\":7537:7560  recipient != address(0) */\n      0xffffffffffffffffffffffffffffffffffffffff\n      and\n      sub\n        /* \"@openzeppelin/contracts@4.4.0/token/ERC20/ERC20.sol\":7529:7600  require(recipient != address(0), \"ERC20: transfer to the zero address\") */\n      tag_220\n      jumpi\n      mload(0x40)\n      0x08c379a000000000000000000000000000000000000000000000000000000000\n      dup2\n      mstore\n      0x04\n      add\n      tag_221\n      swap1\n      tag_222\n      jump\t// in\n    tag_221:\n      mload(0x40)\n      dup1\n      swap2\n      sub\n      swap1\n      revert\n    tag_220:\n        /* \"@openzeppelin/contracts@4.4.0/token/ERC20/ERC20.sol\":7611:7658  _beforeTokenTransfer(sender, recipient, amount) */\n      tag_223\n        /* \"@openzeppelin/contracts@4.4.0/token/ERC20/ERC20.sol\":7632:7638  sender */\n      dup4\n        /* \"@openzeppelin/contracts@4.4.0/token/ERC20/ERC20.sol\":7640:7649  recipient */\n      dup4\n        /* \"@openzeppelin/contracts@4.4.0/token/ERC20/ERC20.sol\":7651:7657  amount */\n      dup4\n        /* \"@openzeppelin/contracts@4.4.0/token/ERC20/ERC20.sol\":7611:7631  _beforeTokenTransfer */\n      tag_224\n        /* \"@openzeppelin/contracts@4.4.0/token/ERC20/ERC20.sol\":7611:7658  _beforeTokenTransfer(sender, recipient, amount) */\n      jump\t// in\n    tag_223:\n        /* \"@openzeppelin/contracts@4.4.0/token/ERC20/ERC20.sol\":7669:7690  uint256 senderBalance */\n      0x00\n        /* \"@openzeppelin/contracts@4.4.0/token/ERC20/ERC20.sol\":7693:7702  _balances */\n      dup1\n        /* \"@openzeppelin/contracts@4.4.0/token/ERC20/ERC20.sol\":7693:7710  _balances[sender] */\n      0x00\n        /* \"@openzeppelin/contracts@4.4.0/token/ERC20/ERC20.sol\":7703:7709  sender */\n      dup6\n        /* \"@openzeppelin/contracts@4.4.0/token/ERC20/ERC20.sol\":7693:7710  _balances[sender] */\n      0xffffffffffffffffffffffffffffffffffffffff\n      and\n      0xffffffffffffffffffffffffffffffffffffffff\n      and\n      dup2\n      mstore\n      0x20\n      add\n      swap1\n      dup2\n      mstore\n      0x20\n      add\n      0x00\n      keccak256\n      sload\n        /* \"@openzeppelin/contracts@4.4.0/token/ERC20/ERC20.sol\":7669:7710  uint256 senderBalance = _balances[sender] */\n      swap1\n      pop\n        /* \"@openzeppelin/contracts@4.4.0/token/ERC20/ERC20.sol\":7745:7751  amount */\n      dup2\n        /* \"@openzeppelin/contracts@4.4.0/token/ERC20/ERC20.sol\":7728:7741  senderBalance */\n      dup2\n        /* \"@openzeppelin/contracts@4.4.0/token/ERC20/ERC20.sol\":7728:7751  senderBalance >= amount */\n      lt\n      iszero\n        /* \"@openzeppelin/contracts@4.4.0/token/ERC20/ERC20.sol\":7720:7794  require(senderBalance >= amount, \"ERC20: transfer amount exceeds balance\") */\n      tag_225\n      jumpi\n      mload(0x40)\n      0x08c379a000000000000000000000000000000000000000000000000000000000\n      dup2\n      mstore\n      0x04\n      add\n      tag_226\n      swap1\n      tag_227\n      jump\t// in\n    tag_226:\n      mload(0x40)\n      dup1\n      swap2\n      sub\n      swap1\n      revert\n    tag_225:\n        /* \"@openzeppelin/contracts@4.4.0/token/ERC20/ERC20.sol\":7864:7870  amount */\n      dup2\n        /* \"@openzeppelin/contracts@4.4.0/token/ERC20/ERC20.sol\":7848:7861  senderBalance */\n      dup2\n        /* \"@openzeppelin/contracts@4.4.0/token/ERC20/ERC20.sol\":7848:7870  senderBalance - amount */\n      sub\n        /* \"@openzeppelin/contracts@4.4.0/token/ERC20/ERC20.sol\":7828:7837  _balances */\n      0x00\n        /* \"@openzeppelin/contracts@4.4.0/token/ERC20/ERC20.sol\":7828:7845  _balances[sender] */\n      dup1\n        /* \"@openzeppelin/contracts@4.4.0/token/ERC20/ERC20.sol\":7838:7844  sender */\n      dup7\n        /* \"@openzeppelin/contracts@4.4.0/token/ERC20/ERC20.sol\":7828:7845  _balances[sender] */\n      0xffffffffffffffffffffffffffffffffffffffff\n      and\n      0xffffffffffffffffffffffffffffffffffffffff\n      and\n      dup2\n      mstore\n      0x20\n      add\n      swap1\n      dup2\n      mstore\n      0x20\n      add\n      0x00\n      keccak256\n        /* \"@openzeppelin/contracts@4.4.0/token/ERC20/ERC20.sol\":7828:7870  _balances[sender] = senderBalance - amount */\n      dup2\n      swap1\n      sstore\n      pop\n        /* \"@openzeppelin/contracts@4.4.0/token/ERC20/ERC20.sol\":7914:7920  amount */\n      dup2\n        /* \"@openzeppelin/contracts@4.4.0/token/ERC20/ERC20.sol\":7890:7899  _balances */\n      0x00\n        /* \"@openzeppelin/contracts@4.4.0/token/ERC20/ERC20.sol\":7890:7910  _balances[recipient] */\n      dup1\n        /* \"@openzeppelin/contracts@4.4.0/token/ERC20/ERC20.sol\":7900:7909  recipient */\n      dup6\n        /* \"@openzeppelin/contracts@4.4.0/token/ERC20/ERC20.sol\":7890:7910  _balances[recipient] */\n      0xffffffffffffffffffffffffffffffffffffffff\n      and\n      0xffffffffffffffffffffffffffffffffffffffff\n      and\n      dup2\n      mstore\n      0x20\n      add\n      swap1\n      dup2\n      mstore\n      0x20\n      add\n      0x00\n      keccak256\n      0x00\n        /* \"@openzeppelin/contracts@4.4.0/token/ERC20/ERC20.sol\":7890:7920  _balances[recipient] += amount */\n      dup3\n      dup3\n      sload\n      tag_228\n      swap2\n      swap1\n      tag_129\n      jump\t// in\n    tag_228:\n      swap3\n      pop\n      pop\n      dup2\n      swap1\n      sstore\n      pop\n        /* \"@openzeppelin/contracts@4.4.0/token/ERC20/ERC20.sol\":7953:7962  recipient */\n      dup3\n        /* \"@openzeppelin/contracts@4.4.0/token/ERC20/ERC20.sol\":7936:7971  Transfer(sender, recipient, amount) */\n      0xffffffffffffffffffffffffffffffffffffffff\n      and\n        /* \"@openzeppelin/contracts@4.4.0/token/ERC20/ERC20.sol\":7945:7951  sender */\n      dup5\n        /* \"@openzeppelin/contracts@4.4.0/token/ERC20/ERC20.sol\":7936:7971  Transfer(sender, recipient, amount) */\n      0xffffffffffffffffffffffffffffffffffffffff\n      and\n      0xddf252ad1be2c89b69c2b068fc378daa952ba7f163c4a11628f55a4df523b3ef\n        /* \"@openzeppelin/contracts@4.4.0/token/ERC20/ERC20.sol\":7964:7970  amount */\n      dup5\n        /* \"@openzeppelin/contracts@4.4.0/token/ERC20/ERC20.sol\":7936:7971  Transfer(sender, recipient, amount) */\n      mload(0x40)\n      tag_229\n      swap2\n      swap1\n      tag_39\n      jump\t// in\n    tag_229:\n      mload(0x40)\n      dup1\n      swap2\n      sub\n      swap1\n      log3\n        /* \"@openzeppelin/contracts@4.4.0/token/ERC20/ERC20.sol\":7982:8028  _afterTokenTransfer(sender, recipient, amount) */\n      tag_230\n        /* \"@openzeppelin/contracts@4.4.0/token/ERC20/ERC20.sol\":8002:8008  sender */\n      dup5\n        /* \"@openzeppelin/contracts@4.4.0/token/ERC20/ERC20.sol\":8010:8019  recipient */\n      dup5\n        /* \"@openzeppelin/contracts@4.4.0/token/ERC20/ERC20.sol\":8021:8027  amount */\n      dup5\n        /* \"@openzeppelin/contracts@4.4.0/token/ERC20/ERC20.sol\":7982:8001  _afterTokenTransfer */\n      tag_231\n        /* \"@openzeppelin/contracts@4.4.0/token/ERC20/ERC20.sol\":7982:8028  _afterTokenTransfer(sender, recipient, amount) */\n      jump\t// in\n    tag_230:\n        /* \"@openzeppelin/contracts@4.4.0/token/ERC20/ERC20.sol\":7439:8035  {... */\n      pop\n        /* \"@openzeppelin/contracts@4.4.0/token/ERC20/ERC20.sol\":7322:8035  function _transfer(... */\n      pop\n      pop\n      pop\n      jump\t// out\n        /* \"@openzeppelin/contracts@4.4.0/security/Pausable.sol\":2110:2227  function _unpause() internal virtual whenPaused {... */\n    tag_138:\n        /* \"@openzeppelin/contracts@4.4.0/security/Pausable.sol\":1677:1685  paused() */\n      tag_233\n        /* \"@openzeppelin/contracts@4.4.0/security/Pausable.sol\":1677:1683  paused */\n      tag_63\n        /* \"@openzeppelin/contracts@4.4.0/security/Pausable.sol\":1677:1685  paused() */\n      jump\t// in\n    tag_233:\n        /* \"@openzeppelin/contracts@4.4.0/security/Pausable.sol\":1669:1710  require(paused(), \"Pausable: not paused\") */\n      tag_234\n      jumpi\n      mload(0x40)\n      0x08c379a000000000000000000000000000000000000000000000000000000000\n      dup2\n      mstore\n      0x04\n      add\n      tag_235\n      swap1\n      tag_236\n      jump\t// in\n    tag_235:\n      mload(0x40)\n      dup1\n      swap2\n      sub\n      swap1\n      revert\n    tag_234:\n        /* \"@openzeppelin/contracts@4.4.0/security/Pausable.sol\":2178:2183  false */\n      0x00\n        /* \"@openzeppelin/contracts@4.4.0/security/Pausable.sol\":2168:2175  _paused */\n      0x05\n      0x00\n        /* \"@openzeppelin/contracts@4.4.0/security/Pausable.sol\":2168:2183  _paused = false */\n      0x0100\n      exp\n      dup2\n      sload\n      dup2\n      0xff\n      mul\n      not\n      and\n      swap1\n      dup4\n      iszero\n      iszero\n      mul\n      or\n      swap1\n      sstore\n      pop\n        /* \"@openzeppelin/contracts@4.4.0/security/Pausable.sol\":2198:2220  Unpaused(_msgSender()) */\n      0x5db9ee0a495bf2e6ff9c91a7834c1ba4fdd244a5e8aa4e537bd38aeae4b073aa\n        /* \"@openzeppelin/contracts@4.4.0/security/Pausable.sol\":2207:2219  _msgSender() */\n      tag_238\n        /* \"@openzeppelin/contracts@4.4.0/security/Pausable.sol\":2207:2217  _msgSender */\n      tag_111\n        /* \"@openzeppelin/contracts@4.4.0/security/Pausable.sol\":2207:2219  _msgSender() */\n      jump\t// in\n    tag_238:\n        /* \"@openzeppelin/contracts@4.4.0/security/Pausable.sol\":2198:2220  Unpaused(_msgSender()) */\n      mload(0x40)\n      tag_239\n      swap2\n      swap1\n      tag_80\n      jump\t// in\n    tag_239:\n      mload(0x40)\n      dup1\n      swap2\n      sub\n      swap1\n      log1\n        /* \"@openzeppelin/contracts@4.4.0/security/Pausable.sol\":2110:2227  function _unpause() internal virtual whenPaused {... */\n      jump\t// out\n        /* \"@openzeppelin/contracts@4.4.0/token/ERC20/ERC20.sol\":8311:8700  function _mint(address account, uint256 amount) internal virtual {... */\n    tag_146:\n        /* \"@openzeppelin/contracts@4.4.0/token/ERC20/ERC20.sol\":8413:8414  0 */\n      0x00\n        /* \"@openzeppelin/contracts@4.4.0/token/ERC20/ERC20.sol\":8394:8415  account != address(0) */\n      0xffffffffffffffffffffffffffffffffffffffff\n      and\n        /* \"@openzeppelin/contracts@4.4.0/token/ERC20/ERC20.sol\":8394:8401  account */\n      dup3\n        /* \"@openzeppelin/contracts@4.4.0/token/ERC20/ERC20.sol\":8394:8415  account != address(0) */\n      0xffffffffffffffffffffffffffffffffffffffff\n      and\n      sub\n        /* \"@openzeppelin/contracts@4.4.0/token/ERC20/ERC20.sol\":8386:8451  require(account != address(0), \"ERC20: mint to the zero address\") */\n      tag_241\n      jumpi\n      mload(0x40)\n      0x08c379a000000000000000000000000000000000000000000000000000000000\n      dup2\n      mstore\n      0x04\n      add\n      tag_242\n      swap1\n      tag_243\n      jump\t// in\n    tag_242:\n      mload(0x40)\n      dup1\n      swap2\n      sub\n      swap1\n      revert\n    tag_241:\n        /* \"@openzeppelin/contracts@4.4.0/token/ERC20/ERC20.sol\":8462:8511  _beforeTokenTransfer(address(0), account, amount) */\n      tag_244\n        /* \"@openzeppelin/contracts@4.4.0/token/ERC20/ERC20.sol\":8491:8492  0 */\n      0x00\n        /* \"@openzeppelin/contracts@4.4.0/token/ERC20/ERC20.sol\":8495:8502  account */\n      dup4\n        /* \"@openzeppelin/contracts@4.4.0/token/ERC20/ERC20.sol\":8504:8510  amount */\n      dup4\n        /* \"@openzeppelin/contracts@4.4.0/token/ERC20/ERC20.sol\":8462:8482  _beforeTokenTransfer */\n      tag_224\n        /* \"@openzeppelin/contracts@4.4.0/token/ERC20/ERC20.sol\":8462:8511  _beforeTokenTransfer(address(0), account, amount) */\n      jump\t// in\n    tag_244:\n        /* \"@openzeppelin/contracts@4.4.0/token/ERC20/ERC20.sol\":8538:8544  amount */\n      dup1\n        /* \"@openzeppelin/contracts@4.4.0/token/ERC20/ERC20.sol\":8522:8534  _totalSupply */\n      0x02\n      0x00\n        /* \"@openzeppelin/contracts@4.4.0/token/ERC20/ERC20.sol\":8522:8544  _totalSupply += amount */\n      dup3\n      dup3\n      sload\n      tag_245\n      swap2\n      swap1\n      tag_129\n      jump\t// in\n    tag_245:\n      swap3\n      pop\n      pop\n      dup2\n      swap1\n      sstore\n      pop\n        /* \"@openzeppelin/contracts@4.4.0/token/ERC20/ERC20.sol\":8576:8582  amount */\n      dup1\n        /* \"@openzeppelin/contracts@4.4.0/token/ERC20/ERC20.sol\":8554:8563  _balances */\n      0x00\n        /* \"@openzeppelin/contracts@4.4.0/token/ERC20/ERC20.sol\":8554:8572  _balances[account] */\n      dup1\n        /* \"@openzeppelin/contracts@4.4.0/token/ERC20/ERC20.sol\":8564:8571  account */\n      dup5\n        /* \"@openzeppelin/contracts@4.4.0/token/ERC20/ERC20.sol\":8554:8572  _balances[account] */\n      0xffffffffffffffffffffffffffffffffffffffff\n      and\n      0xffffffffffffffffffffffffffffffffffffffff\n      and\n      dup2\n      mstore\n      0x20\n      add\n      swap1\n      dup2\n      mstore\n      0x20\n      add\n      0x00\n      keccak256\n      0x00\n        /* \"@openzeppelin/contracts@4.4.0/token/ERC20/ERC20.sol\":8554:8582  _balances[account] += amount */\n      dup3\n      dup3\n      sload\n      tag_246\n      swap2\n      swap1\n      tag_129\n      jump\t// in\n    tag_246:\n      swap3\n      pop\n      pop\n      dup2\n      swap1\n      sstore\n      pop\n        /* \"@openzeppelin/contracts@4.4.0/token/ERC20/ERC20.sol\":8618:8625  account */\n      dup2\n        /* \"@openzeppelin/contracts@4.4.0/token/ERC20/ERC20.sol\":8597:8634  Transfer(address(0), account, amount) */\n      0xffffffffffffffffffffffffffffffffffffffff\n      and\n        /* \"@openzeppelin/contracts@4.4.0/token/ERC20/ERC20.sol\":8614:8615  0 */\n      0x00\n        /* \"@openzeppelin/contracts@4.4.0/token/ERC20/ERC20.sol\":8597:8634  Transfer(address(0), account, amount) */\n      0xffffffffffffffffffffffffffffffffffffffff\n      and\n      0xddf252ad1be2c89b69c2b068fc378daa952ba7f163c4a11628f55a4df523b3ef\n        /* \"@openzeppelin/contracts@4.4.0/token/ERC20/ERC20.sol\":8627:8633  amount */\n      dup4\n        /* \"@openzeppelin/contracts@4.4.0/token/ERC20/ERC20.sol\":8597:8634  Transfer(address(0), account, amount) */\n      mload(0x40)\n      tag_247\n      swap2\n      swap1\n      tag_39\n      jump\t// in\n    tag_247:\n      mload(0x40)\n      dup1\n      swap2\n      sub\n      swap1\n      log3\n        /* \"@openzeppelin/contracts@4.4.0/token/ERC20/ERC20.sol\":8645:8693  _afterTokenTransfer(address(0), account, amount) */\n      tag_248\n        /* \"@openzeppelin/contracts@4.4.0/token/ERC20/ERC20.sol\":8673:8674  0 */\n      0x00\n        /* \"@openzeppelin/contracts@4.4.0/token/ERC20/ERC20.sol\":8677:8684  account */\n      dup4\n        /* \"@openzeppelin/contracts@4.4.0/token/ERC20/ERC20.sol\":8686:8692  amount */\n      dup4\n        /* \"@openzeppelin/contracts@4.4.0/token/ERC20/ERC20.sol\":8645:8664  _afterTokenTransfer */\n      tag_231\n        /* \"@openzeppelin/contracts@4.4.0/token/ERC20/ERC20.sol\":8645:8693  _afterTokenTransfer(address(0), account, amount) */\n      jump\t// in\n    tag_248:\n        /* \"@openzeppelin/contracts@4.4.0/token/ERC20/ERC20.sol\":8311:8700  function _mint(address account, uint256 amount) internal virtual {... */\n      pop\n      pop\n      jump\t// out\n        /* \"@openzeppelin/contracts@4.4.0/token/ERC20/ERC20.sol\":9020:9596  function _burn(address account, uint256 amount) internal virtual {... */\n    tag_150:\n        /* \"@openzeppelin/contracts@4.4.0/token/ERC20/ERC20.sol\":9122:9123  0 */\n      0x00\n        /* \"@openzeppelin/contracts@4.4.0/token/ERC20/ERC20.sol\":9103:9124  account != address(0) */\n      0xffffffffffffffffffffffffffffffffffffffff\n      and\n        /* \"@openzeppelin/contracts@4.4.0/token/ERC20/ERC20.sol\":9103:9110  account */\n      dup3\n        /* \"@openzeppelin/contracts@4.4.0/token/ERC20/ERC20.sol\":9103:9124  account != address(0) */\n      0xffffffffffffffffffffffffffffffffffffffff\n      and\n      sub\n        /* \"@openzeppelin/contracts@4.4.0/token/ERC20/ERC20.sol\":9095:9162  require(account != address(0), \"ERC20: burn from the zero address\") */\n      tag_250\n      jumpi\n      mload(0x40)\n      0x08c379a000000000000000000000000000000000000000000000000000000000\n      dup2\n      mstore\n      0x04\n      add\n      tag_251\n      swap1\n      tag_252\n      jump\t// in\n    tag_251:\n      mload(0x40)\n      dup1\n      swap2\n      sub\n      swap1\n      revert\n    tag_250:\n        /* \"@openzeppelin/contracts@4.4.0/token/ERC20/ERC20.sol\":9173:9222  _beforeTokenTransfer(account, address(0), amount) */\n      tag_253\n        /* \"@openzeppelin/contracts@4.4.0/token/ERC20/ERC20.sol\":9194:9201  account */\n      dup3\n        /* \"@openzeppelin/contracts@4.4.0/token/ERC20/ERC20.sol\":9211:9212  0 */\n      0x00\n        /* \"@openzeppelin/contracts@4.4.0/token/ERC20/ERC20.sol\":9215:9221  amount */\n      dup4\n        /* \"@openzeppelin/contracts@4.4.0/token/ERC20/ERC20.sol\":9173:9193  _beforeTokenTransfer */\n      tag_224\n        /* \"@openzeppelin/contracts@4.4.0/token/ERC20/ERC20.sol\":9173:9222  _beforeTokenTransfer(account, address(0), amount) */\n      jump\t// in\n    tag_253:\n        /* \"@openzeppelin/contracts@4.4.0/token/ERC20/ERC20.sol\":9233:9255  uint256 accountBalance */\n      0x00\n        /* \"@openzeppelin/contracts@4.4.0/token/ERC20/ERC20.sol\":9258:9267  _balances */\n      dup1\n        /* \"@openzeppelin/contracts@4.4.0/token/ERC20/ERC20.sol\":9258:9276  _balances[account] */\n      0x00\n        /* \"@openzeppelin/contracts@4.4.0/token/ERC20/ERC20.sol\":9268:9275  account */\n      dup5\n        /* \"@openzeppelin/contracts@4.4.0/token/ERC20/ERC20.sol\":9258:9276  _balances[account] */\n      0xffffffffffffffffffffffffffffffffffffffff\n      and\n      0xffffffffffffffffffffffffffffffffffffffff\n      and\n      dup2\n      mstore\n      0x20\n      add\n      swap1\n      dup2\n      mstore\n      0x20\n      add\n      0x00\n      keccak256\n      sload\n        /* \"@openzeppelin/contracts@4.4.0/token/ERC20/ERC20.sol\":9233:9276  uint256 accountBalance = _balances[account] */\n      swap1\n      pop\n        /* \"@openzeppelin/contracts@4.4.0/token/ERC20/ERC20.sol\":9312:9318  amount */\n      dup2\n        /* \"@openzeppelin/contracts@4.4.0/token/ERC20/ERC20.sol\":9294:9308  accountBalance */\n      dup2\n        /* \"@openzeppelin/contracts@4.4.0/token/ERC20/ERC20.sol\":9294:9318  accountBalance >= amount */\n      lt\n      iszero\n        /* \"@openzeppelin/contracts@4.4.0/token/ERC20/ERC20.sol\":9286:9357  require(accountBalance >= amount, \"ERC20: burn amount exceeds balance\") */\n      tag_254\n      jumpi\n      mload(0x40)\n      0x08c379a000000000000000000000000000000000000000000000000000000000\n      dup2\n      mstore\n      0x04\n      add\n      tag_255\n      swap1\n      tag_256\n      jump\t// in\n    tag_255:\n      mload(0x40)\n      dup1\n      swap2\n      sub\n      swap1\n      revert\n    tag_254:\n        /* \"@openzeppelin/contracts@4.4.0/token/ERC20/ERC20.sol\":9429:9435  amount */\n      dup2\n        /* \"@openzeppelin/contracts@4.4.0/token/ERC20/ERC20.sol\":9412:9426  accountBalance */\n      dup2\n        /* \"@openzeppelin/contracts@4.4.0/token/ERC20/ERC20.sol\":9412:9435  accountBalance - amount */\n      sub\n        /* \"@openzeppelin/contracts@4.4.0/token/ERC20/ERC20.sol\":9391:9400  _balances */\n      0x00\n        /* \"@openzeppelin/contracts@4.4.0/token/ERC20/ERC20.sol\":9391:9409  _balances[account] */\n      dup1\n        /* \"@openzeppelin/contracts@4.4.0/token/ERC20/ERC20.sol\":9401:9408  account */\n      dup6\n        /* \"@openzeppelin/contracts@4.4.0/token/ERC20/ERC20.sol\":9391:9409  _balances[account] */\n      0xffffffffffffffffffffffffffffffffffffffff\n      and\n      0xffffffffffffffffffffffffffffffffffffffff\n      and\n      dup2\n      mstore\n      0x20\n      add\n      swap1\n      dup2\n      mstore\n      0x20\n      add\n      0x00\n      keccak256\n        /* \"@openzeppelin/contracts@4.4.0/token/ERC20/ERC20.sol\":9391:9435  _balances[account] = accountBalance - amount */\n      dup2\n      swap1\n      sstore\n      pop\n        /* \"@openzeppelin/contracts@4.4.0/token/ERC20/ERC20.sol\":9471:9477  amount */\n      dup2\n        /* \"@openzeppelin/contracts@4.4.0/token/ERC20/ERC20.sol\":9455:9467  _totalSupply */\n      0x02\n      0x00\n        /* \"@openzeppelin/contracts@4.4.0/token/ERC20/ERC20.sol\":9455:9477  _totalSupply -= amount */\n      dup3\n      dup3\n      sload\n      tag_257\n      swap2\n      swap1\n      tag_258\n      jump\t// in\n    tag_257:\n      swap3\n      pop\n      pop\n      dup2\n      swap1\n      sstore\n      pop\n        /* \"@openzeppelin/contracts@4.4.0/token/ERC20/ERC20.sol\":9519:9520  0 */\n      0x00\n        /* \"@openzeppelin/contracts@4.4.0/token/ERC20/ERC20.sol\":9493:9530  Transfer(account, address(0), amount) */\n      0xffffffffffffffffffffffffffffffffffffffff\n      and\n        /* \"@openzeppelin/contracts@4.4.0/token/ERC20/ERC20.sol\":9502:9509  account */\n      dup4\n        /* \"@openzeppelin/contracts@4.4.0/token/ERC20/ERC20.sol\":9493:9530  Transfer(account, address(0), amount) */\n      0xffffffffffffffffffffffffffffffffffffffff\n      and\n      0xddf252ad1be2c89b69c2b068fc378daa952ba7f163c4a11628f55a4df523b3ef\n        /* \"@openzeppelin/contracts@4.4.0/token/ERC20/ERC20.sol\":9523:9529  amount */\n      dup5\n        /* \"@openzeppelin/contracts@4.4.0/token/ERC20/ERC20.sol\":9493:9530  Transfer(account, address(0), amount) */\n      mload(0x40)\n      tag_259\n      swap2\n      swap1\n      tag_39\n      jump\t// in\n    tag_259:\n      mload(0x40)\n      dup1\n      swap2\n      sub\n      swap1\n      log3\n        /* \"@openzeppelin/contracts@4.4.0/token/ERC20/ERC20.sol\":9541:9589  _afterTokenTransfer(account, address(0), amount) */\n      tag_260\n        /* \"@openzeppelin/contracts@4.4.0/token/ERC20/ERC20.sol\":9561:9568  account */\n      dup4\n        /* \"@openzeppelin/contracts@4.4.0/token/ERC20/ERC20.sol\":9578:9579  0 */\n      0x00\n        /* \"@openzeppelin/contracts@4.4.0/token/ERC20/ERC20.sol\":9582:9588  amount */\n      dup5\n        /* \"@openzeppelin/contracts@4.4.0/token/ERC20/ERC20.sol\":9541:9560  _afterTokenTransfer */\n      tag_231\n        /* \"@openzeppelin/contracts@4.4.0/token/ERC20/ERC20.sol\":9541:9589  _afterTokenTransfer(account, address(0), amount) */\n      jump\t// in\n    tag_260:\n        /* \"@openzeppelin/contracts@4.4.0/token/ERC20/ERC20.sol\":9085:9596  {... */\n      pop\n        /* \"@openzeppelin/contracts@4.4.0/token/ERC20/ERC20.sol\":9020:9596  function _burn(address account, uint256 amount) internal virtual {... */\n      pop\n      pop\n      jump\t// out\n        /* \"@openzeppelin/contracts@4.4.0/access/Ownable.sol\":2270:2457  function _transferOwnership(address newOwner) internal virtual {... */\n    tag_160:\n        /* \"@openzeppelin/contracts@4.4.0/access/Ownable.sol\":2343:2359  address oldOwner */\n      0x00\n        /* \"@openzeppelin/contracts@4.4.0/access/Ownable.sol\":2362:2368  _owner */\n      0x05\n      0x01\n      swap1\n      sload\n      swap1\n      0x0100\n      exp\n      swap1\n      div\n      0xffffffffffffffffffffffffffffffffffffffff\n      and\n        /* \"@openzeppelin/contracts@4.4.0/access/Ownable.sol\":2343:2368  address oldOwner = _owner */\n      swap1\n      pop\n        /* \"@openzeppelin/contracts@4.4.0/access/Ownable.sol\":2387:2395  newOwner */\n      dup2\n        /* \"@openzeppelin/contracts@4.4.0/access/Ownable.sol\":2378:2384  _owner */\n      0x05\n      0x01\n        /* \"@openzeppelin/contracts@4.4.0/access/Ownable.sol\":2378:2395  _owner = newOwner */\n      0x0100\n      exp\n      dup2\n      sload\n      dup2\n      0xffffffffffffffffffffffffffffffffffffffff\n      mul\n      not\n      and\n      swap1\n      dup4\n      0xffffffffffffffffffffffffffffffffffffffff\n      and\n      mul\n      or\n      swap1\n      sstore\n      pop\n        /* \"@openzeppelin/contracts@4.4.0/access/Ownable.sol\":2441:2449  newOwner */\n      dup2\n        /* \"@openzeppelin/contracts@4.4.0/access/Ownable.sol\":2410:2450  OwnershipTransferred(oldOwner, newOwner) */\n      0xffffffffffffffffffffffffffffffffffffffff\n      and\n        /* \"@openzeppelin/contracts@4.4.0/access/Ownable.sol\":2431:2439  oldOwner */\n      dup2\n        /* \"@openzeppelin/contracts@4.4.0/access/Ownable.sol\":2410:2450  OwnershipTransferred(oldOwner, newOwner) */\n      0xffffffffffffffffffffffffffffffffffffffff\n      and\n      0x8be0079c531659141344cd1fd0a4f28419497f9722a3daafe3b4186f6b6457e0\n      mload(0x40)\n      mload(0x40)\n      dup1\n      swap2\n      sub\n      swap1\n      log3\n        /* \"@openzeppelin/contracts@4.4.0/access/Ownable.sol\":2333:2457  {... */\n      pop\n        /* \"@openzeppelin/contracts@4.4.0/access/Ownable.sol\":2270:2457  function _transferOwnership(address newOwner) internal virtual {... */\n      pop\n      jump\t// out\n        /* \"@openzeppelin/contracts@4.4.0/security/Pausable.sol\":1863:1978  function _pause() internal virtual whenNotPaused {... */\n    tag_177:\n        /* \"@openzeppelin/contracts@4.4.0/security/Pausable.sol\":1412:1420  paused() */\n      tag_263\n        /* \"@openzeppelin/contracts@4.4.0/security/Pausable.sol\":1412:1418  paused */\n      tag_63\n        /* \"@openzeppelin/contracts@4.4.0/security/Pausable.sol\":1412:1420  paused() */\n      jump\t// in\n    tag_263:\n        /* \"@openzeppelin/contracts@4.4.0/security/Pausable.sol\":1411:1420  !paused() */\n      iszero\n        /* \"@openzeppelin/contracts@4.4.0/security/Pausable.sol\":1403:1441  require(!paused(), \"Pausable: paused\") */\n      tag_264\n      jumpi\n      mload(0x40)\n      0x08c379a000000000000000000000000000000000000000000000000000000000\n      dup2\n      mstore\n      0x04\n      add\n      tag_265\n      swap1\n      tag_266\n      jump\t// in\n    tag_265:\n      mload(0x40)\n      dup1\n      swap2\n      sub\n      swap1\n      revert\n    tag_264:\n        /* \"@openzeppelin/contracts@4.4.0/security/Pausable.sol\":1932:1936  true */\n      0x01\n        /* \"@openzeppelin/contracts@4.4.0/security/Pausable.sol\":1922:1929  _paused */\n      0x05\n      0x00\n        /* \"@openzeppelin/contracts@4.4.0/security/Pausable.sol\":1922:1936  _paused = true */\n      0x0100\n      exp\n      dup2\n      sload\n      dup2\n      0xff\n      mul\n      not\n      and\n      swap1\n      dup4\n      iszero\n      iszero\n      mul\n      or\n      swap1\n      sstore\n      pop\n        /* \"@openzeppelin/contracts@4.4.0/security/Pausable.sol\":1951:1971  Paused(_msgSender()) */\n      0x62e78cea01bee320cd4e420270b5ea74000d11b0c9f74754ebdbfc544b05a258\n        /* \"@openzeppelin/contracts@4.4.0/security/Pausable.sol\":1958:1970  _msgSender() */\n      tag_268\n        /* \"@openzeppelin/contracts@4.4.0/security/Pausable.sol\":1958:1968  _msgSender */\n      tag_111\n        /* \"@openzeppelin/contracts@4.4.0/security/Pausable.sol\":1958:1970  _msgSender() */\n      jump\t// in\n    tag_268:\n        /* \"@openzeppelin/contracts@4.4.0/security/Pausable.sol\":1951:1971  Paused(_msgSender()) */\n      mload(0x40)\n      tag_269\n      swap2\n      swap1\n      tag_80\n      jump\t// in\n    tag_269:\n      mload(0x40)\n      dup1\n      swap2\n      sub\n      swap1\n      log1\n        /* \"@openzeppelin/contracts@4.4.0/security/Pausable.sol\":1863:1978  function _pause() internal virtual whenNotPaused {... */\n      jump\t// out\n        /* \".learneth/Solidity ERC20 Token Course/6. Extensions/er20extensions.sol\":724:917  function _beforeTokenTransfer(address from, address to, uint256 amount)... */\n    tag_224:\n        /* \"@openzeppelin/contracts@4.4.0/security/Pausable.sol\":1412:1420  paused() */\n      tag_271\n        /* \"@openzeppelin/contracts@4.4.0/security/Pausable.sol\":1412:1418  paused */\n      tag_63\n        /* \"@openzeppelin/contracts@4.4.0/security/Pausable.sol\":1412:1420  paused() */\n      jump\t// in\n    tag_271:\n        /* \"@openzeppelin/contracts@4.4.0/security/Pausable.sol\":1411:1420  !paused() */\n      iszero\n        /* \"@openzeppelin/contracts@4.4.0/security/Pausable.sol\":1403:1441  require(!paused(), \"Pausable: paused\") */\n      tag_272\n      jumpi\n      mload(0x40)\n      0x08c379a000000000000000000000000000000000000000000000000000000000\n      dup2\n      mstore\n      0x04\n      add\n      tag_273\n      swap1\n      tag_266\n      jump\t// in\n    tag_273:\n      mload(0x40)\n      dup1\n      swap2\n      sub\n      swap1\n      revert\n    tag_272:\n        /* \".learneth/Solidity ERC20 Token Course/6. Extensions/er20extensions.sol\":866:910  super._beforeTokenTransfer(from, to, amount) */\n      tag_275\n        /* \".learneth/Solidity ERC20 Token Course/6. Extensions/er20extensions.sol\":893:897  from */\n      dup4\n        /* \".learneth/Solidity ERC20 Token Course/6. Extensions/er20extensions.sol\":899:901  to */\n      dup4\n        /* \".learneth/Solidity ERC20 Token Course/6. Extensions/er20extensions.sol\":903:909  amount */\n      dup4\n        /* \".learneth/Solidity ERC20 Token Course/6. Extensions/er20extensions.sol\":866:892  super._beforeTokenTransfer */\n      tag_100\n        /* \".learneth/Solidity ERC20 Token Course/6. Extensions/er20extensions.sol\":866:910  super._beforeTokenTransfer(from, to, amount) */\n      jump\t// in\n    tag_275:\n        /* \".learneth/Solidity ERC20 Token Course/6. Extensions/er20extensions.sol\":724:917  function _beforeTokenTransfer(address from, address to, uint256 amount)... */\n      pop\n      pop\n      pop\n      jump\t// out\n        /* \"@openzeppelin/contracts@4.4.0/token/ERC20/ERC20.sol\":11682:11802  function _afterTokenTransfer(... */\n    tag_231:\n      pop\n      pop\n      pop\n      jump\t// out\n        /* \"#utility.yul\":7:106   */\n    tag_277:\n        /* \"#utility.yul\":59:65   */\n      0x00\n        /* \"#utility.yul\":93:98   */\n      dup2\n        /* \"#utility.yul\":87:99   */\n      mload\n        /* \"#utility.yul\":77:99   */\n      swap1\n      pop\n        /* \"#utility.yul\":7:106   */\n      swap2\n      swap1\n      pop\n      jump\t// out\n        /* \"#utility.yul\":112:281   */\n    tag_278:\n        /* \"#utility.yul\":196:207   */\n      0x00\n        /* \"#utility.yul\":230:236   */\n      dup3\n        /* \"#utility.yul\":225:228   */\n      dup3\n        /* \"#utility.yul\":218:237   */\n      mstore\n        /* \"#utility.yul\":270:274   */\n      0x20\n        /* \"#utility.yul\":265:268   */\n      dup3\n        /* \"#utility.yul\":261:275   */\n      add\n        /* \"#utility.yul\":246:275   */\n      swap1\n      pop\n        /* \"#utility.yul\":112:281   */\n      swap3\n      swap2\n      pop\n      pop\n      jump\t// out\n        /* \"#utility.yul\":287:533   */\n    tag_279:\n        /* \"#utility.yul\":368:369   */\n      0x00\n        /* \"#utility.yul\":378:491   */\n    tag_334:\n        /* \"#utility.yul\":392:398   */\n      dup4\n        /* \"#utility.yul\":389:390   */\n      dup2\n        /* \"#utility.yul\":386:399   */\n      lt\n        /* \"#utility.yul\":378:491   */\n      iszero\n      tag_336\n      jumpi\n        /* \"#utility.yul\":477:478   */\n      dup1\n        /* \"#utility.yul\":472:475   */\n      dup3\n        /* \"#utility.yul\":468:479   */\n      add\n        /* \"#utility.yul\":462:480   */\n      mload\n        /* \"#utility.yul\":458:459   */\n      dup2\n        /* \"#utility.yul\":453:456   */\n      dup5\n        /* \"#utility.yul\":449:460   */\n      add\n        /* \"#utility.yul\":442:481   */\n      mstore\n        /* \"#utility.yul\":414:416   */\n      0x20\n        /* \"#utility.yul\":411:412   */\n      dup2\n        /* \"#utility.yul\":407:417   */\n      add\n        /* \"#utility.yul\":402:417   */\n      swap1\n      pop\n        /* \"#utility.yul\":378:491   */\n      jump(tag_334)\n    tag_336:\n        /* \"#utility.yul\":525:526   */\n      0x00\n        /* \"#utility.yul\":516:522   */\n      dup5\n        /* \"#utility.yul\":511:514   */\n      dup5\n        /* \"#utility.yul\":507:523   */\n      add\n        /* \"#utility.yul\":500:527   */\n      mstore\n        /* \"#utility.yul\":349:533   */\n      pop\n        /* \"#utility.yul\":287:533   */\n      pop\n      pop\n      pop\n      jump\t// out\n        /* \"#utility.yul\":539:641   */\n    tag_280:\n        /* \"#utility.yul\":580:586   */\n      0x00\n        /* \"#utility.yul\":631:633   */\n      0x1f\n        /* \"#utility.yul\":627:634   */\n      not\n        /* \"#utility.yul\":622:624   */\n      0x1f\n        /* \"#utility.yul\":615:620   */\n      dup4\n        /* \"#utility.yul\":611:625   */\n      add\n        /* \"#utility.yul\":607:635   */\n      and\n        /* \"#utility.yul\":597:635   */\n      swap1\n      pop\n        /* \"#utility.yul\":539:641   */\n      swap2\n      swap1\n      pop\n      jump\t// out\n        /* \"#utility.yul\":647:1024   */\n    tag_281:\n        /* \"#utility.yul\":735:738   */\n      0x00\n        /* \"#utility.yul\":763:802   */\n      tag_339\n        /* \"#utility.yul\":796:801   */\n      dup3\n        /* \"#utility.yul\":763:802   */\n      tag_277\n      jump\t// in\n    tag_339:\n        /* \"#utility.yul\":818:889   */\n      tag_340\n        /* \"#utility.yul\":882:888   */\n      dup2\n        /* \"#utility.yul\":877:880   */\n      dup6\n        /* \"#utility.yul\":818:889   */\n      tag_278\n      jump\t// in\n    tag_340:\n        /* \"#utility.yul\":811:889   */\n      swap4\n      pop\n        /* \"#utility.yul\":898:963   */\n      tag_341\n        /* \"#utility.yul\":956:962   */\n      dup2\n        /* \"#utility.yul\":951:954   */\n      dup6\n        /* \"#utility.yul\":944:948   */\n      0x20\n        /* \"#utility.yul\":937:942   */\n      dup7\n        /* \"#utility.yul\":933:949   */\n      add\n        /* \"#utility.yul\":898:963   */\n      tag_279\n      jump\t// in\n    tag_341:\n        /* \"#utility.yul\":988:1017   */\n      tag_342\n        /* \"#utility.yul\":1010:1016   */\n      dup2\n        /* \"#utility.yul\":988:1017   */\n      tag_280\n      jump\t// in\n    tag_342:\n        /* \"#utility.yul\":983:986   */\n      dup5\n        /* \"#utility.yul\":979:1018   */\n      add\n        /* \"#utility.yul\":972:1018   */\n      swap2\n      pop\n        /* \"#utility.yul\":739:1024   */\n      pop\n        /* \"#utility.yul\":647:1024   */\n      swap3\n      swap2\n      pop\n      pop\n      jump\t// out\n        /* \"#utility.yul\":1030:1343   */\n    tag_29:\n        /* \"#utility.yul\":1143:1147   */\n      0x00\n        /* \"#utility.yul\":1181:1183   */\n      0x20\n        /* \"#utility.yul\":1170:1179   */\n      dup3\n        /* \"#utility.yul\":1166:1184   */\n      add\n        /* \"#utility.yul\":1158:1184   */\n      swap1\n      pop\n        /* \"#utility.yul\":1230:1239   */\n      dup2\n        /* \"#utility.yul\":1224:1228   */\n      dup2\n        /* \"#utility.yul\":1220:1240   */\n      sub\n        /* \"#utility.yul\":1216:1217   */\n      0x00\n        /* \"#utility.yul\":1205:1214   */\n      dup4\n        /* \"#utility.yul\":1201:1218   */\n      add\n        /* \"#utility.yul\":1194:1241   */\n      mstore\n        /* \"#utility.yul\":1258:1336   */\n      tag_344\n        /* \"#utility.yul\":1331:1335   */\n      dup2\n        /* \"#utility.yul\":1322:1328   */\n      dup5\n        /* \"#utility.yul\":1258:1336   */\n      tag_281\n      jump\t// in\n    tag_344:\n        /* \"#utility.yul\":1250:1336   */\n      swap1\n      pop\n        /* \"#utility.yul\":1030:1343   */\n      swap3\n      swap2\n      pop\n      pop\n      jump\t// out\n        /* \"#utility.yul\":1430:1547   */\n    tag_283:\n        /* \"#utility.yul\":1539:1540   */\n      0x00\n        /* \"#utility.yul\":1536:1537   */\n      dup1\n        /* \"#utility.yul\":1529:1541   */\n      revert\n        /* \"#utility.yul\":1676:1802   */\n    tag_285:\n        /* \"#utility.yul\":1713:1720   */\n      0x00\n        /* \"#utility.yul\":1753:1795   */\n      0xffffffffffffffffffffffffffffffffffffffff\n        /* \"#utility.yul\":1746:1751   */\n      dup3\n        /* \"#utility.yul\":1742:1796   */\n      and\n        /* \"#utility.yul\":1731:1796   */\n      swap1\n      pop\n        /* \"#utility.yul\":1676:1802   */\n      swap2\n      swap1\n      pop\n      jump\t// out\n        /* \"#utility.yul\":1808:1904   */\n    tag_286:\n        /* \"#utility.yul\":1845:1852   */\n      0x00\n        /* \"#utility.yul\":1874:1898   */\n      tag_350\n        /* \"#utility.yul\":1892:1897   */\n      dup3\n        /* \"#utility.yul\":1874:1898   */\n      tag_285\n      jump\t// in\n    tag_350:\n        /* \"#utility.yul\":1863:1898   */\n      swap1\n      pop\n        /* \"#utility.yul\":1808:1904   */\n      swap2\n      swap1\n      pop\n      jump\t// out\n        /* \"#utility.yul\":1910:2032   */\n    tag_287:\n        /* \"#utility.yul\":1983:2007   */\n      tag_352\n        /* \"#utility.yul\":2001:2006   */\n      dup2\n        /* \"#utility.yul\":1983:2007   */\n      tag_286\n      jump\t// in\n    tag_352:\n        /* \"#utility.yul\":1976:1981   */\n      dup2\n        /* \"#utility.yul\":1973:2008   */\n      eq\n        /* \"#utility.yul\":1963:2026   */\n      tag_353\n      jumpi\n        /* \"#utility.yul\":2022:2023   */\n      0x00\n        /* \"#utility.yul\":2019:2020   */\n      dup1\n        /* \"#utility.yul\":2012:2024   */\n      revert\n        /* \"#utility.yul\":1963:2026   */\n    tag_353:\n        /* \"#utility.yul\":1910:2032   */\n      pop\n      jump\t// out\n        /* \"#utility.yul\":2038:2177   */\n    tag_288:\n        /* \"#utility.yul\":2084:2089   */\n      0x00\n        /* \"#utility.yul\":2122:2128   */\n      dup2\n        /* \"#utility.yul\":2109:2129   */\n      calldataload\n        /* \"#utility.yul\":2100:2129   */\n      swap1\n      pop\n        /* \"#utility.yul\":2138:2171   */\n      tag_355\n        /* \"#utility.yul\":2165:2170   */\n      dup2\n        /* \"#utility.yul\":2138:2171   */\n      tag_287\n      jump\t// in\n    tag_355:\n        /* \"#utility.yul\":2038:2177   */\n      swap3\n      swap2\n      pop\n      pop\n      jump\t// out\n        /* \"#utility.yul\":2183:2260   */\n    tag_289:\n        /* \"#utility.yul\":2220:2227   */\n      0x00\n        /* \"#utility.yul\":2249:2254   */\n      dup2\n        /* \"#utility.yul\":2238:2254   */\n      swap1\n      pop\n        /* \"#utility.yul\":2183:2260   */\n      swap2\n      swap1\n      pop\n      jump\t// out\n        /* \"#utility.yul\":2266:2388   */\n    tag_290:\n        /* \"#utility.yul\":2339:2363   */\n      tag_358\n        /* \"#utility.yul\":2357:2362   */\n      dup2\n        /* \"#utility.yul\":2339:2363   */\n      tag_289\n      jump\t// in\n    tag_358:\n        /* \"#utility.yul\":2332:2337   */\n      dup2\n        /* \"#utility.yul\":2329:2364   */\n      eq\n        /* \"#utility.yul\":2319:2382   */\n      tag_359\n      jumpi\n        /* \"#utility.yul\":2378:2379   */\n      0x00\n        /* \"#utility.yul\":2375:2376   */\n      dup1\n        /* \"#utility.yul\":2368:2380   */\n      revert\n        /* \"#utility.yul\":2319:2382   */\n    tag_359:\n        /* \"#utility.yul\":2266:2388   */\n      pop\n      jump\t// out\n        /* \"#utility.yul\":2394:2533   */\n    tag_291:\n        /* \"#utility.yul\":2440:2445   */\n      0x00\n        /* \"#utility.yul\":2478:2484   */\n      dup2\n        /* \"#utility.yul\":2465:2485   */\n      calldataload\n        /* \"#utility.yul\":2456:2485   */\n      swap1\n      pop\n        /* \"#utility.yul\":2494:2527   */\n      tag_361\n        /* \"#utility.yul\":2521:2526   */\n      dup2\n        /* \"#utility.yul\":2494:2527   */\n      tag_290\n      jump\t// in\n    tag_361:\n        /* \"#utility.yul\":2394:2533   */\n      swap3\n      swap2\n      pop\n      pop\n      jump\t// out\n        /* \"#utility.yul\":2539:3013   */\n    tag_32:\n        /* \"#utility.yul\":2607:2613   */\n      0x00\n        /* \"#utility.yul\":2615:2621   */\n      dup1\n        /* \"#utility.yul\":2664:2666   */\n      0x40\n        /* \"#utility.yul\":2652:2661   */\n      dup4\n        /* \"#utility.yul\":2643:2650   */\n      dup6\n        /* \"#utility.yul\":2639:2662   */\n      sub\n        /* \"#utility.yul\":2635:2667   */\n      slt\n        /* \"#utility.yul\":2632:2751   */\n      iszero\n      tag_363\n      jumpi\n        /* \"#utility.yul\":2670:2749   */\n      tag_364\n      tag_283\n      jump\t// in\n    tag_364:\n        /* \"#utility.yul\":2632:2751   */\n    tag_363:\n        /* \"#utility.yul\":2790:2791   */\n      0x00\n        /* \"#utility.yul\":2815:2868   */\n      tag_365\n        /* \"#utility.yul\":2860:2867   */\n      dup6\n        /* \"#utility.yul\":2851:2857   */\n      dup3\n        /* \"#utility.yul\":2840:2849   */\n      dup7\n        /* \"#utility.yul\":2836:2858   */\n      add\n        /* \"#utility.yul\":2815:2868   */\n      tag_288\n      jump\t// in\n    tag_365:\n        /* \"#utility.yul\":2805:2868   */\n      swap3\n      pop\n        /* \"#utility.yul\":2761:2878   */\n      pop\n        /* \"#utility.yul\":2917:2919   */\n      0x20\n        /* \"#utility.yul\":2943:2996   */\n      tag_366\n        /* \"#utility.yul\":2988:2995   */\n      dup6\n        /* \"#utility.yul\":2979:2985   */\n      dup3\n        /* \"#utility.yul\":2968:2977   */\n      dup7\n        /* \"#utility.yul\":2964:2986   */\n      add\n        /* \"#utility.yul\":2943:2996   */\n      tag_291\n      jump\t// in\n    tag_366:\n        /* \"#utility.yul\":2933:2996   */\n      swap2\n      pop\n        /* \"#utility.yul\":2888:3006   */\n      pop\n        /* \"#utility.yul\":2539:3013   */\n      swap3\n      pop\n      swap3\n      swap1\n      pop\n      jump\t// out\n        /* \"#utility.yul\":3019:3109   */\n    tag_292:\n        /* \"#utility.yul\":3053:3060   */\n      0x00\n        /* \"#utility.yul\":3096:3101   */\n      dup2\n        /* \"#utility.yul\":3089:3102   */\n      iszero\n        /* \"#utility.yul\":3082:3103   */\n      iszero\n        /* \"#utility.yul\":3071:3103   */\n      swap1\n      pop\n        /* \"#utility.yul\":3019:3109   */\n      swap2\n      swap1\n      pop\n      jump\t// out\n        /* \"#utility.yul\":3115:3224   */\n    tag_293:\n        /* \"#utility.yul\":3196:3217   */\n      tag_369\n        /* \"#utility.yul\":3211:3216   */\n      dup2\n        /* \"#utility.yul\":3196:3217   */\n      tag_292\n      jump\t// in\n    tag_369:\n        /* \"#utility.yul\":3191:3194   */\n      dup3\n        /* \"#utility.yul\":3184:3218   */\n      mstore\n        /* \"#utility.yul\":3115:3224   */\n      pop\n      pop\n      jump\t// out\n        /* \"#utility.yul\":3230:3440   */\n    tag_35:\n        /* \"#utility.yul\":3317:3321   */\n      0x00\n        /* \"#utility.yul\":3355:3357   */\n      0x20\n        /* \"#utility.yul\":3344:3353   */\n      dup3\n        /* \"#utility.yul\":3340:3358   */\n      add\n        /* \"#utility.yul\":3332:3358   */\n      swap1\n      pop\n        /* \"#utility.yul\":3368:3433   */\n      tag_371\n        /* \"#utility.yul\":3430:3431   */\n      0x00\n        /* \"#utility.yul\":3419:3428   */\n      dup4\n        /* \"#utility.yul\":3415:3432   */\n      add\n        /* \"#utility.yul\":3406:3412   */\n      dup5\n        /* \"#utility.yul\":3368:3433   */\n      tag_293\n      jump\t// in\n    tag_371:\n        /* \"#utility.yul\":3230:3440   */\n      swap3\n      swap2\n      pop\n      pop\n      jump\t// out\n        /* \"#utility.yul\":3446:3564   */\n    tag_294:\n        /* \"#utility.yul\":3533:3557   */\n      tag_373\n        /* \"#utility.yul\":3551:3556   */\n      dup2\n        /* \"#utility.yul\":3533:3557   */\n      tag_289\n      jump\t// in\n    tag_373:\n        /* \"#utility.yul\":3528:3531   */\n      dup3\n        /* \"#utility.yul\":3521:3558   */\n      mstore\n        /* \"#utility.yul\":3446:3564   */\n      pop\n      pop\n      jump\t// out\n        /* \"#utility.yul\":3570:3792   */\n    tag_39:\n        /* \"#utility.yul\":3663:3667   */\n      0x00\n        /* \"#utility.yul\":3701:3703   */\n      0x20\n        /* \"#utility.yul\":3690:3699   */\n      dup3\n        /* \"#utility.yul\":3686:3704   */\n      add\n        /* \"#utility.yul\":3678:3704   */\n      swap1\n      pop\n        /* \"#utility.yul\":3714:3785   */\n      tag_375\n        /* \"#utility.yul\":3782:3783   */\n      0x00\n        /* \"#utility.yul\":3771:3780   */\n      dup4\n        /* \"#utility.yul\":3767:3784   */\n      add\n        /* \"#utility.yul\":3758:3764   */\n      dup5\n        /* \"#utility.yul\":3714:3785   */\n      tag_294\n      jump\t// in\n    tag_375:\n        /* \"#utility.yul\":3570:3792   */\n      swap3\n      swap2\n      pop\n      pop\n      jump\t// out\n        /* \"#utility.yul\":3798:4417   */\n    tag_42:\n        /* \"#utility.yul\":3875:3881   */\n      0x00\n        /* \"#utility.yul\":3883:3889   */\n      dup1\n        /* \"#utility.yul\":3891:3897   */\n      0x00\n        /* \"#utility.yul\":3940:3942   */\n      0x60\n        /* \"#utility.yul\":3928:3937   */\n      dup5\n        /* \"#utility.yul\":3919:3926   */\n      dup7\n        /* \"#utility.yul\":3915:3938   */\n      sub\n        /* \"#utility.yul\":3911:3943   */\n      slt\n        /* \"#utility.yul\":3908:4027   */\n      iszero\n      tag_377\n      jumpi\n        /* \"#utility.yul\":3946:4025   */\n      tag_378\n      tag_283\n      jump\t// in\n    tag_378:\n        /* \"#utility.yul\":3908:4027   */\n    tag_377:\n        /* \"#utility.yul\":4066:4067   */\n      0x00\n        /* \"#utility.yul\":4091:4144   */\n      tag_379\n        /* \"#utility.yul\":4136:4143   */\n      dup7\n        /* \"#utility.yul\":4127:4133   */\n      dup3\n        /* \"#utility.yul\":4116:4125   */\n      dup8\n        /* \"#utility.yul\":4112:4134   */\n      add\n        /* \"#utility.yul\":4091:4144   */\n      tag_288\n      jump\t// in\n    tag_379:\n        /* \"#utility.yul\":4081:4144   */\n      swap4\n      pop\n        /* \"#utility.yul\":4037:4154   */\n      pop\n        /* \"#utility.yul\":4193:4195   */\n      0x20\n        /* \"#utility.yul\":4219:4272   */\n      tag_380\n        /* \"#utility.yul\":4264:4271   */\n      dup7\n        /* \"#utility.yul\":4255:4261   */\n      dup3\n        /* \"#utility.yul\":4244:4253   */\n      dup8\n        /* \"#utility.yul\":4240:4262   */\n      add\n        /* \"#utility.yul\":4219:4272   */\n      tag_288\n      jump\t// in\n    tag_380:\n        /* \"#utility.yul\":4209:4272   */\n      swap3\n      pop\n        /* \"#utility.yul\":4164:4282   */\n      pop\n        /* \"#utility.yul\":4321:4323   */\n      0x40\n        /* \"#utility.yul\":4347:4400   */\n      tag_381\n        /* \"#utility.yul\":4392:4399   */\n      dup7\n        /* \"#utility.yul\":4383:4389   */\n      dup3\n        /* \"#utility.yul\":4372:4381   */\n      dup8\n        /* \"#utility.yul\":4368:4390   */\n      add\n        /* \"#utility.yul\":4347:4400   */\n      tag_291\n      jump\t// in\n    tag_381:\n        /* \"#utility.yul\":4337:4400   */\n      swap2\n      pop\n        /* \"#utility.yul\":4292:4410   */\n      pop\n        /* \"#utility.yul\":3798:4417   */\n      swap3\n      pop\n      swap3\n      pop\n      swap3\n      jump\t// out\n        /* \"#utility.yul\":4423:4509   */\n    tag_295:\n        /* \"#utility.yul\":4458:4465   */\n      0x00\n        /* \"#utility.yul\":4498:4502   */\n      0xff\n        /* \"#utility.yul\":4491:4496   */\n      dup3\n        /* \"#utility.yul\":4487:4503   */\n      and\n        /* \"#utility.yul\":4476:4503   */\n      swap1\n      pop\n        /* \"#utility.yul\":4423:4509   */\n      swap2\n      swap1\n      pop\n      jump\t// out\n        /* \"#utility.yul\":4515:4627   */\n    tag_296:\n        /* \"#utility.yul\":4598:4620   */\n      tag_384\n        /* \"#utility.yul\":4614:4619   */\n      dup2\n        /* \"#utility.yul\":4598:4620   */\n      tag_295\n      jump\t// in\n    tag_384:\n        /* \"#utility.yul\":4593:4596   */\n      dup3\n        /* \"#utility.yul\":4586:4621   */\n      mstore\n        /* \"#utility.yul\":4515:4627   */\n      pop\n      pop\n      jump\t// out\n        /* \"#utility.yul\":4633:4847   */\n    tag_48:\n        /* \"#utility.yul\":4722:4726   */\n      0x00\n        /* \"#utility.yul\":4760:4762   */\n      0x20\n        /* \"#utility.yul\":4749:4758   */\n      dup3\n        /* \"#utility.yul\":4745:4763   */\n      add\n        /* \"#utility.yul\":4737:4763   */\n      swap1\n      pop\n        /* \"#utility.yul\":4773:4840   */\n      tag_386\n        /* \"#utility.yul\":4837:4838   */\n      0x00\n        /* \"#utility.yul\":4826:4835   */\n      dup4\n        /* \"#utility.yul\":4822:4839   */\n      add\n        /* \"#utility.yul\":4813:4819   */\n      dup5\n        /* \"#utility.yul\":4773:4840   */\n      tag_296\n      jump\t// in\n    tag_386:\n        /* \"#utility.yul\":4633:4847   */\n      swap3\n      swap2\n      pop\n      pop\n      jump\t// out\n        /* \"#utility.yul\":4853:5182   */\n    tag_60:\n        /* \"#utility.yul\":4912:4918   */\n      0x00\n        /* \"#utility.yul\":4961:4963   */\n      0x20\n        /* \"#utility.yul\":4949:4958   */\n      dup3\n        /* \"#utility.yul\":4940:4947   */\n      dup5\n        /* \"#utility.yul\":4936:4959   */\n      sub\n        /* \"#utility.yul\":4932:4964   */\n      slt\n        /* \"#utility.yul\":4929:5048   */\n      iszero\n      tag_388\n      jumpi\n        /* \"#utility.yul\":4967:5046   */\n      tag_389\n      tag_283\n      jump\t// in\n    tag_389:\n        /* \"#utility.yul\":4929:5048   */\n    tag_388:\n        /* \"#utility.yul\":5087:5088   */\n      0x00\n        /* \"#utility.yul\":5112:5165   */\n      tag_390\n        /* \"#utility.yul\":5157:5164   */\n      dup5\n        /* \"#utility.yul\":5148:5154   */\n      dup3\n        /* \"#utility.yul\":5137:5146   */\n      dup6\n        /* \"#utility.yul\":5133:5155   */\n      add\n        /* \"#utility.yul\":5112:5165   */\n      tag_291\n      jump\t// in\n    tag_390:\n        /* \"#utility.yul\":5102:5165   */\n      swap2\n      pop\n        /* \"#utility.yul\":5058:5175   */\n      pop\n        /* \"#utility.yul\":4853:5182   */\n      swap3\n      swap2\n      pop\n      pop\n      jump\t// out\n        /* \"#utility.yul\":5188:5517   */\n    tag_67:\n        /* \"#utility.yul\":5247:5253   */\n      0x00\n        /* \"#utility.yul\":5296:5298   */\n      0x20\n        /* \"#utility.yul\":5284:5293   */\n      dup3\n        /* \"#utility.yul\":5275:5282   */\n      dup5\n        /* \"#utility.yul\":5271:5294   */\n      sub\n        /* \"#utility.yul\":5267:5299   */\n      slt\n        /* \"#utility.yul\":5264:5383   */\n      iszero\n      tag_392\n      jumpi\n        /* \"#utility.yul\":5302:5381   */\n      tag_393\n      tag_283\n      jump\t// in\n    tag_393:\n        /* \"#utility.yul\":5264:5383   */\n    tag_392:\n        /* \"#utility.yul\":5422:5423   */\n      0x00\n        /* \"#utility.yul\":5447:5500   */\n      tag_394\n        /* \"#utility.yul\":5492:5499   */\n      dup5\n        /* \"#utility.yul\":5483:5489   */\n      dup3\n        /* \"#utility.yul\":5472:5481   */\n      dup6\n        /* \"#utility.yul\":5468:5490   */\n      add\n        /* \"#utility.yul\":5447:5500   */\n      tag_288\n      jump\t// in\n    tag_394:\n        /* \"#utility.yul\":5437:5500   */\n      swap2\n      pop\n        /* \"#utility.yul\":5393:5510   */\n      pop\n        /* \"#utility.yul\":5188:5517   */\n      swap3\n      swap2\n      pop\n      pop\n      jump\t// out\n        /* \"#utility.yul\":5523:5641   */\n    tag_297:\n        /* \"#utility.yul\":5610:5634   */\n      tag_396\n        /* \"#utility.yul\":5628:5633   */\n      dup2\n        /* \"#utility.yul\":5610:5634   */\n      tag_286\n      jump\t// in\n    tag_396:\n        /* \"#utility.yul\":5605:5608   */\n      dup3\n        /* \"#utility.yul\":5598:5635   */\n      mstore\n        /* \"#utility.yul\":5523:5641   */\n      pop\n      pop\n      jump\t// out\n        /* \"#utility.yul\":5647:5869   */\n    tag_80:\n        /* \"#utility.yul\":5740:5744   */\n      0x00\n        /* \"#utility.yul\":5778:5780   */\n      0x20\n        /* \"#utility.yul\":5767:5776   */\n      dup3\n        /* \"#utility.yul\":5763:5781   */\n      add\n        /* \"#utility.yul\":5755:5781   */\n      swap1\n      pop\n        /* \"#utility.yul\":5791:5862   */\n      tag_398\n        /* \"#utility.yul\":5859:5860   */\n      0x00\n        /* \"#utility.yul\":5848:5857   */\n      dup4\n        /* \"#utility.yul\":5844:5861   */\n      add\n        /* \"#utility.yul\":5835:5841   */\n      dup5\n        /* \"#utility.yul\":5791:5862   */\n      tag_297\n      jump\t// in\n    tag_398:\n        /* \"#utility.yul\":5647:5869   */\n      swap3\n      swap2\n      pop\n      pop\n      jump\t// out\n        /* \"#utility.yul\":5875:6349   */\n    tag_94:\n        /* \"#utility.yul\":5943:5949   */\n      0x00\n        /* \"#utility.yul\":5951:5957   */\n      dup1\n        /* \"#utility.yul\":6000:6002   */\n      0x40\n        /* \"#utility.yul\":5988:5997   */\n      dup4\n        /* \"#utility.yul\":5979:5986   */\n      dup6\n        /* \"#utility.yul\":5975:5998   */\n      sub\n        /* \"#utility.yul\":5971:6003   */\n      slt\n        /* \"#utility.yul\":5968:6087   */\n      iszero\n      tag_400\n      jumpi\n        /* \"#utility.yul\":6006:6085   */\n      tag_401\n      tag_283\n      jump\t// in\n    tag_401:\n        /* \"#utility.yul\":5968:6087   */\n    tag_400:\n        /* \"#utility.yul\":6126:6127   */\n      0x00\n        /* \"#utility.yul\":6151:6204   */\n      tag_402\n        /* \"#utility.yul\":6196:6203   */\n      dup6\n        /* \"#utility.yul\":6187:6193   */\n      dup3\n        /* \"#utility.yul\":6176:6185   */\n      dup7\n        /* \"#utility.yul\":6172:6194   */\n      add\n        /* \"#utility.yul\":6151:6204   */\n      tag_288\n      jump\t// in\n    tag_402:\n        /* \"#utility.yul\":6141:6204   */\n      swap3\n      pop\n        /* \"#utility.yul\":6097:6214   */\n      pop\n        /* \"#utility.yul\":6253:6255   */\n      0x20\n        /* \"#utility.yul\":6279:6332   */\n      tag_403\n        /* \"#utility.yul\":6324:6331   */\n      dup6\n        /* \"#utility.yul\":6315:6321   */\n      dup3\n        /* \"#utility.yul\":6304:6313   */\n      dup7\n        /* \"#utility.yul\":6300:6322   */\n      add\n        /* \"#utility.yul\":6279:6332   */\n      tag_288\n      jump\t// in\n    tag_403:\n        /* \"#utility.yul\":6269:6332   */\n      swap2\n      pop\n        /* \"#utility.yul\":6224:6342   */\n      pop\n        /* \"#utility.yul\":5875:6349   */\n      swap3\n      pop\n      swap3\n      swap1\n      pop\n      jump\t// out\n        /* \"#utility.yul\":6355:6535   */\n    tag_298:\n        /* \"#utility.yul\":6403:6480   */\n      0x4e487b7100000000000000000000000000000000000000000000000000000000\n        /* \"#utility.yul\":6400:6401   */\n      0x00\n        /* \"#utility.yul\":6393:6481   */\n      mstore\n        /* \"#utility.yul\":6500:6504   */\n      0x22\n        /* \"#utility.yul\":6497:6498   */\n      0x04\n        /* \"#utility.yul\":6490:6505   */\n      mstore\n        /* \"#utility.yul\":6524:6528   */\n      0x24\n        /* \"#utility.yul\":6521:6522   */\n      0x00\n        /* \"#utility.yul\":6514:6529   */\n      revert\n        /* \"#utility.yul\":6541:6861   */\n    tag_103:\n        /* \"#utility.yul\":6585:6591   */\n      0x00\n        /* \"#utility.yul\":6622:6623   */\n      0x02\n        /* \"#utility.yul\":6616:6620   */\n      dup3\n        /* \"#utility.yul\":6612:6624   */\n      div\n        /* \"#utility.yul\":6602:6624   */\n      swap1\n      pop\n        /* \"#utility.yul\":6669:6670   */\n      0x01\n        /* \"#utility.yul\":6663:6667   */\n      dup3\n        /* \"#utility.yul\":6659:6671   */\n      and\n        /* \"#utility.yul\":6690:6708   */\n      dup1\n        /* \"#utility.yul\":6680:6761   */\n      tag_406\n      jumpi\n        /* \"#utility.yul\":6746:6750   */\n      0x7f\n        /* \"#utility.yul\":6738:6744   */\n      dup3\n        /* \"#utility.yul\":6734:6751   */\n      and\n        /* \"#utility.yul\":6724:6751   */\n      swap2\n      pop\n        /* \"#utility.yul\":6680:6761   */\n    tag_406:\n        /* \"#utility.yul\":6808:6810   */\n      0x20\n        /* \"#utility.yul\":6800:6806   */\n      dup3\n        /* \"#utility.yul\":6797:6811   */\n      lt\n        /* \"#utility.yul\":6777:6795   */\n      dup2\n        /* \"#utility.yul\":6774:6812   */\n      sub\n        /* \"#utility.yul\":6771:6855   */\n      tag_407\n      jumpi\n        /* \"#utility.yul\":6827:6845   */\n      tag_408\n      tag_298\n      jump\t// in\n    tag_408:\n        /* \"#utility.yul\":6771:6855   */\n    tag_407:\n        /* \"#utility.yul\":6592:6861   */\n      pop\n        /* \"#utility.yul\":6541:6861   */\n      swap2\n      swap1\n      pop\n      jump\t// out\n        /* \"#utility.yul\":6867:7094   */\n    tag_299:\n        /* \"#utility.yul\":7007:7041   */\n      0x45524332303a207472616e7366657220616d6f756e7420657863656564732061\n        /* \"#utility.yul\":7003:7004   */\n      0x00\n        /* \"#utility.yul\":6995:7001   */\n      dup3\n        /* \"#utility.yul\":6991:7005   */\n      add\n        /* \"#utility.yul\":6984:7042   */\n      mstore\n        /* \"#utility.yul\":7076:7086   */\n      0x6c6c6f77616e6365000000000000000000000000000000000000000000000000\n        /* \"#utility.yul\":7071:7073   */\n      0x20\n        /* \"#utility.yul\":7063:7069   */\n      dup3\n        /* \"#utility.yul\":7059:7074   */\n      add\n        /* \"#utility.yul\":7052:7087   */\n      mstore\n        /* \"#utility.yul\":6867:7094   */\n      pop\n      jump\t// out\n        /* \"#utility.yul\":7100:7466   */\n    tag_300:\n        /* \"#utility.yul\":7242:7245   */\n      0x00\n        /* \"#utility.yul\":7263:7330   */\n      tag_411\n        /* \"#utility.yul\":7327:7329   */\n      0x28\n        /* \"#utility.yul\":7322:7325   */\n      dup4\n        /* \"#utility.yul\":7263:7330   */\n      tag_278\n      jump\t// in\n    tag_411:\n        /* \"#utility.yul\":7256:7330   */\n      swap2\n      pop\n        /* \"#utility.yul\":7339:7432   */\n      tag_412\n        /* \"#utility.yul\":7428:7431   */\n      dup3\n        /* \"#utility.yul\":7339:7432   */\n      tag_299\n      jump\t// in\n    tag_412:\n        /* \"#utility.yul\":7457:7459   */\n      0x40\n        /* \"#utility.yul\":7452:7455   */\n      dup3\n        /* \"#utility.yul\":7448:7460   */\n      add\n        /* \"#utility.yul\":7441:7460   */\n      swap1\n      pop\n        /* \"#utility.yul\":7100:7466   */\n      swap2\n      swap1\n      pop\n      jump\t// out\n        /* \"#utility.yul\":7472:7891   */\n    tag_120:\n        /* \"#utility.yul\":7638:7642   */\n      0x00\n        /* \"#utility.yul\":7676:7678   */\n      0x20\n        /* \"#utility.yul\":7665:7674   */\n      dup3\n        /* \"#utility.yul\":7661:7679   */\n      add\n        /* \"#utility.yul\":7653:7679   */\n      swap1\n      pop\n        /* \"#utility.yul\":7725:7734   */\n      dup2\n        /* \"#utility.yul\":7719:7723   */\n      dup2\n        /* \"#utility.yul\":7715:7735   */\n      sub\n        /* \"#utility.yul\":7711:7712   */\n      0x00\n        /* \"#utility.yul\":7700:7709   */\n      dup4\n        /* \"#utility.yul\":7696:7713   */\n      add\n        /* \"#utility.yul\":7689:7736   */\n      mstore\n        /* \"#utility.yul\":7753:7884   */\n      tag_414\n        /* \"#utility.yul\":7879:7883   */\n      dup2\n        /* \"#utility.yul\":7753:7884   */\n      tag_300\n      jump\t// in\n    tag_414:\n        /* \"#utility.yul\":7745:7884   */\n      swap1\n      pop\n        /* \"#utility.yul\":7472:7891   */\n      swap2\n      swap1\n      pop\n      jump\t// out\n        /* \"#utility.yul\":7897:8077   */\n    tag_301:\n        /* \"#utility.yul\":7945:8022   */\n      0x4e487b7100000000000000000000000000000000000000000000000000000000\n        /* \"#utility.yul\":7942:7943   */\n      0x00\n        /* \"#utility.yul\":7935:8023   */\n      mstore\n        /* \"#utility.yul\":8042:8046   */\n      0x11\n        /* \"#utility.yul\":8039:8040   */\n      0x04\n        /* \"#utility.yul\":8032:8047   */\n      mstore\n        /* \"#utility.yul\":8066:8070   */\n      0x24\n        /* \"#utility.yul\":8063:8064   */\n      0x00\n        /* \"#utility.yul\":8056:8071   */\n      revert\n        /* \"#utility.yul\":8083:8274   */\n    tag_129:\n        /* \"#utility.yul\":8123:8126   */\n      0x00\n        /* \"#utility.yul\":8142:8162   */\n      tag_417\n        /* \"#utility.yul\":8160:8161   */\n      dup3\n        /* \"#utility.yul\":8142:8162   */\n      tag_289\n      jump\t// in\n    tag_417:\n        /* \"#utility.yul\":8137:8162   */\n      swap2\n      pop\n        /* \"#utility.yul\":8176:8196   */\n      tag_418\n        /* \"#utility.yul\":8194:8195   */\n      dup4\n        /* \"#utility.yul\":8176:8196   */\n      tag_289\n      jump\t// in\n    tag_418:\n        /* \"#utility.yul\":8171:8196   */\n      swap3\n      pop\n        /* \"#utility.yul\":8219:8220   */\n      dup3\n        /* \"#utility.yul\":8216:8217   */\n      dup3\n        /* \"#utility.yul\":8212:8221   */\n      add\n        /* \"#utility.yul\":8205:8221   */\n      swap1\n      pop\n        /* \"#utility.yul\":8240:8243   */\n      dup1\n        /* \"#utility.yul\":8237:8238   */\n      dup3\n        /* \"#utility.yul\":8234:8244   */\n      gt\n        /* \"#utility.yul\":8231:8267   */\n      iszero\n      tag_419\n      jumpi\n        /* \"#utility.yul\":8247:8265   */\n      tag_420\n      tag_301\n      jump\t// in\n    tag_420:\n        /* \"#utility.yul\":8231:8267   */\n    tag_419:\n        /* \"#utility.yul\":8083:8274   */\n      swap3\n      swap2\n      pop\n      pop\n      jump\t// out\n        /* \"#utility.yul\":8280:8462   */\n    tag_302:\n        /* \"#utility.yul\":8420:8454   */\n      0x4f776e61626c653a2063616c6c6572206973206e6f7420746865206f776e6572\n        /* \"#utility.yul\":8416:8417   */\n      0x00\n        /* \"#utility.yul\":8408:8414   */\n      dup3\n        /* \"#utility.yul\":8404:8418   */\n      add\n        /* \"#utility.yul\":8397:8455   */\n      mstore\n        /* \"#utility.yul\":8280:8462   */\n      pop\n      jump\t// out\n        /* \"#utility.yul\":8468:8834   */\n    tag_303:\n        /* \"#utility.yul\":8610:8613   */\n      0x00\n        /* \"#utility.yul\":8631:8698   */\n      tag_423\n        /* \"#utility.yul\":8695:8697   */\n      0x20\n        /* \"#utility.yul\":8690:8693   */\n      dup4\n        /* \"#utility.yul\":8631:8698   */\n      tag_278\n      jump\t// in\n    tag_423:\n        /* \"#utility.yul\":8624:8698   */\n      swap2\n      pop\n        /* \"#utility.yul\":8707:8800   */\n      tag_424\n        /* \"#utility.yul\":8796:8799   */\n      dup3\n        /* \"#utility.yul\":8707:8800   */\n      tag_302\n      jump\t// in\n    tag_424:\n        /* \"#utility.yul\":8825:8827   */\n      0x20\n        /* \"#utility.yul\":8820:8823   */\n      dup3\n        /* \"#utility.yul\":8816:8828   */\n      add\n        /* \"#utility.yul\":8809:8828   */\n      swap1\n      pop\n        /* \"#utility.yul\":8468:8834   */\n      swap2\n      swap1\n      pop\n      jump\t// out\n        /* \"#utility.yul\":8840:9259   */\n    tag_135:\n        /* \"#utility.yul\":9006:9010   */\n      0x00\n        /* \"#utility.yul\":9044:9046   */\n      0x20\n        /* \"#utility.yul\":9033:9042   */\n      dup3\n        /* \"#utility.yul\":9029:9047   */\n      add\n        /* \"#utility.yul\":9021:9047   */\n      swap1\n      pop\n        /* \"#utility.yul\":9093:9102   */\n      dup2\n        /* \"#utility.yul\":9087:9091   */\n      dup2\n        /* \"#utility.yul\":9083:9103   */\n      sub\n        /* \"#utility.yul\":9079:9080   */\n      0x00\n        /* \"#utility.yul\":9068:9077   */\n      dup4\n        /* \"#utility.yul\":9064:9081   */\n      add\n        /* \"#utility.yul\":9057:9104   */\n      mstore\n        /* \"#utility.yul\":9121:9252   */\n      tag_426\n        /* \"#utility.yul\":9247:9251   */\n      dup2\n        /* \"#utility.yul\":9121:9252   */\n      tag_303\n      jump\t// in\n    tag_426:\n        /* \"#utility.yul\":9113:9252   */\n      swap1\n      pop\n        /* \"#utility.yul\":8840:9259   */\n      swap2\n      swap1\n      pop\n      jump\t// out\n        /* \"#utility.yul\":9265:9488   */\n    tag_304:\n        /* \"#utility.yul\":9405:9439   */\n      0x45524332303a206275726e20616d6f756e74206578636565647320616c6c6f77\n        /* \"#utility.yul\":9401:9402   */\n      0x00\n        /* \"#utility.yul\":9393:9399   */\n      dup3\n        /* \"#utility.yul\":9389:9403   */\n      add\n        /* \"#utility.yul\":9382:9440   */\n      mstore\n        /* \"#utility.yul\":9474:9480   */\n      0x616e636500000000000000000000000000000000000000000000000000000000\n        /* \"#utility.yul\":9469:9471   */\n      0x20\n        /* \"#utility.yul\":9461:9467   */\n      dup3\n        /* \"#utility.yul\":9457:9472   */\n      add\n        /* \"#utility.yul\":9450:9481   */\n      mstore\n        /* \"#utility.yul\":9265:9488   */\n      pop\n      jump\t// out\n        /* \"#utility.yul\":9494:9860   */\n    tag_305:\n        /* \"#utility.yul\":9636:9639   */\n      0x00\n        /* \"#utility.yul\":9657:9724   */\n      tag_429\n        /* \"#utility.yul\":9721:9723   */\n      0x24\n        /* \"#utility.yul\":9716:9719   */\n      dup4\n        /* \"#utility.yul\":9657:9724   */\n      tag_278\n      jump\t// in\n    tag_429:\n        /* \"#utility.yul\":9650:9724   */\n      swap2\n      pop\n        /* \"#utility.yul\":9733:9826   */\n      tag_430\n        /* \"#utility.yul\":9822:9825   */\n      dup3\n        /* \"#utility.yul\":9733:9826   */\n      tag_304\n      jump\t// in\n    tag_430:\n        /* \"#utility.yul\":9851:9853   */\n      0x40\n        /* \"#utility.yul\":9846:9849   */\n      dup3\n        /* \"#utility.yul\":9842:9854   */\n      add\n        /* \"#utility.yul\":9835:9854   */\n      swap1\n      pop\n        /* \"#utility.yul\":9494:9860   */\n      swap2\n      swap1\n      pop\n      jump\t// out\n        /* \"#utility.yul\":9866:10285   */\n    tag_166:\n        /* \"#utility.yul\":10032:10036   */\n      0x00\n        /* \"#utility.yul\":10070:10072   */\n      0x20\n        /* \"#utility.yul\":10059:10068   */\n      dup3\n        /* \"#utility.yul\":10055:10073   */\n      add\n        /* \"#utility.yul\":10047:10073   */\n      swap1\n      pop\n        /* \"#utility.yul\":10119:10128   */\n      dup2\n        /* \"#utility.yul\":10113:10117   */\n      dup2\n        /* \"#utility.yul\":10109:10129   */\n      sub\n        /* \"#utility.yul\":10105:10106   */\n      0x00\n        /* \"#utility.yul\":10094:10103   */\n      dup4\n        /* \"#utility.yul\":10090:10107   */\n      add\n        /* \"#utility.yul\":10083:10130   */\n      mstore\n        /* \"#utility.yul\":10147:10278   */\n      tag_432\n        /* \"#utility.yul\":10273:10277   */\n      dup2\n        /* \"#utility.yul\":10147:10278   */\n      tag_305\n      jump\t// in\n    tag_432:\n        /* \"#utility.yul\":10139:10278   */\n      swap1\n      pop\n        /* \"#utility.yul\":9866:10285   */\n      swap2\n      swap1\n      pop\n      jump\t// out\n        /* \"#utility.yul\":10291:10515   */\n    tag_306:\n        /* \"#utility.yul\":10431:10465   */\n      0x45524332303a2064656372656173656420616c6c6f77616e63652062656c6f77\n        /* \"#utility.yul\":10427:10428   */\n      0x00\n        /* \"#utility.yul\":10419:10425   */\n      dup3\n        /* \"#utility.yul\":10415:10429   */\n      add\n        /* \"#utility.yul\":10408:10466   */\n      mstore\n        /* \"#utility.yul\":10500:10507   */\n      0x207a65726f000000000000000000000000000000000000000000000000000000\n        /* \"#utility.yul\":10495:10497   */\n      0x20\n        /* \"#utility.yul\":10487:10493   */\n      dup3\n        /* \"#utility.yul\":10483:10498   */\n      add\n        /* \"#utility.yul\":10476:10508   */\n      mstore\n        /* \"#utility.yul\":10291:10515   */\n      pop\n      jump\t// out\n        /* \"#utility.yul\":10521:10887   */\n    tag_307:\n        /* \"#utility.yul\":10663:10666   */\n      0x00\n        /* \"#utility.yul\":10684:10751   */\n      tag_435\n        /* \"#utility.yul\":10748:10750   */\n      0x25\n        /* \"#utility.yul\":10743:10746   */\n      dup4\n        /* \"#utility.yul\":10684:10751   */\n      tag_278\n      jump\t// in\n    tag_435:\n        /* \"#utility.yul\":10677:10751   */\n      swap2\n      pop\n        /* \"#utility.yul\":10760:10853   */\n      tag_436\n        /* \"#utility.yul\":10849:10852   */\n      dup3\n        /* \"#utility.yul\":10760:10853   */\n      tag_306\n      jump\t// in\n    tag_436:\n        /* \"#utility.yul\":10878:10880   */\n      0x40\n        /* \"#utility.yul\":10873:10876   */\n      dup3\n        /* \"#utility.yul\":10869:10881   */\n      add\n        /* \"#utility.yul\":10862:10881   */\n      swap1\n      pop\n        /* \"#utility.yul\":10521:10887   */\n      swap2\n      swap1\n      pop\n      jump\t// out\n        /* \"#utility.yul\":10893:11312   */\n    tag_189:\n        /* \"#utility.yul\":11059:11063   */\n      0x00\n        /* \"#utility.yul\":11097:11099   */\n      0x20\n        /* \"#utility.yul\":11086:11095   */\n      dup3\n        /* \"#utility.yul\":11082:11100   */\n      add\n        /* \"#utility.yul\":11074:11100   */\n      swap1\n      pop\n        /* \"#utility.yul\":11146:11155   */\n      dup2\n        /* \"#utility.yul\":11140:11144   */\n      dup2\n        /* \"#utility.yul\":11136:11156   */\n      sub\n        /* \"#utility.yul\":11132:11133   */\n      0x00\n        /* \"#utility.yul\":11121:11130   */\n      dup4\n        /* \"#utility.yul\":11117:11134   */\n      add\n        /* \"#utility.yul\":11110:11157   */\n      mstore\n        /* \"#utility.yul\":11174:11305   */\n      tag_438\n        /* \"#utility.yul\":11300:11304   */\n      dup2\n        /* \"#utility.yul\":11174:11305   */\n      tag_307\n      jump\t// in\n    tag_438:\n        /* \"#utility.yul\":11166:11305   */\n      swap1\n      pop\n        /* \"#utility.yul\":10893:11312   */\n      swap2\n      swap1\n      pop\n      jump\t// out\n        /* \"#utility.yul\":11318:11543   */\n    tag_308:\n        /* \"#utility.yul\":11458:11492   */\n      0x4f776e61626c653a206e6577206f776e657220697320746865207a65726f2061\n        /* \"#utility.yul\":11454:11455   */\n      0x00\n        /* \"#utility.yul\":11446:11452   */\n      dup3\n        /* \"#utility.yul\":11442:11456   */\n      add\n        /* \"#utility.yul\":11435:11493   */\n      mstore\n        /* \"#utility.yul\":11527:11535   */\n      0x6464726573730000000000000000000000000000000000000000000000000000\n        /* \"#utility.yul\":11522:11524   */\n      0x20\n        /* \"#utility.yul\":11514:11520   */\n      dup3\n        /* \"#utility.yul\":11510:11525   */\n      add\n        /* \"#utility.yul\":11503:11536   */\n      mstore\n        /* \"#utility.yul\":11318:11543   */\n      pop\n      jump\t// out\n        /* \"#utility.yul\":11549:11915   */\n    tag_309:\n        /* \"#utility.yul\":11691:11694   */\n      0x00\n        /* \"#utility.yul\":11712:11779   */\n      tag_441\n        /* \"#utility.yul\":11776:11778   */\n      0x26\n        /* \"#utility.yul\":11771:11774   */\n      dup4\n        /* \"#utility.yul\":11712:11779   */\n      tag_278\n      jump\t// in\n    tag_441:\n        /* \"#utility.yul\":11705:11779   */\n      swap2\n      pop\n        /* \"#utility.yul\":11788:11881   */\n      tag_442\n        /* \"#utility.yul\":11877:11880   */\n      dup3\n        /* \"#utility.yul\":11788:11881   */\n      tag_308\n      jump\t// in\n    tag_442:\n        /* \"#utility.yul\":11906:11908   */\n      0x40\n        /* \"#utility.yul\":11901:11904   */\n      dup3\n        /* \"#utility.yul\":11897:11909   */\n      add\n        /* \"#utility.yul\":11890:11909   */\n      swap1\n      pop\n        /* \"#utility.yul\":11549:11915   */\n      swap2\n      swap1\n      pop\n      jump\t// out\n        /* \"#utility.yul\":11921:12340   */\n    tag_204:\n        /* \"#utility.yul\":12087:12091   */\n      0x00\n        /* \"#utility.yul\":12125:12127   */\n      0x20\n        /* \"#utility.yul\":12114:12123   */\n      dup3\n        /* \"#utility.yul\":12110:12128   */\n      add\n        /* \"#utility.yul\":12102:12128   */\n      swap1\n      pop\n        /* \"#utility.yul\":12174:12183   */\n      dup2\n        /* \"#utility.yul\":12168:12172   */\n      dup2\n        /* \"#utility.yul\":12164:12184   */\n      sub\n        /* \"#utility.yul\":12160:12161   */\n      0x00\n        /* \"#utility.yul\":12149:12158   */\n      dup4\n        /* \"#utility.yul\":12145:12162   */\n      add\n        /* \"#utility.yul\":12138:12185   */\n      mstore\n        /* \"#utility.yul\":12202:12333   */\n      tag_444\n        /* \"#utility.yul\":12328:12332   */\n      dup2\n        /* \"#utility.yul\":12202:12333   */\n      tag_309\n      jump\t// in\n    tag_444:\n        /* \"#utility.yul\":12194:12333   */\n      swap1\n      pop\n        /* \"#utility.yul\":11921:12340   */\n      swap2\n      swap1\n      pop\n      jump\t// out\n        /* \"#utility.yul\":12346:12569   */\n    tag_310:\n        /* \"#utility.yul\":12486:12520   */\n      0x45524332303a20617070726f76652066726f6d20746865207a65726f20616464\n        /* \"#utility.yul\":12482:12483   */\n      0x00\n        /* \"#utility.yul\":12474:12480   */\n      dup3\n        /* \"#utility.yul\":12470:12484   */\n      add\n        /* \"#utility.yul\":12463:12521   */\n      mstore\n        /* \"#utility.yul\":12555:12561   */\n      0x7265737300000000000000000000000000000000000000000000000000000000\n        /* \"#utility.yul\":12550:12552   */\n      0x20\n        /* \"#utility.yul\":12542:12548   */\n      dup3\n        /* \"#utility.yul\":12538:12553   */\n      add\n        /* \"#utility.yul\":12531:12562   */\n      mstore\n        /* \"#utility.yul\":12346:12569   */\n      pop\n      jump\t// out\n        /* \"#utility.yul\":12575:12941   */\n    tag_311:\n        /* \"#utility.yul\":12717:12720   */\n      0x00\n        /* \"#utility.yul\":12738:12805   */\n      tag_447\n        /* \"#utility.yul\":12802:12804   */\n      0x24\n        /* \"#utility.yul\":12797:12800   */\n      dup4\n        /* \"#utility.yul\":12738:12805   */\n      tag_278\n      jump\t// in\n    tag_447:\n        /* \"#utility.yul\":12731:12805   */\n      swap2\n      pop\n        /* \"#utility.yul\":12814:12907   */\n      tag_448\n        /* \"#utility.yul\":12903:12906   */\n      dup3\n        /* \"#utility.yul\":12814:12907   */\n      tag_310\n      jump\t// in\n    tag_448:\n        /* \"#utility.yul\":12932:12934   */\n      0x40\n        /* \"#utility.yul\":12927:12930   */\n      dup3\n        /* \"#utility.yul\":12923:12935   */\n      add\n        /* \"#utility.yul\":12916:12935   */\n      swap1\n      pop\n        /* \"#utility.yul\":12575:12941   */\n      swap2\n      swap1\n      pop\n      jump\t// out\n        /* \"#utility.yul\":12947:13366   */\n    tag_211:\n        /* \"#utility.yul\":13113:13117   */\n      0x00\n        /* \"#utility.yul\":13151:13153   */\n      0x20\n        /* \"#utility.yul\":13140:13149   */\n      dup3\n        /* \"#utility.yul\":13136:13154   */\n      add\n        /* \"#utility.yul\":13128:13154   */\n      swap1\n      pop\n        /* \"#utility.yul\":13200:13209   */\n      dup2\n        /* \"#utility.yul\":13194:13198   */\n      dup2\n        /* \"#utility.yul\":13190:13210   */\n      sub\n        /* \"#utility.yul\":13186:13187   */\n      0x00\n        /* \"#utility.yul\":13175:13184   */\n      dup4\n        /* \"#utility.yul\":13171:13188   */\n      add\n        /* \"#utility.yul\":13164:13211   */\n      mstore\n        /* \"#utility.yul\":13228:13359   */\n      tag_450\n        /* \"#utility.yul\":13354:13358   */\n      dup2\n        /* \"#utility.yul\":13228:13359   */\n      tag_311\n      jump\t// in\n    tag_450:\n        /* \"#utility.yul\":13220:13359   */\n      swap1\n      pop\n        /* \"#utility.yul\":12947:13366   */\n      swap2\n      swap1\n      pop\n      jump\t// out\n        /* \"#utility.yul\":13372:13593   */\n    tag_312:\n        /* \"#utility.yul\":13512:13546   */\n      0x45524332303a20617070726f766520746f20746865207a65726f206164647265\n        /* \"#utility.yul\":13508:13509   */\n      0x00\n        /* \"#utility.yul\":13500:13506   */\n      dup3\n        /* \"#utility.yul\":13496:13510   */\n      add\n        /* \"#utility.yul\":13489:13547   */\n      mstore\n        /* \"#utility.yul\":13581:13585   */\n      0x7373000000000000000000000000000000000000000000000000000000000000\n        /* \"#utility.yul\":13576:13578   */\n      0x20\n        /* \"#utility.yul\":13568:13574   */\n      dup3\n        /* \"#utility.yul\":13564:13579   */\n      add\n        /* \"#utility.yul\":13557:13586   */\n      mstore\n        /* \"#utility.yul\":13372:13593   */\n      pop\n      jump\t// out\n        /* \"#utility.yul\":13599:13965   */\n    tag_313:\n        /* \"#utility.yul\":13741:13744   */\n      0x00\n        /* \"#utility.yul\":13762:13829   */\n      tag_453\n        /* \"#utility.yul\":13826:13828   */\n      0x22\n        /* \"#utility.yul\":13821:13824   */\n      dup4\n        /* \"#utility.yul\":13762:13829   */\n      tag_278\n      jump\t// in\n    tag_453:\n        /* \"#utility.yul\":13755:13829   */\n      swap2\n      pop\n        /* \"#utility.yul\":13838:13931   */\n      tag_454\n        /* \"#utility.yul\":13927:13930   */\n      dup3\n        /* \"#utility.yul\":13838:13931   */\n      tag_312\n      jump\t// in\n    tag_454:\n        /* \"#utility.yul\":13956:13958   */\n      0x40\n        /* \"#utility.yul\":13951:13954   */\n      dup3\n        /* \"#utility.yul\":13947:13959   */\n      add\n        /* \"#utility.yul\":13940:13959   */\n      swap1\n      pop\n        /* \"#utility.yul\":13599:13965   */\n      swap2\n      swap1\n      pop\n      jump\t// out\n        /* \"#utility.yul\":13971:14390   */\n    tag_214:\n        /* \"#utility.yul\":14137:14141   */\n      0x00\n        /* \"#utility.yul\":14175:14177   */\n      0x20\n        /* \"#utility.yul\":14164:14173   */\n      dup3\n        /* \"#utility.yul\":14160:14178   */\n      add\n        /* \"#utility.yul\":14152:14178   */\n      swap1\n      pop\n        /* \"#utility.yul\":14224:14233   */\n      dup2\n        /* \"#utility.yul\":14218:14222   */\n      dup2\n        /* \"#utility.yul\":14214:14234   */\n      sub\n        /* \"#utility.yul\":14210:14211   */\n      0x00\n        /* \"#utility.yul\":14199:14208   */\n      dup4\n        /* \"#utility.yul\":14195:14212   */\n      add\n        /* \"#utility.yul\":14188:14235   */\n      mstore\n        /* \"#utility.yul\":14252:14383   */\n      tag_456\n        /* \"#utility.yul\":14378:14382   */\n      dup2\n        /* \"#utility.yul\":14252:14383   */\n      tag_313\n      jump\t// in\n    tag_456:\n        /* \"#utility.yul\":14244:14383   */\n      swap1\n      pop\n        /* \"#utility.yul\":13971:14390   */\n      swap2\n      swap1\n      pop\n      jump\t// out\n        /* \"#utility.yul\":14396:14620   */\n    tag_314:\n        /* \"#utility.yul\":14536:14570   */\n      0x45524332303a207472616e736665722066726f6d20746865207a65726f206164\n        /* \"#utility.yul\":14532:14533   */\n      0x00\n        /* \"#utility.yul\":14524:14530   */\n      dup3\n        /* \"#utility.yul\":14520:14534   */\n      add\n        /* \"#utility.yul\":14513:14571   */\n      mstore\n        /* \"#utility.yul\":14605:14612   */\n      0x6472657373000000000000000000000000000000000000000000000000000000\n        /* \"#utility.yul\":14600:14602   */\n      0x20\n        /* \"#utility.yul\":14592:14598   */\n      dup3\n        /* \"#utility.yul\":14588:14603   */\n      add\n        /* \"#utility.yul\":14581:14613   */\n      mstore\n        /* \"#utility.yul\":14396:14620   */\n      pop\n      jump\t// out\n        /* \"#utility.yul\":14626:14992   */\n    tag_315:\n        /* \"#utility.yul\":14768:14771   */\n      0x00\n        /* \"#utility.yul\":14789:14856   */\n      tag_459\n        /* \"#utility.yul\":14853:14855   */\n      0x25\n        /* \"#utility.yul\":14848:14851   */\n      dup4\n        /* \"#utility.yul\":14789:14856   */\n      tag_278\n      jump\t// in\n    tag_459:\n        /* \"#utility.yul\":14782:14856   */\n      swap2\n      pop\n        /* \"#utility.yul\":14865:14958   */\n      tag_460\n        /* \"#utility.yul\":14954:14957   */\n      dup3\n        /* \"#utility.yul\":14865:14958   */\n      tag_314\n      jump\t// in\n    tag_460:\n        /* \"#utility.yul\":14983:14985   */\n      0x40\n        /* \"#utility.yul\":14978:14981   */\n      dup3\n        /* \"#utility.yul\":14974:14986   */\n      add\n        /* \"#utility.yul\":14967:14986   */\n      swap1\n      pop\n        /* \"#utility.yul\":14626:14992   */\n      swap2\n      swap1\n      pop\n      jump\t// out\n        /* \"#utility.yul\":14998:15417   */\n    tag_219:\n        /* \"#utility.yul\":15164:15168   */\n      0x00\n        /* \"#utility.yul\":15202:15204   */\n      0x20\n        /* \"#utility.yul\":15191:15200   */\n      dup3\n        /* \"#utility.yul\":15187:15205   */\n      add\n        /* \"#utility.yul\":15179:15205   */\n      swap1\n      pop\n        /* \"#utility.yul\":15251:15260   */\n      dup2\n        /* \"#utility.yul\":15245:15249   */\n      dup2\n        /* \"#utility.yul\":15241:15261   */\n      sub\n        /* \"#utility.yul\":15237:15238   */\n      0x00\n        /* \"#utility.yul\":15226:15235   */\n      dup4\n        /* \"#utility.yul\":15222:15239   */\n      add\n        /* \"#utility.yul\":15215:15262   */\n      mstore\n        /* \"#utility.yul\":15279:15410   */\n      tag_462\n        /* \"#utility.yul\":15405:15409   */\n      dup2\n        /* \"#utility.yul\":15279:15410   */\n      tag_315\n      jump\t// in\n    tag_462:\n        /* \"#utility.yul\":15271:15410   */\n      swap1\n      pop\n        /* \"#utility.yul\":14998:15417   */\n      swap2\n      swap1\n      pop\n      jump\t// out\n        /* \"#utility.yul\":15423:15645   */\n    tag_316:\n        /* \"#utility.yul\":15563:15597   */\n      0x45524332303a207472616e7366657220746f20746865207a65726f2061646472\n        /* \"#utility.yul\":15559:15560   */\n      0x00\n        /* \"#utility.yul\":15551:15557   */\n      dup3\n        /* \"#utility.yul\":15547:15561   */\n      add\n        /* \"#utility.yul\":15540:15598   */\n      mstore\n        /* \"#utility.yul\":15632:15637   */\n      0x6573730000000000000000000000000000000000000000000000000000000000\n        /* \"#utility.yul\":15627:15629   */\n      0x20\n        /* \"#utility.yul\":15619:15625   */\n      dup3\n        /* \"#utility.yul\":15615:15630   */\n      add\n        /* \"#utility.yul\":15608:15638   */\n      mstore\n        /* \"#utility.yul\":15423:15645   */\n      pop\n      jump\t// out\n        /* \"#utility.yul\":15651:16017   */\n    tag_317:\n        /* \"#utility.yul\":15793:15796   */\n      0x00\n        /* \"#utility.yul\":15814:15881   */\n      tag_465\n        /* \"#utility.yul\":15878:15880   */\n      0x23\n        /* \"#utility.yul\":15873:15876   */\n      dup4\n        /* \"#utility.yul\":15814:15881   */\n      tag_278\n      jump\t// in\n    tag_465:\n        /* \"#utility.yul\":15807:15881   */\n      swap2\n      pop\n        /* \"#utility.yul\":15890:15983   */\n      tag_466\n        /* \"#utility.yul\":15979:15982   */\n      dup3\n        /* \"#utility.yul\":15890:15983   */\n      tag_316\n      jump\t// in\n    tag_466:\n        /* \"#utility.yul\":16008:16010   */\n      0x40\n        /* \"#utility.yul\":16003:16006   */\n      dup3\n        /* \"#utility.yul\":15999:16011   */\n      add\n        /* \"#utility.yul\":15992:16011   */\n      swap1\n      pop\n        /* \"#utility.yul\":15651:16017   */\n      swap2\n      swap1\n      pop\n      jump\t// out\n        /* \"#utility.yul\":16023:16442   */\n    tag_222:\n        /* \"#utility.yul\":16189:16193   */\n      0x00\n        /* \"#utility.yul\":16227:16229   */\n      0x20\n        /* \"#utility.yul\":16216:16225   */\n      dup3\n        /* \"#utility.yul\":16212:16230   */\n      add\n        /* \"#utility.yul\":16204:16230   */\n      swap1\n      pop\n        /* \"#utility.yul\":16276:16285   */\n      dup2\n        /* \"#utility.yul\":16270:16274   */\n      dup2\n        /* \"#utility.yul\":16266:16286   */\n      sub\n        /* \"#utility.yul\":16262:16263   */\n      0x00\n        /* \"#utility.yul\":16251:16260   */\n      dup4\n        /* \"#utility.yul\":16247:16264   */\n      add\n        /* \"#utility.yul\":16240:16287   */\n      mstore\n        /* \"#utility.yul\":16304:16435   */\n      tag_468\n        /* \"#utility.yul\":16430:16434   */\n      dup2\n        /* \"#utility.yul\":16304:16435   */\n      tag_317\n      jump\t// in\n    tag_468:\n        /* \"#utility.yul\":16296:16435   */\n      swap1\n      pop\n        /* \"#utility.yul\":16023:16442   */\n      swap2\n      swap1\n      pop\n      jump\t// out\n        /* \"#utility.yul\":16448:16673   */\n    tag_318:\n        /* \"#utility.yul\":16588:16622   */\n      0x45524332303a207472616e7366657220616d6f756e7420657863656564732062\n        /* \"#utility.yul\":16584:16585   */\n      0x00\n        /* \"#utility.yul\":16576:16582   */\n      dup3\n        /* \"#utility.yul\":16572:16586   */\n      add\n        /* \"#utility.yul\":16565:16623   */\n      mstore\n        /* \"#utility.yul\":16657:16665   */\n      0x616c616e63650000000000000000000000000000000000000000000000000000\n        /* \"#utility.yul\":16652:16654   */\n      0x20\n        /* \"#utility.yul\":16644:16650   */\n      dup3\n        /* \"#utility.yul\":16640:16655   */\n      add\n        /* \"#utility.yul\":16633:16666   */\n      mstore\n        /* \"#utility.yul\":16448:16673   */\n      pop\n      jump\t// out\n        /* \"#utility.yul\":16679:17045   */\n    tag_319:\n        /* \"#utility.yul\":16821:16824   */\n      0x00\n        /* \"#utility.yul\":16842:16909   */\n      tag_471\n        /* \"#utility.yul\":16906:16908   */\n      0x26\n        /* \"#utility.yul\":16901:16904   */\n      dup4\n        /* \"#utility.yul\":16842:16909   */\n      tag_278\n      jump\t// in\n    tag_471:\n        /* \"#utility.yul\":16835:16909   */\n      swap2\n      pop\n        /* \"#utility.yul\":16918:17011   */\n      tag_472\n        /* \"#utility.yul\":17007:17010   */\n      dup3\n        /* \"#utility.yul\":16918:17011   */\n      tag_318\n      jump\t// in\n    tag_472:\n        /* \"#utility.yul\":17036:17038   */\n      0x40\n        /* \"#utility.yul\":17031:17034   */\n      dup3\n        /* \"#utility.yul\":17027:17039   */\n      add\n        /* \"#utility.yul\":17020:17039   */\n      swap1\n      pop\n        /* \"#utility.yul\":16679:17045   */\n      swap2\n      swap1\n      pop\n      jump\t// out\n        /* \"#utility.yul\":17051:17470   */\n    tag_227:\n        /* \"#utility.yul\":17217:17221   */\n      0x00\n        /* \"#utility.yul\":17255:17257   */\n      0x20\n        /* \"#utility.yul\":17244:17253   */\n      dup3\n        /* \"#utility.yul\":17240:17258   */\n      add\n        /* \"#utility.yul\":17232:17258   */\n      swap1\n      pop\n        /* \"#utility.yul\":17304:17313   */\n      dup2\n        /* \"#utility.yul\":17298:17302   */\n      dup2\n        /* \"#utility.yul\":17294:17314   */\n      sub\n        /* \"#utility.yul\":17290:17291   */\n      0x00\n        /* \"#utility.yul\":17279:17288   */\n      dup4\n        /* \"#utility.yul\":17275:17292   */\n      add\n        /* \"#utility.yul\":17268:17315   */\n      mstore\n        /* \"#utility.yul\":17332:17463   */\n      tag_474\n        /* \"#utility.yul\":17458:17462   */\n      dup2\n        /* \"#utility.yul\":17332:17463   */\n      tag_319\n      jump\t// in\n    tag_474:\n        /* \"#utility.yul\":17324:17463   */\n      swap1\n      pop\n        /* \"#utility.yul\":17051:17470   */\n      swap2\n      swap1\n      pop\n      jump\t// out\n        /* \"#utility.yul\":17476:17646   */\n    tag_320:\n        /* \"#utility.yul\":17616:17638   */\n      0x5061757361626c653a206e6f7420706175736564000000000000000000000000\n        /* \"#utility.yul\":17612:17613   */\n      0x00\n        /* \"#utility.yul\":17604:17610   */\n      dup3\n        /* \"#utility.yul\":17600:17614   */\n      add\n        /* \"#utility.yul\":17593:17639   */\n      mstore\n        /* \"#utility.yul\":17476:17646   */\n      pop\n      jump\t// out\n        /* \"#utility.yul\":17652:18018   */\n    tag_321:\n        /* \"#utility.yul\":17794:17797   */\n      0x00\n        /* \"#utility.yul\":17815:17882   */\n      tag_477\n        /* \"#utility.yul\":17879:17881   */\n      0x14\n        /* \"#utility.yul\":17874:17877   */\n      dup4\n        /* \"#utility.yul\":17815:17882   */\n      tag_278\n      jump\t// in\n    tag_477:\n        /* \"#utility.yul\":17808:17882   */\n      swap2\n      pop\n        /* \"#utility.yul\":17891:17984   */\n      tag_478\n        /* \"#utility.yul\":17980:17983   */\n      dup3\n        /* \"#utility.yul\":17891:17984   */\n      tag_320\n      jump\t// in\n    tag_478:\n        /* \"#utility.yul\":18009:18011   */\n      0x20\n        /* \"#utility.yul\":18004:18007   */\n      dup3\n        /* \"#utility.yul\":18000:18012   */\n      add\n        /* \"#utility.yul\":17993:18012   */\n      swap1\n      pop\n        /* \"#utility.yul\":17652:18018   */\n      swap2\n      swap1\n      pop\n      jump\t// out\n        /* \"#utility.yul\":18024:18443   */\n    tag_236:\n        /* \"#utility.yul\":18190:18194   */\n      0x00\n        /* \"#utility.yul\":18228:18230   */\n      0x20\n        /* \"#utility.yul\":18217:18226   */\n      dup3\n        /* \"#utility.yul\":18213:18231   */\n      add\n        /* \"#utility.yul\":18205:18231   */\n      swap1\n      pop\n        /* \"#utility.yul\":18277:18286   */\n      dup2\n        /* \"#utility.yul\":18271:18275   */\n      dup2\n        /* \"#utility.yul\":18267:18287   */\n      sub\n        /* \"#utility.yul\":18263:18264   */\n      0x00\n        /* \"#utility.yul\":18252:18261   */\n      dup4\n        /* \"#utility.yul\":18248:18265   */\n      add\n        /* \"#utility.yul\":18241:18288   */\n      mstore\n        /* \"#utility.yul\":18305:18436   */\n      tag_480\n        /* \"#utility.yul\":18431:18435   */\n      dup2\n        /* \"#utility.yul\":18305:18436   */\n      tag_321\n      jump\t// in\n    tag_480:\n        /* \"#utility.yul\":18297:18436   */\n      swap1\n      pop\n        /* \"#utility.yul\":18024:18443   */\n      swap2\n      swap1\n      pop\n      jump\t// out\n        /* \"#utility.yul\":18449:18630   */\n    tag_322:\n        /* \"#utility.yul\":18589:18622   */\n      0x45524332303a206d696e7420746f20746865207a65726f206164647265737300\n        /* \"#utility.yul\":18585:18586   */\n      0x00\n        /* \"#utility.yul\":18577:18583   */\n      dup3\n        /* \"#utility.yul\":18573:18587   */\n      add\n        /* \"#utility.yul\":18566:18623   */\n      mstore\n        /* \"#utility.yul\":18449:18630   */\n      pop\n      jump\t// out\n        /* \"#utility.yul\":18636:19002   */\n    tag_323:\n        /* \"#utility.yul\":18778:18781   */\n      0x00\n        /* \"#utility.yul\":18799:18866   */\n      tag_483\n        /* \"#utility.yul\":18863:18865   */\n      0x1f\n        /* \"#utility.yul\":18858:18861   */\n      dup4\n        /* \"#utility.yul\":18799:18866   */\n      tag_278\n      jump\t// in\n    tag_483:\n        /* \"#utility.yul\":18792:18866   */\n      swap2\n      pop\n        /* \"#utility.yul\":18875:18968   */\n      tag_484\n        /* \"#utility.yul\":18964:18967   */\n      dup3\n        /* \"#utility.yul\":18875:18968   */\n      tag_322\n      jump\t// in\n    tag_484:\n        /* \"#utility.yul\":18993:18995   */\n      0x20\n        /* \"#utility.yul\":18988:18991   */\n      dup3\n        /* \"#utility.yul\":18984:18996   */\n      add\n        /* \"#utility.yul\":18977:18996   */\n      swap1\n      pop\n        /* \"#utility.yul\":18636:19002   */\n      swap2\n      swap1\n      pop\n      jump\t// out\n        /* \"#utility.yul\":19008:19427   */\n    tag_243:\n        /* \"#utility.yul\":19174:19178   */\n      0x00\n        /* \"#utility.yul\":19212:19214   */\n      0x20\n        /* \"#utility.yul\":19201:19210   */\n      dup3\n        /* \"#utility.yul\":19197:19215   */\n      add\n        /* \"#utility.yul\":19189:19215   */\n      swap1\n      pop\n        /* \"#utility.yul\":19261:19270   */\n      dup2\n        /* \"#utility.yul\":19255:19259   */\n      dup2\n        /* \"#utility.yul\":19251:19271   */\n      sub\n        /* \"#utility.yul\":19247:19248   */\n      0x00\n        /* \"#utility.yul\":19236:19245   */\n      dup4\n        /* \"#utility.yul\":19232:19249   */\n      add\n        /* \"#utility.yul\":19225:19272   */\n      mstore\n        /* \"#utility.yul\":19289:19420   */\n      tag_486\n        /* \"#utility.yul\":19415:19419   */\n      dup2\n        /* \"#utility.yul\":19289:19420   */\n      tag_323\n      jump\t// in\n    tag_486:\n        /* \"#utility.yul\":19281:19420   */\n      swap1\n      pop\n        /* \"#utility.yul\":19008:19427   */\n      swap2\n      swap1\n      pop\n      jump\t// out\n        /* \"#utility.yul\":19433:19653   */\n    tag_324:\n        /* \"#utility.yul\":19573:19607   */\n      0x45524332303a206275726e2066726f6d20746865207a65726f20616464726573\n        /* \"#utility.yul\":19569:19570   */\n      0x00\n        /* \"#utility.yul\":19561:19567   */\n      dup3\n        /* \"#utility.yul\":19557:19571   */\n      add\n        /* \"#utility.yul\":19550:19608   */\n      mstore\n        /* \"#utility.yul\":19642:19645   */\n      0x7300000000000000000000000000000000000000000000000000000000000000\n        /* \"#utility.yul\":19637:19639   */\n      0x20\n        /* \"#utility.yul\":19629:19635   */\n      dup3\n        /* \"#utility.yul\":19625:19640   */\n      add\n        /* \"#utility.yul\":19618:19646   */\n      mstore\n        /* \"#utility.yul\":19433:19653   */\n      pop\n      jump\t// out\n        /* \"#utility.yul\":19659:20025   */\n    tag_325:\n        /* \"#utility.yul\":19801:19804   */\n      0x00\n        /* \"#utility.yul\":19822:19889   */\n      tag_489\n        /* \"#utility.yul\":19886:19888   */\n      0x21\n        /* \"#utility.yul\":19881:19884   */\n      dup4\n        /* \"#utility.yul\":19822:19889   */\n      tag_278\n      jump\t// in\n    tag_489:\n        /* \"#utility.yul\":19815:19889   */\n      swap2\n      pop\n        /* \"#utility.yul\":19898:19991   */\n      tag_490\n        /* \"#utility.yul\":19987:19990   */\n      dup3\n        /* \"#utility.yul\":19898:19991   */\n      tag_324\n      jump\t// in\n    tag_490:\n        /* \"#utility.yul\":20016:20018   */\n      0x40\n        /* \"#utility.yul\":20011:20014   */\n      dup3\n        /* \"#utility.yul\":20007:20019   */\n      add\n        /* \"#utility.yul\":20000:20019   */\n      swap1\n      pop\n        /* \"#utility.yul\":19659:20025   */\n      swap2\n      swap1\n      pop\n      jump\t// out\n        /* \"#utility.yul\":20031:20450   */\n    tag_252:\n        /* \"#utility.yul\":20197:20201   */\n      0x00\n        /* \"#utility.yul\":20235:20237   */\n      0x20\n        /* \"#utility.yul\":20224:20233   */\n      dup3\n        /* \"#utility.yul\":20220:20238   */\n      add\n        /* \"#utility.yul\":20212:20238   */\n      swap1\n      pop\n        /* \"#utility.yul\":20284:20293   */\n      dup2\n        /* \"#utility.yul\":20278:20282   */\n      dup2\n        /* \"#utility.yul\":20274:20294   */\n      sub\n        /* \"#utility.yul\":20270:20271   */\n      0x00\n        /* \"#utility.yul\":20259:20268   */\n      dup4\n        /* \"#utility.yul\":20255:20272   */\n      add\n        /* \"#utility.yul\":20248:20295   */\n      mstore\n        /* \"#utility.yul\":20312:20443   */\n      tag_492\n        /* \"#utility.yul\":20438:20442   */\n      dup2\n        /* \"#utility.yul\":20312:20443   */\n      tag_325\n      jump\t// in\n    tag_492:\n        /* \"#utility.yul\":20304:20443   */\n      swap1\n      pop\n        /* \"#utility.yul\":20031:20450   */\n      swap2\n      swap1\n      pop\n      jump\t// out\n        /* \"#utility.yul\":20456:20677   */\n    tag_326:\n        /* \"#utility.yul\":20596:20630   */\n      0x45524332303a206275726e20616d6f756e7420657863656564732062616c616e\n        /* \"#utility.yul\":20592:20593   */\n      0x00\n        /* \"#utility.yul\":20584:20590   */\n      dup3\n        /* \"#utility.yul\":20580:20594   */\n      add\n        /* \"#utility.yul\":20573:20631   */\n      mstore\n        /* \"#utility.yul\":20665:20669   */\n      0x6365000000000000000000000000000000000000000000000000000000000000\n        /* \"#utility.yul\":20660:20662   */\n      0x20\n        /* \"#utility.yul\":20652:20658   */\n      dup3\n        /* \"#utility.yul\":20648:20663   */\n      add\n        /* \"#utility.yul\":20641:20670   */\n      mstore\n        /* \"#utility.yul\":20456:20677   */\n      pop\n      jump\t// out\n        /* \"#utility.yul\":20683:21049   */\n    tag_327:\n        /* \"#utility.yul\":20825:20828   */\n      0x00\n        /* \"#utility.yul\":20846:20913   */\n      tag_495\n        /* \"#utility.yul\":20910:20912   */\n      0x22\n        /* \"#utility.yul\":20905:20908   */\n      dup4\n        /* \"#utility.yul\":20846:20913   */\n      tag_278\n      jump\t// in\n    tag_495:\n        /* \"#utility.yul\":20839:20913   */\n      swap2\n      pop\n        /* \"#utility.yul\":20922:21015   */\n      tag_496\n        /* \"#utility.yul\":21011:21014   */\n      dup3\n        /* \"#utility.yul\":20922:21015   */\n      tag_326\n      jump\t// in\n    tag_496:\n        /* \"#utility.yul\":21040:21042   */\n      0x40\n        /* \"#utility.yul\":21035:21038   */\n      dup3\n        /* \"#utility.yul\":21031:21043   */\n      add\n        /* \"#utility.yul\":21024:21043   */\n      swap1\n      pop\n        /* \"#utility.yul\":20683:21049   */\n      swap2\n      swap1\n      pop\n      jump\t// out\n        /* \"#utility.yul\":21055:21474   */\n    tag_256:\n        /* \"#utility.yul\":21221:21225   */\n      0x00\n        /* \"#utility.yul\":21259:21261   */\n      0x20\n        /* \"#utility.yul\":21248:21257   */\n      dup3\n        /* \"#utility.yul\":21244:21262   */\n      add\n        /* \"#utility.yul\":21236:21262   */\n      swap1\n      pop\n        /* \"#utility.yul\":21308:21317   */\n      dup2\n        /* \"#utility.yul\":21302:21306   */\n      dup2\n        /* \"#utility.yul\":21298:21318   */\n      sub\n        /* \"#utility.yul\":21294:21295   */\n      0x00\n        /* \"#utility.yul\":21283:21292   */\n      dup4\n        /* \"#utility.yul\":21279:21296   */\n      add\n        /* \"#utility.yul\":21272:21319   */\n      mstore\n        /* \"#utility.yul\":21336:21467   */\n      tag_498\n        /* \"#utility.yul\":21462:21466   */\n      dup2\n        /* \"#utility.yul\":21336:21467   */\n      tag_327\n      jump\t// in\n    tag_498:\n        /* \"#utility.yul\":21328:21467   */\n      swap1\n      pop\n        /* \"#utility.yul\":21055:21474   */\n      swap2\n      swap1\n      pop\n      jump\t// out\n        /* \"#utility.yul\":21480:21674   */\n    tag_258:\n        /* \"#utility.yul\":21520:21524   */\n      0x00\n        /* \"#utility.yul\":21540:21560   */\n      tag_500\n        /* \"#utility.yul\":21558:21559   */\n      dup3\n        /* \"#utility.yul\":21540:21560   */\n      tag_289\n      jump\t// in\n    tag_500:\n        /* \"#utility.yul\":21535:21560   */\n      swap2\n      pop\n        /* \"#utility.yul\":21574:21594   */\n      tag_501\n        /* \"#utility.yul\":21592:21593   */\n      dup4\n        /* \"#utility.yul\":21574:21594   */\n      tag_289\n      jump\t// in\n    tag_501:\n        /* \"#utility.yul\":21569:21594   */\n      swap3\n      pop\n        /* \"#utility.yul\":21618:21619   */\n      dup3\n        /* \"#utility.yul\":21615:21616   */\n      dup3\n        /* \"#utility.yul\":21611:21620   */\n      sub\n        /* \"#utility.yul\":21603:21620   */\n      swap1\n      pop\n        /* \"#utility.yul\":21642:21643   */\n      dup2\n        /* \"#utility.yul\":21636:21640   */\n      dup2\n        /* \"#utility.yul\":21633:21644   */\n      gt\n        /* \"#utility.yul\":21630:21667   */\n      iszero\n      tag_502\n      jumpi\n        /* \"#utility.yul\":21647:21665   */\n      tag_503\n      tag_301\n      jump\t// in\n    tag_503:\n        /* \"#utility.yul\":21630:21667   */\n    tag_502:\n        /* \"#utility.yul\":21480:21674   */\n      swap3\n      swap2\n      pop\n      pop\n      jump\t// out\n        /* \"#utility.yul\":21680:21846   */\n    tag_328:\n        /* \"#utility.yul\":21820:21838   */\n      0x5061757361626c653a2070617573656400000000000000000000000000000000\n        /* \"#utility.yul\":21816:21817   */\n      0x00\n        /* \"#utility.yul\":21808:21814   */\n      dup3\n        /* \"#utility.yul\":21804:21818   */\n      add\n        /* \"#utility.yul\":21797:21839   */\n      mstore\n        /* \"#utility.yul\":21680:21846   */\n      pop\n      jump\t// out\n        /* \"#utility.yul\":21852:22218   */\n    tag_329:\n        /* \"#utility.yul\":21994:21997   */\n      0x00\n        /* \"#utility.yul\":22015:22082   */\n      tag_506\n        /* \"#utility.yul\":22079:22081   */\n      0x10\n        /* \"#utility.yul\":22074:22077   */\n      dup4\n        /* \"#utility.yul\":22015:22082   */\n      tag_278\n      jump\t// in\n    tag_506:\n        /* \"#utility.yul\":22008:22082   */\n      swap2\n      pop\n        /* \"#utility.yul\":22091:22184   */\n      tag_507\n        /* \"#utility.yul\":22180:22183   */\n      dup3\n        /* \"#utility.yul\":22091:22184   */\n      tag_328\n      jump\t// in\n    tag_507:\n        /* \"#utility.yul\":22209:22211   */\n      0x20\n        /* \"#utility.yul\":22204:22207   */\n      dup3\n        /* \"#utility.yul\":22200:22212   */\n      add\n        /* \"#utility.yul\":22193:22212   */\n      swap1\n      pop\n        /* \"#utility.yul\":21852:22218   */\n      swap2\n      swap1\n      pop\n      jump\t// out\n        /* \"#utility.yul\":22224:22643   */\n    tag_266:\n        /* \"#utility.yul\":22390:22394   */\n      0x00\n        /* \"#utility.yul\":22428:22430   */\n      0x20\n        /* \"#utility.yul\":22417:22426   */\n      dup3\n        /* \"#utility.yul\":22413:22431   */\n      add\n        /* \"#utility.yul\":22405:22431   */\n      swap1\n      pop\n        /* \"#utility.yul\":22477:22486   */\n      dup2\n        /* \"#utility.yul\":22471:22475   */\n      dup2\n        /* \"#utility.yul\":22467:22487   */\n      sub\n        /* \"#utility.yul\":22463:22464   */\n      0x00\n        /* \"#utility.yul\":22452:22461   */\n      dup4\n        /* \"#utility.yul\":22448:22465   */\n      add\n        /* \"#utility.yul\":22441:22488   */\n      mstore\n        /* \"#utility.yul\":22505:22636   */\n      tag_509\n        /* \"#utility.yul\":22631:22635   */\n      dup2\n        /* \"#utility.yul\":22505:22636   */\n      tag_329\n      jump\t// in\n    tag_509:\n        /* \"#utility.yul\":22497:22636   */\n      swap1\n      pop\n        /* \"#utility.yul\":22224:22643   */\n      swap2\n      swap1\n      pop\n      jump\t// out\n\n    auxdata: 0xa264697066735822122061781661eb339d57a3fb493ddaa2a37e63147bd0ad2dfe012eb8d3a17d77a4d264736f6c63430008120033\n}\n",
				"bytecode": {
					"linkReferences": {},
					"object": "60806040523480156200001157600080fd5b506040518060400160405280600781526020017f456475436f696e000000000000000000000000000000000000000000000000008152506040518060400160405280600381526020017f454443000000000000000000000000000000000000000000000000000000000081525081600390816200008f91906200067d565b508060049081620000a191906200067d565b5050506000600560006101000a81548160ff021916908315150217905550620000df620000d36200012360201b60201c565b6200012b60201b60201c565b6200011d33620000f4620001f160201b60201c565b600a620001029190620008f4565b6103e862000111919062000945565b620001fa60201b60201c565b62000aee565b600033905090565b6000600560019054906101000a900473ffffffffffffffffffffffffffffffffffffffff16905081600560016101000a81548173ffffffffffffffffffffffffffffffffffffffff021916908373ffffffffffffffffffffffffffffffffffffffff1602179055508173ffffffffffffffffffffffffffffffffffffffff168173ffffffffffffffffffffffffffffffffffffffff167f8be0079c531659141344cd1fd0a4f28419497f9722a3daafe3b4186f6b6457e060405160405180910390a35050565b60006012905090565b600073ffffffffffffffffffffffffffffffffffffffff168273ffffffffffffffffffffffffffffffffffffffff16036200026c576040517f08c379a00000000000000000000000000000000000000000000000000000000081526004016200026390620009f1565b60405180910390fd5b62000280600083836200037260201b60201c565b806002600082825462000294919062000a13565b92505081905550806000808473ffffffffffffffffffffffffffffffffffffffff1673ffffffffffffffffffffffffffffffffffffffff1681526020019081526020016000206000828254620002eb919062000a13565b925050819055508173ffffffffffffffffffffffffffffffffffffffff16600073ffffffffffffffffffffffffffffffffffffffff167fddf252ad1be2c89b69c2b068fc378daa952ba7f163c4a11628f55a4df523b3ef8360405162000352919062000a5f565b60405180910390a36200036e60008383620003e260201b60201c565b5050565b62000382620003e760201b60201c565b15620003c5576040517f08c379a0000000000000000000000000000000000000000000000000000000008152600401620003bc9062000acc565b60405180910390fd5b620003dd838383620003fe60201b62000c791760201c565b505050565b505050565b6000600560009054906101000a900460ff16905090565b505050565b600081519050919050565b7f4e487b7100000000000000000000000000000000000000000000000000000000600052604160045260246000fd5b7f4e487b7100000000000000000000000000000000000000000000000000000000600052602260045260246000fd5b600060028204905060018216806200048557607f821691505b6020821081036200049b576200049a6200043d565b5b50919050565b60008190508160005260206000209050919050565b60006020601f8301049050919050565b600082821b905092915050565b600060088302620005057fffffffffffffffffffffffffffffffffffffffffffffffffffffffffffffffff82620004c6565b620005118683620004c6565b95508019841693508086168417925050509392505050565b6000819050919050565b6000819050919050565b60006200055e62000558620005528462000529565b62000533565b62000529565b9050919050565b6000819050919050565b6200057a836200053d565b62000592620005898262000565565b848454620004d3565b825550505050565b600090565b620005a96200059a565b620005b68184846200056f565b505050565b5b81811015620005de57620005d26000826200059f565b600181019050620005bc565b5050565b601f8211156200062d57620005f781620004a1565b6200060284620004b6565b8101602085101562000612578190505b6200062a6200062185620004b6565b830182620005bb565b50505b505050565b600082821c905092915050565b6000620006526000198460080262000632565b1980831691505092915050565b60006200066d83836200063f565b9150826002028217905092915050565b620006888262000403565b67ffffffffffffffff811115620006a457620006a36200040e565b5b620006b082546200046c565b620006bd828285620005e2565b600060209050601f831160018114620006f55760008415620006e0578287015190505b620006ec85826200065f565b8655506200075c565b601f1984166200070586620004a1565b60005b828110156200072f5784890151825560018201915060208501945060208101905062000708565b868310156200074f57848901516200074b601f8916826200063f565b8355505b6001600288020188555050505b505050505050565b7f4e487b7100000000000000000000000000000000000000000000000000000000600052601160045260246000fd5b60008160011c9050919050565b6000808291508390505b6001851115620007f257808604811115620007ca57620007c962000764565b5b6001851615620007da5780820291505b8081029050620007ea8562000793565b9450620007aa565b94509492505050565b6000826200080d5760019050620008e0565b816200081d5760009050620008e0565b8160018114620008365760028114620008415762000877565b6001915050620008e0565b60ff84111562000856576200085562000764565b5b8360020a91508482111562000870576200086f62000764565b5b50620008e0565b5060208310610133831016604e8410600b8410161715620008b15782820a905083811115620008ab57620008aa62000764565b5b620008e0565b620008c08484846001620007a0565b92509050818404811115620008da57620008d962000764565b5b81810290505b9392505050565b600060ff82169050919050565b6000620009018262000529565b91506200090e83620008e7565b92506200093d7fffffffffffffffffffffffffffffffffffffffffffffffffffffffffffffffff8484620007fb565b905092915050565b6000620009528262000529565b91506200095f8362000529565b92508282026200096f8162000529565b9150828204841483151762000989576200098862000764565b5b5092915050565b600082825260208201905092915050565b7f45524332303a206d696e7420746f20746865207a65726f206164647265737300600082015250565b6000620009d9601f8362000990565b9150620009e682620009a1565b602082019050919050565b6000602082019050818103600083015262000a0c81620009ca565b9050919050565b600062000a208262000529565b915062000a2d8362000529565b925082820190508082111562000a485762000a4762000764565b5b92915050565b62000a598162000529565b82525050565b600060208201905062000a76600083018462000a4e565b92915050565b7f5061757361626c653a2070617573656400000000000000000000000000000000600082015250565b600062000ab460108362000990565b915062000ac18262000a7c565b602082019050919050565b6000602082019050818103600083015262000ae78162000aa5565b9050919050565b6122c78062000afe6000396000f3fe608060405234801561001057600080fd5b506004361061012c5760003560e01c806370a08231116100ad57806395d89b411161007157806395d89b41146102f9578063a457c2d714610317578063a9059cbb14610347578063dd62ed3e14610377578063f2fde38b146103a75761012c565b806370a082311461027b578063715018a6146102ab57806379cc6790146102b55780638456cb59146102d15780638da5cb5b146102db5761012c565b806339509351116100f457806339509351146101eb5780633f4ba83a1461021b57806340c10f191461022557806342966c68146102415780635c975abb1461025d5761012c565b806306fdde0314610131578063095ea7b31461014f57806318160ddd1461017f57806323b872dd1461019d578063313ce567146101cd575b600080fd5b6101396103c3565b60405161014691906116fb565b60405180910390f35b610169600480360381019061016491906117b6565b610455565b6040516101769190611811565b60405180910390f35b610187610473565b604051610194919061183b565b60405180910390f35b6101b760048036038101906101b29190611856565b61047d565b6040516101c49190611811565b60405180910390f35b6101d5610575565b6040516101e291906118c5565b60405180910390f35b610205600480360381019061020091906117b6565b61057e565b6040516102129190611811565b60405180910390f35b61022361062a565b005b61023f600480360381019061023a91906117b6565b6106b0565b005b61025b600480360381019061025691906118e0565b61073a565b005b61026561074e565b6040516102729190611811565b60405180910390f35b6102956004803603810190610290919061190d565b610765565b6040516102a2919061183b565b60405180910390f35b6102b36107ad565b005b6102cf60048036038101906102ca91906117b6565b610835565b005b6102d96108b0565b005b6102e3610936565b6040516102f09190611949565b60405180910390f35b610301610960565b60405161030e91906116fb565b60405180910390f35b610331600480360381019061032c91906117b6565b6109f2565b60405161033e9190611811565b60405180910390f35b610361600480360381019061035c91906117b6565b610add565b60405161036e9190611811565b60405180910390f35b610391600480360381019061038c9190611964565b610afb565b60405161039e919061183b565b60405180910390f35b6103c160048036038101906103bc919061190d565b610b82565b005b6060600380546103d2906119d3565b80601f01602080910402602001604051908101604052809291908181526020018280546103fe906119d3565b801561044b5780601f106104205761010080835404028352916020019161044b565b820191906000526020600020905b81548152906001019060200180831161042e57829003601f168201915b5050505050905090565b6000610469610462610c7e565b8484610c86565b6001905092915050565b6000600254905090565b600061048a848484610e4f565b6000600160008673ffffffffffffffffffffffffffffffffffffffff1673ffffffffffffffffffffffffffffffffffffffff16815260200190815260200160002060006104d5610c7e565b73ffffffffffffffffffffffffffffffffffffffff1673ffffffffffffffffffffffffffffffffffffffff16815260200190815260200160002054905082811015610555576040517f08c379a000000000000000000000000000000000000000000000000000000000815260040161054c90611a76565b60405180910390fd5b61056985610561610c7e565b858403610c86565b60019150509392505050565b60006012905090565b600061062061058b610c7e565b848460016000610599610c7e565b73ffffffffffffffffffffffffffffffffffffffff1673ffffffffffffffffffffffffffffffffffffffff16815260200190815260200160002060008873ffffffffffffffffffffffffffffffffffffffff1673ffffffffffffffffffffffffffffffffffffffff1681526020019081526020016000205461061b9190611ac5565b610c86565b6001905092915050565b610632610c7e565b73ffffffffffffffffffffffffffffffffffffffff16610650610936565b73ffffffffffffffffffffffffffffffffffffffff16146106a6576040517f08c379a000000000000000000000000000000000000000000000000000000000815260040161069d90611b45565b60405180910390fd5b6106ae6110ce565b565b6106b8610c7e565b73ffffffffffffffffffffffffffffffffffffffff166106d6610936565b73ffffffffffffffffffffffffffffffffffffffff161461072c576040517f08c379a000000000000000000000000000000000000000000000000000000000815260040161072390611b45565b60405180910390fd5b6107368282611170565b5050565b61074b610745610c7e565b826112cf565b50565b6000600560009054906101000a900460ff16905090565b60008060008373ffffffffffffffffffffffffffffffffffffffff1673ffffffffffffffffffffffffffffffffffffffff168152602001908152602001600020549050919050565b6107b5610c7e565b73ffffffffffffffffffffffffffffffffffffffff166107d3610936565b73ffffffffffffffffffffffffffffffffffffffff1614610829576040517f08c379a000000000000000000000000000000000000000000000000000000000815260040161082090611b45565b60405180910390fd5b61083360006114a5565b565b600061084883610843610c7e565b610afb565b90508181101561088d576040517f08c379a000000000000000000000000000000000000000000000000000000000815260040161088490611bd7565b60405180910390fd5b6108a183610899610c7e565b848403610c86565b6108ab83836112cf565b505050565b6108b8610c7e565b73ffffffffffffffffffffffffffffffffffffffff166108d6610936565b73ffffffffffffffffffffffffffffffffffffffff161461092c576040517f08c379a000000000000000000000000000000000000000000000000000000000815260040161092390611b45565b60405180910390fd5b61093461156b565b565b6000600560019054906101000a900473ffffffffffffffffffffffffffffffffffffffff16905090565b60606004805461096f906119d3565b80601f016020809104026020016040519081016040528092919081815260200182805461099b906119d3565b80156109e85780601f106109bd576101008083540402835291602001916109e8565b820191906000526020600020905b8154815290600101906020018083116109cb57829003601f168201915b5050505050905090565b60008060016000610a01610c7e565b73ffffffffffffffffffffffffffffffffffffffff1673ffffffffffffffffffffffffffffffffffffffff16815260200190815260200160002060008573ffffffffffffffffffffffffffffffffffffffff1673ffffffffffffffffffffffffffffffffffffffff16815260200190815260200160002054905082811015610abe576040517f08c379a0000000000000000000000000000000000000000000000000000000008152600401610ab590611c69565b60405180910390fd5b610ad2610ac9610c7e565b85858403610c86565b600191505092915050565b6000610af1610aea610c7e565b8484610e4f565b6001905092915050565b6000600160008473ffffffffffffffffffffffffffffffffffffffff1673ffffffffffffffffffffffffffffffffffffffff16815260200190815260200160002060008373ffffffffffffffffffffffffffffffffffffffff1673ffffffffffffffffffffffffffffffffffffffff16815260200190815260200160002054905092915050565b610b8a610c7e565b73ffffffffffffffffffffffffffffffffffffffff16610ba8610936565b73ffffffffffffffffffffffffffffffffffffffff1614610bfe576040517f08c379a0000000000000000000000000000000000000000000000000000000008152600401610bf590611b45565b60405180910390fd5b600073ffffffffffffffffffffffffffffffffffffffff168173ffffffffffffffffffffffffffffffffffffffff1603610c6d576040517f08c379a0000000000000000000000000000000000000000000000000000000008152600401610c6490611cfb565b60405180910390fd5b610c76816114a5565b50565b505050565b600033905090565b600073ffffffffffffffffffffffffffffffffffffffff168373ffffffffffffffffffffffffffffffffffffffff1603610cf5576040517f08c379a0000000000000000000000000000000000000000000000000000000008152600401610cec90611d8d565b60405180910390fd5b600073ffffffffffffffffffffffffffffffffffffffff168273ffffffffffffffffffffffffffffffffffffffff1603610d64576040517f08c379a0000000000000000000000000000000000000000000000000000000008152600401610d5b90611e1f565b60405180910390fd5b80600160008573ffffffffffffffffffffffffffffffffffffffff1673ffffffffffffffffffffffffffffffffffffffff16815260200190815260200160002060008473ffffffffffffffffffffffffffffffffffffffff1673ffffffffffffffffffffffffffffffffffffffff168152602001908152602001600020819055508173ffffffffffffffffffffffffffffffffffffffff168373ffffffffffffffffffffffffffffffffffffffff167f8c5be1e5ebec7d5bd14f71427d1e84f3dd0314c0f7b2291e5b200ac8c7c3b92583604051610e42919061183b565b60405180910390a3505050565b600073ffffffffffffffffffffffffffffffffffffffff168373ffffffffffffffffffffffffffffffffffffffff1603610ebe576040517f08c379a0000000000000000000000000000000000000000000000000000000008152600401610eb590611eb1565b60405180910390fd5b600073ffffffffffffffffffffffffffffffffffffffff168273ffffffffffffffffffffffffffffffffffffffff1603610f2d576040517f08c379a0000000000000000000000000000000000000000000000000000000008152600401610f2490611f43565b60405180910390fd5b610f3883838361160e565b60008060008573ffffffffffffffffffffffffffffffffffffffff1673ffffffffffffffffffffffffffffffffffffffff16815260200190815260200160002054905081811015610fbe576040517f08c379a0000000000000000000000000000000000000000000000000000000008152600401610fb590611fd5565b60405180910390fd5b8181036000808673ffffffffffffffffffffffffffffffffffffffff1673ffffffffffffffffffffffffffffffffffffffff16815260200190815260200160002081905550816000808573ffffffffffffffffffffffffffffffffffffffff1673ffffffffffffffffffffffffffffffffffffffff16815260200190815260200160002060008282546110519190611ac5565b925050819055508273ffffffffffffffffffffffffffffffffffffffff168473ffffffffffffffffffffffffffffffffffffffff167fddf252ad1be2c89b69c2b068fc378daa952ba7f163c4a11628f55a4df523b3ef846040516110b5919061183b565b60405180910390a36110c8848484611666565b50505050565b6110d661074e565b611115576040517f08c379a000000000000000000000000000000000000000000000000000000000815260040161110c90612041565b60405180910390fd5b6000600560006101000a81548160ff0219169083151502179055507f5db9ee0a495bf2e6ff9c91a7834c1ba4fdd244a5e8aa4e537bd38aeae4b073aa611159610c7e565b6040516111669190611949565b60405180910390a1565b600073ffffffffffffffffffffffffffffffffffffffff168273ffffffffffffffffffffffffffffffffffffffff16036111df576040517f08c379a00000000000000000000000000000000000000000000000000000000081526004016111d6906120ad565b60405180910390fd5b6111eb6000838361160e565b80600260008282546111fd9190611ac5565b92505081905550806000808473ffffffffffffffffffffffffffffffffffffffff1673ffffffffffffffffffffffffffffffffffffffff16815260200190815260200160002060008282546112529190611ac5565b925050819055508173ffffffffffffffffffffffffffffffffffffffff16600073ffffffffffffffffffffffffffffffffffffffff167fddf252ad1be2c89b69c2b068fc378daa952ba7f163c4a11628f55a4df523b3ef836040516112b7919061183b565b60405180910390a36112cb60008383611666565b5050565b600073ffffffffffffffffffffffffffffffffffffffff168273ffffffffffffffffffffffffffffffffffffffff160361133e576040517f08c379a00000000000000000000000000000000000000000000000000000000081526004016113359061213f565b60405180910390fd5b61134a8260008361160e565b60008060008473ffffffffffffffffffffffffffffffffffffffff1673ffffffffffffffffffffffffffffffffffffffff168152602001908152602001600020549050818110156113d0576040517f08c379a00000000000000000000000000000000000000000000000000000000081526004016113c7906121d1565b60405180910390fd5b8181036000808573ffffffffffffffffffffffffffffffffffffffff1673ffffffffffffffffffffffffffffffffffffffff16815260200190815260200160002081905550816002600082825461142791906121f1565b92505081905550600073ffffffffffffffffffffffffffffffffffffffff168373ffffffffffffffffffffffffffffffffffffffff167fddf252ad1be2c89b69c2b068fc378daa952ba7f163c4a11628f55a4df523b3ef8460405161148c919061183b565b60405180910390a36114a083600084611666565b505050565b6000600560019054906101000a900473ffffffffffffffffffffffffffffffffffffffff16905081600560016101000a81548173ffffffffffffffffffffffffffffffffffffffff021916908373ffffffffffffffffffffffffffffffffffffffff1602179055508173ffffffffffffffffffffffffffffffffffffffff168173ffffffffffffffffffffffffffffffffffffffff167f8be0079c531659141344cd1fd0a4f28419497f9722a3daafe3b4186f6b6457e060405160405180910390a35050565b61157361074e565b156115b3576040517f08c379a00000000000000000000000000000000000000000000000000000000081526004016115aa90612271565b60405180910390fd5b6001600560006101000a81548160ff0219169083151502179055507f62e78cea01bee320cd4e420270b5ea74000d11b0c9f74754ebdbfc544b05a2586115f7610c7e565b6040516116049190611949565b60405180910390a1565b61161661074e565b15611656576040517f08c379a000000000000000000000000000000000000000000000000000000000815260040161164d90612271565b60405180910390fd5b611661838383610c79565b505050565b505050565b600081519050919050565b600082825260208201905092915050565b60005b838110156116a557808201518184015260208101905061168a565b60008484015250505050565b6000601f19601f8301169050919050565b60006116cd8261166b565b6116d78185611676565b93506116e7818560208601611687565b6116f0816116b1565b840191505092915050565b6000602082019050818103600083015261171581846116c2565b905092915050565b600080fd5b600073ffffffffffffffffffffffffffffffffffffffff82169050919050565b600061174d82611722565b9050919050565b61175d81611742565b811461176857600080fd5b50565b60008135905061177a81611754565b92915050565b6000819050919050565b61179381611780565b811461179e57600080fd5b50565b6000813590506117b08161178a565b92915050565b600080604083850312156117cd576117cc61171d565b5b60006117db8582860161176b565b92505060206117ec858286016117a1565b9150509250929050565b60008115159050919050565b61180b816117f6565b82525050565b60006020820190506118266000830184611802565b92915050565b61183581611780565b82525050565b6000602082019050611850600083018461182c565b92915050565b60008060006060848603121561186f5761186e61171d565b5b600061187d8682870161176b565b935050602061188e8682870161176b565b925050604061189f868287016117a1565b9150509250925092565b600060ff82169050919050565b6118bf816118a9565b82525050565b60006020820190506118da60008301846118b6565b92915050565b6000602082840312156118f6576118f561171d565b5b6000611904848285016117a1565b91505092915050565b6000602082840312156119235761192261171d565b5b60006119318482850161176b565b91505092915050565b61194381611742565b82525050565b600060208201905061195e600083018461193a565b92915050565b6000806040838503121561197b5761197a61171d565b5b60006119898582860161176b565b925050602061199a8582860161176b565b9150509250929050565b7f4e487b7100000000000000000000000000000000000000000000000000000000600052602260045260246000fd5b600060028204905060018216806119eb57607f821691505b6020821081036119fe576119fd6119a4565b5b50919050565b7f45524332303a207472616e7366657220616d6f756e742065786365656473206160008201527f6c6c6f77616e6365000000000000000000000000000000000000000000000000602082015250565b6000611a60602883611676565b9150611a6b82611a04565b604082019050919050565b60006020820190508181036000830152611a8f81611a53565b9050919050565b7f4e487b7100000000000000000000000000000000000000000000000000000000600052601160045260246000fd5b6000611ad082611780565b9150611adb83611780565b9250828201905080821115611af357611af2611a96565b5b92915050565b7f4f776e61626c653a2063616c6c6572206973206e6f7420746865206f776e6572600082015250565b6000611b2f602083611676565b9150611b3a82611af9565b602082019050919050565b60006020820190508181036000830152611b5e81611b22565b9050919050565b7f45524332303a206275726e20616d6f756e74206578636565647320616c6c6f7760008201527f616e636500000000000000000000000000000000000000000000000000000000602082015250565b6000611bc1602483611676565b9150611bcc82611b65565b604082019050919050565b60006020820190508181036000830152611bf081611bb4565b9050919050565b7f45524332303a2064656372656173656420616c6c6f77616e63652062656c6f7760008201527f207a65726f000000000000000000000000000000000000000000000000000000602082015250565b6000611c53602583611676565b9150611c5e82611bf7565b604082019050919050565b60006020820190508181036000830152611c8281611c46565b9050919050565b7f4f776e61626c653a206e6577206f776e657220697320746865207a65726f206160008201527f6464726573730000000000000000000000000000000000000000000000000000602082015250565b6000611ce5602683611676565b9150611cf082611c89565b604082019050919050565b60006020820190508181036000830152611d1481611cd8565b9050919050565b7f45524332303a20617070726f76652066726f6d20746865207a65726f2061646460008201527f7265737300000000000000000000000000000000000000000000000000000000602082015250565b6000611d77602483611676565b9150611d8282611d1b565b604082019050919050565b60006020820190508181036000830152611da681611d6a565b9050919050565b7f45524332303a20617070726f766520746f20746865207a65726f20616464726560008201527f7373000000000000000000000000000000000000000000000000000000000000602082015250565b6000611e09602283611676565b9150611e1482611dad565b604082019050919050565b60006020820190508181036000830152611e3881611dfc565b9050919050565b7f45524332303a207472616e736665722066726f6d20746865207a65726f20616460008201527f6472657373000000000000000000000000000000000000000000000000000000602082015250565b6000611e9b602583611676565b9150611ea682611e3f565b604082019050919050565b60006020820190508181036000830152611eca81611e8e565b9050919050565b7f45524332303a207472616e7366657220746f20746865207a65726f206164647260008201527f6573730000000000000000000000000000000000000000000000000000000000602082015250565b6000611f2d602383611676565b9150611f3882611ed1565b604082019050919050565b60006020820190508181036000830152611f5c81611f20565b9050919050565b7f45524332303a207472616e7366657220616d6f756e742065786365656473206260008201527f616c616e63650000000000000000000000000000000000000000000000000000602082015250565b6000611fbf602683611676565b9150611fca82611f63565b604082019050919050565b60006020820190508181036000830152611fee81611fb2565b9050919050565b7f5061757361626c653a206e6f7420706175736564000000000000000000000000600082015250565b600061202b601483611676565b915061203682611ff5565b602082019050919050565b6000602082019050818103600083015261205a8161201e565b9050919050565b7f45524332303a206d696e7420746f20746865207a65726f206164647265737300600082015250565b6000612097601f83611676565b91506120a282612061565b602082019050919050565b600060208201905081810360008301526120c68161208a565b9050919050565b7f45524332303a206275726e2066726f6d20746865207a65726f2061646472657360008201527f7300000000000000000000000000000000000000000000000000000000000000602082015250565b6000612129602183611676565b9150612134826120cd565b604082019050919050565b600060208201905081810360008301526121588161211c565b9050919050565b7f45524332303a206275726e20616d6f756e7420657863656564732062616c616e60008201527f6365000000000000000000000000000000000000000000000000000000000000602082015250565b60006121bb602283611676565b91506121c68261215f565b604082019050919050565b600060208201905081810360008301526121ea816121ae565b9050919050565b60006121fc82611780565b915061220783611780565b925082820390508181111561221f5761221e611a96565b5b92915050565b7f5061757361626c653a2070617573656400000000000000000000000000000000600082015250565b600061225b601083611676565b915061226682612225565b602082019050919050565b6000602082019050818103600083015261228a8161224e565b905091905056fea264697066735822122061781661eb339d57a3fb493ddaa2a37e63147bd0ad2dfe012eb8d3a17d77a4d264736f6c63430008120033",
					"opcodes": "PUSH1 0x80 PUSH1 0x40 MSTORE CALLVALUE DUP1 ISZERO PUSH3 0x11 JUMPI PUSH1 0x0 DUP1 REVERT JUMPDEST POP PUSH1 0x40 MLOAD DUP1 PUSH1 0x40 ADD PUSH1 0x40 MSTORE DUP1 PUSH1 0x7 DUP2 MSTORE PUSH1 0x20 ADD PUSH32 0x456475436F696E00000000000000000000000000000000000000000000000000 DUP2 MSTORE POP PUSH1 0x40 MLOAD DUP1 PUSH1 0x40 ADD PUSH1 0x40 MSTORE DUP1 PUSH1 0x3 DUP2 MSTORE PUSH1 0x20 ADD PUSH32 0x4544430000000000000000000000000000000000000000000000000000000000 DUP2 MSTORE POP DUP2 PUSH1 0x3 SWAP1 DUP2 PUSH3 0x8F SWAP2 SWAP1 PUSH3 0x67D JUMP JUMPDEST POP DUP1 PUSH1 0x4 SWAP1 DUP2 PUSH3 0xA1 SWAP2 SWAP1 PUSH3 0x67D JUMP JUMPDEST POP POP POP PUSH1 0x0 PUSH1 0x5 PUSH1 0x0 PUSH2 0x100 EXP DUP2 SLOAD DUP2 PUSH1 0xFF MUL NOT AND SWAP1 DUP4 ISZERO ISZERO MUL OR SWAP1 SSTORE POP PUSH3 0xDF PUSH3 0xD3 PUSH3 0x123 PUSH1 0x20 SHL PUSH1 0x20 SHR JUMP JUMPDEST PUSH3 0x12B PUSH1 0x20 SHL PUSH1 0x20 SHR JUMP JUMPDEST PUSH3 0x11D CALLER PUSH3 0xF4 PUSH3 0x1F1 PUSH1 0x20 SHL PUSH1 0x20 SHR JUMP JUMPDEST PUSH1 0xA PUSH3 0x102 SWAP2 SWAP1 PUSH3 0x8F4 JUMP JUMPDEST PUSH2 0x3E8 PUSH3 0x111 SWAP2 SWAP1 PUSH3 0x945 JUMP JUMPDEST PUSH3 0x1FA PUSH1 0x20 SHL PUSH1 0x20 SHR JUMP JUMPDEST PUSH3 0xAEE JUMP JUMPDEST PUSH1 0x0 CALLER SWAP1 POP SWAP1 JUMP JUMPDEST PUSH1 0x0 PUSH1 0x5 PUSH1 0x1 SWAP1 SLOAD SWAP1 PUSH2 0x100 EXP SWAP1 DIV PUSH20 0xFFFFFFFFFFFFFFFFFFFFFFFFFFFFFFFFFFFFFFFF AND SWAP1 POP DUP2 PUSH1 0x5 PUSH1 0x1 PUSH2 0x100 EXP DUP2 SLOAD DUP2 PUSH20 0xFFFFFFFFFFFFFFFFFFFFFFFFFFFFFFFFFFFFFFFF MUL NOT AND SWAP1 DUP4 PUSH20 0xFFFFFFFFFFFFFFFFFFFFFFFFFFFFFFFFFFFFFFFF AND MUL OR SWAP1 SSTORE POP DUP2 PUSH20 0xFFFFFFFFFFFFFFFFFFFFFFFFFFFFFFFFFFFFFFFF AND DUP2 PUSH20 0xFFFFFFFFFFFFFFFFFFFFFFFFFFFFFFFFFFFFFFFF AND PUSH32 0x8BE0079C531659141344CD1FD0A4F28419497F9722A3DAAFE3B4186F6B6457E0 PUSH1 0x40 MLOAD PUSH1 0x40 MLOAD DUP1 SWAP2 SUB SWAP1 LOG3 POP POP JUMP JUMPDEST PUSH1 0x0 PUSH1 0x12 SWAP1 POP SWAP1 JUMP JUMPDEST PUSH1 0x0 PUSH20 0xFFFFFFFFFFFFFFFFFFFFFFFFFFFFFFFFFFFFFFFF AND DUP3 PUSH20 0xFFFFFFFFFFFFFFFFFFFFFFFFFFFFFFFFFFFFFFFF AND SUB PUSH3 0x26C JUMPI PUSH1 0x40 MLOAD PUSH32 0x8C379A000000000000000000000000000000000000000000000000000000000 DUP2 MSTORE PUSH1 0x4 ADD PUSH3 0x263 SWAP1 PUSH3 0x9F1 JUMP JUMPDEST PUSH1 0x40 MLOAD DUP1 SWAP2 SUB SWAP1 REVERT JUMPDEST PUSH3 0x280 PUSH1 0x0 DUP4 DUP4 PUSH3 0x372 PUSH1 0x20 SHL PUSH1 0x20 SHR JUMP JUMPDEST DUP1 PUSH1 0x2 PUSH1 0x0 DUP3 DUP3 SLOAD PUSH3 0x294 SWAP2 SWAP1 PUSH3 0xA13 JUMP JUMPDEST SWAP3 POP POP DUP2 SWAP1 SSTORE POP DUP1 PUSH1 0x0 DUP1 DUP5 PUSH20 0xFFFFFFFFFFFFFFFFFFFFFFFFFFFFFFFFFFFFFFFF AND PUSH20 0xFFFFFFFFFFFFFFFFFFFFFFFFFFFFFFFFFFFFFFFF AND DUP2 MSTORE PUSH1 0x20 ADD SWAP1 DUP2 MSTORE PUSH1 0x20 ADD PUSH1 0x0 KECCAK256 PUSH1 0x0 DUP3 DUP3 SLOAD PUSH3 0x2EB SWAP2 SWAP1 PUSH3 0xA13 JUMP JUMPDEST SWAP3 POP POP DUP2 SWAP1 SSTORE POP DUP2 PUSH20 0xFFFFFFFFFFFFFFFFFFFFFFFFFFFFFFFFFFFFFFFF AND PUSH1 0x0 PUSH20 0xFFFFFFFFFFFFFFFFFFFFFFFFFFFFFFFFFFFFFFFF AND PUSH32 0xDDF252AD1BE2C89B69C2B068FC378DAA952BA7F163C4A11628F55A4DF523B3EF DUP4 PUSH1 0x40 MLOAD PUSH3 0x352 SWAP2 SWAP1 PUSH3 0xA5F JUMP JUMPDEST PUSH1 0x40 MLOAD DUP1 SWAP2 SUB SWAP1 LOG3 PUSH3 0x36E PUSH1 0x0 DUP4 DUP4 PUSH3 0x3E2 PUSH1 0x20 SHL PUSH1 0x20 SHR JUMP JUMPDEST POP POP JUMP JUMPDEST PUSH3 0x382 PUSH3 0x3E7 PUSH1 0x20 SHL PUSH1 0x20 SHR JUMP JUMPDEST ISZERO PUSH3 0x3C5 JUMPI PUSH1 0x40 MLOAD PUSH32 0x8C379A000000000000000000000000000000000000000000000000000000000 DUP2 MSTORE PUSH1 0x4 ADD PUSH3 0x3BC SWAP1 PUSH3 0xACC JUMP JUMPDEST PUSH1 0x40 MLOAD DUP1 SWAP2 SUB SWAP1 REVERT JUMPDEST PUSH3 0x3DD DUP4 DUP4 DUP4 PUSH3 0x3FE PUSH1 0x20 SHL PUSH3 0xC79 OR PUSH1 0x20 SHR JUMP JUMPDEST POP POP POP JUMP JUMPDEST POP POP POP JUMP JUMPDEST PUSH1 0x0 PUSH1 0x5 PUSH1 0x0 SWAP1 SLOAD SWAP1 PUSH2 0x100 EXP SWAP1 DIV PUSH1 0xFF AND SWAP1 POP SWAP1 JUMP JUMPDEST POP POP POP JUMP JUMPDEST PUSH1 0x0 DUP2 MLOAD SWAP1 POP SWAP2 SWAP1 POP JUMP JUMPDEST PUSH32 0x4E487B7100000000000000000000000000000000000000000000000000000000 PUSH1 0x0 MSTORE PUSH1 0x41 PUSH1 0x4 MSTORE PUSH1 0x24 PUSH1 0x0 REVERT JUMPDEST PUSH32 0x4E487B7100000000000000000000000000000000000000000000000000000000 PUSH1 0x0 MSTORE PUSH1 0x22 PUSH1 0x4 MSTORE PUSH1 0x24 PUSH1 0x0 REVERT JUMPDEST PUSH1 0x0 PUSH1 0x2 DUP3 DIV SWAP1 POP PUSH1 0x1 DUP3 AND DUP1 PUSH3 0x485 JUMPI PUSH1 0x7F DUP3 AND SWAP2 POP JUMPDEST PUSH1 0x20 DUP3 LT DUP2 SUB PUSH3 0x49B JUMPI PUSH3 0x49A PUSH3 0x43D JUMP JUMPDEST JUMPDEST POP SWAP2 SWAP1 POP JUMP JUMPDEST PUSH1 0x0 DUP2 SWAP1 POP DUP2 PUSH1 0x0 MSTORE PUSH1 0x20 PUSH1 0x0 KECCAK256 SWAP1 POP SWAP2 SWAP1 POP JUMP JUMPDEST PUSH1 0x0 PUSH1 0x20 PUSH1 0x1F DUP4 ADD DIV SWAP1 POP SWAP2 SWAP1 POP JUMP JUMPDEST PUSH1 0x0 DUP3 DUP3 SHL SWAP1 POP SWAP3 SWAP2 POP POP JUMP JUMPDEST PUSH1 0x0 PUSH1 0x8 DUP4 MUL PUSH3 0x505 PUSH32 0xFFFFFFFFFFFFFFFFFFFFFFFFFFFFFFFFFFFFFFFFFFFFFFFFFFFFFFFFFFFFFFFF DUP3 PUSH3 0x4C6 JUMP JUMPDEST PUSH3 0x511 DUP7 DUP4 PUSH3 0x4C6 JUMP JUMPDEST SWAP6 POP DUP1 NOT DUP5 AND SWAP4 POP DUP1 DUP7 AND DUP5 OR SWAP3 POP POP POP SWAP4 SWAP3 POP POP POP JUMP JUMPDEST PUSH1 0x0 DUP2 SWAP1 POP SWAP2 SWAP1 POP JUMP JUMPDEST PUSH1 0x0 DUP2 SWAP1 POP SWAP2 SWAP1 POP JUMP JUMPDEST PUSH1 0x0 PUSH3 0x55E PUSH3 0x558 PUSH3 0x552 DUP5 PUSH3 0x529 JUMP JUMPDEST PUSH3 0x533 JUMP JUMPDEST PUSH3 0x529 JUMP JUMPDEST SWAP1 POP SWAP2 SWAP1 POP JUMP JUMPDEST PUSH1 0x0 DUP2 SWAP1 POP SWAP2 SWAP1 POP JUMP JUMPDEST PUSH3 0x57A DUP4 PUSH3 0x53D JUMP JUMPDEST PUSH3 0x592 PUSH3 0x589 DUP3 PUSH3 0x565 JUMP JUMPDEST DUP5 DUP5 SLOAD PUSH3 0x4D3 JUMP JUMPDEST DUP3 SSTORE POP POP POP POP JUMP JUMPDEST PUSH1 0x0 SWAP1 JUMP JUMPDEST PUSH3 0x5A9 PUSH3 0x59A JUMP JUMPDEST PUSH3 0x5B6 DUP2 DUP5 DUP5 PUSH3 0x56F JUMP JUMPDEST POP POP POP JUMP JUMPDEST JUMPDEST DUP2 DUP2 LT ISZERO PUSH3 0x5DE JUMPI PUSH3 0x5D2 PUSH1 0x0 DUP3 PUSH3 0x59F JUMP JUMPDEST PUSH1 0x1 DUP2 ADD SWAP1 POP PUSH3 0x5BC JUMP JUMPDEST POP POP JUMP JUMPDEST PUSH1 0x1F DUP3 GT ISZERO PUSH3 0x62D JUMPI PUSH3 0x5F7 DUP2 PUSH3 0x4A1 JUMP JUMPDEST PUSH3 0x602 DUP5 PUSH3 0x4B6 JUMP JUMPDEST DUP2 ADD PUSH1 0x20 DUP6 LT ISZERO PUSH3 0x612 JUMPI DUP2 SWAP1 POP JUMPDEST PUSH3 0x62A PUSH3 0x621 DUP6 PUSH3 0x4B6 JUMP JUMPDEST DUP4 ADD DUP3 PUSH3 0x5BB JUMP JUMPDEST POP POP JUMPDEST POP POP POP JUMP JUMPDEST PUSH1 0x0 DUP3 DUP3 SHR SWAP1 POP SWAP3 SWAP2 POP POP JUMP JUMPDEST PUSH1 0x0 PUSH3 0x652 PUSH1 0x0 NOT DUP5 PUSH1 0x8 MUL PUSH3 0x632 JUMP JUMPDEST NOT DUP1 DUP4 AND SWAP2 POP POP SWAP3 SWAP2 POP POP JUMP JUMPDEST PUSH1 0x0 PUSH3 0x66D DUP4 DUP4 PUSH3 0x63F JUMP JUMPDEST SWAP2 POP DUP3 PUSH1 0x2 MUL DUP3 OR SWAP1 POP SWAP3 SWAP2 POP POP JUMP JUMPDEST PUSH3 0x688 DUP3 PUSH3 0x403 JUMP JUMPDEST PUSH8 0xFFFFFFFFFFFFFFFF DUP2 GT ISZERO PUSH3 0x6A4 JUMPI PUSH3 0x6A3 PUSH3 0x40E JUMP JUMPDEST JUMPDEST PUSH3 0x6B0 DUP3 SLOAD PUSH3 0x46C JUMP JUMPDEST PUSH3 0x6BD DUP3 DUP3 DUP6 PUSH3 0x5E2 JUMP JUMPDEST PUSH1 0x0 PUSH1 0x20 SWAP1 POP PUSH1 0x1F DUP4 GT PUSH1 0x1 DUP2 EQ PUSH3 0x6F5 JUMPI PUSH1 0x0 DUP5 ISZERO PUSH3 0x6E0 JUMPI DUP3 DUP8 ADD MLOAD SWAP1 POP JUMPDEST PUSH3 0x6EC DUP6 DUP3 PUSH3 0x65F JUMP JUMPDEST DUP7 SSTORE POP PUSH3 0x75C JUMP JUMPDEST PUSH1 0x1F NOT DUP5 AND PUSH3 0x705 DUP7 PUSH3 0x4A1 JUMP JUMPDEST PUSH1 0x0 JUMPDEST DUP3 DUP2 LT ISZERO PUSH3 0x72F JUMPI DUP5 DUP10 ADD MLOAD DUP3 SSTORE PUSH1 0x1 DUP3 ADD SWAP2 POP PUSH1 0x20 DUP6 ADD SWAP5 POP PUSH1 0x20 DUP2 ADD SWAP1 POP PUSH3 0x708 JUMP JUMPDEST DUP7 DUP4 LT ISZERO PUSH3 0x74F JUMPI DUP5 DUP10 ADD MLOAD PUSH3 0x74B PUSH1 0x1F DUP10 AND DUP3 PUSH3 0x63F JUMP JUMPDEST DUP4 SSTORE POP JUMPDEST PUSH1 0x1 PUSH1 0x2 DUP9 MUL ADD DUP9 SSTORE POP POP POP JUMPDEST POP POP POP POP POP POP JUMP JUMPDEST PUSH32 0x4E487B7100000000000000000000000000000000000000000000000000000000 PUSH1 0x0 MSTORE PUSH1 0x11 PUSH1 0x4 MSTORE PUSH1 0x24 PUSH1 0x0 REVERT JUMPDEST PUSH1 0x0 DUP2 PUSH1 0x1 SHR SWAP1 POP SWAP2 SWAP1 POP JUMP JUMPDEST PUSH1 0x0 DUP1 DUP3 SWAP2 POP DUP4 SWAP1 POP JUMPDEST PUSH1 0x1 DUP6 GT ISZERO PUSH3 0x7F2 JUMPI DUP1 DUP7 DIV DUP2 GT ISZERO PUSH3 0x7CA JUMPI PUSH3 0x7C9 PUSH3 0x764 JUMP JUMPDEST JUMPDEST PUSH1 0x1 DUP6 AND ISZERO PUSH3 0x7DA JUMPI DUP1 DUP3 MUL SWAP2 POP JUMPDEST DUP1 DUP2 MUL SWAP1 POP PUSH3 0x7EA DUP6 PUSH3 0x793 JUMP JUMPDEST SWAP5 POP PUSH3 0x7AA JUMP JUMPDEST SWAP5 POP SWAP5 SWAP3 POP POP POP JUMP JUMPDEST PUSH1 0x0 DUP3 PUSH3 0x80D JUMPI PUSH1 0x1 SWAP1 POP PUSH3 0x8E0 JUMP JUMPDEST DUP2 PUSH3 0x81D JUMPI PUSH1 0x0 SWAP1 POP PUSH3 0x8E0 JUMP JUMPDEST DUP2 PUSH1 0x1 DUP2 EQ PUSH3 0x836 JUMPI PUSH1 0x2 DUP2 EQ PUSH3 0x841 JUMPI PUSH3 0x877 JUMP JUMPDEST PUSH1 0x1 SWAP2 POP POP PUSH3 0x8E0 JUMP JUMPDEST PUSH1 0xFF DUP5 GT ISZERO PUSH3 0x856 JUMPI PUSH3 0x855 PUSH3 0x764 JUMP JUMPDEST JUMPDEST DUP4 PUSH1 0x2 EXP SWAP2 POP DUP5 DUP3 GT ISZERO PUSH3 0x870 JUMPI PUSH3 0x86F PUSH3 0x764 JUMP JUMPDEST JUMPDEST POP PUSH3 0x8E0 JUMP JUMPDEST POP PUSH1 0x20 DUP4 LT PUSH2 0x133 DUP4 LT AND PUSH1 0x4E DUP5 LT PUSH1 0xB DUP5 LT AND OR ISZERO PUSH3 0x8B1 JUMPI DUP3 DUP3 EXP SWAP1 POP DUP4 DUP2 GT ISZERO PUSH3 0x8AB JUMPI PUSH3 0x8AA PUSH3 0x764 JUMP JUMPDEST JUMPDEST PUSH3 0x8E0 JUMP JUMPDEST PUSH3 0x8C0 DUP5 DUP5 DUP5 PUSH1 0x1 PUSH3 0x7A0 JUMP JUMPDEST SWAP3 POP SWAP1 POP DUP2 DUP5 DIV DUP2 GT ISZERO PUSH3 0x8DA JUMPI PUSH3 0x8D9 PUSH3 0x764 JUMP JUMPDEST JUMPDEST DUP2 DUP2 MUL SWAP1 POP JUMPDEST SWAP4 SWAP3 POP POP POP JUMP JUMPDEST PUSH1 0x0 PUSH1 0xFF DUP3 AND SWAP1 POP SWAP2 SWAP1 POP JUMP JUMPDEST PUSH1 0x0 PUSH3 0x901 DUP3 PUSH3 0x529 JUMP JUMPDEST SWAP2 POP PUSH3 0x90E DUP4 PUSH3 0x8E7 JUMP JUMPDEST SWAP3 POP PUSH3 0x93D PUSH32 0xFFFFFFFFFFFFFFFFFFFFFFFFFFFFFFFFFFFFFFFFFFFFFFFFFFFFFFFFFFFFFFFF DUP5 DUP5 PUSH3 0x7FB JUMP JUMPDEST SWAP1 POP SWAP3 SWAP2 POP POP JUMP JUMPDEST PUSH1 0x0 PUSH3 0x952 DUP3 PUSH3 0x529 JUMP JUMPDEST SWAP2 POP PUSH3 0x95F DUP4 PUSH3 0x529 JUMP JUMPDEST SWAP3 POP DUP3 DUP3 MUL PUSH3 0x96F DUP2 PUSH3 0x529 JUMP JUMPDEST SWAP2 POP DUP3 DUP3 DIV DUP5 EQ DUP4 ISZERO OR PUSH3 0x989 JUMPI PUSH3 0x988 PUSH3 0x764 JUMP JUMPDEST JUMPDEST POP SWAP3 SWAP2 POP POP JUMP JUMPDEST PUSH1 0x0 DUP3 DUP3 MSTORE PUSH1 0x20 DUP3 ADD SWAP1 POP SWAP3 SWAP2 POP POP JUMP JUMPDEST PUSH32 0x45524332303A206D696E7420746F20746865207A65726F206164647265737300 PUSH1 0x0 DUP3 ADD MSTORE POP JUMP JUMPDEST PUSH1 0x0 PUSH3 0x9D9 PUSH1 0x1F DUP4 PUSH3 0x990 JUMP JUMPDEST SWAP2 POP PUSH3 0x9E6 DUP3 PUSH3 0x9A1 JUMP JUMPDEST PUSH1 0x20 DUP3 ADD SWAP1 POP SWAP2 SWAP1 POP JUMP JUMPDEST PUSH1 0x0 PUSH1 0x20 DUP3 ADD SWAP1 POP DUP2 DUP2 SUB PUSH1 0x0 DUP4 ADD MSTORE PUSH3 0xA0C DUP2 PUSH3 0x9CA JUMP JUMPDEST SWAP1 POP SWAP2 SWAP1 POP JUMP JUMPDEST PUSH1 0x0 PUSH3 0xA20 DUP3 PUSH3 0x529 JUMP JUMPDEST SWAP2 POP PUSH3 0xA2D DUP4 PUSH3 0x529 JUMP JUMPDEST SWAP3 POP DUP3 DUP3 ADD SWAP1 POP DUP1 DUP3 GT ISZERO PUSH3 0xA48 JUMPI PUSH3 0xA47 PUSH3 0x764 JUMP JUMPDEST JUMPDEST SWAP3 SWAP2 POP POP JUMP JUMPDEST PUSH3 0xA59 DUP2 PUSH3 0x529 JUMP JUMPDEST DUP3 MSTORE POP POP JUMP JUMPDEST PUSH1 0x0 PUSH1 0x20 DUP3 ADD SWAP1 POP PUSH3 0xA76 PUSH1 0x0 DUP4 ADD DUP5 PUSH3 0xA4E JUMP JUMPDEST SWAP3 SWAP2 POP POP JUMP JUMPDEST PUSH32 0x5061757361626C653A2070617573656400000000000000000000000000000000 PUSH1 0x0 DUP3 ADD MSTORE POP JUMP JUMPDEST PUSH1 0x0 PUSH3 0xAB4 PUSH1 0x10 DUP4 PUSH3 0x990 JUMP JUMPDEST SWAP2 POP PUSH3 0xAC1 DUP3 PUSH3 0xA7C JUMP JUMPDEST PUSH1 0x20 DUP3 ADD SWAP1 POP SWAP2 SWAP1 POP JUMP JUMPDEST PUSH1 0x0 PUSH1 0x20 DUP3 ADD SWAP1 POP DUP2 DUP2 SUB PUSH1 0x0 DUP4 ADD MSTORE PUSH3 0xAE7 DUP2 PUSH3 0xAA5 JUMP JUMPDEST SWAP1 POP SWAP2 SWAP1 POP JUMP JUMPDEST PUSH2 0x22C7 DUP1 PUSH3 0xAFE PUSH1 0x0 CODECOPY PUSH1 0x0 RETURN INVALID PUSH1 0x80 PUSH1 0x40 MSTORE CALLVALUE DUP1 ISZERO PUSH2 0x10 JUMPI PUSH1 0x0 DUP1 REVERT JUMPDEST POP PUSH1 0x4 CALLDATASIZE LT PUSH2 0x12C JUMPI PUSH1 0x0 CALLDATALOAD PUSH1 0xE0 SHR DUP1 PUSH4 0x70A08231 GT PUSH2 0xAD JUMPI DUP1 PUSH4 0x95D89B41 GT PUSH2 0x71 JUMPI DUP1 PUSH4 0x95D89B41 EQ PUSH2 0x2F9 JUMPI DUP1 PUSH4 0xA457C2D7 EQ PUSH2 0x317 JUMPI DUP1 PUSH4 0xA9059CBB EQ PUSH2 0x347 JUMPI DUP1 PUSH4 0xDD62ED3E EQ PUSH2 0x377 JUMPI DUP1 PUSH4 0xF2FDE38B EQ PUSH2 0x3A7 JUMPI PUSH2 0x12C JUMP JUMPDEST DUP1 PUSH4 0x70A08231 EQ PUSH2 0x27B JUMPI DUP1 PUSH4 0x715018A6 EQ PUSH2 0x2AB JUMPI DUP1 PUSH4 0x79CC6790 EQ PUSH2 0x2B5 JUMPI DUP1 PUSH4 0x8456CB59 EQ PUSH2 0x2D1 JUMPI DUP1 PUSH4 0x8DA5CB5B EQ PUSH2 0x2DB JUMPI PUSH2 0x12C JUMP JUMPDEST DUP1 PUSH4 0x39509351 GT PUSH2 0xF4 JUMPI DUP1 PUSH4 0x39509351 EQ PUSH2 0x1EB JUMPI DUP1 PUSH4 0x3F4BA83A EQ PUSH2 0x21B JUMPI DUP1 PUSH4 0x40C10F19 EQ PUSH2 0x225 JUMPI DUP1 PUSH4 0x42966C68 EQ PUSH2 0x241 JUMPI DUP1 PUSH4 0x5C975ABB EQ PUSH2 0x25D JUMPI PUSH2 0x12C JUMP JUMPDEST DUP1 PUSH4 0x6FDDE03 EQ PUSH2 0x131 JUMPI DUP1 PUSH4 0x95EA7B3 EQ PUSH2 0x14F JUMPI DUP1 PUSH4 0x18160DDD EQ PUSH2 0x17F JUMPI DUP1 PUSH4 0x23B872DD EQ PUSH2 0x19D JUMPI DUP1 PUSH4 0x313CE567 EQ PUSH2 0x1CD JUMPI JUMPDEST PUSH1 0x0 DUP1 REVERT JUMPDEST PUSH2 0x139 PUSH2 0x3C3 JUMP JUMPDEST PUSH1 0x40 MLOAD PUSH2 0x146 SWAP2 SWAP1 PUSH2 0x16FB JUMP JUMPDEST PUSH1 0x40 MLOAD DUP1 SWAP2 SUB SWAP1 RETURN JUMPDEST PUSH2 0x169 PUSH1 0x4 DUP1 CALLDATASIZE SUB DUP2 ADD SWAP1 PUSH2 0x164 SWAP2 SWAP1 PUSH2 0x17B6 JUMP JUMPDEST PUSH2 0x455 JUMP JUMPDEST PUSH1 0x40 MLOAD PUSH2 0x176 SWAP2 SWAP1 PUSH2 0x1811 JUMP JUMPDEST PUSH1 0x40 MLOAD DUP1 SWAP2 SUB SWAP1 RETURN JUMPDEST PUSH2 0x187 PUSH2 0x473 JUMP JUMPDEST PUSH1 0x40 MLOAD PUSH2 0x194 SWAP2 SWAP1 PUSH2 0x183B JUMP JUMPDEST PUSH1 0x40 MLOAD DUP1 SWAP2 SUB SWAP1 RETURN JUMPDEST PUSH2 0x1B7 PUSH1 0x4 DUP1 CALLDATASIZE SUB DUP2 ADD SWAP1 PUSH2 0x1B2 SWAP2 SWAP1 PUSH2 0x1856 JUMP JUMPDEST PUSH2 0x47D JUMP JUMPDEST PUSH1 0x40 MLOAD PUSH2 0x1C4 SWAP2 SWAP1 PUSH2 0x1811 JUMP JUMPDEST PUSH1 0x40 MLOAD DUP1 SWAP2 SUB SWAP1 RETURN JUMPDEST PUSH2 0x1D5 PUSH2 0x575 JUMP JUMPDEST PUSH1 0x40 MLOAD PUSH2 0x1E2 SWAP2 SWAP1 PUSH2 0x18C5 JUMP JUMPDEST PUSH1 0x40 MLOAD DUP1 SWAP2 SUB SWAP1 RETURN JUMPDEST PUSH2 0x205 PUSH1 0x4 DUP1 CALLDATASIZE SUB DUP2 ADD SWAP1 PUSH2 0x200 SWAP2 SWAP1 PUSH2 0x17B6 JUMP JUMPDEST PUSH2 0x57E JUMP JUMPDEST PUSH1 0x40 MLOAD PUSH2 0x212 SWAP2 SWAP1 PUSH2 0x1811 JUMP JUMPDEST PUSH1 0x40 MLOAD DUP1 SWAP2 SUB SWAP1 RETURN JUMPDEST PUSH2 0x223 PUSH2 0x62A JUMP JUMPDEST STOP JUMPDEST PUSH2 0x23F PUSH1 0x4 DUP1 CALLDATASIZE SUB DUP2 ADD SWAP1 PUSH2 0x23A SWAP2 SWAP1 PUSH2 0x17B6 JUMP JUMPDEST PUSH2 0x6B0 JUMP JUMPDEST STOP JUMPDEST PUSH2 0x25B PUSH1 0x4 DUP1 CALLDATASIZE SUB DUP2 ADD SWAP1 PUSH2 0x256 SWAP2 SWAP1 PUSH2 0x18E0 JUMP JUMPDEST PUSH2 0x73A JUMP JUMPDEST STOP JUMPDEST PUSH2 0x265 PUSH2 0x74E JUMP JUMPDEST PUSH1 0x40 MLOAD PUSH2 0x272 SWAP2 SWAP1 PUSH2 0x1811 JUMP JUMPDEST PUSH1 0x40 MLOAD DUP1 SWAP2 SUB SWAP1 RETURN JUMPDEST PUSH2 0x295 PUSH1 0x4 DUP1 CALLDATASIZE SUB DUP2 ADD SWAP1 PUSH2 0x290 SWAP2 SWAP1 PUSH2 0x190D JUMP JUMPDEST PUSH2 0x765 JUMP JUMPDEST PUSH1 0x40 MLOAD PUSH2 0x2A2 SWAP2 SWAP1 PUSH2 0x183B JUMP JUMPDEST PUSH1 0x40 MLOAD DUP1 SWAP2 SUB SWAP1 RETURN JUMPDEST PUSH2 0x2B3 PUSH2 0x7AD JUMP JUMPDEST STOP JUMPDEST PUSH2 0x2CF PUSH1 0x4 DUP1 CALLDATASIZE SUB DUP2 ADD SWAP1 PUSH2 0x2CA SWAP2 SWAP1 PUSH2 0x17B6 JUMP JUMPDEST PUSH2 0x835 JUMP JUMPDEST STOP JUMPDEST PUSH2 0x2D9 PUSH2 0x8B0 JUMP JUMPDEST STOP JUMPDEST PUSH2 0x2E3 PUSH2 0x936 JUMP JUMPDEST PUSH1 0x40 MLOAD PUSH2 0x2F0 SWAP2 SWAP1 PUSH2 0x1949 JUMP JUMPDEST PUSH1 0x40 MLOAD DUP1 SWAP2 SUB SWAP1 RETURN JUMPDEST PUSH2 0x301 PUSH2 0x960 JUMP JUMPDEST PUSH1 0x40 MLOAD PUSH2 0x30E SWAP2 SWAP1 PUSH2 0x16FB JUMP JUMPDEST PUSH1 0x40 MLOAD DUP1 SWAP2 SUB SWAP1 RETURN JUMPDEST PUSH2 0x331 PUSH1 0x4 DUP1 CALLDATASIZE SUB DUP2 ADD SWAP1 PUSH2 0x32C SWAP2 SWAP1 PUSH2 0x17B6 JUMP JUMPDEST PUSH2 0x9F2 JUMP JUMPDEST PUSH1 0x40 MLOAD PUSH2 0x33E SWAP2 SWAP1 PUSH2 0x1811 JUMP JUMPDEST PUSH1 0x40 MLOAD DUP1 SWAP2 SUB SWAP1 RETURN JUMPDEST PUSH2 0x361 PUSH1 0x4 DUP1 CALLDATASIZE SUB DUP2 ADD SWAP1 PUSH2 0x35C SWAP2 SWAP1 PUSH2 0x17B6 JUMP JUMPDEST PUSH2 0xADD JUMP JUMPDEST PUSH1 0x40 MLOAD PUSH2 0x36E SWAP2 SWAP1 PUSH2 0x1811 JUMP JUMPDEST PUSH1 0x40 MLOAD DUP1 SWAP2 SUB SWAP1 RETURN JUMPDEST PUSH2 0x391 PUSH1 0x4 DUP1 CALLDATASIZE SUB DUP2 ADD SWAP1 PUSH2 0x38C SWAP2 SWAP1 PUSH2 0x1964 JUMP JUMPDEST PUSH2 0xAFB JUMP JUMPDEST PUSH1 0x40 MLOAD PUSH2 0x39E SWAP2 SWAP1 PUSH2 0x183B JUMP JUMPDEST PUSH1 0x40 MLOAD DUP1 SWAP2 SUB SWAP1 RETURN JUMPDEST PUSH2 0x3C1 PUSH1 0x4 DUP1 CALLDATASIZE SUB DUP2 ADD SWAP1 PUSH2 0x3BC SWAP2 SWAP1 PUSH2 0x190D JUMP JUMPDEST PUSH2 0xB82 JUMP JUMPDEST STOP JUMPDEST PUSH1 0x60 PUSH1 0x3 DUP1 SLOAD PUSH2 0x3D2 SWAP1 PUSH2 0x19D3 JUMP JUMPDEST DUP1 PUSH1 0x1F ADD PUSH1 0x20 DUP1 SWAP2 DIV MUL PUSH1 0x20 ADD PUSH1 0x40 MLOAD SWAP1 DUP2 ADD PUSH1 0x40 MSTORE DUP1 SWAP3 SWAP2 SWAP1 DUP2 DUP2 MSTORE PUSH1 0x20 ADD DUP3 DUP1 SLOAD PUSH2 0x3FE SWAP1 PUSH2 0x19D3 JUMP JUMPDEST DUP1 ISZERO PUSH2 0x44B JUMPI DUP1 PUSH1 0x1F LT PUSH2 0x420 JUMPI PUSH2 0x100 DUP1 DUP4 SLOAD DIV MUL DUP4 MSTORE SWAP2 PUSH1 0x20 ADD SWAP2 PUSH2 0x44B JUMP JUMPDEST DUP3 ADD SWAP2 SWAP1 PUSH1 0x0 MSTORE PUSH1 0x20 PUSH1 0x0 KECCAK256 SWAP1 JUMPDEST DUP2 SLOAD DUP2 MSTORE SWAP1 PUSH1 0x1 ADD SWAP1 PUSH1 0x20 ADD DUP1 DUP4 GT PUSH2 0x42E JUMPI DUP3 SWAP1 SUB PUSH1 0x1F AND DUP3 ADD SWAP2 JUMPDEST POP POP POP POP POP SWAP1 POP SWAP1 JUMP JUMPDEST PUSH1 0x0 PUSH2 0x469 PUSH2 0x462 PUSH2 0xC7E JUMP JUMPDEST DUP5 DUP5 PUSH2 0xC86 JUMP JUMPDEST PUSH1 0x1 SWAP1 POP SWAP3 SWAP2 POP POP JUMP JUMPDEST PUSH1 0x0 PUSH1 0x2 SLOAD SWAP1 POP SWAP1 JUMP JUMPDEST PUSH1 0x0 PUSH2 0x48A DUP5 DUP5 DUP5 PUSH2 0xE4F JUMP JUMPDEST PUSH1 0x0 PUSH1 0x1 PUSH1 0x0 DUP7 PUSH20 0xFFFFFFFFFFFFFFFFFFFFFFFFFFFFFFFFFFFFFFFF AND PUSH20 0xFFFFFFFFFFFFFFFFFFFFFFFFFFFFFFFFFFFFFFFF AND DUP2 MSTORE PUSH1 0x20 ADD SWAP1 DUP2 MSTORE PUSH1 0x20 ADD PUSH1 0x0 KECCAK256 PUSH1 0x0 PUSH2 0x4D5 PUSH2 0xC7E JUMP JUMPDEST PUSH20 0xFFFFFFFFFFFFFFFFFFFFFFFFFFFFFFFFFFFFFFFF AND PUSH20 0xFFFFFFFFFFFFFFFFFFFFFFFFFFFFFFFFFFFFFFFF AND DUP2 MSTORE PUSH1 0x20 ADD SWAP1 DUP2 MSTORE PUSH1 0x20 ADD PUSH1 0x0 KECCAK256 SLOAD SWAP1 POP DUP3 DUP2 LT ISZERO PUSH2 0x555 JUMPI PUSH1 0x40 MLOAD PUSH32 0x8C379A000000000000000000000000000000000000000000000000000000000 DUP2 MSTORE PUSH1 0x4 ADD PUSH2 0x54C SWAP1 PUSH2 0x1A76 JUMP JUMPDEST PUSH1 0x40 MLOAD DUP1 SWAP2 SUB SWAP1 REVERT JUMPDEST PUSH2 0x569 DUP6 PUSH2 0x561 PUSH2 0xC7E JUMP JUMPDEST DUP6 DUP5 SUB PUSH2 0xC86 JUMP JUMPDEST PUSH1 0x1 SWAP2 POP POP SWAP4 SWAP3 POP POP POP JUMP JUMPDEST PUSH1 0x0 PUSH1 0x12 SWAP1 POP SWAP1 JUMP JUMPDEST PUSH1 0x0 PUSH2 0x620 PUSH2 0x58B PUSH2 0xC7E JUMP JUMPDEST DUP5 DUP5 PUSH1 0x1 PUSH1 0x0 PUSH2 0x599 PUSH2 0xC7E JUMP JUMPDEST PUSH20 0xFFFFFFFFFFFFFFFFFFFFFFFFFFFFFFFFFFFFFFFF AND PUSH20 0xFFFFFFFFFFFFFFFFFFFFFFFFFFFFFFFFFFFFFFFF AND DUP2 MSTORE PUSH1 0x20 ADD SWAP1 DUP2 MSTORE PUSH1 0x20 ADD PUSH1 0x0 KECCAK256 PUSH1 0x0 DUP9 PUSH20 0xFFFFFFFFFFFFFFFFFFFFFFFFFFFFFFFFFFFFFFFF AND PUSH20 0xFFFFFFFFFFFFFFFFFFFFFFFFFFFFFFFFFFFFFFFF AND DUP2 MSTORE PUSH1 0x20 ADD SWAP1 DUP2 MSTORE PUSH1 0x20 ADD PUSH1 0x0 KECCAK256 SLOAD PUSH2 0x61B SWAP2 SWAP1 PUSH2 0x1AC5 JUMP JUMPDEST PUSH2 0xC86 JUMP JUMPDEST PUSH1 0x1 SWAP1 POP SWAP3 SWAP2 POP POP JUMP JUMPDEST PUSH2 0x632 PUSH2 0xC7E JUMP JUMPDEST PUSH20 0xFFFFFFFFFFFFFFFFFFFFFFFFFFFFFFFFFFFFFFFF AND PUSH2 0x650 PUSH2 0x936 JUMP JUMPDEST PUSH20 0xFFFFFFFFFFFFFFFFFFFFFFFFFFFFFFFFFFFFFFFF AND EQ PUSH2 0x6A6 JUMPI PUSH1 0x40 MLOAD PUSH32 0x8C379A000000000000000000000000000000000000000000000000000000000 DUP2 MSTORE PUSH1 0x4 ADD PUSH2 0x69D SWAP1 PUSH2 0x1B45 JUMP JUMPDEST PUSH1 0x40 MLOAD DUP1 SWAP2 SUB SWAP1 REVERT JUMPDEST PUSH2 0x6AE PUSH2 0x10CE JUMP JUMPDEST JUMP JUMPDEST PUSH2 0x6B8 PUSH2 0xC7E JUMP JUMPDEST PUSH20 0xFFFFFFFFFFFFFFFFFFFFFFFFFFFFFFFFFFFFFFFF AND PUSH2 0x6D6 PUSH2 0x936 JUMP JUMPDEST PUSH20 0xFFFFFFFFFFFFFFFFFFFFFFFFFFFFFFFFFFFFFFFF AND EQ PUSH2 0x72C JUMPI PUSH1 0x40 MLOAD PUSH32 0x8C379A000000000000000000000000000000000000000000000000000000000 DUP2 MSTORE PUSH1 0x4 ADD PUSH2 0x723 SWAP1 PUSH2 0x1B45 JUMP JUMPDEST PUSH1 0x40 MLOAD DUP1 SWAP2 SUB SWAP1 REVERT JUMPDEST PUSH2 0x736 DUP3 DUP3 PUSH2 0x1170 JUMP JUMPDEST POP POP JUMP JUMPDEST PUSH2 0x74B PUSH2 0x745 PUSH2 0xC7E JUMP JUMPDEST DUP3 PUSH2 0x12CF JUMP JUMPDEST POP JUMP JUMPDEST PUSH1 0x0 PUSH1 0x5 PUSH1 0x0 SWAP1 SLOAD SWAP1 PUSH2 0x100 EXP SWAP1 DIV PUSH1 0xFF AND SWAP1 POP SWAP1 JUMP JUMPDEST PUSH1 0x0 DUP1 PUSH1 0x0 DUP4 PUSH20 0xFFFFFFFFFFFFFFFFFFFFFFFFFFFFFFFFFFFFFFFF AND PUSH20 0xFFFFFFFFFFFFFFFFFFFFFFFFFFFFFFFFFFFFFFFF AND DUP2 MSTORE PUSH1 0x20 ADD SWAP1 DUP2 MSTORE PUSH1 0x20 ADD PUSH1 0x0 KECCAK256 SLOAD SWAP1 POP SWAP2 SWAP1 POP JUMP JUMPDEST PUSH2 0x7B5 PUSH2 0xC7E JUMP JUMPDEST PUSH20 0xFFFFFFFFFFFFFFFFFFFFFFFFFFFFFFFFFFFFFFFF AND PUSH2 0x7D3 PUSH2 0x936 JUMP JUMPDEST PUSH20 0xFFFFFFFFFFFFFFFFFFFFFFFFFFFFFFFFFFFFFFFF AND EQ PUSH2 0x829 JUMPI PUSH1 0x40 MLOAD PUSH32 0x8C379A000000000000000000000000000000000000000000000000000000000 DUP2 MSTORE PUSH1 0x4 ADD PUSH2 0x820 SWAP1 PUSH2 0x1B45 JUMP JUMPDEST PUSH1 0x40 MLOAD DUP1 SWAP2 SUB SWAP1 REVERT JUMPDEST PUSH2 0x833 PUSH1 0x0 PUSH2 0x14A5 JUMP JUMPDEST JUMP JUMPDEST PUSH1 0x0 PUSH2 0x848 DUP4 PUSH2 0x843 PUSH2 0xC7E JUMP JUMPDEST PUSH2 0xAFB JUMP JUMPDEST SWAP1 POP DUP2 DUP2 LT ISZERO PUSH2 0x88D JUMPI PUSH1 0x40 MLOAD PUSH32 0x8C379A000000000000000000000000000000000000000000000000000000000 DUP2 MSTORE PUSH1 0x4 ADD PUSH2 0x884 SWAP1 PUSH2 0x1BD7 JUMP JUMPDEST PUSH1 0x40 MLOAD DUP1 SWAP2 SUB SWAP1 REVERT JUMPDEST PUSH2 0x8A1 DUP4 PUSH2 0x899 PUSH2 0xC7E JUMP JUMPDEST DUP5 DUP5 SUB PUSH2 0xC86 JUMP JUMPDEST PUSH2 0x8AB DUP4 DUP4 PUSH2 0x12CF JUMP JUMPDEST POP POP POP JUMP JUMPDEST PUSH2 0x8B8 PUSH2 0xC7E JUMP JUMPDEST PUSH20 0xFFFFFFFFFFFFFFFFFFFFFFFFFFFFFFFFFFFFFFFF AND PUSH2 0x8D6 PUSH2 0x936 JUMP JUMPDEST PUSH20 0xFFFFFFFFFFFFFFFFFFFFFFFFFFFFFFFFFFFFFFFF AND EQ PUSH2 0x92C JUMPI PUSH1 0x40 MLOAD PUSH32 0x8C379A000000000000000000000000000000000000000000000000000000000 DUP2 MSTORE PUSH1 0x4 ADD PUSH2 0x923 SWAP1 PUSH2 0x1B45 JUMP JUMPDEST PUSH1 0x40 MLOAD DUP1 SWAP2 SUB SWAP1 REVERT JUMPDEST PUSH2 0x934 PUSH2 0x156B JUMP JUMPDEST JUMP JUMPDEST PUSH1 0x0 PUSH1 0x5 PUSH1 0x1 SWAP1 SLOAD SWAP1 PUSH2 0x100 EXP SWAP1 DIV PUSH20 0xFFFFFFFFFFFFFFFFFFFFFFFFFFFFFFFFFFFFFFFF AND SWAP1 POP SWAP1 JUMP JUMPDEST PUSH1 0x60 PUSH1 0x4 DUP1 SLOAD PUSH2 0x96F SWAP1 PUSH2 0x19D3 JUMP JUMPDEST DUP1 PUSH1 0x1F ADD PUSH1 0x20 DUP1 SWAP2 DIV MUL PUSH1 0x20 ADD PUSH1 0x40 MLOAD SWAP1 DUP2 ADD PUSH1 0x40 MSTORE DUP1 SWAP3 SWAP2 SWAP1 DUP2 DUP2 MSTORE PUSH1 0x20 ADD DUP3 DUP1 SLOAD PUSH2 0x99B SWAP1 PUSH2 0x19D3 JUMP JUMPDEST DUP1 ISZERO PUSH2 0x9E8 JUMPI DUP1 PUSH1 0x1F LT PUSH2 0x9BD JUMPI PUSH2 0x100 DUP1 DUP4 SLOAD DIV MUL DUP4 MSTORE SWAP2 PUSH1 0x20 ADD SWAP2 PUSH2 0x9E8 JUMP JUMPDEST DUP3 ADD SWAP2 SWAP1 PUSH1 0x0 MSTORE PUSH1 0x20 PUSH1 0x0 KECCAK256 SWAP1 JUMPDEST DUP2 SLOAD DUP2 MSTORE SWAP1 PUSH1 0x1 ADD SWAP1 PUSH1 0x20 ADD DUP1 DUP4 GT PUSH2 0x9CB JUMPI DUP3 SWAP1 SUB PUSH1 0x1F AND DUP3 ADD SWAP2 JUMPDEST POP POP POP POP POP SWAP1 POP SWAP1 JUMP JUMPDEST PUSH1 0x0 DUP1 PUSH1 0x1 PUSH1 0x0 PUSH2 0xA01 PUSH2 0xC7E JUMP JUMPDEST PUSH20 0xFFFFFFFFFFFFFFFFFFFFFFFFFFFFFFFFFFFFFFFF AND PUSH20 0xFFFFFFFFFFFFFFFFFFFFFFFFFFFFFFFFFFFFFFFF AND DUP2 MSTORE PUSH1 0x20 ADD SWAP1 DUP2 MSTORE PUSH1 0x20 ADD PUSH1 0x0 KECCAK256 PUSH1 0x0 DUP6 PUSH20 0xFFFFFFFFFFFFFFFFFFFFFFFFFFFFFFFFFFFFFFFF AND PUSH20 0xFFFFFFFFFFFFFFFFFFFFFFFFFFFFFFFFFFFFFFFF AND DUP2 MSTORE PUSH1 0x20 ADD SWAP1 DUP2 MSTORE PUSH1 0x20 ADD PUSH1 0x0 KECCAK256 SLOAD SWAP1 POP DUP3 DUP2 LT ISZERO PUSH2 0xABE JUMPI PUSH1 0x40 MLOAD PUSH32 0x8C379A000000000000000000000000000000000000000000000000000000000 DUP2 MSTORE PUSH1 0x4 ADD PUSH2 0xAB5 SWAP1 PUSH2 0x1C69 JUMP JUMPDEST PUSH1 0x40 MLOAD DUP1 SWAP2 SUB SWAP1 REVERT JUMPDEST PUSH2 0xAD2 PUSH2 0xAC9 PUSH2 0xC7E JUMP JUMPDEST DUP6 DUP6 DUP5 SUB PUSH2 0xC86 JUMP JUMPDEST PUSH1 0x1 SWAP2 POP POP SWAP3 SWAP2 POP POP JUMP JUMPDEST PUSH1 0x0 PUSH2 0xAF1 PUSH2 0xAEA PUSH2 0xC7E JUMP JUMPDEST DUP5 DUP5 PUSH2 0xE4F JUMP JUMPDEST PUSH1 0x1 SWAP1 POP SWAP3 SWAP2 POP POP JUMP JUMPDEST PUSH1 0x0 PUSH1 0x1 PUSH1 0x0 DUP5 PUSH20 0xFFFFFFFFFFFFFFFFFFFFFFFFFFFFFFFFFFFFFFFF AND PUSH20 0xFFFFFFFFFFFFFFFFFFFFFFFFFFFFFFFFFFFFFFFF AND DUP2 MSTORE PUSH1 0x20 ADD SWAP1 DUP2 MSTORE PUSH1 0x20 ADD PUSH1 0x0 KECCAK256 PUSH1 0x0 DUP4 PUSH20 0xFFFFFFFFFFFFFFFFFFFFFFFFFFFFFFFFFFFFFFFF AND PUSH20 0xFFFFFFFFFFFFFFFFFFFFFFFFFFFFFFFFFFFFFFFF AND DUP2 MSTORE PUSH1 0x20 ADD SWAP1 DUP2 MSTORE PUSH1 0x20 ADD PUSH1 0x0 KECCAK256 SLOAD SWAP1 POP SWAP3 SWAP2 POP POP JUMP JUMPDEST PUSH2 0xB8A PUSH2 0xC7E JUMP JUMPDEST PUSH20 0xFFFFFFFFFFFFFFFFFFFFFFFFFFFFFFFFFFFFFFFF AND PUSH2 0xBA8 PUSH2 0x936 JUMP JUMPDEST PUSH20 0xFFFFFFFFFFFFFFFFFFFFFFFFFFFFFFFFFFFFFFFF AND EQ PUSH2 0xBFE JUMPI PUSH1 0x40 MLOAD PUSH32 0x8C379A000000000000000000000000000000000000000000000000000000000 DUP2 MSTORE PUSH1 0x4 ADD PUSH2 0xBF5 SWAP1 PUSH2 0x1B45 JUMP JUMPDEST PUSH1 0x40 MLOAD DUP1 SWAP2 SUB SWAP1 REVERT JUMPDEST PUSH1 0x0 PUSH20 0xFFFFFFFFFFFFFFFFFFFFFFFFFFFFFFFFFFFFFFFF AND DUP2 PUSH20 0xFFFFFFFFFFFFFFFFFFFFFFFFFFFFFFFFFFFFFFFF AND SUB PUSH2 0xC6D JUMPI PUSH1 0x40 MLOAD PUSH32 0x8C379A000000000000000000000000000000000000000000000000000000000 DUP2 MSTORE PUSH1 0x4 ADD PUSH2 0xC64 SWAP1 PUSH2 0x1CFB JUMP JUMPDEST PUSH1 0x40 MLOAD DUP1 SWAP2 SUB SWAP1 REVERT JUMPDEST PUSH2 0xC76 DUP2 PUSH2 0x14A5 JUMP JUMPDEST POP JUMP JUMPDEST POP POP POP JUMP JUMPDEST PUSH1 0x0 CALLER SWAP1 POP SWAP1 JUMP JUMPDEST PUSH1 0x0 PUSH20 0xFFFFFFFFFFFFFFFFFFFFFFFFFFFFFFFFFFFFFFFF AND DUP4 PUSH20 0xFFFFFFFFFFFFFFFFFFFFFFFFFFFFFFFFFFFFFFFF AND SUB PUSH2 0xCF5 JUMPI PUSH1 0x40 MLOAD PUSH32 0x8C379A000000000000000000000000000000000000000000000000000000000 DUP2 MSTORE PUSH1 0x4 ADD PUSH2 0xCEC SWAP1 PUSH2 0x1D8D JUMP JUMPDEST PUSH1 0x40 MLOAD DUP1 SWAP2 SUB SWAP1 REVERT JUMPDEST PUSH1 0x0 PUSH20 0xFFFFFFFFFFFFFFFFFFFFFFFFFFFFFFFFFFFFFFFF AND DUP3 PUSH20 0xFFFFFFFFFFFFFFFFFFFFFFFFFFFFFFFFFFFFFFFF AND SUB PUSH2 0xD64 JUMPI PUSH1 0x40 MLOAD PUSH32 0x8C379A000000000000000000000000000000000000000000000000000000000 DUP2 MSTORE PUSH1 0x4 ADD PUSH2 0xD5B SWAP1 PUSH2 0x1E1F JUMP JUMPDEST PUSH1 0x40 MLOAD DUP1 SWAP2 SUB SWAP1 REVERT JUMPDEST DUP1 PUSH1 0x1 PUSH1 0x0 DUP6 PUSH20 0xFFFFFFFFFFFFFFFFFFFFFFFFFFFFFFFFFFFFFFFF AND PUSH20 0xFFFFFFFFFFFFFFFFFFFFFFFFFFFFFFFFFFFFFFFF AND DUP2 MSTORE PUSH1 0x20 ADD SWAP1 DUP2 MSTORE PUSH1 0x20 ADD PUSH1 0x0 KECCAK256 PUSH1 0x0 DUP5 PUSH20 0xFFFFFFFFFFFFFFFFFFFFFFFFFFFFFFFFFFFFFFFF AND PUSH20 0xFFFFFFFFFFFFFFFFFFFFFFFFFFFFFFFFFFFFFFFF AND DUP2 MSTORE PUSH1 0x20 ADD SWAP1 DUP2 MSTORE PUSH1 0x20 ADD PUSH1 0x0 KECCAK256 DUP2 SWAP1 SSTORE POP DUP2 PUSH20 0xFFFFFFFFFFFFFFFFFFFFFFFFFFFFFFFFFFFFFFFF AND DUP4 PUSH20 0xFFFFFFFFFFFFFFFFFFFFFFFFFFFFFFFFFFFFFFFF AND PUSH32 0x8C5BE1E5EBEC7D5BD14F71427D1E84F3DD0314C0F7B2291E5B200AC8C7C3B925 DUP4 PUSH1 0x40 MLOAD PUSH2 0xE42 SWAP2 SWAP1 PUSH2 0x183B JUMP JUMPDEST PUSH1 0x40 MLOAD DUP1 SWAP2 SUB SWAP1 LOG3 POP POP POP JUMP JUMPDEST PUSH1 0x0 PUSH20 0xFFFFFFFFFFFFFFFFFFFFFFFFFFFFFFFFFFFFFFFF AND DUP4 PUSH20 0xFFFFFFFFFFFFFFFFFFFFFFFFFFFFFFFFFFFFFFFF AND SUB PUSH2 0xEBE JUMPI PUSH1 0x40 MLOAD PUSH32 0x8C379A000000000000000000000000000000000000000000000000000000000 DUP2 MSTORE PUSH1 0x4 ADD PUSH2 0xEB5 SWAP1 PUSH2 0x1EB1 JUMP JUMPDEST PUSH1 0x40 MLOAD DUP1 SWAP2 SUB SWAP1 REVERT JUMPDEST PUSH1 0x0 PUSH20 0xFFFFFFFFFFFFFFFFFFFFFFFFFFFFFFFFFFFFFFFF AND DUP3 PUSH20 0xFFFFFFFFFFFFFFFFFFFFFFFFFFFFFFFFFFFFFFFF AND SUB PUSH2 0xF2D JUMPI PUSH1 0x40 MLOAD PUSH32 0x8C379A000000000000000000000000000000000000000000000000000000000 DUP2 MSTORE PUSH1 0x4 ADD PUSH2 0xF24 SWAP1 PUSH2 0x1F43 JUMP JUMPDEST PUSH1 0x40 MLOAD DUP1 SWAP2 SUB SWAP1 REVERT JUMPDEST PUSH2 0xF38 DUP4 DUP4 DUP4 PUSH2 0x160E JUMP JUMPDEST PUSH1 0x0 DUP1 PUSH1 0x0 DUP6 PUSH20 0xFFFFFFFFFFFFFFFFFFFFFFFFFFFFFFFFFFFFFFFF AND PUSH20 0xFFFFFFFFFFFFFFFFFFFFFFFFFFFFFFFFFFFFFFFF AND DUP2 MSTORE PUSH1 0x20 ADD SWAP1 DUP2 MSTORE PUSH1 0x20 ADD PUSH1 0x0 KECCAK256 SLOAD SWAP1 POP DUP2 DUP2 LT ISZERO PUSH2 0xFBE JUMPI PUSH1 0x40 MLOAD PUSH32 0x8C379A000000000000000000000000000000000000000000000000000000000 DUP2 MSTORE PUSH1 0x4 ADD PUSH2 0xFB5 SWAP1 PUSH2 0x1FD5 JUMP JUMPDEST PUSH1 0x40 MLOAD DUP1 SWAP2 SUB SWAP1 REVERT JUMPDEST DUP2 DUP2 SUB PUSH1 0x0 DUP1 DUP7 PUSH20 0xFFFFFFFFFFFFFFFFFFFFFFFFFFFFFFFFFFFFFFFF AND PUSH20 0xFFFFFFFFFFFFFFFFFFFFFFFFFFFFFFFFFFFFFFFF AND DUP2 MSTORE PUSH1 0x20 ADD SWAP1 DUP2 MSTORE PUSH1 0x20 ADD PUSH1 0x0 KECCAK256 DUP2 SWAP1 SSTORE POP DUP2 PUSH1 0x0 DUP1 DUP6 PUSH20 0xFFFFFFFFFFFFFFFFFFFFFFFFFFFFFFFFFFFFFFFF AND PUSH20 0xFFFFFFFFFFFFFFFFFFFFFFFFFFFFFFFFFFFFFFFF AND DUP2 MSTORE PUSH1 0x20 ADD SWAP1 DUP2 MSTORE PUSH1 0x20 ADD PUSH1 0x0 KECCAK256 PUSH1 0x0 DUP3 DUP3 SLOAD PUSH2 0x1051 SWAP2 SWAP1 PUSH2 0x1AC5 JUMP JUMPDEST SWAP3 POP POP DUP2 SWAP1 SSTORE POP DUP3 PUSH20 0xFFFFFFFFFFFFFFFFFFFFFFFFFFFFFFFFFFFFFFFF AND DUP5 PUSH20 0xFFFFFFFFFFFFFFFFFFFFFFFFFFFFFFFFFFFFFFFF AND PUSH32 0xDDF252AD1BE2C89B69C2B068FC378DAA952BA7F163C4A11628F55A4DF523B3EF DUP5 PUSH1 0x40 MLOAD PUSH2 0x10B5 SWAP2 SWAP1 PUSH2 0x183B JUMP JUMPDEST PUSH1 0x40 MLOAD DUP1 SWAP2 SUB SWAP1 LOG3 PUSH2 0x10C8 DUP5 DUP5 DUP5 PUSH2 0x1666 JUMP JUMPDEST POP POP POP POP JUMP JUMPDEST PUSH2 0x10D6 PUSH2 0x74E JUMP JUMPDEST PUSH2 0x1115 JUMPI PUSH1 0x40 MLOAD PUSH32 0x8C379A000000000000000000000000000000000000000000000000000000000 DUP2 MSTORE PUSH1 0x4 ADD PUSH2 0x110C SWAP1 PUSH2 0x2041 JUMP JUMPDEST PUSH1 0x40 MLOAD DUP1 SWAP2 SUB SWAP1 REVERT JUMPDEST PUSH1 0x0 PUSH1 0x5 PUSH1 0x0 PUSH2 0x100 EXP DUP2 SLOAD DUP2 PUSH1 0xFF MUL NOT AND SWAP1 DUP4 ISZERO ISZERO MUL OR SWAP1 SSTORE POP PUSH32 0x5DB9EE0A495BF2E6FF9C91A7834C1BA4FDD244A5E8AA4E537BD38AEAE4B073AA PUSH2 0x1159 PUSH2 0xC7E JUMP JUMPDEST PUSH1 0x40 MLOAD PUSH2 0x1166 SWAP2 SWAP1 PUSH2 0x1949 JUMP JUMPDEST PUSH1 0x40 MLOAD DUP1 SWAP2 SUB SWAP1 LOG1 JUMP JUMPDEST PUSH1 0x0 PUSH20 0xFFFFFFFFFFFFFFFFFFFFFFFFFFFFFFFFFFFFFFFF AND DUP3 PUSH20 0xFFFFFFFFFFFFFFFFFFFFFFFFFFFFFFFFFFFFFFFF AND SUB PUSH2 0x11DF JUMPI PUSH1 0x40 MLOAD PUSH32 0x8C379A000000000000000000000000000000000000000000000000000000000 DUP2 MSTORE PUSH1 0x4 ADD PUSH2 0x11D6 SWAP1 PUSH2 0x20AD JUMP JUMPDEST PUSH1 0x40 MLOAD DUP1 SWAP2 SUB SWAP1 REVERT JUMPDEST PUSH2 0x11EB PUSH1 0x0 DUP4 DUP4 PUSH2 0x160E JUMP JUMPDEST DUP1 PUSH1 0x2 PUSH1 0x0 DUP3 DUP3 SLOAD PUSH2 0x11FD SWAP2 SWAP1 PUSH2 0x1AC5 JUMP JUMPDEST SWAP3 POP POP DUP2 SWAP1 SSTORE POP DUP1 PUSH1 0x0 DUP1 DUP5 PUSH20 0xFFFFFFFFFFFFFFFFFFFFFFFFFFFFFFFFFFFFFFFF AND PUSH20 0xFFFFFFFFFFFFFFFFFFFFFFFFFFFFFFFFFFFFFFFF AND DUP2 MSTORE PUSH1 0x20 ADD SWAP1 DUP2 MSTORE PUSH1 0x20 ADD PUSH1 0x0 KECCAK256 PUSH1 0x0 DUP3 DUP3 SLOAD PUSH2 0x1252 SWAP2 SWAP1 PUSH2 0x1AC5 JUMP JUMPDEST SWAP3 POP POP DUP2 SWAP1 SSTORE POP DUP2 PUSH20 0xFFFFFFFFFFFFFFFFFFFFFFFFFFFFFFFFFFFFFFFF AND PUSH1 0x0 PUSH20 0xFFFFFFFFFFFFFFFFFFFFFFFFFFFFFFFFFFFFFFFF AND PUSH32 0xDDF252AD1BE2C89B69C2B068FC378DAA952BA7F163C4A11628F55A4DF523B3EF DUP4 PUSH1 0x40 MLOAD PUSH2 0x12B7 SWAP2 SWAP1 PUSH2 0x183B JUMP JUMPDEST PUSH1 0x40 MLOAD DUP1 SWAP2 SUB SWAP1 LOG3 PUSH2 0x12CB PUSH1 0x0 DUP4 DUP4 PUSH2 0x1666 JUMP JUMPDEST POP POP JUMP JUMPDEST PUSH1 0x0 PUSH20 0xFFFFFFFFFFFFFFFFFFFFFFFFFFFFFFFFFFFFFFFF AND DUP3 PUSH20 0xFFFFFFFFFFFFFFFFFFFFFFFFFFFFFFFFFFFFFFFF AND SUB PUSH2 0x133E JUMPI PUSH1 0x40 MLOAD PUSH32 0x8C379A000000000000000000000000000000000000000000000000000000000 DUP2 MSTORE PUSH1 0x4 ADD PUSH2 0x1335 SWAP1 PUSH2 0x213F JUMP JUMPDEST PUSH1 0x40 MLOAD DUP1 SWAP2 SUB SWAP1 REVERT JUMPDEST PUSH2 0x134A DUP3 PUSH1 0x0 DUP4 PUSH2 0x160E JUMP JUMPDEST PUSH1 0x0 DUP1 PUSH1 0x0 DUP5 PUSH20 0xFFFFFFFFFFFFFFFFFFFFFFFFFFFFFFFFFFFFFFFF AND PUSH20 0xFFFFFFFFFFFFFFFFFFFFFFFFFFFFFFFFFFFFFFFF AND DUP2 MSTORE PUSH1 0x20 ADD SWAP1 DUP2 MSTORE PUSH1 0x20 ADD PUSH1 0x0 KECCAK256 SLOAD SWAP1 POP DUP2 DUP2 LT ISZERO PUSH2 0x13D0 JUMPI PUSH1 0x40 MLOAD PUSH32 0x8C379A000000000000000000000000000000000000000000000000000000000 DUP2 MSTORE PUSH1 0x4 ADD PUSH2 0x13C7 SWAP1 PUSH2 0x21D1 JUMP JUMPDEST PUSH1 0x40 MLOAD DUP1 SWAP2 SUB SWAP1 REVERT JUMPDEST DUP2 DUP2 SUB PUSH1 0x0 DUP1 DUP6 PUSH20 0xFFFFFFFFFFFFFFFFFFFFFFFFFFFFFFFFFFFFFFFF AND PUSH20 0xFFFFFFFFFFFFFFFFFFFFFFFFFFFFFFFFFFFFFFFF AND DUP2 MSTORE PUSH1 0x20 ADD SWAP1 DUP2 MSTORE PUSH1 0x20 ADD PUSH1 0x0 KECCAK256 DUP2 SWAP1 SSTORE POP DUP2 PUSH1 0x2 PUSH1 0x0 DUP3 DUP3 SLOAD PUSH2 0x1427 SWAP2 SWAP1 PUSH2 0x21F1 JUMP JUMPDEST SWAP3 POP POP DUP2 SWAP1 SSTORE POP PUSH1 0x0 PUSH20 0xFFFFFFFFFFFFFFFFFFFFFFFFFFFFFFFFFFFFFFFF AND DUP4 PUSH20 0xFFFFFFFFFFFFFFFFFFFFFFFFFFFFFFFFFFFFFFFF AND PUSH32 0xDDF252AD1BE2C89B69C2B068FC378DAA952BA7F163C4A11628F55A4DF523B3EF DUP5 PUSH1 0x40 MLOAD PUSH2 0x148C SWAP2 SWAP1 PUSH2 0x183B JUMP JUMPDEST PUSH1 0x40 MLOAD DUP1 SWAP2 SUB SWAP1 LOG3 PUSH2 0x14A0 DUP4 PUSH1 0x0 DUP5 PUSH2 0x1666 JUMP JUMPDEST POP POP POP JUMP JUMPDEST PUSH1 0x0 PUSH1 0x5 PUSH1 0x1 SWAP1 SLOAD SWAP1 PUSH2 0x100 EXP SWAP1 DIV PUSH20 0xFFFFFFFFFFFFFFFFFFFFFFFFFFFFFFFFFFFFFFFF AND SWAP1 POP DUP2 PUSH1 0x5 PUSH1 0x1 PUSH2 0x100 EXP DUP2 SLOAD DUP2 PUSH20 0xFFFFFFFFFFFFFFFFFFFFFFFFFFFFFFFFFFFFFFFF MUL NOT AND SWAP1 DUP4 PUSH20 0xFFFFFFFFFFFFFFFFFFFFFFFFFFFFFFFFFFFFFFFF AND MUL OR SWAP1 SSTORE POP DUP2 PUSH20 0xFFFFFFFFFFFFFFFFFFFFFFFFFFFFFFFFFFFFFFFF AND DUP2 PUSH20 0xFFFFFFFFFFFFFFFFFFFFFFFFFFFFFFFFFFFFFFFF AND PUSH32 0x8BE0079C531659141344CD1FD0A4F28419497F9722A3DAAFE3B4186F6B6457E0 PUSH1 0x40 MLOAD PUSH1 0x40 MLOAD DUP1 SWAP2 SUB SWAP1 LOG3 POP POP JUMP JUMPDEST PUSH2 0x1573 PUSH2 0x74E JUMP JUMPDEST ISZERO PUSH2 0x15B3 JUMPI PUSH1 0x40 MLOAD PUSH32 0x8C379A000000000000000000000000000000000000000000000000000000000 DUP2 MSTORE PUSH1 0x4 ADD PUSH2 0x15AA SWAP1 PUSH2 0x2271 JUMP JUMPDEST PUSH1 0x40 MLOAD DUP1 SWAP2 SUB SWAP1 REVERT JUMPDEST PUSH1 0x1 PUSH1 0x5 PUSH1 0x0 PUSH2 0x100 EXP DUP2 SLOAD DUP2 PUSH1 0xFF MUL NOT AND SWAP1 DUP4 ISZERO ISZERO MUL OR SWAP1 SSTORE POP PUSH32 0x62E78CEA01BEE320CD4E420270B5EA74000D11B0C9F74754EBDBFC544B05A258 PUSH2 0x15F7 PUSH2 0xC7E JUMP JUMPDEST PUSH1 0x40 MLOAD PUSH2 0x1604 SWAP2 SWAP1 PUSH2 0x1949 JUMP JUMPDEST PUSH1 0x40 MLOAD DUP1 SWAP2 SUB SWAP1 LOG1 JUMP JUMPDEST PUSH2 0x1616 PUSH2 0x74E JUMP JUMPDEST ISZERO PUSH2 0x1656 JUMPI PUSH1 0x40 MLOAD PUSH32 0x8C379A000000000000000000000000000000000000000000000000000000000 DUP2 MSTORE PUSH1 0x4 ADD PUSH2 0x164D SWAP1 PUSH2 0x2271 JUMP JUMPDEST PUSH1 0x40 MLOAD DUP1 SWAP2 SUB SWAP1 REVERT JUMPDEST PUSH2 0x1661 DUP4 DUP4 DUP4 PUSH2 0xC79 JUMP JUMPDEST POP POP POP JUMP JUMPDEST POP POP POP JUMP JUMPDEST PUSH1 0x0 DUP2 MLOAD SWAP1 POP SWAP2 SWAP1 POP JUMP JUMPDEST PUSH1 0x0 DUP3 DUP3 MSTORE PUSH1 0x20 DUP3 ADD SWAP1 POP SWAP3 SWAP2 POP POP JUMP JUMPDEST PUSH1 0x0 JUMPDEST DUP4 DUP2 LT ISZERO PUSH2 0x16A5 JUMPI DUP1 DUP3 ADD MLOAD DUP2 DUP5 ADD MSTORE PUSH1 0x20 DUP2 ADD SWAP1 POP PUSH2 0x168A JUMP JUMPDEST PUSH1 0x0 DUP5 DUP5 ADD MSTORE POP POP POP POP JUMP JUMPDEST PUSH1 0x0 PUSH1 0x1F NOT PUSH1 0x1F DUP4 ADD AND SWAP1 POP SWAP2 SWAP1 POP JUMP JUMPDEST PUSH1 0x0 PUSH2 0x16CD DUP3 PUSH2 0x166B JUMP JUMPDEST PUSH2 0x16D7 DUP2 DUP6 PUSH2 0x1676 JUMP JUMPDEST SWAP4 POP PUSH2 0x16E7 DUP2 DUP6 PUSH1 0x20 DUP7 ADD PUSH2 0x1687 JUMP JUMPDEST PUSH2 0x16F0 DUP2 PUSH2 0x16B1 JUMP JUMPDEST DUP5 ADD SWAP2 POP POP SWAP3 SWAP2 POP POP JUMP JUMPDEST PUSH1 0x0 PUSH1 0x20 DUP3 ADD SWAP1 POP DUP2 DUP2 SUB PUSH1 0x0 DUP4 ADD MSTORE PUSH2 0x1715 DUP2 DUP5 PUSH2 0x16C2 JUMP JUMPDEST SWAP1 POP SWAP3 SWAP2 POP POP JUMP JUMPDEST PUSH1 0x0 DUP1 REVERT JUMPDEST PUSH1 0x0 PUSH20 0xFFFFFFFFFFFFFFFFFFFFFFFFFFFFFFFFFFFFFFFF DUP3 AND SWAP1 POP SWAP2 SWAP1 POP JUMP JUMPDEST PUSH1 0x0 PUSH2 0x174D DUP3 PUSH2 0x1722 JUMP JUMPDEST SWAP1 POP SWAP2 SWAP1 POP JUMP JUMPDEST PUSH2 0x175D DUP2 PUSH2 0x1742 JUMP JUMPDEST DUP2 EQ PUSH2 0x1768 JUMPI PUSH1 0x0 DUP1 REVERT JUMPDEST POP JUMP JUMPDEST PUSH1 0x0 DUP2 CALLDATALOAD SWAP1 POP PUSH2 0x177A DUP2 PUSH2 0x1754 JUMP JUMPDEST SWAP3 SWAP2 POP POP JUMP JUMPDEST PUSH1 0x0 DUP2 SWAP1 POP SWAP2 SWAP1 POP JUMP JUMPDEST PUSH2 0x1793 DUP2 PUSH2 0x1780 JUMP JUMPDEST DUP2 EQ PUSH2 0x179E JUMPI PUSH1 0x0 DUP1 REVERT JUMPDEST POP JUMP JUMPDEST PUSH1 0x0 DUP2 CALLDATALOAD SWAP1 POP PUSH2 0x17B0 DUP2 PUSH2 0x178A JUMP JUMPDEST SWAP3 SWAP2 POP POP JUMP JUMPDEST PUSH1 0x0 DUP1 PUSH1 0x40 DUP4 DUP6 SUB SLT ISZERO PUSH2 0x17CD JUMPI PUSH2 0x17CC PUSH2 0x171D JUMP JUMPDEST JUMPDEST PUSH1 0x0 PUSH2 0x17DB DUP6 DUP3 DUP7 ADD PUSH2 0x176B JUMP JUMPDEST SWAP3 POP POP PUSH1 0x20 PUSH2 0x17EC DUP6 DUP3 DUP7 ADD PUSH2 0x17A1 JUMP JUMPDEST SWAP2 POP POP SWAP3 POP SWAP3 SWAP1 POP JUMP JUMPDEST PUSH1 0x0 DUP2 ISZERO ISZERO SWAP1 POP SWAP2 SWAP1 POP JUMP JUMPDEST PUSH2 0x180B DUP2 PUSH2 0x17F6 JUMP JUMPDEST DUP3 MSTORE POP POP JUMP JUMPDEST PUSH1 0x0 PUSH1 0x20 DUP3 ADD SWAP1 POP PUSH2 0x1826 PUSH1 0x0 DUP4 ADD DUP5 PUSH2 0x1802 JUMP JUMPDEST SWAP3 SWAP2 POP POP JUMP JUMPDEST PUSH2 0x1835 DUP2 PUSH2 0x1780 JUMP JUMPDEST DUP3 MSTORE POP POP JUMP JUMPDEST PUSH1 0x0 PUSH1 0x20 DUP3 ADD SWAP1 POP PUSH2 0x1850 PUSH1 0x0 DUP4 ADD DUP5 PUSH2 0x182C JUMP JUMPDEST SWAP3 SWAP2 POP POP JUMP JUMPDEST PUSH1 0x0 DUP1 PUSH1 0x0 PUSH1 0x60 DUP5 DUP7 SUB SLT ISZERO PUSH2 0x186F JUMPI PUSH2 0x186E PUSH2 0x171D JUMP JUMPDEST JUMPDEST PUSH1 0x0 PUSH2 0x187D DUP7 DUP3 DUP8 ADD PUSH2 0x176B JUMP JUMPDEST SWAP4 POP POP PUSH1 0x20 PUSH2 0x188E DUP7 DUP3 DUP8 ADD PUSH2 0x176B JUMP JUMPDEST SWAP3 POP POP PUSH1 0x40 PUSH2 0x189F DUP7 DUP3 DUP8 ADD PUSH2 0x17A1 JUMP JUMPDEST SWAP2 POP POP SWAP3 POP SWAP3 POP SWAP3 JUMP JUMPDEST PUSH1 0x0 PUSH1 0xFF DUP3 AND SWAP1 POP SWAP2 SWAP1 POP JUMP JUMPDEST PUSH2 0x18BF DUP2 PUSH2 0x18A9 JUMP JUMPDEST DUP3 MSTORE POP POP JUMP JUMPDEST PUSH1 0x0 PUSH1 0x20 DUP3 ADD SWAP1 POP PUSH2 0x18DA PUSH1 0x0 DUP4 ADD DUP5 PUSH2 0x18B6 JUMP JUMPDEST SWAP3 SWAP2 POP POP JUMP JUMPDEST PUSH1 0x0 PUSH1 0x20 DUP3 DUP5 SUB SLT ISZERO PUSH2 0x18F6 JUMPI PUSH2 0x18F5 PUSH2 0x171D JUMP JUMPDEST JUMPDEST PUSH1 0x0 PUSH2 0x1904 DUP5 DUP3 DUP6 ADD PUSH2 0x17A1 JUMP JUMPDEST SWAP2 POP POP SWAP3 SWAP2 POP POP JUMP JUMPDEST PUSH1 0x0 PUSH1 0x20 DUP3 DUP5 SUB SLT ISZERO PUSH2 0x1923 JUMPI PUSH2 0x1922 PUSH2 0x171D JUMP JUMPDEST JUMPDEST PUSH1 0x0 PUSH2 0x1931 DUP5 DUP3 DUP6 ADD PUSH2 0x176B JUMP JUMPDEST SWAP2 POP POP SWAP3 SWAP2 POP POP JUMP JUMPDEST PUSH2 0x1943 DUP2 PUSH2 0x1742 JUMP JUMPDEST DUP3 MSTORE POP POP JUMP JUMPDEST PUSH1 0x0 PUSH1 0x20 DUP3 ADD SWAP1 POP PUSH2 0x195E PUSH1 0x0 DUP4 ADD DUP5 PUSH2 0x193A JUMP JUMPDEST SWAP3 SWAP2 POP POP JUMP JUMPDEST PUSH1 0x0 DUP1 PUSH1 0x40 DUP4 DUP6 SUB SLT ISZERO PUSH2 0x197B JUMPI PUSH2 0x197A PUSH2 0x171D JUMP JUMPDEST JUMPDEST PUSH1 0x0 PUSH2 0x1989 DUP6 DUP3 DUP7 ADD PUSH2 0x176B JUMP JUMPDEST SWAP3 POP POP PUSH1 0x20 PUSH2 0x199A DUP6 DUP3 DUP7 ADD PUSH2 0x176B JUMP JUMPDEST SWAP2 POP POP SWAP3 POP SWAP3 SWAP1 POP JUMP JUMPDEST PUSH32 0x4E487B7100000000000000000000000000000000000000000000000000000000 PUSH1 0x0 MSTORE PUSH1 0x22 PUSH1 0x4 MSTORE PUSH1 0x24 PUSH1 0x0 REVERT JUMPDEST PUSH1 0x0 PUSH1 0x2 DUP3 DIV SWAP1 POP PUSH1 0x1 DUP3 AND DUP1 PUSH2 0x19EB JUMPI PUSH1 0x7F DUP3 AND SWAP2 POP JUMPDEST PUSH1 0x20 DUP3 LT DUP2 SUB PUSH2 0x19FE JUMPI PUSH2 0x19FD PUSH2 0x19A4 JUMP JUMPDEST JUMPDEST POP SWAP2 SWAP1 POP JUMP JUMPDEST PUSH32 0x45524332303A207472616E7366657220616D6F756E7420657863656564732061 PUSH1 0x0 DUP3 ADD MSTORE PUSH32 0x6C6C6F77616E6365000000000000000000000000000000000000000000000000 PUSH1 0x20 DUP3 ADD MSTORE POP JUMP JUMPDEST PUSH1 0x0 PUSH2 0x1A60 PUSH1 0x28 DUP4 PUSH2 0x1676 JUMP JUMPDEST SWAP2 POP PUSH2 0x1A6B DUP3 PUSH2 0x1A04 JUMP JUMPDEST PUSH1 0x40 DUP3 ADD SWAP1 POP SWAP2 SWAP1 POP JUMP JUMPDEST PUSH1 0x0 PUSH1 0x20 DUP3 ADD SWAP1 POP DUP2 DUP2 SUB PUSH1 0x0 DUP4 ADD MSTORE PUSH2 0x1A8F DUP2 PUSH2 0x1A53 JUMP JUMPDEST SWAP1 POP SWAP2 SWAP1 POP JUMP JUMPDEST PUSH32 0x4E487B7100000000000000000000000000000000000000000000000000000000 PUSH1 0x0 MSTORE PUSH1 0x11 PUSH1 0x4 MSTORE PUSH1 0x24 PUSH1 0x0 REVERT JUMPDEST PUSH1 0x0 PUSH2 0x1AD0 DUP3 PUSH2 0x1780 JUMP JUMPDEST SWAP2 POP PUSH2 0x1ADB DUP4 PUSH2 0x1780 JUMP JUMPDEST SWAP3 POP DUP3 DUP3 ADD SWAP1 POP DUP1 DUP3 GT ISZERO PUSH2 0x1AF3 JUMPI PUSH2 0x1AF2 PUSH2 0x1A96 JUMP JUMPDEST JUMPDEST SWAP3 SWAP2 POP POP JUMP JUMPDEST PUSH32 0x4F776E61626C653A2063616C6C6572206973206E6F7420746865206F776E6572 PUSH1 0x0 DUP3 ADD MSTORE POP JUMP JUMPDEST PUSH1 0x0 PUSH2 0x1B2F PUSH1 0x20 DUP4 PUSH2 0x1676 JUMP JUMPDEST SWAP2 POP PUSH2 0x1B3A DUP3 PUSH2 0x1AF9 JUMP JUMPDEST PUSH1 0x20 DUP3 ADD SWAP1 POP SWAP2 SWAP1 POP JUMP JUMPDEST PUSH1 0x0 PUSH1 0x20 DUP3 ADD SWAP1 POP DUP2 DUP2 SUB PUSH1 0x0 DUP4 ADD MSTORE PUSH2 0x1B5E DUP2 PUSH2 0x1B22 JUMP JUMPDEST SWAP1 POP SWAP2 SWAP1 POP JUMP JUMPDEST PUSH32 0x45524332303A206275726E20616D6F756E74206578636565647320616C6C6F77 PUSH1 0x0 DUP3 ADD MSTORE PUSH32 0x616E636500000000000000000000000000000000000000000000000000000000 PUSH1 0x20 DUP3 ADD MSTORE POP JUMP JUMPDEST PUSH1 0x0 PUSH2 0x1BC1 PUSH1 0x24 DUP4 PUSH2 0x1676 JUMP JUMPDEST SWAP2 POP PUSH2 0x1BCC DUP3 PUSH2 0x1B65 JUMP JUMPDEST PUSH1 0x40 DUP3 ADD SWAP1 POP SWAP2 SWAP1 POP JUMP JUMPDEST PUSH1 0x0 PUSH1 0x20 DUP3 ADD SWAP1 POP DUP2 DUP2 SUB PUSH1 0x0 DUP4 ADD MSTORE PUSH2 0x1BF0 DUP2 PUSH2 0x1BB4 JUMP JUMPDEST SWAP1 POP SWAP2 SWAP1 POP JUMP JUMPDEST PUSH32 0x45524332303A2064656372656173656420616C6C6F77616E63652062656C6F77 PUSH1 0x0 DUP3 ADD MSTORE PUSH32 0x207A65726F000000000000000000000000000000000000000000000000000000 PUSH1 0x20 DUP3 ADD MSTORE POP JUMP JUMPDEST PUSH1 0x0 PUSH2 0x1C53 PUSH1 0x25 DUP4 PUSH2 0x1676 JUMP JUMPDEST SWAP2 POP PUSH2 0x1C5E DUP3 PUSH2 0x1BF7 JUMP JUMPDEST PUSH1 0x40 DUP3 ADD SWAP1 POP SWAP2 SWAP1 POP JUMP JUMPDEST PUSH1 0x0 PUSH1 0x20 DUP3 ADD SWAP1 POP DUP2 DUP2 SUB PUSH1 0x0 DUP4 ADD MSTORE PUSH2 0x1C82 DUP2 PUSH2 0x1C46 JUMP JUMPDEST SWAP1 POP SWAP2 SWAP1 POP JUMP JUMPDEST PUSH32 0x4F776E61626C653A206E6577206F776E657220697320746865207A65726F2061 PUSH1 0x0 DUP3 ADD MSTORE PUSH32 0x6464726573730000000000000000000000000000000000000000000000000000 PUSH1 0x20 DUP3 ADD MSTORE POP JUMP JUMPDEST PUSH1 0x0 PUSH2 0x1CE5 PUSH1 0x26 DUP4 PUSH2 0x1676 JUMP JUMPDEST SWAP2 POP PUSH2 0x1CF0 DUP3 PUSH2 0x1C89 JUMP JUMPDEST PUSH1 0x40 DUP3 ADD SWAP1 POP SWAP2 SWAP1 POP JUMP JUMPDEST PUSH1 0x0 PUSH1 0x20 DUP3 ADD SWAP1 POP DUP2 DUP2 SUB PUSH1 0x0 DUP4 ADD MSTORE PUSH2 0x1D14 DUP2 PUSH2 0x1CD8 JUMP JUMPDEST SWAP1 POP SWAP2 SWAP1 POP JUMP JUMPDEST PUSH32 0x45524332303A20617070726F76652066726F6D20746865207A65726F20616464 PUSH1 0x0 DUP3 ADD MSTORE PUSH32 0x7265737300000000000000000000000000000000000000000000000000000000 PUSH1 0x20 DUP3 ADD MSTORE POP JUMP JUMPDEST PUSH1 0x0 PUSH2 0x1D77 PUSH1 0x24 DUP4 PUSH2 0x1676 JUMP JUMPDEST SWAP2 POP PUSH2 0x1D82 DUP3 PUSH2 0x1D1B JUMP JUMPDEST PUSH1 0x40 DUP3 ADD SWAP1 POP SWAP2 SWAP1 POP JUMP JUMPDEST PUSH1 0x0 PUSH1 0x20 DUP3 ADD SWAP1 POP DUP2 DUP2 SUB PUSH1 0x0 DUP4 ADD MSTORE PUSH2 0x1DA6 DUP2 PUSH2 0x1D6A JUMP JUMPDEST SWAP1 POP SWAP2 SWAP1 POP JUMP JUMPDEST PUSH32 0x45524332303A20617070726F766520746F20746865207A65726F206164647265 PUSH1 0x0 DUP3 ADD MSTORE PUSH32 0x7373000000000000000000000000000000000000000000000000000000000000 PUSH1 0x20 DUP3 ADD MSTORE POP JUMP JUMPDEST PUSH1 0x0 PUSH2 0x1E09 PUSH1 0x22 DUP4 PUSH2 0x1676 JUMP JUMPDEST SWAP2 POP PUSH2 0x1E14 DUP3 PUSH2 0x1DAD JUMP JUMPDEST PUSH1 0x40 DUP3 ADD SWAP1 POP SWAP2 SWAP1 POP JUMP JUMPDEST PUSH1 0x0 PUSH1 0x20 DUP3 ADD SWAP1 POP DUP2 DUP2 SUB PUSH1 0x0 DUP4 ADD MSTORE PUSH2 0x1E38 DUP2 PUSH2 0x1DFC JUMP JUMPDEST SWAP1 POP SWAP2 SWAP1 POP JUMP JUMPDEST PUSH32 0x45524332303A207472616E736665722066726F6D20746865207A65726F206164 PUSH1 0x0 DUP3 ADD MSTORE PUSH32 0x6472657373000000000000000000000000000000000000000000000000000000 PUSH1 0x20 DUP3 ADD MSTORE POP JUMP JUMPDEST PUSH1 0x0 PUSH2 0x1E9B PUSH1 0x25 DUP4 PUSH2 0x1676 JUMP JUMPDEST SWAP2 POP PUSH2 0x1EA6 DUP3 PUSH2 0x1E3F JUMP JUMPDEST PUSH1 0x40 DUP3 ADD SWAP1 POP SWAP2 SWAP1 POP JUMP JUMPDEST PUSH1 0x0 PUSH1 0x20 DUP3 ADD SWAP1 POP DUP2 DUP2 SUB PUSH1 0x0 DUP4 ADD MSTORE PUSH2 0x1ECA DUP2 PUSH2 0x1E8E JUMP JUMPDEST SWAP1 POP SWAP2 SWAP1 POP JUMP JUMPDEST PUSH32 0x45524332303A207472616E7366657220746F20746865207A65726F2061646472 PUSH1 0x0 DUP3 ADD MSTORE PUSH32 0x6573730000000000000000000000000000000000000000000000000000000000 PUSH1 0x20 DUP3 ADD MSTORE POP JUMP JUMPDEST PUSH1 0x0 PUSH2 0x1F2D PUSH1 0x23 DUP4 PUSH2 0x1676 JUMP JUMPDEST SWAP2 POP PUSH2 0x1F38 DUP3 PUSH2 0x1ED1 JUMP JUMPDEST PUSH1 0x40 DUP3 ADD SWAP1 POP SWAP2 SWAP1 POP JUMP JUMPDEST PUSH1 0x0 PUSH1 0x20 DUP3 ADD SWAP1 POP DUP2 DUP2 SUB PUSH1 0x0 DUP4 ADD MSTORE PUSH2 0x1F5C DUP2 PUSH2 0x1F20 JUMP JUMPDEST SWAP1 POP SWAP2 SWAP1 POP JUMP JUMPDEST PUSH32 0x45524332303A207472616E7366657220616D6F756E7420657863656564732062 PUSH1 0x0 DUP3 ADD MSTORE PUSH32 0x616C616E63650000000000000000000000000000000000000000000000000000 PUSH1 0x20 DUP3 ADD MSTORE POP JUMP JUMPDEST PUSH1 0x0 PUSH2 0x1FBF PUSH1 0x26 DUP4 PUSH2 0x1676 JUMP JUMPDEST SWAP2 POP PUSH2 0x1FCA DUP3 PUSH2 0x1F63 JUMP JUMPDEST PUSH1 0x40 DUP3 ADD SWAP1 POP SWAP2 SWAP1 POP JUMP JUMPDEST PUSH1 0x0 PUSH1 0x20 DUP3 ADD SWAP1 POP DUP2 DUP2 SUB PUSH1 0x0 DUP4 ADD MSTORE PUSH2 0x1FEE DUP2 PUSH2 0x1FB2 JUMP JUMPDEST SWAP1 POP SWAP2 SWAP1 POP JUMP JUMPDEST PUSH32 0x5061757361626C653A206E6F7420706175736564000000000000000000000000 PUSH1 0x0 DUP3 ADD MSTORE POP JUMP JUMPDEST PUSH1 0x0 PUSH2 0x202B PUSH1 0x14 DUP4 PUSH2 0x1676 JUMP JUMPDEST SWAP2 POP PUSH2 0x2036 DUP3 PUSH2 0x1FF5 JUMP JUMPDEST PUSH1 0x20 DUP3 ADD SWAP1 POP SWAP2 SWAP1 POP JUMP JUMPDEST PUSH1 0x0 PUSH1 0x20 DUP3 ADD SWAP1 POP DUP2 DUP2 SUB PUSH1 0x0 DUP4 ADD MSTORE PUSH2 0x205A DUP2 PUSH2 0x201E JUMP JUMPDEST SWAP1 POP SWAP2 SWAP1 POP JUMP JUMPDEST PUSH32 0x45524332303A206D696E7420746F20746865207A65726F206164647265737300 PUSH1 0x0 DUP3 ADD MSTORE POP JUMP JUMPDEST PUSH1 0x0 PUSH2 0x2097 PUSH1 0x1F DUP4 PUSH2 0x1676 JUMP JUMPDEST SWAP2 POP PUSH2 0x20A2 DUP3 PUSH2 0x2061 JUMP JUMPDEST PUSH1 0x20 DUP3 ADD SWAP1 POP SWAP2 SWAP1 POP JUMP JUMPDEST PUSH1 0x0 PUSH1 0x20 DUP3 ADD SWAP1 POP DUP2 DUP2 SUB PUSH1 0x0 DUP4 ADD MSTORE PUSH2 0x20C6 DUP2 PUSH2 0x208A JUMP JUMPDEST SWAP1 POP SWAP2 SWAP1 POP JUMP JUMPDEST PUSH32 0x45524332303A206275726E2066726F6D20746865207A65726F20616464726573 PUSH1 0x0 DUP3 ADD MSTORE PUSH32 0x7300000000000000000000000000000000000000000000000000000000000000 PUSH1 0x20 DUP3 ADD MSTORE POP JUMP JUMPDEST PUSH1 0x0 PUSH2 0x2129 PUSH1 0x21 DUP4 PUSH2 0x1676 JUMP JUMPDEST SWAP2 POP PUSH2 0x2134 DUP3 PUSH2 0x20CD JUMP JUMPDEST PUSH1 0x40 DUP3 ADD SWAP1 POP SWAP2 SWAP1 POP JUMP JUMPDEST PUSH1 0x0 PUSH1 0x20 DUP3 ADD SWAP1 POP DUP2 DUP2 SUB PUSH1 0x0 DUP4 ADD MSTORE PUSH2 0x2158 DUP2 PUSH2 0x211C JUMP JUMPDEST SWAP1 POP SWAP2 SWAP1 POP JUMP JUMPDEST PUSH32 0x45524332303A206275726E20616D6F756E7420657863656564732062616C616E PUSH1 0x0 DUP3 ADD MSTORE PUSH32 0x6365000000000000000000000000000000000000000000000000000000000000 PUSH1 0x20 DUP3 ADD MSTORE POP JUMP JUMPDEST PUSH1 0x0 PUSH2 0x21BB PUSH1 0x22 DUP4 PUSH2 0x1676 JUMP JUMPDEST SWAP2 POP PUSH2 0x21C6 DUP3 PUSH2 0x215F JUMP JUMPDEST PUSH1 0x40 DUP3 ADD SWAP1 POP SWAP2 SWAP1 POP JUMP JUMPDEST PUSH1 0x0 PUSH1 0x20 DUP3 ADD SWAP1 POP DUP2 DUP2 SUB PUSH1 0x0 DUP4 ADD MSTORE PUSH2 0x21EA DUP2 PUSH2 0x21AE JUMP JUMPDEST SWAP1 POP SWAP2 SWAP1 POP JUMP JUMPDEST PUSH1 0x0 PUSH2 0x21FC DUP3 PUSH2 0x1780 JUMP JUMPDEST SWAP2 POP PUSH2 0x2207 DUP4 PUSH2 0x1780 JUMP JUMPDEST SWAP3 POP DUP3 DUP3 SUB SWAP1 POP DUP2 DUP2 GT ISZERO PUSH2 0x221F JUMPI PUSH2 0x221E PUSH2 0x1A96 JUMP JUMPDEST JUMPDEST SWAP3 SWAP2 POP POP JUMP JUMPDEST PUSH32 0x5061757361626C653A2070617573656400000000000000000000000000000000 PUSH1 0x0 DUP3 ADD MSTORE POP JUMP JUMPDEST PUSH1 0x0 PUSH2 0x225B PUSH1 0x10 DUP4 PUSH2 0x1676 JUMP JUMPDEST SWAP2 POP PUSH2 0x2266 DUP3 PUSH2 0x2225 JUMP JUMPDEST PUSH1 0x20 DUP3 ADD SWAP1 POP SWAP2 SWAP1 POP JUMP JUMPDEST PUSH1 0x0 PUSH1 0x20 DUP3 ADD SWAP1 POP DUP2 DUP2 SUB PUSH1 0x0 DUP4 ADD MSTORE PUSH2 0x228A DUP2 PUSH2 0x224E JUMP JUMPDEST SWAP1 POP SWAP2 SWAP1 POP JUMP INVALID LOG2 PUSH5 0x6970667358 0x22 SLT KECCAK256 PUSH2 0x7816 PUSH2 0xEB33 SWAP14 JUMPI LOG3 0xFB 0x49 RETURNDATASIZE 0xDA LOG2 LOG3 PUSH31 0x63147BD0AD2DFE012EB8D3A17D77A4D264736F6C6343000812003300000000 "
				},
				"gasEstimates": {
					"creation": {
						"codeDepositCost": "1780600",
						"executionCost": "infinite",
						"totalCost": "infinite"
					},
					"external": {
						"allowance(address,address)": "infinite",
						"approve(address,uint256)": "infinite",
						"balanceOf(address)": "2864",
						"burn(uint256)": "infinite",
						"burnFrom(address,uint256)": "infinite",
						"decimals()": "455",
						"decreaseAllowance(address,uint256)": "infinite",
						"increaseAllowance(address,uint256)": "infinite",
						"mint(address,uint256)": "infinite",
						"name()": "infinite",
						"owner()": "2683",
						"pause()": "infinite",
						"paused()": "2590",
						"renounceOwnership()": "30569",
						"symbol()": "infinite",
						"totalSupply()": "2505",
						"transfer(address,uint256)": "infinite",
						"transferFrom(address,address,uint256)": "infinite",
						"transferOwnership(address)": "30980",
						"unpause()": "infinite"
					},
					"internal": {
						"_beforeTokenTransfer(address,address,uint256)": "infinite"
					}
				},
				"methodIdentifiers": {
					"allowance(address,address)": "dd62ed3e",
					"approve(address,uint256)": "095ea7b3",
					"balanceOf(address)": "70a08231",
					"burn(uint256)": "42966c68",
					"burnFrom(address,uint256)": "79cc6790",
					"decimals()": "313ce567",
					"decreaseAllowance(address,uint256)": "a457c2d7",
					"increaseAllowance(address,uint256)": "39509351",
					"mint(address,uint256)": "40c10f19",
					"name()": "06fdde03",
					"owner()": "8da5cb5b",
					"pause()": "8456cb59",
					"paused()": "5c975abb",
					"renounceOwnership()": "715018a6",
					"symbol()": "95d89b41",
					"totalSupply()": "18160ddd",
					"transfer(address,uint256)": "a9059cbb",
					"transferFrom(address,address,uint256)": "23b872dd",
					"transferOwnership(address)": "f2fde38b",
					"unpause()": "3f4ba83a"
				}
			},
			"storageLayout": {
				"storage": [
					{
						"astId": 300,
						"contract": ".learneth/Solidity ERC20 Token Course/6. Extensions/er20extensions.sol:EduCoin",
						"label": "_balances",
						"offset": 0,
						"slot": "0",
						"type": "t_mapping(t_address,t_uint256)"
					},
					{
						"astId": 306,
						"contract": ".learneth/Solidity ERC20 Token Course/6. Extensions/er20extensions.sol:EduCoin",
						"label": "_allowances",
						"offset": 0,
						"slot": "1",
						"type": "t_mapping(t_address,t_mapping(t_address,t_uint256))"
					},
					{
						"astId": 308,
						"contract": ".learneth/Solidity ERC20 Token Course/6. Extensions/er20extensions.sol:EduCoin",
						"label": "_totalSupply",
						"offset": 0,
						"slot": "2",
						"type": "t_uint256"
					},
					{
						"astId": 310,
						"contract": ".learneth/Solidity ERC20 Token Course/6. Extensions/er20extensions.sol:EduCoin",
						"label": "_name",
						"offset": 0,
						"slot": "3",
						"type": "t_string_storage"
					},
					{
						"astId": 312,
						"contract": ".learneth/Solidity ERC20 Token Course/6. Extensions/er20extensions.sol:EduCoin",
						"label": "_symbol",
						"offset": 0,
						"slot": "4",
						"type": "t_string_storage"
					},
					{
						"astId": 210,
						"contract": ".learneth/Solidity ERC20 Token Course/6. Extensions/er20extensions.sol:EduCoin",
						"label": "_paused",
						"offset": 0,
						"slot": "5",
						"type": "t_bool"
					},
					{
						"astId": 95,
						"contract": ".learneth/Solidity ERC20 Token Course/6. Extensions/er20extensions.sol:EduCoin",
						"label": "_owner",
						"offset": 1,
						"slot": "5",
						"type": "t_address"
					}
				],
				"types": {
					"t_address": {
						"encoding": "inplace",
						"label": "address",
						"numberOfBytes": "20"
					},
					"t_bool": {
						"encoding": "inplace",
						"label": "bool",
						"numberOfBytes": "1"
					},
					"t_mapping(t_address,t_mapping(t_address,t_uint256))": {
						"encoding": "mapping",
						"key": "t_address",
						"label": "mapping(address => mapping(address => uint256))",
						"numberOfBytes": "32",
						"value": "t_mapping(t_address,t_uint256)"
					},
					"t_mapping(t_address,t_uint256)": {
						"encoding": "mapping",
						"key": "t_address",
						"label": "mapping(address => uint256)",
						"numberOfBytes": "32",
						"value": "t_uint256"
					},
					"t_string_storage": {
						"encoding": "bytes",
						"label": "string",
						"numberOfBytes": "32"
					},
					"t_uint256": {
						"encoding": "inplace",
						"label": "uint256",
						"numberOfBytes": "32"
					}
				}
			},
			"userdoc": {
				"kind": "user",
				"methods": {},
				"version": 1
			}
		}
	}
}